{
  "_format": "hh-sol-artifact-1",
  "contractName": "SubscriptionManager",
  "sourceName": "contracts/SubscriptionManager.sol",
  "abi": [
    {
      "inputs": [
        {
          "internalType": "address",
          "name": "_dripCore",
          "type": "address"
        },
        {
          "internalType": "address",
          "name": "_platformFeeRecipient",
          "type": "address"
        }
      ],
      "stateMutability": "nonpayable",
      "type": "constructor"
    },
    {
      "inputs": [
        {
          "internalType": "address",
          "name": "owner",
          "type": "address"
        }
      ],
      "name": "OwnableInvalidOwner",
      "type": "error"
    },
    {
      "inputs": [
        {
          "internalType": "address",
          "name": "account",
          "type": "address"
        }
      ],
      "name": "OwnableUnauthorizedAccount",
      "type": "error"
    },
    {
      "inputs": [],
      "name": "ReentrancyGuardReentrantCall",
      "type": "error"
    },
    {
      "anonymous": false,
      "inputs": [
        {
          "indexed": true,
          "internalType": "address",
          "name": "previousOwner",
          "type": "address"
        },
        {
          "indexed": true,
          "internalType": "address",
          "name": "newOwner",
          "type": "address"
        }
      ],
      "name": "OwnershipTransferred",
      "type": "event"
    },
    {
      "anonymous": false,
      "inputs": [
        {
          "indexed": true,
          "internalType": "uint256",
          "name": "subscriptionId",
          "type": "uint256"
        },
        {
          "indexed": true,
          "internalType": "uint256",
          "name": "paymentId",
          "type": "uint256"
        },
        {
          "indexed": true,
          "internalType": "address",
          "name": "recipient",
          "type": "address"
        },
        {
          "indexed": false,
          "internalType": "uint256",
          "name": "amount",
          "type": "uint256"
        },
        {
          "indexed": false,
          "internalType": "uint256",
          "name": "timestamp",
          "type": "uint256"
        }
      ],
      "name": "PaymentExecuted",
      "type": "event"
    },
    {
      "anonymous": false,
      "inputs": [
        {
          "indexed": true,
          "internalType": "uint256",
          "name": "subscriptionId",
          "type": "uint256"
        },
        {
          "indexed": true,
          "internalType": "address",
          "name": "by",
          "type": "address"
        }
      ],
      "name": "SubscriptionCancelled",
      "type": "event"
    },
    {
      "anonymous": false,
      "inputs": [
        {
          "indexed": true,
          "internalType": "uint256",
          "name": "subscriptionId",
          "type": "uint256"
        },
        {
          "indexed": true,
          "internalType": "address",
          "name": "subscriber",
          "type": "address"
        },
        {
          "indexed": true,
          "internalType": "address",
          "name": "recipient",
          "type": "address"
        },
        {
          "indexed": false,
          "internalType": "address",
          "name": "token",
          "type": "address"
        },
        {
          "indexed": false,
          "internalType": "uint256",
          "name": "amount",
          "type": "uint256"
        },
        {
          "indexed": false,
          "internalType": "enum ISubscription.Cadence",
          "name": "cadence",
          "type": "uint8"
        },
        {
          "indexed": false,
          "internalType": "uint256",
          "name": "nextPaymentTime",
          "type": "uint256"
        },
        {
          "indexed": false,
          "internalType": "string",
          "name": "title",
          "type": "string"
        },
        {
          "indexed": false,
          "internalType": "string",
          "name": "description",
          "type": "string"
        }
      ],
      "name": "SubscriptionCreated",
      "type": "event"
    },
    {
      "anonymous": false,
      "inputs": [
        {
          "indexed": true,
          "internalType": "uint256",
          "name": "subscriptionId",
          "type": "uint256"
        },
        {
          "indexed": true,
          "internalType": "address",
          "name": "subscriber",
          "type": "address"
        },
        {
          "indexed": false,
          "internalType": "uint256",
          "name": "amount",
          "type": "uint256"
        },
        {
          "indexed": false,
          "internalType": "uint256",
          "name": "newBalance",
          "type": "uint256"
        }
      ],
      "name": "SubscriptionDeposited",
      "type": "event"
    },
    {
      "anonymous": false,
      "inputs": [
        {
          "indexed": true,
          "internalType": "uint256",
          "name": "subscriptionId",
          "type": "uint256"
        },
        {
          "indexed": false,
          "internalType": "uint256",
          "name": "newAmount",
          "type": "uint256"
        },
        {
          "indexed": false,
          "internalType": "enum ISubscription.Cadence",
          "name": "newCadence",
          "type": "uint8"
        },
        {
          "indexed": false,
          "internalType": "uint256",
          "name": "newInterval",
          "type": "uint256"
        }
      ],
      "name": "SubscriptionModified",
      "type": "event"
    },
    {
      "anonymous": false,
      "inputs": [
        {
          "indexed": true,
          "internalType": "uint256",
          "name": "subscriptionId",
          "type": "uint256"
        },
        {
          "indexed": true,
          "internalType": "address",
          "name": "by",
          "type": "address"
        }
      ],
      "name": "SubscriptionPaused",
      "type": "event"
    },
    {
      "anonymous": false,
      "inputs": [
        {
          "indexed": true,
          "internalType": "uint256",
          "name": "subscriptionId",
          "type": "uint256"
        },
        {
          "indexed": true,
          "internalType": "address",
          "name": "by",
          "type": "address"
        }
      ],
      "name": "SubscriptionResumed",
      "type": "event"
    },
    {
      "inputs": [],
      "name": "MAX_AMOUNT",
      "outputs": [
        {
          "internalType": "uint256",
          "name": "",
          "type": "uint256"
        }
      ],
      "stateMutability": "view",
      "type": "function"
    },
    {
      "inputs": [],
      "name": "MAX_DESCRIPTION_LEN",
      "outputs": [
        {
          "internalType": "uint256",
          "name": "",
          "type": "uint256"
        }
      ],
      "stateMutability": "view",
      "type": "function"
    },
    {
      "inputs": [],
      "name": "MAX_TITLE_LEN",
      "outputs": [
        {
          "internalType": "uint256",
          "name": "",
          "type": "uint256"
        }
      ],
      "stateMutability": "view",
      "type": "function"
    },
    {
      "inputs": [],
      "name": "MIN_AMOUNT",
      "outputs": [
        {
          "internalType": "uint256",
          "name": "",
          "type": "uint256"
        }
      ],
      "stateMutability": "view",
      "type": "function"
    },
    {
      "inputs": [
        {
          "internalType": "uint256",
          "name": "subscriptionId",
          "type": "uint256"
        }
      ],
      "name": "cancelSubscription",
      "outputs": [],
      "stateMutability": "nonpayable",
      "type": "function"
    },
    {
      "inputs": [
        {
          "internalType": "address",
          "name": "recipient",
          "type": "address"
        },
        {
          "internalType": "address",
          "name": "token",
          "type": "address"
        },
        {
          "internalType": "uint256",
          "name": "amount",
          "type": "uint256"
        },
        {
          "internalType": "enum ISubscription.Cadence",
          "name": "cadence",
          "type": "uint8"
        },
        {
          "internalType": "uint256",
          "name": "customInterval",
          "type": "uint256"
        },
        {
          "internalType": "uint256",
          "name": "firstPaymentTime",
          "type": "uint256"
        },
        {
          "internalType": "string",
          "name": "title",
          "type": "string"
        },
        {
          "internalType": "string",
          "name": "description",
          "type": "string"
        }
      ],
      "name": "createSubscription",
      "outputs": [
        {
          "internalType": "uint256",
          "name": "subscriptionId",
          "type": "uint256"
        }
      ],
      "stateMutability": "payable",
      "type": "function"
    },
    {
      "inputs": [
        {
          "internalType": "uint256",
          "name": "subscriptionId",
          "type": "uint256"
        },
        {
          "internalType": "uint256",
          "name": "amount",
          "type": "uint256"
        }
      ],
      "name": "depositToSubscription",
      "outputs": [],
      "stateMutability": "payable",
      "type": "function"
    },
    {
      "inputs": [],
      "name": "dripCore",
      "outputs": [
        {
          "internalType": "contract IDrip",
          "name": "",
          "type": "address"
        }
      ],
      "stateMutability": "view",
      "type": "function"
    },
    {
      "inputs": [
        {
          "internalType": "uint256[]",
          "name": "subscriptionIds",
          "type": "uint256[]"
        }
      ],
      "name": "executeBatchPayments",
      "outputs": [
        {
          "internalType": "uint256",
          "name": "successCount",
          "type": "uint256"
        }
      ],
      "stateMutability": "nonpayable",
      "type": "function"
    },
    {
      "inputs": [
        {
          "internalType": "uint256",
          "name": "subscriptionId",
          "type": "uint256"
        }
      ],
      "name": "executePayment",
      "outputs": [
        {
          "internalType": "bool",
          "name": "success",
          "type": "bool"
        },
        {
          "internalType": "uint256",
          "name": "paymentId",
          "type": "uint256"
        },
        {
          "internalType": "uint256",
          "name": "intervalsPaid",
          "type": "uint256"
        }
      ],
      "stateMutability": "nonpayable",
      "type": "function"
    },
    {
      "inputs": [
        {
          "internalType": "address",
          "name": "token",
          "type": "address"
        }
      ],
      "name": "getContractBalance",
      "outputs": [
        {
          "internalType": "uint256",
          "name": "balance",
          "type": "uint256"
        }
      ],
      "stateMutability": "view",
      "type": "function"
    },
    {
      "inputs": [
        {
          "internalType": "uint256",
          "name": "subscriptionId",
          "type": "uint256"
        },
        {
          "internalType": "uint256",
          "name": "offset",
          "type": "uint256"
        },
        {
          "internalType": "uint256",
          "name": "limit",
          "type": "uint256"
        }
      ],
      "name": "getPaymentHistory",
      "outputs": [
        {
          "components": [
            {
              "internalType": "uint256",
              "name": "paymentId",
              "type": "uint256"
            },
            {
              "internalType": "uint256",
              "name": "subscriptionId",
              "type": "uint256"
            },
            {
              "internalType": "uint256",
              "name": "amount",
              "type": "uint256"
            },
            {
              "internalType": "uint256",
              "name": "timestamp",
              "type": "uint256"
            },
            {
              "internalType": "bool",
              "name": "success",
              "type": "bool"
            }
          ],
          "internalType": "struct ISubscription.PaymentRecord[]",
          "name": "payments",
          "type": "tuple[]"
        },
        {
          "internalType": "uint256",
          "name": "total",
          "type": "uint256"
        }
      ],
      "stateMutability": "view",
      "type": "function"
    },
    {
      "inputs": [
        {
          "internalType": "address",
          "name": "recipient",
          "type": "address"
        }
      ],
      "name": "getRecipientSubscriptions",
      "outputs": [
        {
          "internalType": "uint256[]",
          "name": "subscriptionIds",
          "type": "uint256[]"
        }
      ],
      "stateMutability": "view",
      "type": "function"
    },
    {
      "inputs": [
        {
          "internalType": "address",
          "name": "subscriber",
          "type": "address"
        }
      ],
      "name": "getSubscriberSubscriptions",
      "outputs": [
        {
          "internalType": "uint256[]",
          "name": "subscriptionIds",
          "type": "uint256[]"
        }
      ],
      "stateMutability": "view",
      "type": "function"
    },
    {
      "inputs": [
        {
          "internalType": "uint256",
          "name": "subscriptionId",
          "type": "uint256"
        }
      ],
      "name": "getSubscription",
      "outputs": [
        {
          "components": [
            {
              "internalType": "uint256",
              "name": "subscriptionId",
              "type": "uint256"
            },
            {
              "internalType": "address",
              "name": "subscriber",
              "type": "address"
            },
            {
              "internalType": "address",
              "name": "recipient",
              "type": "address"
            },
            {
              "internalType": "address",
              "name": "token",
              "type": "address"
            },
            {
              "internalType": "uint256",
              "name": "amount",
              "type": "uint256"
            },
            {
              "internalType": "enum ISubscription.Cadence",
              "name": "cadence",
              "type": "uint8"
            },
            {
              "internalType": "uint256",
              "name": "interval",
              "type": "uint256"
            },
            {
              "internalType": "uint256",
              "name": "nextPaymentTime",
              "type": "uint256"
            },
            {
              "internalType": "uint256",
              "name": "lastPaymentTime",
              "type": "uint256"
            },
            {
              "internalType": "uint256",
              "name": "totalPaid",
              "type": "uint256"
            },
            {
              "internalType": "uint256",
              "name": "paymentCount",
              "type": "uint256"
            },
            {
              "internalType": "uint256",
              "name": "balance",
              "type": "uint256"
            },
            {
              "internalType": "enum ISubscription.SubscriptionStatus",
              "name": "status",
              "type": "uint8"
            },
            {
              "internalType": "string",
              "name": "title",
              "type": "string"
            },
            {
              "internalType": "string",
              "name": "description",
              "type": "string"
            }
          ],
          "internalType": "struct ISubscription.Subscription",
          "name": "subscription",
          "type": "tuple"
        }
      ],
      "stateMutability": "view",
      "type": "function"
    },
    {
      "inputs": [
        {
          "internalType": "uint256",
          "name": "subscriptionId",
          "type": "uint256"
        }
      ],
      "name": "getSubscriptionBalance",
      "outputs": [
        {
          "internalType": "uint256",
          "name": "balance",
          "type": "uint256"
        }
      ],
      "stateMutability": "view",
      "type": "function"
    },
    {
      "inputs": [
        {
          "internalType": "address",
          "name": "user",
          "type": "address"
        }
      ],
      "name": "getUserReceivedSubscriptions",
      "outputs": [
        {
          "components": [
            {
              "internalType": "uint256",
              "name": "subscriptionId",
              "type": "uint256"
            },
            {
              "internalType": "address",
              "name": "subscriber",
              "type": "address"
            },
            {
              "internalType": "address",
              "name": "recipient",
              "type": "address"
            },
            {
              "internalType": "address",
              "name": "token",
              "type": "address"
            },
            {
              "internalType": "uint256",
              "name": "amount",
              "type": "uint256"
            },
            {
              "internalType": "enum ISubscription.Cadence",
              "name": "cadence",
              "type": "uint8"
            },
            {
              "internalType": "uint256",
              "name": "interval",
              "type": "uint256"
            },
            {
              "internalType": "uint256",
              "name": "nextPaymentTime",
              "type": "uint256"
            },
            {
              "internalType": "uint256",
              "name": "lastPaymentTime",
              "type": "uint256"
            },
            {
              "internalType": "uint256",
              "name": "totalPaid",
              "type": "uint256"
            },
            {
              "internalType": "uint256",
              "name": "paymentCount",
              "type": "uint256"
            },
            {
              "internalType": "uint256",
              "name": "balance",
              "type": "uint256"
            },
            {
              "internalType": "enum ISubscription.SubscriptionStatus",
              "name": "status",
              "type": "uint8"
            },
            {
              "internalType": "string",
              "name": "title",
              "type": "string"
            },
            {
              "internalType": "string",
              "name": "description",
              "type": "string"
            }
          ],
          "internalType": "struct ISubscription.Subscription[]",
          "name": "subscriptions",
          "type": "tuple[]"
        }
      ],
      "stateMutability": "view",
      "type": "function"
    },
    {
      "inputs": [
        {
          "internalType": "address",
          "name": "user",
          "type": "address"
        }
      ],
      "name": "getUserSubscriptions",
      "outputs": [
        {
          "components": [
            {
              "internalType": "uint256",
              "name": "subscriptionId",
              "type": "uint256"
            },
            {
              "internalType": "address",
              "name": "subscriber",
              "type": "address"
            },
            {
              "internalType": "address",
              "name": "recipient",
              "type": "address"
            },
            {
              "internalType": "address",
              "name": "token",
              "type": "address"
            },
            {
              "internalType": "uint256",
              "name": "amount",
              "type": "uint256"
            },
            {
              "internalType": "enum ISubscription.Cadence",
              "name": "cadence",
              "type": "uint8"
            },
            {
              "internalType": "uint256",
              "name": "interval",
              "type": "uint256"
            },
            {
              "internalType": "uint256",
              "name": "nextPaymentTime",
              "type": "uint256"
            },
            {
              "internalType": "uint256",
              "name": "lastPaymentTime",
              "type": "uint256"
            },
            {
              "internalType": "uint256",
              "name": "totalPaid",
              "type": "uint256"
            },
            {
              "internalType": "uint256",
              "name": "paymentCount",
              "type": "uint256"
            },
            {
              "internalType": "uint256",
              "name": "balance",
              "type": "uint256"
            },
            {
              "internalType": "enum ISubscription.SubscriptionStatus",
              "name": "status",
              "type": "uint8"
            },
            {
              "internalType": "string",
              "name": "title",
              "type": "string"
            },
            {
              "internalType": "string",
              "name": "description",
              "type": "string"
            }
          ],
          "internalType": "struct ISubscription.Subscription[]",
          "name": "subscriptions",
          "type": "tuple[]"
        }
      ],
      "stateMutability": "view",
      "type": "function"
    },
    {
      "inputs": [
        {
          "internalType": "address",
          "name": "user",
          "type": "address"
        }
      ],
      "name": "getUserSubscriptionsAll",
      "outputs": [
        {
          "components": [
            {
              "internalType": "uint256",
              "name": "subscriptionId",
              "type": "uint256"
            },
            {
              "internalType": "address",
              "name": "subscriber",
              "type": "address"
            },
            {
              "internalType": "address",
              "name": "recipient",
              "type": "address"
            },
            {
              "internalType": "address",
              "name": "token",
              "type": "address"
            },
            {
              "internalType": "uint256",
              "name": "amount",
              "type": "uint256"
            },
            {
              "internalType": "enum ISubscription.Cadence",
              "name": "cadence",
              "type": "uint8"
            },
            {
              "internalType": "uint256",
              "name": "interval",
              "type": "uint256"
            },
            {
              "internalType": "uint256",
              "name": "nextPaymentTime",
              "type": "uint256"
            },
            {
              "internalType": "uint256",
              "name": "lastPaymentTime",
              "type": "uint256"
            },
            {
              "internalType": "uint256",
              "name": "totalPaid",
              "type": "uint256"
            },
            {
              "internalType": "uint256",
              "name": "paymentCount",
              "type": "uint256"
            },
            {
              "internalType": "uint256",
              "name": "balance",
              "type": "uint256"
            },
            {
              "internalType": "enum ISubscription.SubscriptionStatus",
              "name": "status",
              "type": "uint8"
            },
            {
              "internalType": "string",
              "name": "title",
              "type": "string"
            },
            {
              "internalType": "string",
              "name": "description",
              "type": "string"
            }
          ],
          "internalType": "struct ISubscription.Subscription[]",
          "name": "subscriptions",
          "type": "tuple[]"
        }
      ],
      "stateMutability": "view",
      "type": "function"
    },
    {
      "inputs": [
        {
          "internalType": "uint256",
          "name": "subscriptionId",
          "type": "uint256"
        }
      ],
      "name": "isPaymentDue",
      "outputs": [
        {
          "internalType": "bool",
          "name": "isDue",
          "type": "bool"
        },
        {
          "internalType": "uint256",
          "name": "nextPaymentTime",
          "type": "uint256"
        }
      ],
      "stateMutability": "view",
      "type": "function"
    },
    {
      "inputs": [
        {
          "internalType": "uint256",
          "name": "subscriptionId",
          "type": "uint256"
        },
        {
          "internalType": "uint256",
          "name": "newAmount",
          "type": "uint256"
        },
        {
          "internalType": "enum ISubscription.Cadence",
          "name": "newCadence",
          "type": "uint8"
        },
        {
          "internalType": "uint256",
          "name": "newInterval",
          "type": "uint256"
        }
      ],
      "name": "modifySubscription",
      "outputs": [],
      "stateMutability": "nonpayable",
      "type": "function"
    },
    {
      "inputs": [],
      "name": "owner",
      "outputs": [
        {
          "internalType": "address",
          "name": "",
          "type": "address"
        }
      ],
      "stateMutability": "view",
      "type": "function"
    },
    {
      "inputs": [
        {
          "internalType": "uint256",
          "name": "subscriptionId",
          "type": "uint256"
        }
      ],
      "name": "pauseSubscription",
      "outputs": [],
      "stateMutability": "nonpayable",
      "type": "function"
    },
    {
      "inputs": [],
      "name": "platformFeeBps",
      "outputs": [
        {
          "internalType": "uint256",
          "name": "",
          "type": "uint256"
        }
      ],
      "stateMutability": "view",
      "type": "function"
    },
    {
      "inputs": [],
      "name": "platformFeeRecipient",
      "outputs": [
        {
          "internalType": "address",
          "name": "",
          "type": "address"
        }
      ],
      "stateMutability": "view",
      "type": "function"
    },
    {
      "inputs": [],
      "name": "renounceOwnership",
      "outputs": [],
      "stateMutability": "nonpayable",
      "type": "function"
    },
    {
      "inputs": [
        {
          "internalType": "uint256",
          "name": "subscriptionId",
          "type": "uint256"
        }
      ],
      "name": "resumeSubscription",
      "outputs": [],
      "stateMutability": "nonpayable",
      "type": "function"
    },
    {
      "inputs": [
        {
          "internalType": "uint256",
          "name": "newFeeBps",
          "type": "uint256"
        }
      ],
      "name": "setPlatformFee",
      "outputs": [],
      "stateMutability": "nonpayable",
      "type": "function"
    },
    {
      "inputs": [
        {
          "internalType": "address",
          "name": "newRecipient",
          "type": "address"
        }
      ],
      "name": "setPlatformFeeRecipient",
      "outputs": [],
      "stateMutability": "nonpayable",
      "type": "function"
    },
    {
      "inputs": [
        {
          "internalType": "address",
          "name": "newOwner",
          "type": "address"
        }
      ],
      "name": "transferOwnership",
      "outputs": [],
      "stateMutability": "nonpayable",
      "type": "function"
    },
    {
      "stateMutability": "payable",
      "type": "receive"
    }
  ],
  "bytecode": "0x608034620001b757620037d290601f38839003908101601f19168201906001600160401b03821183831017620001bc5780839160409586948552833981010312620001b7576200005d60206200005583620001d2565b9201620001d2565b600160005533156200019f5760018054336001600160a01b0319808316821790935585519492936001600160a01b0393909284929083167f8be0079c531659141344cd1fd0a4f28419497f9722a3daafe3b4186f6b6457e0600080a360326009551693841562000147575016918215620000f057816002541617600255600a541617600a55516135ea9081620001e88239f35b835162461bcd60e51b815260206004820152602a60248201527f537562736372697074696f6e4d616e616765723a20496e76616c696420666565604482015269081c9958da5c1a595b9d60b21b6064820152608490fd5b62461bcd60e51b815260206004820152602d60248201527f537562736372697074696f6e4d616e616765723a20496e76616c69642044726960448201526c70436f7265206164647265737360981b6064820152608490fd5b8251631e4fbdf760e01b815260006004820152602490fd5b600080fd5b634e487b7160e01b600052604160045260246000fd5b51906001600160a01b0382168203620001b75756fe6080604052600436101561001b575b361561001957600080fd5b005b60003560e01c8063023a584e1461223757806312e8e2c3146121be578063137f986014611dde578063162a0cf814611d9e5780631871e24314611d515780631b3a65b414611d355780632123508314611baa57806322dcd13e14611b8c5780632e6ca58814611a31578063408c8d56146118ad5780634121b8c8146117c757806341f23f0a1461171b57806343ab265f146116ee578063715018a61461169157806375ce012b146112ba57806388d2cea314610f905780638a2320da14610f735780638da5cb5b14610f4a5780639d48dde914610dc3578063a434fcfa1461067f578063a4bb0d2d14610656578063b5126bf1146105c1578063c31bb1e514610549578063c7ae12ff146104c5578063d40dc8701461049d578063dc311dd314610390578063ddbcb5fa1461036e578063e816e87f14610221578063eb13554f146101f85763f2fde38b0361000e57346101f35760203660031901126101f357610183612328565b61018b61252b565b6001600160a01b039081169081156101da57600154826001600160601b0360a01b821617600155167f8be0079c531659141344cd1fd0a4f28419497f9722a3daafe3b4186f6b6457e0600080a3005b604051631e4fbdf760e01b815260006004820152602490fd5b600080fd5b346101f35760003660031901126101f357600a546040516001600160a01b039091168152602090f35b346101f35760203660031901126101f3576004356000526005602052604060002060405161024e8161271c565b8154815260018201546001600160a01b039081166020830152600283015481166040830152600383015416606082015260048201546080820152600582015461029d9060ff1660a08301612777565b600682015460c082015261032660078301549160e0810192835260088401546101008201526009840154610120820152600a840154610140820152600b840154610160820152610318600e60ff600c870154169561030061018085019788612783565b61030c600d8201612f81565b6101a085015201612f81565b6101c08201525115156128b7565b5190519060038210156103585760409115908161034c575b825191151582526020820152f35b8091504210159061033e565b634e487b7160e01b600052602160045260246000fd5b346101f35760003660031901126101f357602060405166038d7ea4c680008152f35b346101f35760203660031901126101f3576103a9612f13565b5060043560005260056020526104996040600020610473600e604051926103cf8461271c565b8054845260018101546001600160a01b039081166020860152600282015481166040860152600382015416606085015260048101546080850152600581015461041e9060ff1660a08601612777565b600681015460c0850152600781015460e085015260088101546101008501526009810154610120850152600a810154610140850152600b81015461016085015261030060ff600c830154166101808601612783565b6101c0820152610485815115156128b7565b60405191829160208352602083019061238b565b0390f35b346101f35760003660031901126101f35760206040516c0c9f2c9cd04674edea400000008152f35b346101f3576020806003193601126101f3576001600160a01b036104e7612328565b1660005260088152604060002090604051908181845491828152019360005281600020916000905b828210610532576104998561052681890382612755565b604051918291826124f0565b83548652948501946001938401939091019061050f565b346101f3576020806003193601126101f3576001600160a01b0361056b612328565b1660005260078152604060002090604051908181845491828152019360005281600020916000905b8282106105aa576104998561052681890382612755565b835486529485019460019384019390910190610593565b346101f3576060806003193601126101f3576105e4604435602435600435613053565b906040519160408301916040845280518093528484019260208092019060005b818110610618575050508380955001520390f35b825180518752808501518588015260408082015190880152888101518988015260809081015115159087015260a09095019491830191600101610604565b346101f35760003660031901126101f3576002546040516001600160a01b039091168152602090f35b6101003660031901126101f357610694612328565b602435906001600160a01b03821682036101f357600460643510156101f35760c43567ffffffffffffffff81116101f3576106d39036906004016124c2565b9260e43567ffffffffffffffff81116101f3576106f49036906004016124c2565b9290916106ff612894565b6107136001600160a01b0386161515612557565b6001600160a01b0385163314610d68576044359461073a66038d7ea4c680008710156125b2565b6107536c0c9f2c9cd04674edea4000000087111561260c565b60788711610d17576104008511610cc057610797610775608435606435613267565b96610781881515612666565b612710610790600954836126c0565b04906126f3565b966107a3600354612700565b60038190559660a4358015610caf57905b604051906107c18261271c565b8982523360208301526001600160a01b03858116604084015286166060830152608082018b90526107f760643560a08401612777565b60c08201528160e0820152600061010082015260006101208201526000610140820152600061016082015260006101808201526108353684886127ab565b6101a08201526108463689896127ab565b6101c0820152886000526005602052604060002090805182556001820160018060a01b03602083015116906001600160601b0360a01b91828254161790556002830160018060a01b0360408401511682825416179055600383019060018060a01b03606084015116908254161790556080810151600483015560a08101516004811015610358576108da90600584016127e2565b60c0810151600683015560e0810151600783015561010081015160088301556101208101516009830155610140810151600a830155610160810151600b830155600c820161018082015160038110156103585760ff801983541691161790556101a081015180519067ffffffffffffffff8211610bd35761095e600d8501546127fa565b601f8111610c68575b50602090601f8311600114610bf4576101c093929160009183610be9575b50508160011b916000199060031b1c191617600d8401555b015180519067ffffffffffffffff8211610bd3576109be600e8401546127fa565b601f8111610b8c575b509160209b9593918b9795938d90601f8311600114610ad45792600e83610ab9989794610a9e97947f41abc4b24ef1f8fb8e7b654e9d9b95830c12e5690fd93b80f9a6e3b4091dad4e9d9e97600092610ac9575b50508160011b916000199060031b1c1916179101555b3360005260078e52610a478a6040600020612834565b60018060a01b03851660005260088e52610a658a6040600020612834565b60405197889760018060a01b031688528e880152610a886040880160643561233e565b606087015260c0608087015260c0860191612873565b83810360a08501526001600160a01b03909116973397612873565b0390a46001600055604051908152f35b015190503880610a1b565b999493929190600e83016000528e6000209a60005b601f1984168110610b5d57506001837f41abc4b24ef1f8fb8e7b654e9d9b95830c12e5690fd93b80f9a6e3b4091dad4e9c9d610a9e989694600e94610ab99c9b9997601f19811610610b44575b505050811b01910155610a31565b015160001960f88460031b161c19169055388080610b36565b929496989a5090929496989a8f600181928685015181550194019201908e9a98969492919b999795939b610ae9565b600e84016000526020600020601f840160051c810160208510610bcc575b601f830160051c82018110610bc05750506109c7565b60008155600101610baa565b5080610baa565b634e487b7160e01b600052604160045260246000fd5b015190508e80610985565b90600d850160005260206000209160005b601f1985168110610c5057509183916001936101c09695601f19811610610c37575b505050811b01600d84015561099d565b015160001960f88460031b161c191690558e8080610c27565b91926020600181928685015181550194019201610c05565b600d85016000526020600020601f840160051c810160208510610ca8575b601f830160051c82018110610c9c575050610967565b60008155600101610c86565b5080610c86565b50610cba814261270f565b906107b4565b60405162461bcd60e51b815260206004820152602960248201527f537562736372697074696f6e4d616e616765723a204465736372697074696f6e60448201526820746f6f206c6f6e6760b81b6064820152608490fd5b60405162461bcd60e51b815260206004820152602360248201527f537562736372697074696f6e4d616e616765723a205469746c6520746f6f206c6044820152626f6e6760e81b6064820152608490fd5b60405162461bcd60e51b815260206004820152602d60248201527f537562736372697074696f6e4d616e616765723a2043616e6e6f74207375627360448201526c31b934b132903a379039b2b63360991b6064820152608490fd5b346101f35760803660031901126101f3576004356024356044359060048210156101f357826000526005602052604060002090610e02825415156128b7565b60ff600c830154166003811015610358578015908115610f3f575b5015610eef576006610ed97f477db6e20f923c0d3d35a24ed877bd4c4f9f8a7237557a4bc7e8dd3ca8d0e04f94606094610e6e60018060a01b03806001840154163314908115610ee1575b50612e66565b610e8166038d7ea4c680008610156125b2565b610e9a6c0c9f2c9cd04674edea4000000086111561260c565b610ea660643583613267565b938491610eb4831515612666565b866004820155610ec784600583016127e2565b0155604051938452602084019061233e565b6040820152a2005b90506001541633148a610e68565b60405162461bcd60e51b815260206004820152603460248201526000805160206135958339815191526044820152731b8818d85b9b9bdd081899481b5bd91a599a595960621b6064820152608490fd5b600191501485610e1d565b346101f35760003660031901126101f3576001546040516001600160a01b039091168152602090f35b346101f35760003660031901126101f35760206040516104008152f35b346101f3576020806003193601126101f3576001600160a01b0380610fb3612328565b169182600052600791828252604060002093604051808685829854938481520190600052856000209260005b878282106112a457505050610ff692500386612755565b6000526008808352604060002090604051808386829554938481520190600052866000209260005b8882821061128e5750505061103592500383612755565b611042865183519061270f565b9361104c85613027565b9461105a6040519687612755565b808652611069601f1991613027565b01368287013760009360005b88518110156110f9576000805b8781106110c3575b509061109a911561109f57612700565b611075565b6110a9818b61303f565b516110bd6110b689612700565b988a61303f565b52612700565b6110cd818a61303f565b516110d8848d61303f565b51146110ec576110e790612700565b611082565b506001905061109a61108a565b50859185918860005b8751811015611180576000805b86811061114a575b5090611127911561112c57612700565b611102565b611136818a61303f565b516110bd61114388612700565b978961303f565b611154818961303f565b5161115f848c61303f565b51146111735761116e90612700565b61110f565b5060019050611127611117565b508561118b85613217565b9560005b8681106111a457604051806104998a82612460565b806111b2611289928461303f565b516000526005808852611268600e6040600020610300604051946111d58661271c565b825486528b6001840154168d8701528b60028401541660408701528b60038401541660608701526004830154608087015261121a60ff80928501541660a08801612777565b600683015460c08701528a83015460e0870152898301546101008701526009830154610120870152600a830154610140870152600b830154610160870152600c830154166101808601612783565b6101c0820152611278828b61303f565b52611283818a61303f565b50612700565b61118f565b855484526001958601958895509301920161101e565b855484526001958601958b955093019201610fdf565b346101f35760203660031901126101f35760043567ffffffffffffffff8082116101f357366023830112156101f3578160040135116101f357366024826004013560051b830101116101f35760009060005b8160040135811061132257602083604051908152f35b61133481836004013560248501612e56565b35600052600560205260406000208054158015611678575b61166e57600781015480421061166357600682015460019161136e828261270f565b421015611629575b5050906004810154916113ac816113a6816113a16127106113996009548a6126c0565b0480986126f3565b6126c0565b946126c0565b906113b7828561270f565b9182600b8501541061161b5760038401805490919086906001600160a01b0316806115a457505090506113ec83471015612959565b60008080808860018060a01b0360028a0154165af19061140a612a1d565b50801515828161159c575b50611572575b505b611434575b5050505061142f90612700565b61130c565b91611496611568949261142f969894426008850155611465600785015461145f6006870154846126c0565b9061270f565b60078501556009840161147986825461270f565b905561148a600a850191825461270f565b9055600b8301546126f3565b600b8201556114a6600454612700565b90816004556114bd88886004013560248a01612e56565b35600052600660205261150f60406000206114e08a8a6004013560248c01612e56565b3590604051916114ef83612739565b858352602083015285604083015242606083015260016080830152612a4d565b7f2727caf80b6da2dfa4408df2026c1fe59761d4b9184f422b225772bb9c3b7ee260406115448a8a6004013560248c01612e56565b60029093015481519586524260208701526001600160a01b031694923592a4612700565b9290848080611422565b60008080806115969460018060a01b03600a54165af1611590612a1d565b506129c0565b8861141b565b90508a611415565b906115d2916115be876115b7308461351a565b1015612959565b60028801546001600160a01b0316906133df565b9181151580611614575b6115e8575b505061141d565b54600a5461160d926116089290916001600160a01b0390811691166133df565b6129c0565b88806115e1565b50826115dc565b505050505061142f90612700565b9061163761163c92426126f3565b6126d3565b90810180911161164d578580611376565b634e487b7160e01b600052601160045260246000fd5b505061142f90612700565b5061142f90612700565b5060ff600c82015416600381101561035857151561134c565b346101f35760003660031901126101f3576116aa61252b565b600180546001600160a01b031981169091556000906001600160a01b03167f8be0079c531659141344cd1fd0a4f28419497f9722a3daafe3b4186f6b6457e08280a3005b346101f35760203660031901126101f357602061171361170c612328565b309061351a565b604051908152f35b346101f35760203660031901126101f3576004358060005260056020526040600020611749815415156128b7565b600c810190815460ff811691600383101561035857600161178a9161176f82951561290a565b818060a01b0391829101541633149081156117ba5750612e66565b60ff191617905533907f25a87732c0536735f3ab7dd339abd21dd0ef78059a500c3927a6cfeb98f90694600080a3005b9050835416331486610e68565b346101f35760203660031901126101f3576004356000526005602052602060406000206118a46040516117f98161271c565b8254815260018301546001600160a01b039081168583015260028401548116604083015260038401541660608201526004830154608082015260058301546118479060ff1660a08301612777565b600683015460c0820152600783015460e082015260088301546101008201526009830154610120820152600a830154610140820152610318600e600b85015494610160840195865261030060ff600c830154166101808601612783565b51604051908152f35b346101f3576020806003193601126101f3576001600160a01b03806118d0612328565b16600052600891828152604060002091604051808484829654938481520190600052846000209260005b86828210611a1b5750505061191192500384612755565b61191b8351613217565b9360005b8451811015611a0d5780611936611a08928761303f565b5160005260058086526119ed600e6040600020610300604051946119598661271c565b82548652896001840154168b8701528960028401541660408701528960038401541660608701526004830154608087015261199e60ff80928501541660a08801612777565b600683015460c0870152600783015460e0870152888301546101008701526009830154610120870152600a830154610140870152600b830154610160870152600c830154166101808601612783565b6101c08201526119fd828961303f565b52611283818861303f565b61191f565b604051806104998882612460565b85548452600195860195899550930192016118fa565b346101f3576020806003193601126101f3576001600160a01b0380611a54612328565b16600052600791828152604060002091604051808484829654938481520190600052846000209260005b86828210611b7657505050611a9592500384612755565b611a9f8351613217565b9360005b8451811015611a0d5780611aba611b71928761303f565b5160005260058086526119ed600e604060002061030060405194611add8661271c565b82548652896001840154168b87015289600284015416604087015289600384015416606087015260048301546080870152611b2260ff80928501541660a08801612777565b600683015460c08701528883015460e087015260088301546101008701526009830154610120870152600a830154610140870152600b830154610160870152600c830154166101808601612783565b611aa3565b8554845260019586019589955093019201611a7e565b346101f35760003660031901126101f3576020600954604051908152f35b346101f35760203660031901126101f357600435611bc6612894565b8060005260056020526040600020611be0815415156128b7565b600c81019081549160ff83166003811015610358578015908115611d2a575b5015611cd957600182019060018060a01b0392600084845416928333148015611ccc575b611c2c90612e66565b600b830190600282549860ff19161790555584611c72575b33867f533734a768f070673b823079652464b7e002bb51cdf15e3108209f397425225f600080a36001600055005b60030154831680611cb25750506000808481948294611c96611ca898471015612959565b54165af1611ca2612a1d565b50612ebc565b8180808080611c44565b611cc29350611cc79492506133df565b612ebc565b611ca8565b5060015486163314611c23565b60405162461bcd60e51b815260206004820152603560248201526000805160206135958339815191526044820152741b8818d85b9b9bdd0818994818d85b98d95b1b1959605a1b6064820152608490fd5b600191501485611bff565b346101f35760003660031901126101f357602060405160788152f35b346101f35760203660031901126101f357611d6a612328565b611d7261252b565b6001600160a01b0316611d86811515612557565b6001600160601b0360a01b600a541617600a55600080f35b346101f35760203660031901126101f357611db7612894565b6060611dc4600435612ab3565b906001600055604051921515835260208301526040820152f35b60403660031901126101f35760246004358135611df9612894565b8160005260209060058252604060002093611e16855415156128b7565b60018501546001600160a01b0390811633036121615760ff600c87015416600381101561214c5780611e519115908115612141575b5061290a565b60038601541680611f8057503415611f2a578115611f1f57348203611ec05750600b90935b818101611e8486825461270f565b90555b0154906040519384528301527f624d25e63da06971e79203affbcdea82cd63e6a28fa1ac420aa5018b97a8cd5160403393a36001600055005b8260336084926040519262461bcd60e51b845260048401528201527f537562736372697074696f6e4d616e616765723a20416d6f756e74206d69736d604482015272617463682077697468206d73672e76616c756560681b6064820152fd5b5050600b3493611e76565b82602a6084926040519262461bcd60e51b845260048401528201527f537562736372697074696f6e4d616e616765723a204e6f206e617469766520746044820152691bdad95b9cc81cd95b9d60b21b6064820152fd5b949190346120ca5781156120735760008483976064604051809481936323b872dd60e01b835233600484015230888401528860448401525af19081156120675760009161203a575b5015611fe8575090600b91611fe183830191825461270f565b9055611e87565b8360266084926040519262461bcd60e51b845260048401528201527f546f6b656e48656c7065723a204552433230207472616e7366657246726f6d2060448201526519985a5b195960d21b6064820152fd5b61205a9150853d8711612060575b6120528183612755565b8101906133c7565b87611fc8565b503d612048565b6040513d6000823e3d90fd5b83602b6084926040519262461bcd60e51b845260048401528201527f537562736372697074696f6e4d616e616765723a20496e76616c69642064657060448201526a1bdcda5d08185b5bdd5b9d60aa1b6064820152fd5b83604560a4926040519262461bcd60e51b845260048401528201527f537562736372697074696f6e4d616e616765723a204e617469766520746f6b6560448201527f6e206e6f7420657870656374656420666f722045524332302073756273637269606482015264383a34b7b760d91b6084820152fd5b600191501488611e4b565b82634e487b7160e01b60005260216004526000fd5b60405162461bcd60e51b8152600481018590526030818401527f537562736372697074696f6e4d616e616765723a204f6e6c792073756273637260448201526f1a58995c8818d85b8819195c1bdcda5d60821b6064820152608490fd5b346101f35760203660031901126101f3576004356121da61252b565b6103e881116121e857600955005b60405162461bcd60e51b815260206004820152602160248201527f537562736372697074696f6e4d616e616765723a2046656520746f6f206869676044820152600d60fb1b6064820152608490fd5b346101f35760203660031901126101f3576004358060005260056020526040600020612265815415156128b7565b600c81019081549060ff82166003811015610358576001036122e057600101546122a390336001600160a01b03918216149081156122d25750612e66565b60ff1916905533907fd13b5f8d2e4901890b0c4487e78268b05e17db24ed2b23450caa809f66b24585600080a3005b905060015416331485610e68565b60405162461bcd60e51b815260206004820152602c602482015260008051602061359583398151915260448201526b1b881b9bdd081c185d5cd95960a21b6064820152608490fd5b600435906001600160a01b03821682036101f357565b9060048210156103585752565b919082519283825260005b848110612377575050826000602080949584010152601f8019910116010190565b602081830181015184830182015201612356565b908151815260018060a01b038060208401511660208301528060408401511660408301526060830151166060820152608082015160808201526123d660a083015160a083019061233e565b60c082015160c082015260e082015160e08201526101008083015190820152610120808301519082015261014080830151908201526101608083015190820152610180918281015160038110156103585761245d938301526124496101a080830151906101e0809186015284019061234b565b916101c0809201519181840391015261234b565b90565b602080820190808352835180925260408301928160408460051b8301019501936000915b8483106124945750505050505090565b90919293949584806124b2600193603f198682030187528a5161238b565b9801930193019194939290612484565b9181601f840112156101f35782359167ffffffffffffffff83116101f357602083818601950101116101f357565b6020908160408183019282815285518094520193019160005b828110612517575050505090565b835185529381019392810192600101612509565b6001546001600160a01b0316330361253f57565b60405163118cdaa760e01b8152336004820152602490fd5b1561255e57565b60405162461bcd60e51b815260206004820152602660248201527f537562736372697074696f6e4d616e616765723a20496e76616c6964207265636044820152651a5c1a595b9d60d21b6064820152608490fd5b156125b957565b60405162461bcd60e51b815260206004820152602560248201527f537562736372697074696f6e4d616e616765723a20416d6f756e7420746f6f206044820152641cdb585b1b60da1b6064820152608490fd5b1561261357565b60405162461bcd60e51b815260206004820152602560248201527f537562736372697074696f6e4d616e616765723a20416d6f756e7420746f6f206044820152646c6172676560d81b6064820152608490fd5b1561266d57565b60405162461bcd60e51b815260206004820152602560248201527f537562736372697074696f6e4d616e616765723a20496e76616c696420696e74604482015264195c9d985b60da1b6064820152608490fd5b8181029291811591840414171561164d57565b81156126dd570490565b634e487b7160e01b600052601260045260246000fd5b9190820391821161164d57565b600019811461164d5760010190565b9190820180921161164d57565b6101e0810190811067ffffffffffffffff821117610bd357604052565b60a0810190811067ffffffffffffffff821117610bd357604052565b90601f8019910116810190811067ffffffffffffffff821117610bd357604052565b60048210156103585752565b60038210156103585752565b67ffffffffffffffff8111610bd357601f01601f191660200190565b9291926127b78261278f565b916127c56040519384612755565b8294818452818301116101f3578281602093846000960137010152565b9060048110156103585760ff80198354169116179055565b90600182811c9216801561282a575b602083101461281457565b634e487b7160e01b600052602260045260246000fd5b91607f1691612809565b805490600160401b821015610bd3576001820180825582101561285d5760005260206000200155565b634e487b7160e01b600052603260045260246000fd5b908060209392818452848401376000828201840152601f01601f1916010190565b6002600054146128a5576002600055565b604051633ee5aeb560e01b8152600490fd5b156128be57565b60405162461bcd60e51b8152602060048201526030602482015260008051602061359583398151915260448201526f1b88191bd95cc81b9bdd08195e1a5cdd60821b6064820152608490fd5b1561291157565b60405162461bcd60e51b815260206004820152602c602482015260008051602061359583398151915260448201526b6e206e6f742061637469766560a01b6064820152608490fd5b1561296057565b60405162461bcd60e51b815260206004820152603260248201527f537562736372697074696f6e4d616e616765723a20496e73756666696369656e6044820152717420636f6e74726163742062616c616e636560701b6064820152608490fd5b156129c757565b60405162461bcd60e51b815260206004820152602860248201527f537562736372697074696f6e4d616e616765723a20466565207472616e7366656044820152671c8819985a5b195960c21b6064820152608490fd5b3d15612a48573d90612a2e8261278f565b91612a3c6040519384612755565b82523d6000602084013e565b606090565b805490600160401b821015610bd3576001820180825582101561285d57608091600491600052600560206000209102018351815560208401516001820155604084015160028201556060840151600382015501910151151560ff80198354169116179055565b60009181835260206005815260409283852090612ad2825415156128b7565b60ff600c830154166003811015612e4257612aed901561290a565b60078201948554804210612df2576001966006850191825490612b10828261270f565b421015612dbb575b50506004948581015492612b4a8a612b44816113a1612710612b3c6009548b6126c0565b0480996126f3565b956126c0565b92612b55848661270f565b90600b84019282845410612d66578d600386019660018060a01b03888a82809b54168015600014612d085750505050612b9085471015612959565b818080808c8c60028d0154165af191612ba7612a1d565b508115158381612d00575b50612ce3575b50505b15612c90577f2727caf80b6da2dfa4408df2026c1fe59761d4b9184f422b225772bb9c3b7ee2979695949260029492612c068f9361145f612c32954260088a015584549254906126c0565b905560098401612c1788825461270f565b90558d612c29600a860191825461270f565b905582546126f3565b9055612c7a85612c428a54612700565b9d8e809b5589815260068c5220865190612c5b82612739565b8a8252898c830152868883015242606083015260016080830152612a4d565b0154169582519182524290820152a46001929190565b5050505050509083979650612ca9612cdd959454612700565b8098558287526006845280872092815194612cc386612739565b898652850152830152426060830152846080830152612a4d565b81929190565b808080612cf9948c600a54165af1611590612a1d565b388f612bb8565b905038612bb2565b612d2b9293949550612d1e896115b7308461351a565b8460028c015416906133df565b9280151580612d5f575b612d42575b505050612bbb565b612d57926116089254168a600a5416906133df565b863880612d3a565b5083612d35565b875162461bcd60e51b8152808b018c9052602960248201527f537562736372697074696f6e4d616e616765723a20496e73756666696369656e604482015268742062616c616e636560b81b6064820152608490fd5b90611637612dcc929a939a426126f3565b908101809111612dde57963880612b18565b634e487b7160e01b89526011600452602489fd5b815162461bcd60e51b8152600481018690526024808201527f537562736372697074696f6e4d616e616765723a205061796d656e74206e6f746044820152632064756560e01b6064820152608490fd5b634e487b7160e01b87526021600452602487fd5b919081101561285d5760051b0190565b15612e6d57565b60405162461bcd60e51b815260206004820152602160248201527f537562736372697074696f6e4d616e616765723a20556e617574686f72697a656044820152601960fa1b6064820152608490fd5b15612ec357565b60405162461bcd60e51b815260206004820152602260248201527f537562736372697074696f6e4d616e616765723a20526566756e64206661696c604482015261195960f21b6064820152608490fd5b60405190612f208261271c565b60606101c083600080825280602083015280604083015280848301528060808301528060a08301528060c08301528060e083015280610100830152806101208301528061014083015280610160830152610180820152826101a08201520152565b9060405191826000825492612f95846127fa565b9081845260019485811690816000146130045750600114612fc1575b5050612fbf92500383612755565b565b9093915060005260209081600020936000915b818310612fec575050612fbf93508201013880612fb1565b85548884018501529485019487945091830191612fd4565b915050612fbf94506020925060ff191682840152151560051b8201013880612fb1565b67ffffffffffffffff8111610bd35760051b60200190565b805182101561285d5760209160051b010190565b909291926000908282526005906020928284526040946130778683205415156128b7565b8152600684528481209283549061308d82613027565b9461309a88519687612755565b82865283528583208390878088015b8584106131c8575050505050508251968783101561318e576130cb908361270f565b82888211613186575b6130dd916126f3565b936130e785613027565b956130f481519788612755565b858752601f1961310387613027565b0190835b82811061315457505050505b83811061312257505050509190565b8061313961313361314f938561270f565b8561303f565b51613144828861303f565b52611283818761303f565b613113565b8390825161316181612739565b8681528683820152868482015286606082015286608082015282828c01015201613107565b8891506130d4565b50929391505080519283019083821067ffffffffffffffff8311176131b4575281529190565b634e487b7160e01b83526041600452602483fd5b60019185918c516131d881612739565b8554815284860154838201528d6002870154908201526003860154606082015260ff6004870154161515608082015281520192019201919088906130a9565b9061322182613027565b61322e6040519182612755565b828152809261323f601f1991613027565b019060005b82811061325057505050565b60209061325b612f13565b82828501015201613244565b6004811015610358578061327e5750506201518090565b6001810361328f57505062093a8090565b600281036132a057505062278d0090565b6003036133765762015180811061331a576301e1338081116132bf5790565b60405162461bcd60e51b815260206004820152602d60248201527f537562736372697074696f6e4d616e616765723a20437573746f6d20696e746560448201526c7276616c20746f6f206c6f6e6760981b6064820152608490fd5b60405162461bcd60e51b815260206004820152602e60248201527f537562736372697074696f6e4d616e616765723a20437573746f6d20696e746560448201526d1c9d985b081d1bdbc81cda1bdc9d60921b6064820152608490fd5b60405162461bcd60e51b8152602060048201526024808201527f537562736372697074696f6e4d616e616765723a20496e76616c696420636164604482015263656e636560e01b6064820152608490fd5b908160209103126101f3575180151581036101f35790565b600092839290916001600160a01b0390811680613464575050829350829182915af1613409612a1d565b5080156134135790565b60405162461bcd60e51b815260206004820152602360248201527f546f6b656e48656c7065723a204e6174697665207472616e73666572206661696044820152621b195960ea1b6064820152608490fd5b60209285604492604051968795869463a9059cbb60e01b865216600485015260248401525af191821561350e57916134f0575b50156134a05790565b60405162461bcd60e51b815260206004820152602260248201527f546f6b656e48656c7065723a204552433230207472616e73666572206661696c604482015261195960f21b6064820152608490fd5b613508915060203d8111612060576120528183612755565b38613497565b604051903d90823e3d90fd5b6001600160a01b0390811690816135315750503190565b6040516370a0823160e01b815292166004830152602090829060249082905afa90811561206757600091613563575090565b906020823d821161358c575b8161357c60209383612755565b8101031261358957505190565b80fd5b3d915061356f56fe537562736372697074696f6e4d616e616765723a20537562736372697074696fa2646970667358221220d9dea0fc814b56cc847f6030f65da50eefb2ca86f6ae481ee6e75e2eed7c9f7964736f6c63430008140033",
  "linkReferences": {},
  "deployedLinkReferences": {}
}