{
  "_format": "hh-sol-artifact-1",
  "contractName": "DripCore",
  "sourceName": "contracts/DripCore.sol",
  "abi": [
    {
      "inputs": [
        {
          "internalType": "address",
          "name": "_platformFeeRecipient",
          "type": "address"
        }
      ],
      "stateMutability": "nonpayable",
      "type": "constructor"
    },
    {
      "inputs": [
        {
          "internalType": "address",
          "name": "owner",
          "type": "address"
        }
      ],
      "name": "OwnableInvalidOwner",
      "type": "error"
    },
    {
      "inputs": [
        {
          "internalType": "address",
          "name": "account",
          "type": "address"
        }
      ],
      "name": "OwnableUnauthorizedAccount",
      "type": "error"
    },
    {
      "inputs": [],
      "name": "ReentrancyGuardReentrantCall",
      "type": "error"
    },
    {
      "anonymous": false,
      "inputs": [
        {
          "indexed": true,
          "internalType": "address",
          "name": "previousOwner",
          "type": "address"
        },
        {
          "indexed": true,
          "internalType": "address",
          "name": "newOwner",
          "type": "address"
        }
      ],
      "name": "OwnershipTransferred",
      "type": "event"
    },
    {
      "anonymous": false,
      "inputs": [
        {
          "indexed": true,
          "internalType": "uint256",
          "name": "streamId",
          "type": "uint256"
        },
        {
          "indexed": true,
          "internalType": "address",
          "name": "by",
          "type": "address"
        },
        {
          "indexed": false,
          "internalType": "uint256",
          "name": "refundAmount",
          "type": "uint256"
        }
      ],
      "name": "StreamCancelled",
      "type": "event"
    },
    {
      "anonymous": false,
      "inputs": [
        {
          "indexed": true,
          "internalType": "uint256",
          "name": "streamId",
          "type": "uint256"
        }
      ],
      "name": "StreamCompleted",
      "type": "event"
    },
    {
      "anonymous": false,
      "inputs": [
        {
          "indexed": true,
          "internalType": "uint256",
          "name": "streamId",
          "type": "uint256"
        },
        {
          "indexed": true,
          "internalType": "address",
          "name": "sender",
          "type": "address"
        },
        {
          "indexed": false,
          "internalType": "address[]",
          "name": "recipients",
          "type": "address[]"
        },
        {
          "indexed": false,
          "internalType": "address",
          "name": "token",
          "type": "address"
        },
        {
          "indexed": false,
          "internalType": "uint256",
          "name": "deposit",
          "type": "uint256"
        },
        {
          "indexed": false,
          "internalType": "uint256",
          "name": "startTime",
          "type": "uint256"
        },
        {
          "indexed": false,
          "internalType": "uint256",
          "name": "endTime",
          "type": "uint256"
        },
        {
          "indexed": false,
          "internalType": "string",
          "name": "title",
          "type": "string"
        },
        {
          "indexed": false,
          "internalType": "string",
          "name": "description",
          "type": "string"
        }
      ],
      "name": "StreamCreated",
      "type": "event"
    },
    {
      "anonymous": false,
      "inputs": [
        {
          "indexed": true,
          "internalType": "uint256",
          "name": "streamId",
          "type": "uint256"
        },
        {
          "indexed": true,
          "internalType": "address",
          "name": "by",
          "type": "address"
        }
      ],
      "name": "StreamPaused",
      "type": "event"
    },
    {
      "anonymous": false,
      "inputs": [
        {
          "indexed": true,
          "internalType": "uint256",
          "name": "streamId",
          "type": "uint256"
        },
        {
          "indexed": true,
          "internalType": "address",
          "name": "by",
          "type": "address"
        }
      ],
      "name": "StreamResumed",
      "type": "event"
    },
    {
      "anonymous": false,
      "inputs": [
        {
          "indexed": true,
          "internalType": "uint256",
          "name": "streamId",
          "type": "uint256"
        },
        {
          "indexed": true,
          "internalType": "address",
          "name": "recipient",
          "type": "address"
        },
        {
          "indexed": false,
          "internalType": "uint256",
          "name": "amount",
          "type": "uint256"
        }
      ],
      "name": "StreamWithdrawn",
      "type": "event"
    },
    {
      "inputs": [],
      "name": "MAX_DESCRIPTION_LEN",
      "outputs": [
        {
          "internalType": "uint256",
          "name": "",
          "type": "uint256"
        }
      ],
      "stateMutability": "view",
      "type": "function"
    },
    {
      "inputs": [],
      "name": "MAX_DURATION",
      "outputs": [
        {
          "internalType": "uint256",
          "name": "",
          "type": "uint256"
        }
      ],
      "stateMutability": "view",
      "type": "function"
    },
    {
      "inputs": [],
      "name": "MAX_TITLE_LEN",
      "outputs": [
        {
          "internalType": "uint256",
          "name": "",
          "type": "uint256"
        }
      ],
      "stateMutability": "view",
      "type": "function"
    },
    {
      "inputs": [],
      "name": "MIN_DURATION",
      "outputs": [
        {
          "internalType": "uint256",
          "name": "",
          "type": "uint256"
        }
      ],
      "stateMutability": "view",
      "type": "function"
    },
    {
      "inputs": [
        {
          "internalType": "uint256",
          "name": "streamId",
          "type": "uint256"
        }
      ],
      "name": "cancelStream",
      "outputs": [],
      "stateMutability": "nonpayable",
      "type": "function"
    },
    {
      "inputs": [
        {
          "internalType": "address[]",
          "name": "recipients",
          "type": "address[]"
        },
        {
          "internalType": "address",
          "name": "token",
          "type": "address"
        },
        {
          "internalType": "uint256[]",
          "name": "amountsPerPeriod",
          "type": "uint256[]"
        },
        {
          "internalType": "uint256",
          "name": "periodSeconds",
          "type": "uint256"
        },
        {
          "internalType": "uint256",
          "name": "deposit",
          "type": "uint256"
        },
        {
          "internalType": "string",
          "name": "title",
          "type": "string"
        },
        {
          "internalType": "string",
          "name": "description",
          "type": "string"
        }
      ],
      "name": "createStream",
      "outputs": [
        {
          "internalType": "uint256",
          "name": "streamId",
          "type": "uint256"
        }
      ],
      "stateMutability": "payable",
      "type": "function"
    },
    {
      "inputs": [
        {
          "internalType": "uint256",
          "name": "streamId",
          "type": "uint256"
        }
      ],
      "name": "getAllRecipientsInfo",
      "outputs": [
        {
          "components": [
            {
              "internalType": "address",
              "name": "recipient",
              "type": "address"
            },
            {
              "internalType": "uint256",
              "name": "ratePerSecond",
              "type": "uint256"
            },
            {
              "internalType": "uint256",
              "name": "totalWithdrawn",
              "type": "uint256"
            },
            {
              "internalType": "uint256",
              "name": "lastWithdrawTime",
              "type": "uint256"
            },
            {
              "internalType": "uint256",
              "name": "currentAccrued",
              "type": "uint256"
            }
          ],
          "internalType": "struct IDrip.RecipientInfo[]",
          "name": "recipients",
          "type": "tuple[]"
        }
      ],
      "stateMutability": "view",
      "type": "function"
    },
    {
      "inputs": [
        {
          "internalType": "address",
          "name": "token",
          "type": "address"
        }
      ],
      "name": "getContractBalance",
      "outputs": [
        {
          "internalType": "uint256",
          "name": "balance",
          "type": "uint256"
        }
      ],
      "stateMutability": "view",
      "type": "function"
    },
    {
      "inputs": [
        {
          "internalType": "uint256",
          "name": "streamId",
          "type": "uint256"
        },
        {
          "internalType": "address",
          "name": "recipient",
          "type": "address"
        }
      ],
      "name": "getRecipientBalance",
      "outputs": [
        {
          "internalType": "uint256",
          "name": "balance",
          "type": "uint256"
        }
      ],
      "stateMutability": "view",
      "type": "function"
    },
    {
      "inputs": [
        {
          "internalType": "uint256",
          "name": "streamId",
          "type": "uint256"
        },
        {
          "internalType": "address",
          "name": "recipient",
          "type": "address"
        }
      ],
      "name": "getRecipientInfo",
      "outputs": [
        {
          "components": [
            {
              "internalType": "address",
              "name": "recipient",
              "type": "address"
            },
            {
              "internalType": "uint256",
              "name": "ratePerSecond",
              "type": "uint256"
            },
            {
              "internalType": "uint256",
              "name": "totalWithdrawn",
              "type": "uint256"
            },
            {
              "internalType": "uint256",
              "name": "lastWithdrawTime",
              "type": "uint256"
            },
            {
              "internalType": "uint256",
              "name": "currentAccrued",
              "type": "uint256"
            }
          ],
          "internalType": "struct IDrip.RecipientInfo",
          "name": "info",
          "type": "tuple"
        }
      ],
      "stateMutability": "view",
      "type": "function"
    },
    {
      "inputs": [
        {
          "internalType": "address",
          "name": "recipient",
          "type": "address"
        }
      ],
      "name": "getRecipientStreams",
      "outputs": [
        {
          "internalType": "uint256[]",
          "name": "streamIds",
          "type": "uint256[]"
        }
      ],
      "stateMutability": "view",
      "type": "function"
    },
    {
      "inputs": [
        {
          "internalType": "address",
          "name": "sender",
          "type": "address"
        }
      ],
      "name": "getSenderStreams",
      "outputs": [
        {
          "internalType": "uint256[]",
          "name": "streamIds",
          "type": "uint256[]"
        }
      ],
      "stateMutability": "view",
      "type": "function"
    },
    {
      "inputs": [
        {
          "internalType": "uint256",
          "name": "streamId",
          "type": "uint256"
        }
      ],
      "name": "getStream",
      "outputs": [
        {
          "components": [
            {
              "internalType": "uint256",
              "name": "streamId",
              "type": "uint256"
            },
            {
              "internalType": "address",
              "name": "sender",
              "type": "address"
            },
            {
              "internalType": "address[]",
              "name": "recipients",
              "type": "address[]"
            },
            {
              "internalType": "address",
              "name": "token",
              "type": "address"
            },
            {
              "internalType": "uint256",
              "name": "deposit",
              "type": "uint256"
            },
            {
              "internalType": "uint256",
              "name": "startTime",
              "type": "uint256"
            },
            {
              "internalType": "uint256",
              "name": "endTime",
              "type": "uint256"
            },
            {
              "internalType": "enum IDrip.StreamStatus",
              "name": "status",
              "type": "uint8"
            },
            {
              "internalType": "string",
              "name": "title",
              "type": "string"
            },
            {
              "internalType": "string",
              "name": "description",
              "type": "string"
            }
          ],
          "internalType": "struct IDrip.Stream",
          "name": "stream",
          "type": "tuple"
        }
      ],
      "stateMutability": "view",
      "type": "function"
    },
    {
      "inputs": [
        {
          "internalType": "address",
          "name": "user",
          "type": "address"
        }
      ],
      "name": "getUserReceivedStreams",
      "outputs": [
        {
          "components": [
            {
              "internalType": "uint256",
              "name": "streamId",
              "type": "uint256"
            },
            {
              "internalType": "address",
              "name": "sender",
              "type": "address"
            },
            {
              "internalType": "address[]",
              "name": "recipients",
              "type": "address[]"
            },
            {
              "internalType": "address",
              "name": "token",
              "type": "address"
            },
            {
              "internalType": "uint256",
              "name": "deposit",
              "type": "uint256"
            },
            {
              "internalType": "uint256",
              "name": "startTime",
              "type": "uint256"
            },
            {
              "internalType": "uint256",
              "name": "endTime",
              "type": "uint256"
            },
            {
              "internalType": "enum IDrip.StreamStatus",
              "name": "status",
              "type": "uint8"
            },
            {
              "internalType": "string",
              "name": "title",
              "type": "string"
            },
            {
              "internalType": "string",
              "name": "description",
              "type": "string"
            }
          ],
          "internalType": "struct IDrip.Stream[]",
          "name": "streams",
          "type": "tuple[]"
        }
      ],
      "stateMutability": "view",
      "type": "function"
    },
    {
      "inputs": [
        {
          "internalType": "address",
          "name": "user",
          "type": "address"
        }
      ],
      "name": "getUserSentStreams",
      "outputs": [
        {
          "components": [
            {
              "internalType": "uint256",
              "name": "streamId",
              "type": "uint256"
            },
            {
              "internalType": "address",
              "name": "sender",
              "type": "address"
            },
            {
              "internalType": "address[]",
              "name": "recipients",
              "type": "address[]"
            },
            {
              "internalType": "address",
              "name": "token",
              "type": "address"
            },
            {
              "internalType": "uint256",
              "name": "deposit",
              "type": "uint256"
            },
            {
              "internalType": "uint256",
              "name": "startTime",
              "type": "uint256"
            },
            {
              "internalType": "uint256",
              "name": "endTime",
              "type": "uint256"
            },
            {
              "internalType": "enum IDrip.StreamStatus",
              "name": "status",
              "type": "uint8"
            },
            {
              "internalType": "string",
              "name": "title",
              "type": "string"
            },
            {
              "internalType": "string",
              "name": "description",
              "type": "string"
            }
          ],
          "internalType": "struct IDrip.Stream[]",
          "name": "streams",
          "type": "tuple[]"
        }
      ],
      "stateMutability": "view",
      "type": "function"
    },
    {
      "inputs": [],
      "name": "owner",
      "outputs": [
        {
          "internalType": "address",
          "name": "",
          "type": "address"
        }
      ],
      "stateMutability": "view",
      "type": "function"
    },
    {
      "inputs": [
        {
          "internalType": "uint256",
          "name": "streamId",
          "type": "uint256"
        }
      ],
      "name": "pauseStream",
      "outputs": [],
      "stateMutability": "nonpayable",
      "type": "function"
    },
    {
      "inputs": [],
      "name": "platformFeeBps",
      "outputs": [
        {
          "internalType": "uint256",
          "name": "",
          "type": "uint256"
        }
      ],
      "stateMutability": "view",
      "type": "function"
    },
    {
      "inputs": [],
      "name": "platformFeeRecipient",
      "outputs": [
        {
          "internalType": "address",
          "name": "",
          "type": "address"
        }
      ],
      "stateMutability": "view",
      "type": "function"
    },
    {
      "inputs": [],
      "name": "renounceOwnership",
      "outputs": [],
      "stateMutability": "nonpayable",
      "type": "function"
    },
    {
      "inputs": [
        {
          "internalType": "uint256",
          "name": "streamId",
          "type": "uint256"
        }
      ],
      "name": "resumeStream",
      "outputs": [],
      "stateMutability": "nonpayable",
      "type": "function"
    },
    {
      "inputs": [
        {
          "internalType": "uint256",
          "name": "newFeeBps",
          "type": "uint256"
        }
      ],
      "name": "setPlatformFee",
      "outputs": [],
      "stateMutability": "nonpayable",
      "type": "function"
    },
    {
      "inputs": [
        {
          "internalType": "address",
          "name": "newRecipient",
          "type": "address"
        }
      ],
      "name": "setPlatformFeeRecipient",
      "outputs": [],
      "stateMutability": "nonpayable",
      "type": "function"
    },
    {
      "inputs": [
        {
          "internalType": "address",
          "name": "newOwner",
          "type": "address"
        }
      ],
      "name": "transferOwnership",
      "outputs": [],
      "stateMutability": "nonpayable",
      "type": "function"
    },
    {
      "inputs": [
        {
          "internalType": "uint256",
          "name": "streamId",
          "type": "uint256"
        },
        {
          "internalType": "address",
          "name": "recipient",
          "type": "address"
        },
        {
          "internalType": "uint256",
          "name": "amount",
          "type": "uint256"
        }
      ],
      "name": "withdrawFromStream",
      "outputs": [
        {
          "internalType": "uint256",
          "name": "withdrawn",
          "type": "uint256"
        }
      ],
      "stateMutability": "nonpayable",
      "type": "function"
    },
    {
      "stateMutability": "payable",
      "type": "receive"
    }
  ],
  "bytecode": "0x6080346200012657601f62002f5338819003918201601f19168301916001600160401b038311848410176200012b578084926020946040528339810103126200012657516001600160a01b03808216918290036200012657600160005533156200010d5760018054336001600160a01b0319808316821790935560405192939091167f8be0079c531659141344cd1fd0a4f28419497f9722a3daafe3b4186f6b6457e0600080a36032600b558215620000cb5750600c541617600c55604051612e119081620001428239f35b62461bcd60e51b815260206004820152601f60248201527f44726970436f72653a20496e76616c69642066656520726563697069656e74006044820152606490fd5b604051631e4fbdf760e01b815260006004820152602490fd5b600080fd5b634e487b7160e01b600052604160045260246000fdfe6080604052600436101561001b575b361561001957600080fd5b005b60003560e01c8063061b335414611dec57806312e8e2c314611d845780631871e24314611d375780631b3a65b414611d1b57806322dcd13e14611cfd578063344ec96614611af757806343ab265f14611aca5780636db9241b146118d7578063715018a61461187a578063746ff13d146117bb578063819c3582146114a7578063894e9a0d146114525780638a2320da146114355780638da5cb5b1461140c57806393710ba01461136e578063abc4f541146111c3578063b1724b46146111a4578063b6a6d17714611187578063c019f4fc1461110f578063df3bc5bc14611033578063eb13554f1461100a578063ef89f4ec146103a3578063f2fde38b1461031a578063f7afe902146102925763fb6a984e0361000e573461028d5760208060031936011261028d57600435908160005260038152604060002090610163825415156124e2565b600782019160ff83541660058110156102775760020361023257600101546101a090336001600160a01b0391821614908115610224575b50612817565b82600052600a815260406000205490816101eb575b5050805460ff1916600117905533907f0dbfa51df8b0b3b2d196641ff6e01b8ad3a3bfea169bbd41f321c0391a3e8973600080a3005b6101f7600a9242612138565b846000526009825261020f6040600020918254612118565b905583600052526000604081205538806101b5565b90506001541633143861019a565b60405162461bcd60e51b815260048101839052601b60248201527f44726970436f72653a2053747265616d206e6f742070617573656400000000006044820152606490fd5b634e487b7160e01b600052602160045260246000fd5b600080fd5b3461028d5760208060031936011261028d576001600160a01b036102b4611e28565b1660005260088152604060002090604051908181845491828152019360005281600020916000905b828210610303576102ff856102f3818903826121c8565b60405191829182611fbf565b0390f35b8354865294850194600193840193909101906102dc565b3461028d57602036600319011261028d57610333611e28565b61033b612057565b6001600160a01b0390811690811561038a57600154826001600160601b0360a01b821617600155167f8be0079c531659141344cd1fd0a4f28419497f9722a3daafe3b4186f6b6457e0600080a3005b604051631e4fbdf760e01b815260006004820152602490fd5b60e036600319011261028d576004356001600160401b03811161028d576103ce903690600401611ffa565b906103d7611e12565b6044356001600160401b03811161028d576103f6903690600401611ffa565b909160a4356001600160401b03811161028d5761041790369060040161202a565b60c4929192356001600160401b03811161028d5761043990369060040161202a565b939095610444612331565b8815610fb357858903610f6e5760843515610f2957610e1060643510610ee4576312cc030060643511610e9f5760788311610e5a576104008511610e155760005b8989818310610c77575050506127106104a2600b54608435612125565b046104af81608435612138565b906001600160a01b038616610b99576084353403610b4a5780610b20575b505b6104da600254612083565b98896002556104eb60643542612118565b926104f58c612234565b986105036040519a8b6121c8565b8c8a52601f196105128e612234565b013660208c013760005b8d8082106109da5750505050604051610534816121ac565b8a8152336020820152604081018990526001600160a01b0387166060820152608081018390524260a082015260c08101849052600160e082015261057936878761225f565b61010082015261058a36898c61225f565b6101208201528a6000526003602052604060002090805182556001820160018060a01b036020830151166001600160601b0360a01b82541617905560408101518051906001600160401b0382116108db57600160401b82116108db5760209060028501548360028701558084106109ba575b500160028401600052602060002060005b83811061099d57505050506003820160018060a01b036060830151166001600160601b0360a01b8254161790556080810151600483015560a0810151600583015560c081015160068301556007820160e082015160058110156102775760ff8019835416911617905561010081015180516001600160401b0381116108db57600884019161069b83546122ad565b601f811161096b575b50602090601f83116001146108fc5761012094939291600091836108f1575b50508160011b916000199060031b1c19161790555b0151908151906001600160401b0382116108db576009829101926106fc84546122ad565b601f811161089e575b50602090601f831160011461083257600092610827575b50508160011b916000199060031b1c19161790555b3360005260076020526107488a60406000206122e7565b60005b8b81106107e7575060208a8a817f99c2935b6c5640469c44ba48d835b891d4672bf2a5a6514f2467d743c26e5f7861079d8d6107d78e6107c78f8f8f8f8f604051998a9960e08b5260e08b0190611e3e565b9460018060a01b03168f8a01526040890152426060890152608088015286830360a0880152612310565b9083820360c08501523397612310565b0390a36001600055604051908152f35b808c6108066108016108229460018060a01b039387612092565b6120b8565b16600052600860205261081d8c60406000206122e7565b612083565b61074b565b015190508e8061071c565b9250836000526020600020906000935b601f1984168510610883576001945083601f1981161061086a575b505050811b019055610731565b015160001960f88460031b161c191690558e808061085d565b81810151835560209485019460019093019290910190610842565b6108cb90856000526020600020601f850160051c810191602086106108d1575b601f0160051c0190612296565b8f610705565b90915081906108be565b634e487b7160e01b600052604160045260246000fd5b0151905038806106c3565b908360005260206000209160005b601f19851681106109535750918391600193610120979695601f1981161061093a575b505050811b0190556106d8565b015160001960f88460031b161c1916905538808061092d565b9192602060018192868501518155019401920161090a565b61099790846000526020600020601f850160051c810191602086106108d157601f0160051c0190612296565b386106a4565b82516001600160a01b03168183015560209092019160010161060d565b6109d4906002870160005284846000209182019101612296565b386105fc565b610801826109e89287612092565b6109f2828d61224b565b6001600160a01b039091169052610a0a818385612092565b359060643515610b0a57606435820415610ac5578e8e610ac093816000526004602052604060002060018060a01b03610a4761080187878d612092565b166000526020526064359004604060002055806000526005602052604060002060018060a01b03610a7c61080186868c612092565b16600052602052426040600020556000526006602052604060002090610aad6108018460018060a01b03938a612092565b1660005260205260006040812055612083565b61051c565b60405162461bcd60e51b815260206004820152601860248201527f44726970436f72653a205261746520746f6f20736d616c6c00000000000000006044820152606490fd5b634e487b7160e01b600052601260045260246000fd5b6000808080610b449460018060a01b03600c54165af1610b3e612204565b50612145565b8a6104cd565b60405162461bcd60e51b815260206004820152602160248201527f44726970436f72653a20496e636f7272656374206e617469766520616d6f756e6044820152601d60fa1b6064820152608490fd5b34610c2657610baa82303389612c36565b15610be15780610bbb575b506104cf565b600c54610bdb91610bd6916001600160a01b03163389612c36565b612145565b8a610bb5565b60405162461bcd60e51b815260206004820152601f60248201527f44726970436f72653a20546f6b656e207472616e73666572206661696c6564006044820152606490fd5b60405162461bcd60e51b815260206004820152602360248201527f44726970436f72653a204e617469766520746f6b656e206e6f742065787065636044820152621d195960ea1b6064820152608490fd5b610c8f61080184610c979460018060a01b0394612092565b1615156120cc565b336001600160a01b03610cae610801848e8e612092565b1614610dd057610cbf818884612092565b3515610d8b57600181018111610d7557600181015b8a8110610cea5750610ce590612083565b610485565b8a8a610d1061080184610d01610801888787612092565b946001600160a01b0394612092565b6001600160a01b03909216911614610d3057610d2b90612083565b610cd4565b60405162461bcd60e51b815260206004820152601d60248201527f44726970436f72653a204475706c696361746520726563697069656e740000006044820152606490fd5b634e487b7160e01b600052601160045260246000fd5b60405162461bcd60e51b815260206004820152601860248201527f44726970436f72653a20496e76616c696420616d6f756e7400000000000000006044820152606490fd5b60405162461bcd60e51b815260206004820152601f60248201527f44726970436f72653a2043616e6e6f742073747265616d20746f2073656c66006044820152606490fd5b60405162461bcd60e51b815260206004820152601e60248201527f44726970436f72653a204465736372697074696f6e20746f6f206c6f6e6700006044820152606490fd5b60405162461bcd60e51b815260206004820152601860248201527f44726970436f72653a205469746c6520746f6f206c6f6e6700000000000000006044820152606490fd5b60405162461bcd60e51b815260206004820152601960248201527f44726970436f72653a20506572696f6420746f6f206c6f6e67000000000000006044820152606490fd5b60405162461bcd60e51b815260206004820152601a60248201527f44726970436f72653a20506572696f6420746f6f2073686f72740000000000006044820152606490fd5b60405162461bcd60e51b815260206004820152601960248201527f44726970436f72653a20496e76616c6964206465706f736974000000000000006044820152606490fd5b60405162461bcd60e51b815260206004820152601b60248201527f44726970436f72653a204d69736d6174636865642061727261797300000000006044820152606490fd5b60405162461bcd60e51b815260206004820152602960248201527f44726970436f72653a204174206c65617374206f6e6520726563697069656e74604482015268081c995c5d5a5c995960ba1b6064820152608490fd5b3461028d57600036600319011261028d57600c546040516001600160a01b039091168152602090f35b3461028d5760208060031936011261028d576001600160a01b03611055611e28565b16600052600781526040600020604051808284829454938481520190600052846000209260005b868282106110f95784611091818603826121c8565b61109b8151612903565b9160005b82518110156110eb57806110b66110e6928561224b565b51600052600383526110cb60406000206123fa565b6110d5828761224b565b526110e0818661224b565b50612083565b61109f565b604051806102ff8682611f5d565b855484526001958601958795509301920161107c565b3461028d5760208060031936011261028d576001600160a01b03611131611e28565b1660005260078152604060002090604051908181845491828152019360005281600020916000905b828210611170576102ff856102f3818903826121c8565b835486529485019460019384019390910190611159565b3461028d57600036600319011261028d576020604051610e108152f35b3461028d57600036600319011261028d5760206040516312cc03008152f35b3461028d57604036600319011261028d576112ae6004356111e2611e12565b906111eb6127ec565b50806000526020906003825261120460406000206123fa565b90611211825115156124e2565b61122361121e8584612953565b61252e565b60008181526005845260408082206001600160a01b038716808452908652912054909490928315611362575b5060008281526004808652604080832088845287528083205485845260068852818420898552885292819020549051630186ccd560e21b8152918201949094526001600160a01b03909216602483015290958490879081906044820190565b0381305afa93841561135657600094611326575b60a09650604051956112d387612191565b865285015260408401526060830152608082015261132460405180926080809160018060a01b0381511684526020810151602085015260408101516040850152606081015160608501520151910152565bf35b80945086813d831161134f575b61133d81836121c8565b8101031261028d5760a09551936112c2565b503d611333565b6040513d6000823e3d90fd5b60a0015192508661124f565b3461028d5760208060031936011261028d576001600160a01b03611390611e28565b16600052600881526040600020604051808284829454938481520190600052846000209260005b868282106113f657846113cc818603826121c8565b6113d68151612903565b9160005b82518110156110eb57806110b66113f1928561224b565b6113da565b85548452600195860195879550930192016113b7565b3461028d57600036600319011261028d576001546040516001600160a01b039091168152602090f35b3461028d57600036600319011261028d5760206040516104008152f35b3461028d57602036600319011261028d5761146b6128b8565b5060043560005260036020526102ff61148760406000206123fa565b611493815115156124e2565b604051918291602083526020830190611ebb565b3461028d57606036600319011261028d576004356114c3611e12565b6044356114ce612331565b826000526020926003845260406000206114ea815415156124e2565b600781019060ff825416600581101561027757600161150991146127a0565b61151e61121e86611519846123fa565b612953565b6001600160a01b03858116943386900361176857604051630186ccd560e21b8152600481018690526001600160a01b0388166024820152908882604481305afa91821561135657600092611739575b5081156116f4578061169b5750906115cd919687915b8660005260068a526040600020886000528a5260406000206115a6848254612118565b90558660005260058a526040600020886000528a5242604060002055600385015416612aeb565b156116565760046115de42856129a8565b910154111561161f575b507fb8794a93ad70d58bd94788f8523cd8ebcff47f5541f8816ade60c636f1b5782784604051858152a36001600055604051908152f35b805460ff19166004179055807f9f42d6cda766c435d861d2ff395b3e17ade9bf57cf770549b62662947ff15b4a600080a2846115e8565b60405162461bcd60e51b815260048101879052601960248201527f44726970436f72653a205472616e73666572206661696c6564000000000000006044820152606490fd5b9081116116af57906115cd91968791611583565b60405162461bcd60e51b815260048101899052601e60248201527f44726970436f72653a20496e73756666696369656e742062616c616e636500006044820152606490fd5b60405162461bcd60e51b8152600481018a9052601e60248201527f44726970436f72653a204e6f2062616c616e636520617661696c61626c6500006044820152606490fd5b9091508881813d8311611761575b61175181836121c8565b8101031261028d5751908961156d565b503d611747565b60405162461bcd60e51b815260048101899052602560248201527f44726970436f72653a204f6e6c7920726563697069656e742063616e20776974604482015264686472617760d81b6064820152608490fd5b3461028d57602036600319011261028d5760043580600052600360205260406000206117e9815415156124e2565b600781019060ff8254166005811015610277576118289161180d60018093146127a0565b818060a01b03918291015416331490811561186c5750612817565b81600052600a60205242604060002055600260ff1982541617905533907fff71f52d9d3ad4ae0959691a14ef1d1478d482ca10ac8be29c8e7d88cf3baba6600080a3005b90506001541633148461019a565b3461028d57600036600319011261028d57611893612057565b600180546001600160a01b031981169091556000906001600160a01b03167f8be0079c531659141344cd1fd0a4f28419497f9722a3daafe3b4186f6b6457e08280a3005b3461028d57602036600319011261028d576004356118f3612331565b80600052600360205260406000209061190e825415156124e2565b6007820191825460ff811660058110156102775760018114908115611abf575b5015611a6e5760018201546003946001600160a01b0391821691906000903384148015611a61575b61195f90612817565b61196942886129a8565b9060048701918254908082118514611a565761198491612138565b9889965b60ff191617905555826119cb575b82856040519182527ffeed183d9f143664e4ca27ca57080be96d765ab4bff9d02e3bb0a9b04e149c2560203393a36001600055005b60036119ee940154168015600014611a41576119e98347101561285c565b612aeb565b156119fc5782828180611996565b60405162461bcd60e51b815260206004820152601760248201527f44726970436f72653a20526566756e64206661696c65640000000000000000006044820152606490fd5b6119e983611a4f3084612d61565b101561285c565b505082988996611988565b5060015483163314611956565b60405162461bcd60e51b8152602060048201526024808201527f44726970436f72653a2053747265616d2063616e6e6f742062652063616e63656044820152631b1b195960e21b6064820152608490fd5b60029150148561192e565b3461028d57602036600319011261028d576020611aef611ae8611e28565b3090612d61565b604051908152f35b3461028d5760208060031936011261028d576004359081600052600381526040611b23816000206123fa565b611b2f815115156124e2565b0180515192611b3d84612234565b93611b4b60405195866121c8565b808552611b5a601f1991612234565b018360005b828110611ce75750505060005b82518051821015611c6d576001600160a01b039190611bc7908390611b9290849061224b565b5160405163abc4f54160e01b81526004810187905291166001600160a01b0316602482015260a0918290829081906044820190565b0381305afa91821561135657600092611bfc575b5050611bf79250611bec828861224b565b526110e0818761224b565b611b6c565b90809250813d8311611c66575b611c1381836121c8565b8101031261028d5760405190611c2882612191565b8051938416840361028d57611bf793825286810151878301526040810151604083015260608082015190830152608080910151908201528780611bdb565b503d611c09565b604080518681528751818801819052888801928201908860005b828110611c945784840385f35b9091928260a082611cd86001948a516080809160018060a01b0381511684526020810151602085015260408101516040850152606081015160608501520151910152565b01960191019492919094611c87565b611cef6127ec565b828289010152018490611b5f565b3461028d57600036600319011261028d576020600b54604051908152f35b3461028d57600036600319011261028d57602060405160788152f35b3461028d57602036600319011261028d57611d50611e28565b611d58612057565b6001600160a01b0316611d6c8115156120cc565b6001600160601b0360a01b600c541617600c55600080f35b3461028d57602036600319011261028d57600435611da0612057565b6103e88111611dae57600b55005b60405162461bcd60e51b8152602060048201526016602482015275088e4d2e086dee4ca74408ccaca40e8dede40d0d2ced60531b6044820152606490fd5b3461028d57604036600319011261028d576020611aef611e0a611e12565b60043561257a565b602435906001600160a01b038216820361028d57565b600435906001600160a01b038216820361028d57565b90815180825260208080930193019160005b828110611e5e575050505090565b83516001600160a01b031685529381019392810192600101611e50565b919082519283825260005b848110611ea7575050826000602080949584010152601f8019910116010190565b602081830181015184830182015201611e86565b908151815260018060a01b0391826020820151166020830152611eed6040820151610140806040860152840190611e3e565b9260608201511660608301526080810151608083015260a081015160a083015260c081015160c083015260e0810151600581101561027757611f5a93611f469160e0850152610100808401519085830390860152611e7b565b916101208092015191818403910152611e7b565b90565b602080820190808352835180925260408301928160408460051b8301019501936000915b848310611f915750505050505090565b9091929394958480611faf600193603f198682030187528a51611ebb565b9801930193019194939290611f81565b6020908160408183019282815285518094520193019160005b828110611fe6575050505090565b835185529381019392810192600101611fd8565b9181601f8401121561028d578235916001600160401b03831161028d576020808501948460051b01011161028d57565b9181601f8401121561028d578235916001600160401b03831161028d576020838186019501011161028d57565b6001546001600160a01b0316330361206b57565b60405163118cdaa760e01b8152336004820152602490fd5b6000198114610d755760010190565b91908110156120a25760051b0190565b634e487b7160e01b600052603260045260246000fd5b356001600160a01b038116810361028d5790565b156120d357565b60405162461bcd60e51b815260206004820152601b60248201527f44726970436f72653a20496e76616c696420726563697069656e7400000000006044820152606490fd5b91908201809211610d7557565b81810292918115918404141715610d7557565b91908203918211610d7557565b1561214c57565b60405162461bcd60e51b815260206004820152601d60248201527f44726970436f72653a20466565207472616e73666572206661696c65640000006044820152606490fd5b60a081019081106001600160401b038211176108db57604052565b61014081019081106001600160401b038211176108db57604052565b90601f801991011681019081106001600160401b038211176108db57604052565b6001600160401b0381116108db57601f01601f191660200190565b3d1561222f573d90612215826121e9565b9161222360405193846121c8565b82523d6000602084013e565b606090565b6001600160401b0381116108db5760051b60200190565b80518210156120a25760209160051b010190565b92919261226b826121e9565b9161227960405193846121c8565b82948184528183011161028d578281602093846000960137010152565b8181106122a1575050565b60008155600101612296565b90600182811c921680156122dd575b60208310146122c757565b634e487b7160e01b600052602260045260246000fd5b91607f16916122bc565b805490600160401b8210156108db57600182018082558210156120a25760005260206000200155565b908060209392818452848401376000828201840152601f01601f1916010190565b600260005414612342576002600055565b604051633ee5aeb560e01b8152600490fd5b9060405191826000825492612368846122ad565b9081845260019485811690816000146123d75750600114612394575b5050612392925003836121c8565b565b9093915060005260209081600020936000915b8183106123bf57505061239293508201013880612384565b855488840185015294850194879450918301916123a7565b91505061239294506020925060ff191682840152151560051b8201013880612384565b90604051612407816121ac565b80928054825260018060a01b0360018181840154166020908186015260028401604051918293849382845491828152019360005282600020926000905b8282106124c85750505050509061245c9103826121c8565b6040840152600382015416606083015260048101546080830152600581015460a0830152600681015460c083015260ff6007820154169060058210156102775760096124c3916101209360e08601526124b760088201612354565b61010086015201612354565b910152565b845489168652879650948501949383019390830190612444565b156124e957565b60405162461bcd60e51b815260206004820152601f60248201527f44726970436f72653a2053747265616d20646f6573206e6f74206578697374006044820152606490fd5b1561253557565b60405162461bcd60e51b815260206004820152601960248201527f44726970436f72653a204e6f74206120726563697069656e74000000000000006044820152606490fd5b906000908282526020906003825260406125958185206123fa565b926125a2845115156124e2565b6125af61121e8486612953565b60e0840191825160058110156126f657600114158061278b575b61278157868652600482528086206001600160a01b0390941680875293825280862054938415612776578787526005835281872090875282528086205492831561276a575b8787526009835281872054815160058110156127565760021480612743575b61271e575b5083421160001461270a576126478442612138565b93888852600a8452828820541190816126df575b509261269a92608095926126a2956000146126d757600a612683928b8b525288205442612138565b808211156126ce5761269491612138565b90612125565b9442906129a8565b910151818111156126c7576126b79250612138565b8082116126c2575090565b905090565b50506126b7565b50508590612125565b505090612125565b90505160058110156126f65760021461269a61265b565b634e487b7160e01b87526021600452602487fd5b505050506126a261269a6080928590612125565b61273c90898952600a8552612736848a205442612138565b90612118565b5038612632565b50888852600a845282882054151561262d565b634e487b7160e01b89526021600452602489fd5b60a0860151935061260e565b505050505050905090565b5050505050905090565b50825160058110156126f657600214156125c9565b156127a757565b60405162461bcd60e51b815260206004820152601b60248201527f44726970436f72653a2053747265616d206e6f742061637469766500000000006044820152606490fd5b604051906127f982612191565b60006080838281528260208201528260408201528260608201520152565b1561281e57565b60405162461bcd60e51b8152602060048201526016602482015275111c9a5c10dbdc994e88155b985d5d1a1bdc9a5e995960521b6044820152606490fd5b1561286357565b60405162461bcd60e51b815260206004820152602760248201527f44726970436f72653a20496e73756666696369656e7420636f6e74726163742060448201526662616c616e636560c81b6064820152608490fd5b604051906128c5826121ac565b606061012083600080825280602083015283604083015280848301528060808301528060a08301528060c083015260e0820152826101008201520152565b9061290d82612234565b61291a60405191826121c8565b828152809261292b601f1991612234565b019060005b82811061293c57505050565b6020906129476128b8565b82828501015201612930565b9060005b6040830151805182101561299f576001600160a01b0390819061297b90849061224b565b51169083161461299757612990604091612083565b9050612957565b505050600190565b50505050600090565b90916000828152602093600385526040946129c48684206123fa565b94855115612ac9578395949295928495888101945b855151881015612a2257612a16612a1c91858952600487528b892060018060a01b03612a068c8b5161224b565b51168a5287528b89205490612118565b97612083565b966129d9565b96509692909791935083855260098152818520549360e088015160058110156126f657916080979593916002612a839896941480612ab6575b612a91575b50505060a0870151612a7191612138565b818111156126d7576126949250612138565b9101518082116126c2575090565b612aad92600a612a719596936127369389525286205485612138565b91903880612a60565b50808652600a8252828620541515612a5b565b5050509150915090565b9081602091031261028d5751801515810361028d5790565b600092839290916001600160a01b0390811680612b70575050829350829182915af1612b15612204565b508015612b1f5790565b60405162461bcd60e51b815260206004820152602360248201527f546f6b656e48656c7065723a204e6174697665207472616e73666572206661696044820152621b195960ea1b6064820152608490fd5b60209285604492604051968795869463a9059cbb60e01b865216600485015260248401525af1918215612c2a5791612bfc575b5015612bac5790565b60405162461bcd60e51b815260206004820152602260248201527f546f6b656e48656c7065723a204552433230207472616e73666572206661696c604482015261195960f21b6064820152608490fd5b612c1d915060203d8111612c23575b612c1581836121c8565b810190612ad3565b38612ba3565b503d612c0b565b604051903d90823e3d90fd5b9192916001600160a01b0391908216908115612d065760006064926020958560405198899788966323b872dd60e01b885216600487015216602485015260448401525af190811561135657600091612ce8575b5015612c9457600190565b60405162461bcd60e51b815260206004820152602660248201527f546f6b656e48656c7065723a204552433230207472616e7366657246726f6d2060448201526519985a5b195960d21b6064820152608490fd5b612d00915060203d8111612c2357612c1581836121c8565b38612c89565b60405162461bcd60e51b815260206004820152602d60248201527f546f6b656e48656c7065723a2043616e6e6f74207472616e7366657246726f6d60448201526c103730ba34bb32903a37b5b2b760991b6064820152608490fd5b6001600160a01b039081169081612d785750503190565b6040516370a0823160e01b815292166004830152602090829060249082905afa90811561135657600091612daa575090565b906020823d8211612dd3575b81612dc3602093836121c8565b81010312612dd057505190565b80fd5b3d9150612db656fea26469706673582212204bf2db9993061ee0d081c3bd58e5db173194134365bbbc6465f54f92d190653a64736f6c63430008140033",
  "linkReferences": {},
  "deployedLinkReferences": {}
}