{
  "contracts/DripCore.sol": {
    "DripCore": {
      "abi": [
        {
          "inputs": [
            {
              "internalType": "address",
              "name": "_platformFeeRecipient",
              "type": "address"
            }
          ],
          "stateMutability": "nonpayable",
          "type": "constructor"
        },
        {
          "inputs": [
            {
              "internalType": "address",
              "name": "owner",
              "type": "address"
            }
          ],
          "name": "OwnableInvalidOwner",
          "type": "error"
        },
        {
          "inputs": [
            {
              "internalType": "address",
              "name": "account",
              "type": "address"
            }
          ],
          "name": "OwnableUnauthorizedAccount",
          "type": "error"
        },
        {
          "inputs": [],
          "name": "ReentrancyGuardReentrantCall",
          "type": "error"
        },
        {
          "anonymous": false,
          "inputs": [
            {
              "indexed": true,
              "internalType": "address",
              "name": "previousOwner",
              "type": "address"
            },
            {
              "indexed": true,
              "internalType": "address",
              "name": "newOwner",
              "type": "address"
            }
          ],
          "name": "OwnershipTransferred",
          "type": "event"
        },
        {
          "anonymous": false,
          "inputs": [
            {
              "indexed": true,
              "internalType": "uint256",
              "name": "streamId",
              "type": "uint256"
            },
            {
              "indexed": true,
              "internalType": "address",
              "name": "by",
              "type": "address"
            },
            {
              "indexed": false,
              "internalType": "uint256",
              "name": "refundAmount",
              "type": "uint256"
            }
          ],
          "name": "StreamCancelled",
          "type": "event"
        },
        {
          "anonymous": false,
          "inputs": [
            {
              "indexed": true,
              "internalType": "uint256",
              "name": "streamId",
              "type": "uint256"
            }
          ],
          "name": "StreamCompleted",
          "type": "event"
        },
        {
          "anonymous": false,
          "inputs": [
            {
              "indexed": true,
              "internalType": "uint256",
              "name": "streamId",
              "type": "uint256"
            },
            {
              "indexed": true,
              "internalType": "address",
              "name": "sender",
              "type": "address"
            },
            {
              "indexed": false,
              "internalType": "address[]",
              "name": "recipients",
              "type": "address[]"
            },
            {
              "indexed": false,
              "internalType": "address",
              "name": "token",
              "type": "address"
            },
            {
              "indexed": false,
              "internalType": "uint256",
              "name": "deposit",
              "type": "uint256"
            },
            {
              "indexed": false,
              "internalType": "uint256",
              "name": "startTime",
              "type": "uint256"
            },
            {
              "indexed": false,
              "internalType": "uint256",
              "name": "endTime",
              "type": "uint256"
            },
            {
              "indexed": false,
              "internalType": "string",
              "name": "title",
              "type": "string"
            },
            {
              "indexed": false,
              "internalType": "string",
              "name": "description",
              "type": "string"
            }
          ],
          "name": "StreamCreated",
          "type": "event"
        },
        {
          "anonymous": false,
          "inputs": [
            {
              "indexed": true,
              "internalType": "uint256",
              "name": "streamId",
              "type": "uint256"
            },
            {
              "indexed": true,
              "internalType": "address",
              "name": "by",
              "type": "address"
            }
          ],
          "name": "StreamPaused",
          "type": "event"
        },
        {
          "anonymous": false,
          "inputs": [
            {
              "indexed": true,
              "internalType": "uint256",
              "name": "streamId",
              "type": "uint256"
            },
            {
              "indexed": true,
              "internalType": "address",
              "name": "by",
              "type": "address"
            }
          ],
          "name": "StreamResumed",
          "type": "event"
        },
        {
          "anonymous": false,
          "inputs": [
            {
              "indexed": true,
              "internalType": "uint256",
              "name": "streamId",
              "type": "uint256"
            },
            {
              "indexed": true,
              "internalType": "address",
              "name": "recipient",
              "type": "address"
            },
            {
              "indexed": false,
              "internalType": "uint256",
              "name": "amount",
              "type": "uint256"
            }
          ],
          "name": "StreamWithdrawn",
          "type": "event"
        },
        {
          "inputs": [],
          "name": "MAX_DESCRIPTION_LEN",
          "outputs": [
            {
              "internalType": "uint256",
              "name": "",
              "type": "uint256"
            }
          ],
          "stateMutability": "view",
          "type": "function"
        },
        {
          "inputs": [],
          "name": "MAX_DURATION",
          "outputs": [
            {
              "internalType": "uint256",
              "name": "",
              "type": "uint256"
            }
          ],
          "stateMutability": "view",
          "type": "function"
        },
        {
          "inputs": [],
          "name": "MAX_TITLE_LEN",
          "outputs": [
            {
              "internalType": "uint256",
              "name": "",
              "type": "uint256"
            }
          ],
          "stateMutability": "view",
          "type": "function"
        },
        {
          "inputs": [],
          "name": "MIN_DURATION",
          "outputs": [
            {
              "internalType": "uint256",
              "name": "",
              "type": "uint256"
            }
          ],
          "stateMutability": "view",
          "type": "function"
        },
        {
          "inputs": [
            {
              "internalType": "uint256",
              "name": "streamId",
              "type": "uint256"
            }
          ],
          "name": "cancelStream",
          "outputs": [],
          "stateMutability": "nonpayable",
          "type": "function"
        },
        {
          "inputs": [
            {
              "internalType": "address[]",
              "name": "recipients",
              "type": "address[]"
            },
            {
              "internalType": "address",
              "name": "token",
              "type": "address"
            },
            {
              "internalType": "uint256[]",
              "name": "amountsPerPeriod",
              "type": "uint256[]"
            },
            {
              "internalType": "uint256",
              "name": "periodSeconds",
              "type": "uint256"
            },
            {
              "internalType": "uint256",
              "name": "deposit",
              "type": "uint256"
            },
            {
              "internalType": "string",
              "name": "title",
              "type": "string"
            },
            {
              "internalType": "string",
              "name": "description",
              "type": "string"
            }
          ],
          "name": "createStream",
          "outputs": [
            {
              "internalType": "uint256",
              "name": "streamId",
              "type": "uint256"
            }
          ],
          "stateMutability": "payable",
          "type": "function"
        },
        {
          "inputs": [
            {
              "internalType": "uint256",
              "name": "streamId",
              "type": "uint256"
            }
          ],
          "name": "getAllRecipientsInfo",
          "outputs": [
            {
              "components": [
                {
                  "internalType": "address",
                  "name": "recipient",
                  "type": "address"
                },
                {
                  "internalType": "uint256",
                  "name": "ratePerSecond",
                  "type": "uint256"
                },
                {
                  "internalType": "uint256",
                  "name": "totalWithdrawn",
                  "type": "uint256"
                },
                {
                  "internalType": "uint256",
                  "name": "lastWithdrawTime",
                  "type": "uint256"
                },
                {
                  "internalType": "uint256",
                  "name": "currentAccrued",
                  "type": "uint256"
                }
              ],
              "internalType": "struct IDrip.RecipientInfo[]",
              "name": "recipients",
              "type": "tuple[]"
            }
          ],
          "stateMutability": "view",
          "type": "function"
        },
        {
          "inputs": [
            {
              "internalType": "address",
              "name": "token",
              "type": "address"
            }
          ],
          "name": "getContractBalance",
          "outputs": [
            {
              "internalType": "uint256",
              "name": "balance",
              "type": "uint256"
            }
          ],
          "stateMutability": "view",
          "type": "function"
        },
        {
          "inputs": [
            {
              "internalType": "uint256",
              "name": "streamId",
              "type": "uint256"
            },
            {
              "internalType": "address",
              "name": "recipient",
              "type": "address"
            }
          ],
          "name": "getRecipientBalance",
          "outputs": [
            {
              "internalType": "uint256",
              "name": "balance",
              "type": "uint256"
            }
          ],
          "stateMutability": "view",
          "type": "function"
        },
        {
          "inputs": [
            {
              "internalType": "uint256",
              "name": "streamId",
              "type": "uint256"
            },
            {
              "internalType": "address",
              "name": "recipient",
              "type": "address"
            }
          ],
          "name": "getRecipientInfo",
          "outputs": [
            {
              "components": [
                {
                  "internalType": "address",
                  "name": "recipient",
                  "type": "address"
                },
                {
                  "internalType": "uint256",
                  "name": "ratePerSecond",
                  "type": "uint256"
                },
                {
                  "internalType": "uint256",
                  "name": "totalWithdrawn",
                  "type": "uint256"
                },
                {
                  "internalType": "uint256",
                  "name": "lastWithdrawTime",
                  "type": "uint256"
                },
                {
                  "internalType": "uint256",
                  "name": "currentAccrued",
                  "type": "uint256"
                }
              ],
              "internalType": "struct IDrip.RecipientInfo",
              "name": "info",
              "type": "tuple"
            }
          ],
          "stateMutability": "view",
          "type": "function"
        },
        {
          "inputs": [
            {
              "internalType": "address",
              "name": "recipient",
              "type": "address"
            }
          ],
          "name": "getRecipientStreams",
          "outputs": [
            {
              "internalType": "uint256[]",
              "name": "streamIds",
              "type": "uint256[]"
            }
          ],
          "stateMutability": "view",
          "type": "function"
        },
        {
          "inputs": [
            {
              "internalType": "address",
              "name": "sender",
              "type": "address"
            }
          ],
          "name": "getSenderStreams",
          "outputs": [
            {
              "internalType": "uint256[]",
              "name": "streamIds",
              "type": "uint256[]"
            }
          ],
          "stateMutability": "view",
          "type": "function"
        },
        {
          "inputs": [
            {
              "internalType": "uint256",
              "name": "streamId",
              "type": "uint256"
            }
          ],
          "name": "getStream",
          "outputs": [
            {
              "components": [
                {
                  "internalType": "uint256",
                  "name": "streamId",
                  "type": "uint256"
                },
                {
                  "internalType": "address",
                  "name": "sender",
                  "type": "address"
                },
                {
                  "internalType": "address[]",
                  "name": "recipients",
                  "type": "address[]"
                },
                {
                  "internalType": "address",
                  "name": "token",
                  "type": "address"
                },
                {
                  "internalType": "uint256",
                  "name": "deposit",
                  "type": "uint256"
                },
                {
                  "internalType": "uint256",
                  "name": "startTime",
                  "type": "uint256"
                },
                {
                  "internalType": "uint256",
                  "name": "endTime",
                  "type": "uint256"
                },
                {
                  "internalType": "enum IDrip.StreamStatus",
                  "name": "status",
                  "type": "uint8"
                },
                {
                  "internalType": "string",
                  "name": "title",
                  "type": "string"
                },
                {
                  "internalType": "string",
                  "name": "description",
                  "type": "string"
                }
              ],
              "internalType": "struct IDrip.Stream",
              "name": "stream",
              "type": "tuple"
            }
          ],
          "stateMutability": "view",
          "type": "function"
        },
        {
          "inputs": [
            {
              "internalType": "address",
              "name": "user",
              "type": "address"
            }
          ],
          "name": "getUserReceivedStreams",
          "outputs": [
            {
              "components": [
                {
                  "internalType": "uint256",
                  "name": "streamId",
                  "type": "uint256"
                },
                {
                  "internalType": "address",
                  "name": "sender",
                  "type": "address"
                },
                {
                  "internalType": "address[]",
                  "name": "recipients",
                  "type": "address[]"
                },
                {
                  "internalType": "address",
                  "name": "token",
                  "type": "address"
                },
                {
                  "internalType": "uint256",
                  "name": "deposit",
                  "type": "uint256"
                },
                {
                  "internalType": "uint256",
                  "name": "startTime",
                  "type": "uint256"
                },
                {
                  "internalType": "uint256",
                  "name": "endTime",
                  "type": "uint256"
                },
                {
                  "internalType": "enum IDrip.StreamStatus",
                  "name": "status",
                  "type": "uint8"
                },
                {
                  "internalType": "string",
                  "name": "title",
                  "type": "string"
                },
                {
                  "internalType": "string",
                  "name": "description",
                  "type": "string"
                }
              ],
              "internalType": "struct IDrip.Stream[]",
              "name": "streams",
              "type": "tuple[]"
            }
          ],
          "stateMutability": "view",
          "type": "function"
        },
        {
          "inputs": [
            {
              "internalType": "address",
              "name": "user",
              "type": "address"
            }
          ],
          "name": "getUserSentStreams",
          "outputs": [
            {
              "components": [
                {
                  "internalType": "uint256",
                  "name": "streamId",
                  "type": "uint256"
                },
                {
                  "internalType": "address",
                  "name": "sender",
                  "type": "address"
                },
                {
                  "internalType": "address[]",
                  "name": "recipients",
                  "type": "address[]"
                },
                {
                  "internalType": "address",
                  "name": "token",
                  "type": "address"
                },
                {
                  "internalType": "uint256",
                  "name": "deposit",
                  "type": "uint256"
                },
                {
                  "internalType": "uint256",
                  "name": "startTime",
                  "type": "uint256"
                },
                {
                  "internalType": "uint256",
                  "name": "endTime",
                  "type": "uint256"
                },
                {
                  "internalType": "enum IDrip.StreamStatus",
                  "name": "status",
                  "type": "uint8"
                },
                {
                  "internalType": "string",
                  "name": "title",
                  "type": "string"
                },
                {
                  "internalType": "string",
                  "name": "description",
                  "type": "string"
                }
              ],
              "internalType": "struct IDrip.Stream[]",
              "name": "streams",
              "type": "tuple[]"
            }
          ],
          "stateMutability": "view",
          "type": "function"
        },
        {
          "inputs": [],
          "name": "owner",
          "outputs": [
            {
              "internalType": "address",
              "name": "",
              "type": "address"
            }
          ],
          "stateMutability": "view",
          "type": "function"
        },
        {
          "inputs": [
            {
              "internalType": "uint256",
              "name": "streamId",
              "type": "uint256"
            }
          ],
          "name": "pauseStream",
          "outputs": [],
          "stateMutability": "nonpayable",
          "type": "function"
        },
        {
          "inputs": [],
          "name": "platformFeeBps",
          "outputs": [
            {
              "internalType": "uint256",
              "name": "",
              "type": "uint256"
            }
          ],
          "stateMutability": "view",
          "type": "function"
        },
        {
          "inputs": [],
          "name": "platformFeeRecipient",
          "outputs": [
            {
              "internalType": "address",
              "name": "",
              "type": "address"
            }
          ],
          "stateMutability": "view",
          "type": "function"
        },
        {
          "inputs": [],
          "name": "renounceOwnership",
          "outputs": [],
          "stateMutability": "nonpayable",
          "type": "function"
        },
        {
          "inputs": [
            {
              "internalType": "uint256",
              "name": "streamId",
              "type": "uint256"
            }
          ],
          "name": "resumeStream",
          "outputs": [],
          "stateMutability": "nonpayable",
          "type": "function"
        },
        {
          "inputs": [
            {
              "internalType": "uint256",
              "name": "newFeeBps",
              "type": "uint256"
            }
          ],
          "name": "setPlatformFee",
          "outputs": [],
          "stateMutability": "nonpayable",
          "type": "function"
        },
        {
          "inputs": [
            {
              "internalType": "address",
              "name": "newRecipient",
              "type": "address"
            }
          ],
          "name": "setPlatformFeeRecipient",
          "outputs": [],
          "stateMutability": "nonpayable",
          "type": "function"
        },
        {
          "inputs": [
            {
              "internalType": "address",
              "name": "newOwner",
              "type": "address"
            }
          ],
          "name": "transferOwnership",
          "outputs": [],
          "stateMutability": "nonpayable",
          "type": "function"
        },
        {
          "inputs": [
            {
              "internalType": "uint256",
              "name": "streamId",
              "type": "uint256"
            },
            {
              "internalType": "address",
              "name": "recipient",
              "type": "address"
            },
            {
              "internalType": "uint256",
              "name": "amount",
              "type": "uint256"
            }
          ],
          "name": "withdrawFromStream",
          "outputs": [
            {
              "internalType": "uint256",
              "name": "withdrawn",
              "type": "uint256"
            }
          ],
          "stateMutability": "nonpayable",
          "type": "function"
        },
        {
          "stateMutability": "payable",
          "type": "receive"
        }
      ],
      "evm": {
        "bytecode": {
          "linkReferences": {},
          "object": "6080346200012657601f62002f5338819003918201601f19168301916001600160401b038311848410176200012b578084926020946040528339810103126200012657516001600160a01b03808216918290036200012657600160005533156200010d5760018054336001600160a01b0319808316821790935560405192939091167f8be0079c531659141344cd1fd0a4f28419497f9722a3daafe3b4186f6b6457e0600080a36032600b558215620000cb5750600c541617600c55604051612e119081620001428239f35b62461bcd60e51b815260206004820152601f60248201527f44726970436f72653a20496e76616c69642066656520726563697069656e74006044820152606490fd5b604051631e4fbdf760e01b815260006004820152602490fd5b600080fd5b634e487b7160e01b600052604160045260246000fdfe6080604052600436101561001b575b361561001957600080fd5b005b60003560e01c8063061b335414611dec57806312e8e2c314611d845780631871e24314611d375780631b3a65b414611d1b57806322dcd13e14611cfd578063344ec96614611af757806343ab265f14611aca5780636db9241b146118d7578063715018a61461187a578063746ff13d146117bb578063819c3582146114a7578063894e9a0d146114525780638a2320da146114355780638da5cb5b1461140c57806393710ba01461136e578063abc4f541146111c3578063b1724b46146111a4578063b6a6d17714611187578063c019f4fc1461110f578063df3bc5bc14611033578063eb13554f1461100a578063ef89f4ec146103a3578063f2fde38b1461031a578063f7afe902146102925763fb6a984e0361000e573461028d5760208060031936011261028d57600435908160005260038152604060002090610163825415156124e2565b600782019160ff83541660058110156102775760020361023257600101546101a090336001600160a01b0391821614908115610224575b50612817565b82600052600a815260406000205490816101eb575b5050805460ff1916600117905533907f0dbfa51df8b0b3b2d196641ff6e01b8ad3a3bfea169bbd41f321c0391a3e8973600080a3005b6101f7600a9242612138565b846000526009825261020f6040600020918254612118565b905583600052526000604081205538806101b5565b90506001541633143861019a565b60405162461bcd60e51b815260048101839052601b60248201527f44726970436f72653a2053747265616d206e6f742070617573656400000000006044820152606490fd5b634e487b7160e01b600052602160045260246000fd5b600080fd5b3461028d5760208060031936011261028d576001600160a01b036102b4611e28565b1660005260088152604060002090604051908181845491828152019360005281600020916000905b828210610303576102ff856102f3818903826121c8565b60405191829182611fbf565b0390f35b8354865294850194600193840193909101906102dc565b3461028d57602036600319011261028d57610333611e28565b61033b612057565b6001600160a01b0390811690811561038a57600154826001600160601b0360a01b821617600155167f8be0079c531659141344cd1fd0a4f28419497f9722a3daafe3b4186f6b6457e0600080a3005b604051631e4fbdf760e01b815260006004820152602490fd5b60e036600319011261028d576004356001600160401b03811161028d576103ce903690600401611ffa565b906103d7611e12565b6044356001600160401b03811161028d576103f6903690600401611ffa565b909160a4356001600160401b03811161028d5761041790369060040161202a565b60c4929192356001600160401b03811161028d5761043990369060040161202a565b939095610444612331565b8815610fb357858903610f6e5760843515610f2957610e1060643510610ee4576312cc030060643511610e9f5760788311610e5a576104008511610e155760005b8989818310610c77575050506127106104a2600b54608435612125565b046104af81608435612138565b906001600160a01b038616610b99576084353403610b4a5780610b20575b505b6104da600254612083565b98896002556104eb60643542612118565b926104f58c612234565b986105036040519a8b6121c8565b8c8a52601f196105128e612234565b013660208c013760005b8d8082106109da5750505050604051610534816121ac565b8a8152336020820152604081018990526001600160a01b0387166060820152608081018390524260a082015260c08101849052600160e082015261057936878761225f565b61010082015261058a36898c61225f565b6101208201528a6000526003602052604060002090805182556001820160018060a01b036020830151166001600160601b0360a01b82541617905560408101518051906001600160401b0382116108db57600160401b82116108db5760209060028501548360028701558084106109ba575b500160028401600052602060002060005b83811061099d57505050506003820160018060a01b036060830151166001600160601b0360a01b8254161790556080810151600483015560a0810151600583015560c081015160068301556007820160e082015160058110156102775760ff8019835416911617905561010081015180516001600160401b0381116108db57600884019161069b83546122ad565b601f811161096b575b50602090601f83116001146108fc5761012094939291600091836108f1575b50508160011b916000199060031b1c19161790555b0151908151906001600160401b0382116108db576009829101926106fc84546122ad565b601f811161089e575b50602090601f831160011461083257600092610827575b50508160011b916000199060031b1c19161790555b3360005260076020526107488a60406000206122e7565b60005b8b81106107e7575060208a8a817f99c2935b6c5640469c44ba48d835b891d4672bf2a5a6514f2467d743c26e5f7861079d8d6107d78e6107c78f8f8f8f8f604051998a9960e08b5260e08b0190611e3e565b9460018060a01b03168f8a01526040890152426060890152608088015286830360a0880152612310565b9083820360c08501523397612310565b0390a36001600055604051908152f35b808c6108066108016108229460018060a01b039387612092565b6120b8565b16600052600860205261081d8c60406000206122e7565b612083565b61074b565b015190508e8061071c565b9250836000526020600020906000935b601f1984168510610883576001945083601f1981161061086a575b505050811b019055610731565b015160001960f88460031b161c191690558e808061085d565b81810151835560209485019460019093019290910190610842565b6108cb90856000526020600020601f850160051c810191602086106108d1575b601f0160051c0190612296565b8f610705565b90915081906108be565b634e487b7160e01b600052604160045260246000fd5b0151905038806106c3565b908360005260206000209160005b601f19851681106109535750918391600193610120979695601f1981161061093a575b505050811b0190556106d8565b015160001960f88460031b161c1916905538808061092d565b9192602060018192868501518155019401920161090a565b61099790846000526020600020601f850160051c810191602086106108d157601f0160051c0190612296565b386106a4565b82516001600160a01b03168183015560209092019160010161060d565b6109d4906002870160005284846000209182019101612296565b386105fc565b610801826109e89287612092565b6109f2828d61224b565b6001600160a01b039091169052610a0a818385612092565b359060643515610b0a57606435820415610ac5578e8e610ac093816000526004602052604060002060018060a01b03610a4761080187878d612092565b166000526020526064359004604060002055806000526005602052604060002060018060a01b03610a7c61080186868c612092565b16600052602052426040600020556000526006602052604060002090610aad6108018460018060a01b03938a612092565b1660005260205260006040812055612083565b61051c565b60405162461bcd60e51b815260206004820152601860248201527f44726970436f72653a205261746520746f6f20736d616c6c00000000000000006044820152606490fd5b634e487b7160e01b600052601260045260246000fd5b6000808080610b449460018060a01b03600c54165af1610b3e612204565b50612145565b8a6104cd565b60405162461bcd60e51b815260206004820152602160248201527f44726970436f72653a20496e636f7272656374206e617469766520616d6f756e6044820152601d60fa1b6064820152608490fd5b34610c2657610baa82303389612c36565b15610be15780610bbb575b506104cf565b600c54610bdb91610bd6916001600160a01b03163389612c36565b612145565b8a610bb5565b60405162461bcd60e51b815260206004820152601f60248201527f44726970436f72653a20546f6b656e207472616e73666572206661696c6564006044820152606490fd5b60405162461bcd60e51b815260206004820152602360248201527f44726970436f72653a204e617469766520746f6b656e206e6f742065787065636044820152621d195960ea1b6064820152608490fd5b610c8f61080184610c979460018060a01b0394612092565b1615156120cc565b336001600160a01b03610cae610801848e8e612092565b1614610dd057610cbf818884612092565b3515610d8b57600181018111610d7557600181015b8a8110610cea5750610ce590612083565b610485565b8a8a610d1061080184610d01610801888787612092565b946001600160a01b0394612092565b6001600160a01b03909216911614610d3057610d2b90612083565b610cd4565b60405162461bcd60e51b815260206004820152601d60248201527f44726970436f72653a204475706c696361746520726563697069656e740000006044820152606490fd5b634e487b7160e01b600052601160045260246000fd5b60405162461bcd60e51b815260206004820152601860248201527f44726970436f72653a20496e76616c696420616d6f756e7400000000000000006044820152606490fd5b60405162461bcd60e51b815260206004820152601f60248201527f44726970436f72653a2043616e6e6f742073747265616d20746f2073656c66006044820152606490fd5b60405162461bcd60e51b815260206004820152601e60248201527f44726970436f72653a204465736372697074696f6e20746f6f206c6f6e6700006044820152606490fd5b60405162461bcd60e51b815260206004820152601860248201527f44726970436f72653a205469746c6520746f6f206c6f6e6700000000000000006044820152606490fd5b60405162461bcd60e51b815260206004820152601960248201527f44726970436f72653a20506572696f6420746f6f206c6f6e67000000000000006044820152606490fd5b60405162461bcd60e51b815260206004820152601a60248201527f44726970436f72653a20506572696f6420746f6f2073686f72740000000000006044820152606490fd5b60405162461bcd60e51b815260206004820152601960248201527f44726970436f72653a20496e76616c6964206465706f736974000000000000006044820152606490fd5b60405162461bcd60e51b815260206004820152601b60248201527f44726970436f72653a204d69736d6174636865642061727261797300000000006044820152606490fd5b60405162461bcd60e51b815260206004820152602960248201527f44726970436f72653a204174206c65617374206f6e6520726563697069656e74604482015268081c995c5d5a5c995960ba1b6064820152608490fd5b3461028d57600036600319011261028d57600c546040516001600160a01b039091168152602090f35b3461028d5760208060031936011261028d576001600160a01b03611055611e28565b16600052600781526040600020604051808284829454938481520190600052846000209260005b868282106110f95784611091818603826121c8565b61109b8151612903565b9160005b82518110156110eb57806110b66110e6928561224b565b51600052600383526110cb60406000206123fa565b6110d5828761224b565b526110e0818661224b565b50612083565b61109f565b604051806102ff8682611f5d565b855484526001958601958795509301920161107c565b3461028d5760208060031936011261028d576001600160a01b03611131611e28565b1660005260078152604060002090604051908181845491828152019360005281600020916000905b828210611170576102ff856102f3818903826121c8565b835486529485019460019384019390910190611159565b3461028d57600036600319011261028d576020604051610e108152f35b3461028d57600036600319011261028d5760206040516312cc03008152f35b3461028d57604036600319011261028d576112ae6004356111e2611e12565b906111eb6127ec565b50806000526020906003825261120460406000206123fa565b90611211825115156124e2565b61122361121e8584612953565b61252e565b60008181526005845260408082206001600160a01b038716808452908652912054909490928315611362575b5060008281526004808652604080832088845287528083205485845260068852818420898552885292819020549051630186ccd560e21b8152918201949094526001600160a01b03909216602483015290958490879081906044820190565b0381305afa93841561135657600094611326575b60a09650604051956112d387612191565b865285015260408401526060830152608082015261132460405180926080809160018060a01b0381511684526020810151602085015260408101516040850152606081015160608501520151910152565bf35b80945086813d831161134f575b61133d81836121c8565b8101031261028d5760a09551936112c2565b503d611333565b6040513d6000823e3d90fd5b60a0015192508661124f565b3461028d5760208060031936011261028d576001600160a01b03611390611e28565b16600052600881526040600020604051808284829454938481520190600052846000209260005b868282106113f657846113cc818603826121c8565b6113d68151612903565b9160005b82518110156110eb57806110b66113f1928561224b565b6113da565b85548452600195860195879550930192016113b7565b3461028d57600036600319011261028d576001546040516001600160a01b039091168152602090f35b3461028d57600036600319011261028d5760206040516104008152f35b3461028d57602036600319011261028d5761146b6128b8565b5060043560005260036020526102ff61148760406000206123fa565b611493815115156124e2565b604051918291602083526020830190611ebb565b3461028d57606036600319011261028d576004356114c3611e12565b6044356114ce612331565b826000526020926003845260406000206114ea815415156124e2565b600781019060ff825416600581101561027757600161150991146127a0565b61151e61121e86611519846123fa565b612953565b6001600160a01b03858116943386900361176857604051630186ccd560e21b8152600481018690526001600160a01b0388166024820152908882604481305afa91821561135657600092611739575b5081156116f4578061169b5750906115cd919687915b8660005260068a526040600020886000528a5260406000206115a6848254612118565b90558660005260058a526040600020886000528a5242604060002055600385015416612aeb565b156116565760046115de42856129a8565b910154111561161f575b507fb8794a93ad70d58bd94788f8523cd8ebcff47f5541f8816ade60c636f1b5782784604051858152a36001600055604051908152f35b805460ff19166004179055807f9f42d6cda766c435d861d2ff395b3e17ade9bf57cf770549b62662947ff15b4a600080a2846115e8565b60405162461bcd60e51b815260048101879052601960248201527f44726970436f72653a205472616e73666572206661696c6564000000000000006044820152606490fd5b9081116116af57906115cd91968791611583565b60405162461bcd60e51b815260048101899052601e60248201527f44726970436f72653a20496e73756666696369656e742062616c616e636500006044820152606490fd5b60405162461bcd60e51b8152600481018a9052601e60248201527f44726970436f72653a204e6f2062616c616e636520617661696c61626c6500006044820152606490fd5b9091508881813d8311611761575b61175181836121c8565b8101031261028d5751908961156d565b503d611747565b60405162461bcd60e51b815260048101899052602560248201527f44726970436f72653a204f6e6c7920726563697069656e742063616e20776974604482015264686472617760d81b6064820152608490fd5b3461028d57602036600319011261028d5760043580600052600360205260406000206117e9815415156124e2565b600781019060ff8254166005811015610277576118289161180d60018093146127a0565b818060a01b03918291015416331490811561186c5750612817565b81600052600a60205242604060002055600260ff1982541617905533907fff71f52d9d3ad4ae0959691a14ef1d1478d482ca10ac8be29c8e7d88cf3baba6600080a3005b90506001541633148461019a565b3461028d57600036600319011261028d57611893612057565b600180546001600160a01b031981169091556000906001600160a01b03167f8be0079c531659141344cd1fd0a4f28419497f9722a3daafe3b4186f6b6457e08280a3005b3461028d57602036600319011261028d576004356118f3612331565b80600052600360205260406000209061190e825415156124e2565b6007820191825460ff811660058110156102775760018114908115611abf575b5015611a6e5760018201546003946001600160a01b0391821691906000903384148015611a61575b61195f90612817565b61196942886129a8565b9060048701918254908082118514611a565761198491612138565b9889965b60ff191617905555826119cb575b82856040519182527ffeed183d9f143664e4ca27ca57080be96d765ab4bff9d02e3bb0a9b04e149c2560203393a36001600055005b60036119ee940154168015600014611a41576119e98347101561285c565b612aeb565b156119fc5782828180611996565b60405162461bcd60e51b815260206004820152601760248201527f44726970436f72653a20526566756e64206661696c65640000000000000000006044820152606490fd5b6119e983611a4f3084612d61565b101561285c565b505082988996611988565b5060015483163314611956565b60405162461bcd60e51b8152602060048201526024808201527f44726970436f72653a2053747265616d2063616e6e6f742062652063616e63656044820152631b1b195960e21b6064820152608490fd5b60029150148561192e565b3461028d57602036600319011261028d576020611aef611ae8611e28565b3090612d61565b604051908152f35b3461028d5760208060031936011261028d576004359081600052600381526040611b23816000206123fa565b611b2f815115156124e2565b0180515192611b3d84612234565b93611b4b60405195866121c8565b808552611b5a601f1991612234565b018360005b828110611ce75750505060005b82518051821015611c6d576001600160a01b039190611bc7908390611b9290849061224b565b5160405163abc4f54160e01b81526004810187905291166001600160a01b0316602482015260a0918290829081906044820190565b0381305afa91821561135657600092611bfc575b5050611bf79250611bec828861224b565b526110e0818761224b565b611b6c565b90809250813d8311611c66575b611c1381836121c8565b8101031261028d5760405190611c2882612191565b8051938416840361028d57611bf793825286810151878301526040810151604083015260608082015190830152608080910151908201528780611bdb565b503d611c09565b604080518681528751818801819052888801928201908860005b828110611c945784840385f35b9091928260a082611cd86001948a516080809160018060a01b0381511684526020810151602085015260408101516040850152606081015160608501520151910152565b01960191019492919094611c87565b611cef6127ec565b828289010152018490611b5f565b3461028d57600036600319011261028d576020600b54604051908152f35b3461028d57600036600319011261028d57602060405160788152f35b3461028d57602036600319011261028d57611d50611e28565b611d58612057565b6001600160a01b0316611d6c8115156120cc565b6001600160601b0360a01b600c541617600c55600080f35b3461028d57602036600319011261028d57600435611da0612057565b6103e88111611dae57600b55005b60405162461bcd60e51b8152602060048201526016602482015275088e4d2e086dee4ca74408ccaca40e8dede40d0d2ced60531b6044820152606490fd5b3461028d57604036600319011261028d576020611aef611e0a611e12565b60043561257a565b602435906001600160a01b038216820361028d57565b600435906001600160a01b038216820361028d57565b90815180825260208080930193019160005b828110611e5e575050505090565b83516001600160a01b031685529381019392810192600101611e50565b919082519283825260005b848110611ea7575050826000602080949584010152601f8019910116010190565b602081830181015184830182015201611e86565b908151815260018060a01b0391826020820151166020830152611eed6040820151610140806040860152840190611e3e565b9260608201511660608301526080810151608083015260a081015160a083015260c081015160c083015260e0810151600581101561027757611f5a93611f469160e0850152610100808401519085830390860152611e7b565b916101208092015191818403910152611e7b565b90565b602080820190808352835180925260408301928160408460051b8301019501936000915b848310611f915750505050505090565b9091929394958480611faf600193603f198682030187528a51611ebb565b9801930193019194939290611f81565b6020908160408183019282815285518094520193019160005b828110611fe6575050505090565b835185529381019392810192600101611fd8565b9181601f8401121561028d578235916001600160401b03831161028d576020808501948460051b01011161028d57565b9181601f8401121561028d578235916001600160401b03831161028d576020838186019501011161028d57565b6001546001600160a01b0316330361206b57565b60405163118cdaa760e01b8152336004820152602490fd5b6000198114610d755760010190565b91908110156120a25760051b0190565b634e487b7160e01b600052603260045260246000fd5b356001600160a01b038116810361028d5790565b156120d357565b60405162461bcd60e51b815260206004820152601b60248201527f44726970436f72653a20496e76616c696420726563697069656e7400000000006044820152606490fd5b91908201809211610d7557565b81810292918115918404141715610d7557565b91908203918211610d7557565b1561214c57565b60405162461bcd60e51b815260206004820152601d60248201527f44726970436f72653a20466565207472616e73666572206661696c65640000006044820152606490fd5b60a081019081106001600160401b038211176108db57604052565b61014081019081106001600160401b038211176108db57604052565b90601f801991011681019081106001600160401b038211176108db57604052565b6001600160401b0381116108db57601f01601f191660200190565b3d1561222f573d90612215826121e9565b9161222360405193846121c8565b82523d6000602084013e565b606090565b6001600160401b0381116108db5760051b60200190565b80518210156120a25760209160051b010190565b92919261226b826121e9565b9161227960405193846121c8565b82948184528183011161028d578281602093846000960137010152565b8181106122a1575050565b60008155600101612296565b90600182811c921680156122dd575b60208310146122c757565b634e487b7160e01b600052602260045260246000fd5b91607f16916122bc565b805490600160401b8210156108db57600182018082558210156120a25760005260206000200155565b908060209392818452848401376000828201840152601f01601f1916010190565b600260005414612342576002600055565b604051633ee5aeb560e01b8152600490fd5b9060405191826000825492612368846122ad565b9081845260019485811690816000146123d75750600114612394575b5050612392925003836121c8565b565b9093915060005260209081600020936000915b8183106123bf57505061239293508201013880612384565b855488840185015294850194879450918301916123a7565b91505061239294506020925060ff191682840152151560051b8201013880612384565b90604051612407816121ac565b80928054825260018060a01b0360018181840154166020908186015260028401604051918293849382845491828152019360005282600020926000905b8282106124c85750505050509061245c9103826121c8565b6040840152600382015416606083015260048101546080830152600581015460a0830152600681015460c083015260ff6007820154169060058210156102775760096124c3916101209360e08601526124b760088201612354565b61010086015201612354565b910152565b845489168652879650948501949383019390830190612444565b156124e957565b60405162461bcd60e51b815260206004820152601f60248201527f44726970436f72653a2053747265616d20646f6573206e6f74206578697374006044820152606490fd5b1561253557565b60405162461bcd60e51b815260206004820152601960248201527f44726970436f72653a204e6f74206120726563697069656e74000000000000006044820152606490fd5b906000908282526020906003825260406125958185206123fa565b926125a2845115156124e2565b6125af61121e8486612953565b60e0840191825160058110156126f657600114158061278b575b61278157868652600482528086206001600160a01b0390941680875293825280862054938415612776578787526005835281872090875282528086205492831561276a575b8787526009835281872054815160058110156127565760021480612743575b61271e575b5083421160001461270a576126478442612138565b93888852600a8452828820541190816126df575b509261269a92608095926126a2956000146126d757600a612683928b8b525288205442612138565b808211156126ce5761269491612138565b90612125565b9442906129a8565b910151818111156126c7576126b79250612138565b8082116126c2575090565b905090565b50506126b7565b50508590612125565b505090612125565b90505160058110156126f65760021461269a61265b565b634e487b7160e01b87526021600452602487fd5b505050506126a261269a6080928590612125565b61273c90898952600a8552612736848a205442612138565b90612118565b5038612632565b50888852600a845282882054151561262d565b634e487b7160e01b89526021600452602489fd5b60a0860151935061260e565b505050505050905090565b5050505050905090565b50825160058110156126f657600214156125c9565b156127a757565b60405162461bcd60e51b815260206004820152601b60248201527f44726970436f72653a2053747265616d206e6f742061637469766500000000006044820152606490fd5b604051906127f982612191565b60006080838281528260208201528260408201528260608201520152565b1561281e57565b60405162461bcd60e51b8152602060048201526016602482015275111c9a5c10dbdc994e88155b985d5d1a1bdc9a5e995960521b6044820152606490fd5b1561286357565b60405162461bcd60e51b815260206004820152602760248201527f44726970436f72653a20496e73756666696369656e7420636f6e74726163742060448201526662616c616e636560c81b6064820152608490fd5b604051906128c5826121ac565b606061012083600080825280602083015283604083015280848301528060808301528060a08301528060c083015260e0820152826101008201520152565b9061290d82612234565b61291a60405191826121c8565b828152809261292b601f1991612234565b019060005b82811061293c57505050565b6020906129476128b8565b82828501015201612930565b9060005b6040830151805182101561299f576001600160a01b0390819061297b90849061224b565b51169083161461299757612990604091612083565b9050612957565b505050600190565b50505050600090565b90916000828152602093600385526040946129c48684206123fa565b94855115612ac9578395949295928495888101945b855151881015612a2257612a16612a1c91858952600487528b892060018060a01b03612a068c8b5161224b565b51168a5287528b89205490612118565b97612083565b966129d9565b96509692909791935083855260098152818520549360e088015160058110156126f657916080979593916002612a839896941480612ab6575b612a91575b50505060a0870151612a7191612138565b818111156126d7576126949250612138565b9101518082116126c2575090565b612aad92600a612a719596936127369389525286205485612138565b91903880612a60565b50808652600a8252828620541515612a5b565b5050509150915090565b9081602091031261028d5751801515810361028d5790565b600092839290916001600160a01b0390811680612b70575050829350829182915af1612b15612204565b508015612b1f5790565b60405162461bcd60e51b815260206004820152602360248201527f546f6b656e48656c7065723a204e6174697665207472616e73666572206661696044820152621b195960ea1b6064820152608490fd5b60209285604492604051968795869463a9059cbb60e01b865216600485015260248401525af1918215612c2a5791612bfc575b5015612bac5790565b60405162461bcd60e51b815260206004820152602260248201527f546f6b656e48656c7065723a204552433230207472616e73666572206661696c604482015261195960f21b6064820152608490fd5b612c1d915060203d8111612c23575b612c1581836121c8565b810190612ad3565b38612ba3565b503d612c0b565b604051903d90823e3d90fd5b9192916001600160a01b0391908216908115612d065760006064926020958560405198899788966323b872dd60e01b885216600487015216602485015260448401525af190811561135657600091612ce8575b5015612c9457600190565b60405162461bcd60e51b815260206004820152602660248201527f546f6b656e48656c7065723a204552433230207472616e7366657246726f6d2060448201526519985a5b195960d21b6064820152608490fd5b612d00915060203d8111612c2357612c1581836121c8565b38612c89565b60405162461bcd60e51b815260206004820152602d60248201527f546f6b656e48656c7065723a2043616e6e6f74207472616e7366657246726f6d60448201526c103730ba34bb32903a37b5b2b760991b6064820152608490fd5b6001600160a01b039081169081612d785750503190565b6040516370a0823160e01b815292166004830152602090829060249082905afa90811561135657600091612daa575090565b906020823d8211612dd3575b81612dc3602093836121c8565b81010312612dd057505190565b80fd5b3d9150612db656fea26469706673582212204bf2db9993061ee0d081c3bd58e5db173194134365bbbc6465f54f92d190653a64736f6c63430008140033",
          "opcodes": "PUSH1 0x80 CALLVALUE PUSH3 0x126 JUMPI PUSH1 0x1F PUSH3 0x2F53 CODESIZE DUP2 SWAP1 SUB SWAP2 DUP3 ADD PUSH1 0x1F NOT AND DUP4 ADD SWAP2 PUSH1 0x1 PUSH1 0x1 PUSH1 0x40 SHL SUB DUP4 GT DUP5 DUP5 LT OR PUSH3 0x12B JUMPI DUP1 DUP5 SWAP3 PUSH1 0x20 SWAP5 PUSH1 0x40 MSTORE DUP4 CODECOPY DUP2 ADD SUB SLT PUSH3 0x126 JUMPI MLOAD PUSH1 0x1 PUSH1 0x1 PUSH1 0xA0 SHL SUB DUP1 DUP3 AND SWAP2 DUP3 SWAP1 SUB PUSH3 0x126 JUMPI PUSH1 0x1 PUSH1 0x0 SSTORE CALLER ISZERO PUSH3 0x10D JUMPI PUSH1 0x1 DUP1 SLOAD CALLER PUSH1 0x1 PUSH1 0x1 PUSH1 0xA0 SHL SUB NOT DUP1 DUP4 AND DUP3 OR SWAP1 SWAP4 SSTORE PUSH1 0x40 MLOAD SWAP3 SWAP4 SWAP1 SWAP2 AND PUSH32 0x8BE0079C531659141344CD1FD0A4F28419497F9722A3DAAFE3B4186F6B6457E0 PUSH1 0x0 DUP1 LOG3 PUSH1 0x32 PUSH1 0xB SSTORE DUP3 ISZERO PUSH3 0xCB JUMPI POP PUSH1 0xC SLOAD AND OR PUSH1 0xC SSTORE PUSH1 0x40 MLOAD PUSH2 0x2E11 SWAP1 DUP2 PUSH3 0x142 DUP3 CODECOPY RETURN JUMPDEST PUSH3 0x461BCD PUSH1 0xE5 SHL DUP2 MSTORE PUSH1 0x20 PUSH1 0x4 DUP3 ADD MSTORE PUSH1 0x1F PUSH1 0x24 DUP3 ADD MSTORE PUSH32 0x44726970436F72653A20496E76616C69642066656520726563697069656E7400 PUSH1 0x44 DUP3 ADD MSTORE PUSH1 0x64 SWAP1 REVERT JUMPDEST PUSH1 0x40 MLOAD PUSH4 0x1E4FBDF7 PUSH1 0xE0 SHL DUP2 MSTORE PUSH1 0x0 PUSH1 0x4 DUP3 ADD MSTORE PUSH1 0x24 SWAP1 REVERT JUMPDEST PUSH1 0x0 DUP1 REVERT JUMPDEST PUSH4 0x4E487B71 PUSH1 0xE0 SHL PUSH1 0x0 MSTORE PUSH1 0x41 PUSH1 0x4 MSTORE PUSH1 0x24 PUSH1 0x0 REVERT INVALID PUSH1 0x80 PUSH1 0x40 MSTORE PUSH1 0x4 CALLDATASIZE LT ISZERO PUSH2 0x1B JUMPI JUMPDEST CALLDATASIZE ISZERO PUSH2 0x19 JUMPI PUSH1 0x0 DUP1 REVERT JUMPDEST STOP JUMPDEST PUSH1 0x0 CALLDATALOAD PUSH1 0xE0 SHR DUP1 PUSH4 0x61B3354 EQ PUSH2 0x1DEC JUMPI DUP1 PUSH4 0x12E8E2C3 EQ PUSH2 0x1D84 JUMPI DUP1 PUSH4 0x1871E243 EQ PUSH2 0x1D37 JUMPI DUP1 PUSH4 0x1B3A65B4 EQ PUSH2 0x1D1B JUMPI DUP1 PUSH4 0x22DCD13E EQ PUSH2 0x1CFD JUMPI DUP1 PUSH4 0x344EC966 EQ PUSH2 0x1AF7 JUMPI DUP1 PUSH4 0x43AB265F EQ PUSH2 0x1ACA JUMPI DUP1 PUSH4 0x6DB9241B EQ PUSH2 0x18D7 JUMPI DUP1 PUSH4 0x715018A6 EQ PUSH2 0x187A JUMPI DUP1 PUSH4 0x746FF13D EQ PUSH2 0x17BB JUMPI DUP1 PUSH4 0x819C3582 EQ PUSH2 0x14A7 JUMPI DUP1 PUSH4 0x894E9A0D EQ PUSH2 0x1452 JUMPI DUP1 PUSH4 0x8A2320DA EQ PUSH2 0x1435 JUMPI DUP1 PUSH4 0x8DA5CB5B EQ PUSH2 0x140C JUMPI DUP1 PUSH4 0x93710BA0 EQ PUSH2 0x136E JUMPI DUP1 PUSH4 0xABC4F541 EQ PUSH2 0x11C3 JUMPI DUP1 PUSH4 0xB1724B46 EQ PUSH2 0x11A4 JUMPI DUP1 PUSH4 0xB6A6D177 EQ PUSH2 0x1187 JUMPI DUP1 PUSH4 0xC019F4FC EQ PUSH2 0x110F JUMPI DUP1 PUSH4 0xDF3BC5BC EQ PUSH2 0x1033 JUMPI DUP1 PUSH4 0xEB13554F EQ PUSH2 0x100A JUMPI DUP1 PUSH4 0xEF89F4EC EQ PUSH2 0x3A3 JUMPI DUP1 PUSH4 0xF2FDE38B EQ PUSH2 0x31A JUMPI DUP1 PUSH4 0xF7AFE902 EQ PUSH2 0x292 JUMPI PUSH4 0xFB6A984E SUB PUSH2 0xE JUMPI CALLVALUE PUSH2 0x28D JUMPI PUSH1 0x20 DUP1 PUSH1 0x3 NOT CALLDATASIZE ADD SLT PUSH2 0x28D JUMPI PUSH1 0x4 CALLDATALOAD SWAP1 DUP2 PUSH1 0x0 MSTORE PUSH1 0x3 DUP2 MSTORE PUSH1 0x40 PUSH1 0x0 KECCAK256 SWAP1 PUSH2 0x163 DUP3 SLOAD ISZERO ISZERO PUSH2 0x24E2 JUMP JUMPDEST PUSH1 0x7 DUP3 ADD SWAP2 PUSH1 0xFF DUP4 SLOAD AND PUSH1 0x5 DUP2 LT ISZERO PUSH2 0x277 JUMPI PUSH1 0x2 SUB PUSH2 0x232 JUMPI PUSH1 0x1 ADD SLOAD PUSH2 0x1A0 SWAP1 CALLER PUSH1 0x1 PUSH1 0x1 PUSH1 0xA0 SHL SUB SWAP2 DUP3 AND EQ SWAP1 DUP2 ISZERO PUSH2 0x224 JUMPI JUMPDEST POP PUSH2 0x2817 JUMP JUMPDEST DUP3 PUSH1 0x0 MSTORE PUSH1 0xA DUP2 MSTORE PUSH1 0x40 PUSH1 0x0 KECCAK256 SLOAD SWAP1 DUP2 PUSH2 0x1EB JUMPI JUMPDEST POP POP DUP1 SLOAD PUSH1 0xFF NOT AND PUSH1 0x1 OR SWAP1 SSTORE CALLER SWAP1 PUSH32 0xDBFA51DF8B0B3B2D196641FF6E01B8AD3A3BFEA169BBD41F321C0391A3E8973 PUSH1 0x0 DUP1 LOG3 STOP JUMPDEST PUSH2 0x1F7 PUSH1 0xA SWAP3 TIMESTAMP PUSH2 0x2138 JUMP JUMPDEST DUP5 PUSH1 0x0 MSTORE PUSH1 0x9 DUP3 MSTORE PUSH2 0x20F PUSH1 0x40 PUSH1 0x0 KECCAK256 SWAP2 DUP3 SLOAD PUSH2 0x2118 JUMP JUMPDEST SWAP1 SSTORE DUP4 PUSH1 0x0 MSTORE MSTORE PUSH1 0x0 PUSH1 0x40 DUP2 KECCAK256 SSTORE CODESIZE DUP1 PUSH2 0x1B5 JUMP JUMPDEST SWAP1 POP PUSH1 0x1 SLOAD AND CALLER EQ CODESIZE PUSH2 0x19A JUMP JUMPDEST PUSH1 0x40 MLOAD PUSH3 0x461BCD PUSH1 0xE5 SHL DUP2 MSTORE PUSH1 0x4 DUP2 ADD DUP4 SWAP1 MSTORE PUSH1 0x1B PUSH1 0x24 DUP3 ADD MSTORE PUSH32 0x44726970436F72653A2053747265616D206E6F74207061757365640000000000 PUSH1 0x44 DUP3 ADD MSTORE PUSH1 0x64 SWAP1 REVERT JUMPDEST PUSH4 0x4E487B71 PUSH1 0xE0 SHL PUSH1 0x0 MSTORE PUSH1 0x21 PUSH1 0x4 MSTORE PUSH1 0x24 PUSH1 0x0 REVERT JUMPDEST PUSH1 0x0 DUP1 REVERT JUMPDEST CALLVALUE PUSH2 0x28D JUMPI PUSH1 0x20 DUP1 PUSH1 0x3 NOT CALLDATASIZE ADD SLT PUSH2 0x28D JUMPI PUSH1 0x1 PUSH1 0x1 PUSH1 0xA0 SHL SUB PUSH2 0x2B4 PUSH2 0x1E28 JUMP JUMPDEST AND PUSH1 0x0 MSTORE PUSH1 0x8 DUP2 MSTORE PUSH1 0x40 PUSH1 0x0 KECCAK256 SWAP1 PUSH1 0x40 MLOAD SWAP1 DUP2 DUP2 DUP5 SLOAD SWAP2 DUP3 DUP2 MSTORE ADD SWAP4 PUSH1 0x0 MSTORE DUP2 PUSH1 0x0 KECCAK256 SWAP2 PUSH1 0x0 SWAP1 JUMPDEST DUP3 DUP3 LT PUSH2 0x303 JUMPI PUSH2 0x2FF DUP6 PUSH2 0x2F3 DUP2 DUP10 SUB DUP3 PUSH2 0x21C8 JUMP JUMPDEST PUSH1 0x40 MLOAD SWAP2 DUP3 SWAP2 DUP3 PUSH2 0x1FBF JUMP JUMPDEST SUB SWAP1 RETURN JUMPDEST DUP4 SLOAD DUP7 MSTORE SWAP5 DUP6 ADD SWAP5 PUSH1 0x1 SWAP4 DUP5 ADD SWAP4 SWAP1 SWAP2 ADD SWAP1 PUSH2 0x2DC JUMP JUMPDEST CALLVALUE PUSH2 0x28D JUMPI PUSH1 0x20 CALLDATASIZE PUSH1 0x3 NOT ADD SLT PUSH2 0x28D JUMPI PUSH2 0x333 PUSH2 0x1E28 JUMP JUMPDEST PUSH2 0x33B PUSH2 0x2057 JUMP JUMPDEST PUSH1 0x1 PUSH1 0x1 PUSH1 0xA0 SHL SUB SWAP1 DUP2 AND SWAP1 DUP2 ISZERO PUSH2 0x38A JUMPI PUSH1 0x1 SLOAD DUP3 PUSH1 0x1 PUSH1 0x1 PUSH1 0x60 SHL SUB PUSH1 0xA0 SHL DUP3 AND OR PUSH1 0x1 SSTORE AND PUSH32 0x8BE0079C531659141344CD1FD0A4F28419497F9722A3DAAFE3B4186F6B6457E0 PUSH1 0x0 DUP1 LOG3 STOP JUMPDEST PUSH1 0x40 MLOAD PUSH4 0x1E4FBDF7 PUSH1 0xE0 SHL DUP2 MSTORE PUSH1 0x0 PUSH1 0x4 DUP3 ADD MSTORE PUSH1 0x24 SWAP1 REVERT JUMPDEST PUSH1 0xE0 CALLDATASIZE PUSH1 0x3 NOT ADD SLT PUSH2 0x28D JUMPI PUSH1 0x4 CALLDATALOAD PUSH1 0x1 PUSH1 0x1 PUSH1 0x40 SHL SUB DUP2 GT PUSH2 0x28D JUMPI PUSH2 0x3CE SWAP1 CALLDATASIZE SWAP1 PUSH1 0x4 ADD PUSH2 0x1FFA JUMP JUMPDEST SWAP1 PUSH2 0x3D7 PUSH2 0x1E12 JUMP JUMPDEST PUSH1 0x44 CALLDATALOAD PUSH1 0x1 PUSH1 0x1 PUSH1 0x40 SHL SUB DUP2 GT PUSH2 0x28D JUMPI PUSH2 0x3F6 SWAP1 CALLDATASIZE SWAP1 PUSH1 0x4 ADD PUSH2 0x1FFA JUMP JUMPDEST SWAP1 SWAP2 PUSH1 0xA4 CALLDATALOAD PUSH1 0x1 PUSH1 0x1 PUSH1 0x40 SHL SUB DUP2 GT PUSH2 0x28D JUMPI PUSH2 0x417 SWAP1 CALLDATASIZE SWAP1 PUSH1 0x4 ADD PUSH2 0x202A JUMP JUMPDEST PUSH1 0xC4 SWAP3 SWAP2 SWAP3 CALLDATALOAD PUSH1 0x1 PUSH1 0x1 PUSH1 0x40 SHL SUB DUP2 GT PUSH2 0x28D JUMPI PUSH2 0x439 SWAP1 CALLDATASIZE SWAP1 PUSH1 0x4 ADD PUSH2 0x202A JUMP JUMPDEST SWAP4 SWAP1 SWAP6 PUSH2 0x444 PUSH2 0x2331 JUMP JUMPDEST DUP9 ISZERO PUSH2 0xFB3 JUMPI DUP6 DUP10 SUB PUSH2 0xF6E JUMPI PUSH1 0x84 CALLDATALOAD ISZERO PUSH2 0xF29 JUMPI PUSH2 0xE10 PUSH1 0x64 CALLDATALOAD LT PUSH2 0xEE4 JUMPI PUSH4 0x12CC0300 PUSH1 0x64 CALLDATALOAD GT PUSH2 0xE9F JUMPI PUSH1 0x78 DUP4 GT PUSH2 0xE5A JUMPI PUSH2 0x400 DUP6 GT PUSH2 0xE15 JUMPI PUSH1 0x0 JUMPDEST DUP10 DUP10 DUP2 DUP4 LT PUSH2 0xC77 JUMPI POP POP POP PUSH2 0x2710 PUSH2 0x4A2 PUSH1 0xB SLOAD PUSH1 0x84 CALLDATALOAD PUSH2 0x2125 JUMP JUMPDEST DIV PUSH2 0x4AF DUP2 PUSH1 0x84 CALLDATALOAD PUSH2 0x2138 JUMP JUMPDEST SWAP1 PUSH1 0x1 PUSH1 0x1 PUSH1 0xA0 SHL SUB DUP7 AND PUSH2 0xB99 JUMPI PUSH1 0x84 CALLDATALOAD CALLVALUE SUB PUSH2 0xB4A JUMPI DUP1 PUSH2 0xB20 JUMPI JUMPDEST POP JUMPDEST PUSH2 0x4DA PUSH1 0x2 SLOAD PUSH2 0x2083 JUMP JUMPDEST SWAP9 DUP10 PUSH1 0x2 SSTORE PUSH2 0x4EB PUSH1 0x64 CALLDATALOAD TIMESTAMP PUSH2 0x2118 JUMP JUMPDEST SWAP3 PUSH2 0x4F5 DUP13 PUSH2 0x2234 JUMP JUMPDEST SWAP9 PUSH2 0x503 PUSH1 0x40 MLOAD SWAP11 DUP12 PUSH2 0x21C8 JUMP JUMPDEST DUP13 DUP11 MSTORE PUSH1 0x1F NOT PUSH2 0x512 DUP15 PUSH2 0x2234 JUMP JUMPDEST ADD CALLDATASIZE PUSH1 0x20 DUP13 ADD CALLDATACOPY PUSH1 0x0 JUMPDEST DUP14 DUP1 DUP3 LT PUSH2 0x9DA JUMPI POP POP POP POP PUSH1 0x40 MLOAD PUSH2 0x534 DUP2 PUSH2 0x21AC JUMP JUMPDEST DUP11 DUP2 MSTORE CALLER PUSH1 0x20 DUP3 ADD MSTORE PUSH1 0x40 DUP2 ADD DUP10 SWAP1 MSTORE PUSH1 0x1 PUSH1 0x1 PUSH1 0xA0 SHL SUB DUP8 AND PUSH1 0x60 DUP3 ADD MSTORE PUSH1 0x80 DUP2 ADD DUP4 SWAP1 MSTORE TIMESTAMP PUSH1 0xA0 DUP3 ADD MSTORE PUSH1 0xC0 DUP2 ADD DUP5 SWAP1 MSTORE PUSH1 0x1 PUSH1 0xE0 DUP3 ADD MSTORE PUSH2 0x579 CALLDATASIZE DUP8 DUP8 PUSH2 0x225F JUMP JUMPDEST PUSH2 0x100 DUP3 ADD MSTORE PUSH2 0x58A CALLDATASIZE DUP10 DUP13 PUSH2 0x225F JUMP JUMPDEST PUSH2 0x120 DUP3 ADD MSTORE DUP11 PUSH1 0x0 MSTORE PUSH1 0x3 PUSH1 0x20 MSTORE PUSH1 0x40 PUSH1 0x0 KECCAK256 SWAP1 DUP1 MLOAD DUP3 SSTORE PUSH1 0x1 DUP3 ADD PUSH1 0x1 DUP1 PUSH1 0xA0 SHL SUB PUSH1 0x20 DUP4 ADD MLOAD AND PUSH1 0x1 PUSH1 0x1 PUSH1 0x60 SHL SUB PUSH1 0xA0 SHL DUP3 SLOAD AND OR SWAP1 SSTORE PUSH1 0x40 DUP2 ADD MLOAD DUP1 MLOAD SWAP1 PUSH1 0x1 PUSH1 0x1 PUSH1 0x40 SHL SUB DUP3 GT PUSH2 0x8DB JUMPI PUSH1 0x1 PUSH1 0x40 SHL DUP3 GT PUSH2 0x8DB JUMPI PUSH1 0x20 SWAP1 PUSH1 0x2 DUP6 ADD SLOAD DUP4 PUSH1 0x2 DUP8 ADD SSTORE DUP1 DUP5 LT PUSH2 0x9BA JUMPI JUMPDEST POP ADD PUSH1 0x2 DUP5 ADD PUSH1 0x0 MSTORE PUSH1 0x20 PUSH1 0x0 KECCAK256 PUSH1 0x0 JUMPDEST DUP4 DUP2 LT PUSH2 0x99D JUMPI POP POP POP POP PUSH1 0x3 DUP3 ADD PUSH1 0x1 DUP1 PUSH1 0xA0 SHL SUB PUSH1 0x60 DUP4 ADD MLOAD AND PUSH1 0x1 PUSH1 0x1 PUSH1 0x60 SHL SUB PUSH1 0xA0 SHL DUP3 SLOAD AND OR SWAP1 SSTORE PUSH1 0x80 DUP2 ADD MLOAD PUSH1 0x4 DUP4 ADD SSTORE PUSH1 0xA0 DUP2 ADD MLOAD PUSH1 0x5 DUP4 ADD SSTORE PUSH1 0xC0 DUP2 ADD MLOAD PUSH1 0x6 DUP4 ADD SSTORE PUSH1 0x7 DUP3 ADD PUSH1 0xE0 DUP3 ADD MLOAD PUSH1 0x5 DUP2 LT ISZERO PUSH2 0x277 JUMPI PUSH1 0xFF DUP1 NOT DUP4 SLOAD AND SWAP2 AND OR SWAP1 SSTORE PUSH2 0x100 DUP2 ADD MLOAD DUP1 MLOAD PUSH1 0x1 PUSH1 0x1 PUSH1 0x40 SHL SUB DUP2 GT PUSH2 0x8DB JUMPI PUSH1 0x8 DUP5 ADD SWAP2 PUSH2 0x69B DUP4 SLOAD PUSH2 0x22AD JUMP JUMPDEST PUSH1 0x1F DUP2 GT PUSH2 0x96B JUMPI JUMPDEST POP PUSH1 0x20 SWAP1 PUSH1 0x1F DUP4 GT PUSH1 0x1 EQ PUSH2 0x8FC JUMPI PUSH2 0x120 SWAP5 SWAP4 SWAP3 SWAP2 PUSH1 0x0 SWAP2 DUP4 PUSH2 0x8F1 JUMPI JUMPDEST POP POP DUP2 PUSH1 0x1 SHL SWAP2 PUSH1 0x0 NOT SWAP1 PUSH1 0x3 SHL SHR NOT AND OR SWAP1 SSTORE JUMPDEST ADD MLOAD SWAP1 DUP2 MLOAD SWAP1 PUSH1 0x1 PUSH1 0x1 PUSH1 0x40 SHL SUB DUP3 GT PUSH2 0x8DB JUMPI PUSH1 0x9 DUP3 SWAP2 ADD SWAP3 PUSH2 0x6FC DUP5 SLOAD PUSH2 0x22AD JUMP JUMPDEST PUSH1 0x1F DUP2 GT PUSH2 0x89E JUMPI JUMPDEST POP PUSH1 0x20 SWAP1 PUSH1 0x1F DUP4 GT PUSH1 0x1 EQ PUSH2 0x832 JUMPI PUSH1 0x0 SWAP3 PUSH2 0x827 JUMPI JUMPDEST POP POP DUP2 PUSH1 0x1 SHL SWAP2 PUSH1 0x0 NOT SWAP1 PUSH1 0x3 SHL SHR NOT AND OR SWAP1 SSTORE JUMPDEST CALLER PUSH1 0x0 MSTORE PUSH1 0x7 PUSH1 0x20 MSTORE PUSH2 0x748 DUP11 PUSH1 0x40 PUSH1 0x0 KECCAK256 PUSH2 0x22E7 JUMP JUMPDEST PUSH1 0x0 JUMPDEST DUP12 DUP2 LT PUSH2 0x7E7 JUMPI POP PUSH1 0x20 DUP11 DUP11 DUP2 PUSH32 0x99C2935B6C5640469C44BA48D835B891D4672BF2A5A6514F2467D743C26E5F78 PUSH2 0x79D DUP14 PUSH2 0x7D7 DUP15 PUSH2 0x7C7 DUP16 DUP16 DUP16 DUP16 DUP16 PUSH1 0x40 MLOAD SWAP10 DUP11 SWAP10 PUSH1 0xE0 DUP12 MSTORE PUSH1 0xE0 DUP12 ADD SWAP1 PUSH2 0x1E3E JUMP JUMPDEST SWAP5 PUSH1 0x1 DUP1 PUSH1 0xA0 SHL SUB AND DUP16 DUP11 ADD MSTORE PUSH1 0x40 DUP10 ADD MSTORE TIMESTAMP PUSH1 0x60 DUP10 ADD MSTORE PUSH1 0x80 DUP9 ADD MSTORE DUP7 DUP4 SUB PUSH1 0xA0 DUP9 ADD MSTORE PUSH2 0x2310 JUMP JUMPDEST SWAP1 DUP4 DUP3 SUB PUSH1 0xC0 DUP6 ADD MSTORE CALLER SWAP8 PUSH2 0x2310 JUMP JUMPDEST SUB SWAP1 LOG3 PUSH1 0x1 PUSH1 0x0 SSTORE PUSH1 0x40 MLOAD SWAP1 DUP2 MSTORE RETURN JUMPDEST DUP1 DUP13 PUSH2 0x806 PUSH2 0x801 PUSH2 0x822 SWAP5 PUSH1 0x1 DUP1 PUSH1 0xA0 SHL SUB SWAP4 DUP8 PUSH2 0x2092 JUMP JUMPDEST PUSH2 0x20B8 JUMP JUMPDEST AND PUSH1 0x0 MSTORE PUSH1 0x8 PUSH1 0x20 MSTORE PUSH2 0x81D DUP13 PUSH1 0x40 PUSH1 0x0 KECCAK256 PUSH2 0x22E7 JUMP JUMPDEST PUSH2 0x2083 JUMP JUMPDEST PUSH2 0x74B JUMP JUMPDEST ADD MLOAD SWAP1 POP DUP15 DUP1 PUSH2 0x71C JUMP JUMPDEST SWAP3 POP DUP4 PUSH1 0x0 MSTORE PUSH1 0x20 PUSH1 0x0 KECCAK256 SWAP1 PUSH1 0x0 SWAP4 JUMPDEST PUSH1 0x1F NOT DUP5 AND DUP6 LT PUSH2 0x883 JUMPI PUSH1 0x1 SWAP5 POP DUP4 PUSH1 0x1F NOT DUP2 AND LT PUSH2 0x86A JUMPI JUMPDEST POP POP POP DUP2 SHL ADD SWAP1 SSTORE PUSH2 0x731 JUMP JUMPDEST ADD MLOAD PUSH1 0x0 NOT PUSH1 0xF8 DUP5 PUSH1 0x3 SHL AND SHR NOT AND SWAP1 SSTORE DUP15 DUP1 DUP1 PUSH2 0x85D JUMP JUMPDEST DUP2 DUP2 ADD MLOAD DUP4 SSTORE PUSH1 0x20 SWAP5 DUP6 ADD SWAP5 PUSH1 0x1 SWAP1 SWAP4 ADD SWAP3 SWAP1 SWAP2 ADD SWAP1 PUSH2 0x842 JUMP JUMPDEST PUSH2 0x8CB SWAP1 DUP6 PUSH1 0x0 MSTORE PUSH1 0x20 PUSH1 0x0 KECCAK256 PUSH1 0x1F DUP6 ADD PUSH1 0x5 SHR DUP2 ADD SWAP2 PUSH1 0x20 DUP7 LT PUSH2 0x8D1 JUMPI JUMPDEST PUSH1 0x1F ADD PUSH1 0x5 SHR ADD SWAP1 PUSH2 0x2296 JUMP JUMPDEST DUP16 PUSH2 0x705 JUMP JUMPDEST SWAP1 SWAP2 POP DUP2 SWAP1 PUSH2 0x8BE JUMP JUMPDEST PUSH4 0x4E487B71 PUSH1 0xE0 SHL PUSH1 0x0 MSTORE PUSH1 0x41 PUSH1 0x4 MSTORE PUSH1 0x24 PUSH1 0x0 REVERT JUMPDEST ADD MLOAD SWAP1 POP CODESIZE DUP1 PUSH2 0x6C3 JUMP JUMPDEST SWAP1 DUP4 PUSH1 0x0 MSTORE PUSH1 0x20 PUSH1 0x0 KECCAK256 SWAP2 PUSH1 0x0 JUMPDEST PUSH1 0x1F NOT DUP6 AND DUP2 LT PUSH2 0x953 JUMPI POP SWAP2 DUP4 SWAP2 PUSH1 0x1 SWAP4 PUSH2 0x120 SWAP8 SWAP7 SWAP6 PUSH1 0x1F NOT DUP2 AND LT PUSH2 0x93A JUMPI JUMPDEST POP POP POP DUP2 SHL ADD SWAP1 SSTORE PUSH2 0x6D8 JUMP JUMPDEST ADD MLOAD PUSH1 0x0 NOT PUSH1 0xF8 DUP5 PUSH1 0x3 SHL AND SHR NOT AND SWAP1 SSTORE CODESIZE DUP1 DUP1 PUSH2 0x92D JUMP JUMPDEST SWAP2 SWAP3 PUSH1 0x20 PUSH1 0x1 DUP2 SWAP3 DUP7 DUP6 ADD MLOAD DUP2 SSTORE ADD SWAP5 ADD SWAP3 ADD PUSH2 0x90A JUMP JUMPDEST PUSH2 0x997 SWAP1 DUP5 PUSH1 0x0 MSTORE PUSH1 0x20 PUSH1 0x0 KECCAK256 PUSH1 0x1F DUP6 ADD PUSH1 0x5 SHR DUP2 ADD SWAP2 PUSH1 0x20 DUP7 LT PUSH2 0x8D1 JUMPI PUSH1 0x1F ADD PUSH1 0x5 SHR ADD SWAP1 PUSH2 0x2296 JUMP JUMPDEST CODESIZE PUSH2 0x6A4 JUMP JUMPDEST DUP3 MLOAD PUSH1 0x1 PUSH1 0x1 PUSH1 0xA0 SHL SUB AND DUP2 DUP4 ADD SSTORE PUSH1 0x20 SWAP1 SWAP3 ADD SWAP2 PUSH1 0x1 ADD PUSH2 0x60D JUMP JUMPDEST PUSH2 0x9D4 SWAP1 PUSH1 0x2 DUP8 ADD PUSH1 0x0 MSTORE DUP5 DUP5 PUSH1 0x0 KECCAK256 SWAP2 DUP3 ADD SWAP2 ADD PUSH2 0x2296 JUMP JUMPDEST CODESIZE PUSH2 0x5FC JUMP JUMPDEST PUSH2 0x801 DUP3 PUSH2 0x9E8 SWAP3 DUP8 PUSH2 0x2092 JUMP JUMPDEST PUSH2 0x9F2 DUP3 DUP14 PUSH2 0x224B JUMP JUMPDEST PUSH1 0x1 PUSH1 0x1 PUSH1 0xA0 SHL SUB SWAP1 SWAP2 AND SWAP1 MSTORE PUSH2 0xA0A DUP2 DUP4 DUP6 PUSH2 0x2092 JUMP JUMPDEST CALLDATALOAD SWAP1 PUSH1 0x64 CALLDATALOAD ISZERO PUSH2 0xB0A JUMPI PUSH1 0x64 CALLDATALOAD DUP3 DIV ISZERO PUSH2 0xAC5 JUMPI DUP15 DUP15 PUSH2 0xAC0 SWAP4 DUP2 PUSH1 0x0 MSTORE PUSH1 0x4 PUSH1 0x20 MSTORE PUSH1 0x40 PUSH1 0x0 KECCAK256 PUSH1 0x1 DUP1 PUSH1 0xA0 SHL SUB PUSH2 0xA47 PUSH2 0x801 DUP8 DUP8 DUP14 PUSH2 0x2092 JUMP JUMPDEST AND PUSH1 0x0 MSTORE PUSH1 0x20 MSTORE PUSH1 0x64 CALLDATALOAD SWAP1 DIV PUSH1 0x40 PUSH1 0x0 KECCAK256 SSTORE DUP1 PUSH1 0x0 MSTORE PUSH1 0x5 PUSH1 0x20 MSTORE PUSH1 0x40 PUSH1 0x0 KECCAK256 PUSH1 0x1 DUP1 PUSH1 0xA0 SHL SUB PUSH2 0xA7C PUSH2 0x801 DUP7 DUP7 DUP13 PUSH2 0x2092 JUMP JUMPDEST AND PUSH1 0x0 MSTORE PUSH1 0x20 MSTORE TIMESTAMP PUSH1 0x40 PUSH1 0x0 KECCAK256 SSTORE PUSH1 0x0 MSTORE PUSH1 0x6 PUSH1 0x20 MSTORE PUSH1 0x40 PUSH1 0x0 KECCAK256 SWAP1 PUSH2 0xAAD PUSH2 0x801 DUP5 PUSH1 0x1 DUP1 PUSH1 0xA0 SHL SUB SWAP4 DUP11 PUSH2 0x2092 JUMP JUMPDEST AND PUSH1 0x0 MSTORE PUSH1 0x20 MSTORE PUSH1 0x0 PUSH1 0x40 DUP2 KECCAK256 SSTORE PUSH2 0x2083 JUMP JUMPDEST PUSH2 0x51C JUMP JUMPDEST PUSH1 0x40 MLOAD PUSH3 0x461BCD PUSH1 0xE5 SHL DUP2 MSTORE PUSH1 0x20 PUSH1 0x4 DUP3 ADD MSTORE PUSH1 0x18 PUSH1 0x24 DUP3 ADD MSTORE PUSH32 0x44726970436F72653A205261746520746F6F20736D616C6C0000000000000000 PUSH1 0x44 DUP3 ADD MSTORE PUSH1 0x64 SWAP1 REVERT JUMPDEST PUSH4 0x4E487B71 PUSH1 0xE0 SHL PUSH1 0x0 MSTORE PUSH1 0x12 PUSH1 0x4 MSTORE PUSH1 0x24 PUSH1 0x0 REVERT JUMPDEST PUSH1 0x0 DUP1 DUP1 DUP1 PUSH2 0xB44 SWAP5 PUSH1 0x1 DUP1 PUSH1 0xA0 SHL SUB PUSH1 0xC SLOAD AND GAS CALL PUSH2 0xB3E PUSH2 0x2204 JUMP JUMPDEST POP PUSH2 0x2145 JUMP JUMPDEST DUP11 PUSH2 0x4CD JUMP JUMPDEST PUSH1 0x40 MLOAD PUSH3 0x461BCD PUSH1 0xE5 SHL DUP2 MSTORE PUSH1 0x20 PUSH1 0x4 DUP3 ADD MSTORE PUSH1 0x21 PUSH1 0x24 DUP3 ADD MSTORE PUSH32 0x44726970436F72653A20496E636F7272656374206E617469766520616D6F756E PUSH1 0x44 DUP3 ADD MSTORE PUSH1 0x1D PUSH1 0xFA SHL PUSH1 0x64 DUP3 ADD MSTORE PUSH1 0x84 SWAP1 REVERT JUMPDEST CALLVALUE PUSH2 0xC26 JUMPI PUSH2 0xBAA DUP3 ADDRESS CALLER DUP10 PUSH2 0x2C36 JUMP JUMPDEST ISZERO PUSH2 0xBE1 JUMPI DUP1 PUSH2 0xBBB JUMPI JUMPDEST POP PUSH2 0x4CF JUMP JUMPDEST PUSH1 0xC SLOAD PUSH2 0xBDB SWAP2 PUSH2 0xBD6 SWAP2 PUSH1 0x1 PUSH1 0x1 PUSH1 0xA0 SHL SUB AND CALLER DUP10 PUSH2 0x2C36 JUMP JUMPDEST PUSH2 0x2145 JUMP JUMPDEST DUP11 PUSH2 0xBB5 JUMP JUMPDEST PUSH1 0x40 MLOAD PUSH3 0x461BCD PUSH1 0xE5 SHL DUP2 MSTORE PUSH1 0x20 PUSH1 0x4 DUP3 ADD MSTORE PUSH1 0x1F PUSH1 0x24 DUP3 ADD MSTORE PUSH32 0x44726970436F72653A20546F6B656E207472616E73666572206661696C656400 PUSH1 0x44 DUP3 ADD MSTORE PUSH1 0x64 SWAP1 REVERT JUMPDEST PUSH1 0x40 MLOAD PUSH3 0x461BCD PUSH1 0xE5 SHL DUP2 MSTORE PUSH1 0x20 PUSH1 0x4 DUP3 ADD MSTORE PUSH1 0x23 PUSH1 0x24 DUP3 ADD MSTORE PUSH32 0x44726970436F72653A204E617469766520746F6B656E206E6F74206578706563 PUSH1 0x44 DUP3 ADD MSTORE PUSH3 0x1D1959 PUSH1 0xEA SHL PUSH1 0x64 DUP3 ADD MSTORE PUSH1 0x84 SWAP1 REVERT JUMPDEST PUSH2 0xC8F PUSH2 0x801 DUP5 PUSH2 0xC97 SWAP5 PUSH1 0x1 DUP1 PUSH1 0xA0 SHL SUB SWAP5 PUSH2 0x2092 JUMP JUMPDEST AND ISZERO ISZERO PUSH2 0x20CC JUMP JUMPDEST CALLER PUSH1 0x1 PUSH1 0x1 PUSH1 0xA0 SHL SUB PUSH2 0xCAE PUSH2 0x801 DUP5 DUP15 DUP15 PUSH2 0x2092 JUMP JUMPDEST AND EQ PUSH2 0xDD0 JUMPI PUSH2 0xCBF DUP2 DUP9 DUP5 PUSH2 0x2092 JUMP JUMPDEST CALLDATALOAD ISZERO PUSH2 0xD8B JUMPI PUSH1 0x1 DUP2 ADD DUP2 GT PUSH2 0xD75 JUMPI PUSH1 0x1 DUP2 ADD JUMPDEST DUP11 DUP2 LT PUSH2 0xCEA JUMPI POP PUSH2 0xCE5 SWAP1 PUSH2 0x2083 JUMP JUMPDEST PUSH2 0x485 JUMP JUMPDEST DUP11 DUP11 PUSH2 0xD10 PUSH2 0x801 DUP5 PUSH2 0xD01 PUSH2 0x801 DUP9 DUP8 DUP8 PUSH2 0x2092 JUMP JUMPDEST SWAP5 PUSH1 0x1 PUSH1 0x1 PUSH1 0xA0 SHL SUB SWAP5 PUSH2 0x2092 JUMP JUMPDEST PUSH1 0x1 PUSH1 0x1 PUSH1 0xA0 SHL SUB SWAP1 SWAP3 AND SWAP2 AND EQ PUSH2 0xD30 JUMPI PUSH2 0xD2B SWAP1 PUSH2 0x2083 JUMP JUMPDEST PUSH2 0xCD4 JUMP JUMPDEST PUSH1 0x40 MLOAD PUSH3 0x461BCD PUSH1 0xE5 SHL DUP2 MSTORE PUSH1 0x20 PUSH1 0x4 DUP3 ADD MSTORE PUSH1 0x1D PUSH1 0x24 DUP3 ADD MSTORE PUSH32 0x44726970436F72653A204475706C696361746520726563697069656E74000000 PUSH1 0x44 DUP3 ADD MSTORE PUSH1 0x64 SWAP1 REVERT JUMPDEST PUSH4 0x4E487B71 PUSH1 0xE0 SHL PUSH1 0x0 MSTORE PUSH1 0x11 PUSH1 0x4 MSTORE PUSH1 0x24 PUSH1 0x0 REVERT JUMPDEST PUSH1 0x40 MLOAD PUSH3 0x461BCD PUSH1 0xE5 SHL DUP2 MSTORE PUSH1 0x20 PUSH1 0x4 DUP3 ADD MSTORE PUSH1 0x18 PUSH1 0x24 DUP3 ADD MSTORE PUSH32 0x44726970436F72653A20496E76616C696420616D6F756E740000000000000000 PUSH1 0x44 DUP3 ADD MSTORE PUSH1 0x64 SWAP1 REVERT JUMPDEST PUSH1 0x40 MLOAD PUSH3 0x461BCD PUSH1 0xE5 SHL DUP2 MSTORE PUSH1 0x20 PUSH1 0x4 DUP3 ADD MSTORE PUSH1 0x1F PUSH1 0x24 DUP3 ADD MSTORE PUSH32 0x44726970436F72653A2043616E6E6F742073747265616D20746F2073656C6600 PUSH1 0x44 DUP3 ADD MSTORE PUSH1 0x64 SWAP1 REVERT JUMPDEST PUSH1 0x40 MLOAD PUSH3 0x461BCD PUSH1 0xE5 SHL DUP2 MSTORE PUSH1 0x20 PUSH1 0x4 DUP3 ADD MSTORE PUSH1 0x1E PUSH1 0x24 DUP3 ADD MSTORE PUSH32 0x44726970436F72653A204465736372697074696F6E20746F6F206C6F6E670000 PUSH1 0x44 DUP3 ADD MSTORE PUSH1 0x64 SWAP1 REVERT JUMPDEST PUSH1 0x40 MLOAD PUSH3 0x461BCD PUSH1 0xE5 SHL DUP2 MSTORE PUSH1 0x20 PUSH1 0x4 DUP3 ADD MSTORE PUSH1 0x18 PUSH1 0x24 DUP3 ADD MSTORE PUSH32 0x44726970436F72653A205469746C6520746F6F206C6F6E670000000000000000 PUSH1 0x44 DUP3 ADD MSTORE PUSH1 0x64 SWAP1 REVERT JUMPDEST PUSH1 0x40 MLOAD PUSH3 0x461BCD PUSH1 0xE5 SHL DUP2 MSTORE PUSH1 0x20 PUSH1 0x4 DUP3 ADD MSTORE PUSH1 0x19 PUSH1 0x24 DUP3 ADD MSTORE PUSH32 0x44726970436F72653A20506572696F6420746F6F206C6F6E6700000000000000 PUSH1 0x44 DUP3 ADD MSTORE PUSH1 0x64 SWAP1 REVERT JUMPDEST PUSH1 0x40 MLOAD PUSH3 0x461BCD PUSH1 0xE5 SHL DUP2 MSTORE PUSH1 0x20 PUSH1 0x4 DUP3 ADD MSTORE PUSH1 0x1A PUSH1 0x24 DUP3 ADD MSTORE PUSH32 0x44726970436F72653A20506572696F6420746F6F2073686F7274000000000000 PUSH1 0x44 DUP3 ADD MSTORE PUSH1 0x64 SWAP1 REVERT JUMPDEST PUSH1 0x40 MLOAD PUSH3 0x461BCD PUSH1 0xE5 SHL DUP2 MSTORE PUSH1 0x20 PUSH1 0x4 DUP3 ADD MSTORE PUSH1 0x19 PUSH1 0x24 DUP3 ADD MSTORE PUSH32 0x44726970436F72653A20496E76616C6964206465706F73697400000000000000 PUSH1 0x44 DUP3 ADD MSTORE PUSH1 0x64 SWAP1 REVERT JUMPDEST PUSH1 0x40 MLOAD PUSH3 0x461BCD PUSH1 0xE5 SHL DUP2 MSTORE PUSH1 0x20 PUSH1 0x4 DUP3 ADD MSTORE PUSH1 0x1B PUSH1 0x24 DUP3 ADD MSTORE PUSH32 0x44726970436F72653A204D69736D617463686564206172726179730000000000 PUSH1 0x44 DUP3 ADD MSTORE PUSH1 0x64 SWAP1 REVERT JUMPDEST PUSH1 0x40 MLOAD PUSH3 0x461BCD PUSH1 0xE5 SHL DUP2 MSTORE PUSH1 0x20 PUSH1 0x4 DUP3 ADD MSTORE PUSH1 0x29 PUSH1 0x24 DUP3 ADD MSTORE PUSH32 0x44726970436F72653A204174206C65617374206F6E6520726563697069656E74 PUSH1 0x44 DUP3 ADD MSTORE PUSH9 0x81C995C5D5A5C9959 PUSH1 0xBA SHL PUSH1 0x64 DUP3 ADD MSTORE PUSH1 0x84 SWAP1 REVERT JUMPDEST CALLVALUE PUSH2 0x28D JUMPI PUSH1 0x0 CALLDATASIZE PUSH1 0x3 NOT ADD SLT PUSH2 0x28D JUMPI PUSH1 0xC SLOAD PUSH1 0x40 MLOAD PUSH1 0x1 PUSH1 0x1 PUSH1 0xA0 SHL SUB SWAP1 SWAP2 AND DUP2 MSTORE PUSH1 0x20 SWAP1 RETURN JUMPDEST CALLVALUE PUSH2 0x28D JUMPI PUSH1 0x20 DUP1 PUSH1 0x3 NOT CALLDATASIZE ADD SLT PUSH2 0x28D JUMPI PUSH1 0x1 PUSH1 0x1 PUSH1 0xA0 SHL SUB PUSH2 0x1055 PUSH2 0x1E28 JUMP JUMPDEST AND PUSH1 0x0 MSTORE PUSH1 0x7 DUP2 MSTORE PUSH1 0x40 PUSH1 0x0 KECCAK256 PUSH1 0x40 MLOAD DUP1 DUP3 DUP5 DUP3 SWAP5 SLOAD SWAP4 DUP5 DUP2 MSTORE ADD SWAP1 PUSH1 0x0 MSTORE DUP5 PUSH1 0x0 KECCAK256 SWAP3 PUSH1 0x0 JUMPDEST DUP7 DUP3 DUP3 LT PUSH2 0x10F9 JUMPI DUP5 PUSH2 0x1091 DUP2 DUP7 SUB DUP3 PUSH2 0x21C8 JUMP JUMPDEST PUSH2 0x109B DUP2 MLOAD PUSH2 0x2903 JUMP JUMPDEST SWAP2 PUSH1 0x0 JUMPDEST DUP3 MLOAD DUP2 LT ISZERO PUSH2 0x10EB JUMPI DUP1 PUSH2 0x10B6 PUSH2 0x10E6 SWAP3 DUP6 PUSH2 0x224B JUMP JUMPDEST MLOAD PUSH1 0x0 MSTORE PUSH1 0x3 DUP4 MSTORE PUSH2 0x10CB PUSH1 0x40 PUSH1 0x0 KECCAK256 PUSH2 0x23FA JUMP JUMPDEST PUSH2 0x10D5 DUP3 DUP8 PUSH2 0x224B JUMP JUMPDEST MSTORE PUSH2 0x10E0 DUP2 DUP7 PUSH2 0x224B JUMP JUMPDEST POP PUSH2 0x2083 JUMP JUMPDEST PUSH2 0x109F JUMP JUMPDEST PUSH1 0x40 MLOAD DUP1 PUSH2 0x2FF DUP7 DUP3 PUSH2 0x1F5D JUMP JUMPDEST DUP6 SLOAD DUP5 MSTORE PUSH1 0x1 SWAP6 DUP7 ADD SWAP6 DUP8 SWAP6 POP SWAP4 ADD SWAP3 ADD PUSH2 0x107C JUMP JUMPDEST CALLVALUE PUSH2 0x28D JUMPI PUSH1 0x20 DUP1 PUSH1 0x3 NOT CALLDATASIZE ADD SLT PUSH2 0x28D JUMPI PUSH1 0x1 PUSH1 0x1 PUSH1 0xA0 SHL SUB PUSH2 0x1131 PUSH2 0x1E28 JUMP JUMPDEST AND PUSH1 0x0 MSTORE PUSH1 0x7 DUP2 MSTORE PUSH1 0x40 PUSH1 0x0 KECCAK256 SWAP1 PUSH1 0x40 MLOAD SWAP1 DUP2 DUP2 DUP5 SLOAD SWAP2 DUP3 DUP2 MSTORE ADD SWAP4 PUSH1 0x0 MSTORE DUP2 PUSH1 0x0 KECCAK256 SWAP2 PUSH1 0x0 SWAP1 JUMPDEST DUP3 DUP3 LT PUSH2 0x1170 JUMPI PUSH2 0x2FF DUP6 PUSH2 0x2F3 DUP2 DUP10 SUB DUP3 PUSH2 0x21C8 JUMP JUMPDEST DUP4 SLOAD DUP7 MSTORE SWAP5 DUP6 ADD SWAP5 PUSH1 0x1 SWAP4 DUP5 ADD SWAP4 SWAP1 SWAP2 ADD SWAP1 PUSH2 0x1159 JUMP JUMPDEST CALLVALUE PUSH2 0x28D JUMPI PUSH1 0x0 CALLDATASIZE PUSH1 0x3 NOT ADD SLT PUSH2 0x28D JUMPI PUSH1 0x20 PUSH1 0x40 MLOAD PUSH2 0xE10 DUP2 MSTORE RETURN JUMPDEST CALLVALUE PUSH2 0x28D JUMPI PUSH1 0x0 CALLDATASIZE PUSH1 0x3 NOT ADD SLT PUSH2 0x28D JUMPI PUSH1 0x20 PUSH1 0x40 MLOAD PUSH4 0x12CC0300 DUP2 MSTORE RETURN JUMPDEST CALLVALUE PUSH2 0x28D JUMPI PUSH1 0x40 CALLDATASIZE PUSH1 0x3 NOT ADD SLT PUSH2 0x28D JUMPI PUSH2 0x12AE PUSH1 0x4 CALLDATALOAD PUSH2 0x11E2 PUSH2 0x1E12 JUMP JUMPDEST SWAP1 PUSH2 0x11EB PUSH2 0x27EC JUMP JUMPDEST POP DUP1 PUSH1 0x0 MSTORE PUSH1 0x20 SWAP1 PUSH1 0x3 DUP3 MSTORE PUSH2 0x1204 PUSH1 0x40 PUSH1 0x0 KECCAK256 PUSH2 0x23FA JUMP JUMPDEST SWAP1 PUSH2 0x1211 DUP3 MLOAD ISZERO ISZERO PUSH2 0x24E2 JUMP JUMPDEST PUSH2 0x1223 PUSH2 0x121E DUP6 DUP5 PUSH2 0x2953 JUMP JUMPDEST PUSH2 0x252E JUMP JUMPDEST PUSH1 0x0 DUP2 DUP2 MSTORE PUSH1 0x5 DUP5 MSTORE PUSH1 0x40 DUP1 DUP3 KECCAK256 PUSH1 0x1 PUSH1 0x1 PUSH1 0xA0 SHL SUB DUP8 AND DUP1 DUP5 MSTORE SWAP1 DUP7 MSTORE SWAP2 KECCAK256 SLOAD SWAP1 SWAP5 SWAP1 SWAP3 DUP4 ISZERO PUSH2 0x1362 JUMPI JUMPDEST POP PUSH1 0x0 DUP3 DUP2 MSTORE PUSH1 0x4 DUP1 DUP7 MSTORE PUSH1 0x40 DUP1 DUP4 KECCAK256 DUP9 DUP5 MSTORE DUP8 MSTORE DUP1 DUP4 KECCAK256 SLOAD DUP6 DUP5 MSTORE PUSH1 0x6 DUP9 MSTORE DUP2 DUP5 KECCAK256 DUP10 DUP6 MSTORE DUP9 MSTORE SWAP3 DUP2 SWAP1 KECCAK256 SLOAD SWAP1 MLOAD PUSH4 0x186CCD5 PUSH1 0xE2 SHL DUP2 MSTORE SWAP2 DUP3 ADD SWAP5 SWAP1 SWAP5 MSTORE PUSH1 0x1 PUSH1 0x1 PUSH1 0xA0 SHL SUB SWAP1 SWAP3 AND PUSH1 0x24 DUP4 ADD MSTORE SWAP1 SWAP6 DUP5 SWAP1 DUP8 SWAP1 DUP2 SWAP1 PUSH1 0x44 DUP3 ADD SWAP1 JUMP JUMPDEST SUB DUP2 ADDRESS GAS STATICCALL SWAP4 DUP5 ISZERO PUSH2 0x1356 JUMPI PUSH1 0x0 SWAP5 PUSH2 0x1326 JUMPI JUMPDEST PUSH1 0xA0 SWAP7 POP PUSH1 0x40 MLOAD SWAP6 PUSH2 0x12D3 DUP8 PUSH2 0x2191 JUMP JUMPDEST DUP7 MSTORE DUP6 ADD MSTORE PUSH1 0x40 DUP5 ADD MSTORE PUSH1 0x60 DUP4 ADD MSTORE PUSH1 0x80 DUP3 ADD MSTORE PUSH2 0x1324 PUSH1 0x40 MLOAD DUP1 SWAP3 PUSH1 0x80 DUP1 SWAP2 PUSH1 0x1 DUP1 PUSH1 0xA0 SHL SUB DUP2 MLOAD AND DUP5 MSTORE PUSH1 0x20 DUP2 ADD MLOAD PUSH1 0x20 DUP6 ADD MSTORE PUSH1 0x40 DUP2 ADD MLOAD PUSH1 0x40 DUP6 ADD MSTORE PUSH1 0x60 DUP2 ADD MLOAD PUSH1 0x60 DUP6 ADD MSTORE ADD MLOAD SWAP2 ADD MSTORE JUMP JUMPDEST RETURN JUMPDEST DUP1 SWAP5 POP DUP7 DUP2 RETURNDATASIZE DUP4 GT PUSH2 0x134F JUMPI JUMPDEST PUSH2 0x133D DUP2 DUP4 PUSH2 0x21C8 JUMP JUMPDEST DUP2 ADD SUB SLT PUSH2 0x28D JUMPI PUSH1 0xA0 SWAP6 MLOAD SWAP4 PUSH2 0x12C2 JUMP JUMPDEST POP RETURNDATASIZE PUSH2 0x1333 JUMP JUMPDEST PUSH1 0x40 MLOAD RETURNDATASIZE PUSH1 0x0 DUP3 RETURNDATACOPY RETURNDATASIZE SWAP1 REVERT JUMPDEST PUSH1 0xA0 ADD MLOAD SWAP3 POP DUP7 PUSH2 0x124F JUMP JUMPDEST CALLVALUE PUSH2 0x28D JUMPI PUSH1 0x20 DUP1 PUSH1 0x3 NOT CALLDATASIZE ADD SLT PUSH2 0x28D JUMPI PUSH1 0x1 PUSH1 0x1 PUSH1 0xA0 SHL SUB PUSH2 0x1390 PUSH2 0x1E28 JUMP JUMPDEST AND PUSH1 0x0 MSTORE PUSH1 0x8 DUP2 MSTORE PUSH1 0x40 PUSH1 0x0 KECCAK256 PUSH1 0x40 MLOAD DUP1 DUP3 DUP5 DUP3 SWAP5 SLOAD SWAP4 DUP5 DUP2 MSTORE ADD SWAP1 PUSH1 0x0 MSTORE DUP5 PUSH1 0x0 KECCAK256 SWAP3 PUSH1 0x0 JUMPDEST DUP7 DUP3 DUP3 LT PUSH2 0x13F6 JUMPI DUP5 PUSH2 0x13CC DUP2 DUP7 SUB DUP3 PUSH2 0x21C8 JUMP JUMPDEST PUSH2 0x13D6 DUP2 MLOAD PUSH2 0x2903 JUMP JUMPDEST SWAP2 PUSH1 0x0 JUMPDEST DUP3 MLOAD DUP2 LT ISZERO PUSH2 0x10EB JUMPI DUP1 PUSH2 0x10B6 PUSH2 0x13F1 SWAP3 DUP6 PUSH2 0x224B JUMP JUMPDEST PUSH2 0x13DA JUMP JUMPDEST DUP6 SLOAD DUP5 MSTORE PUSH1 0x1 SWAP6 DUP7 ADD SWAP6 DUP8 SWAP6 POP SWAP4 ADD SWAP3 ADD PUSH2 0x13B7 JUMP JUMPDEST CALLVALUE PUSH2 0x28D JUMPI PUSH1 0x0 CALLDATASIZE PUSH1 0x3 NOT ADD SLT PUSH2 0x28D JUMPI PUSH1 0x1 SLOAD PUSH1 0x40 MLOAD PUSH1 0x1 PUSH1 0x1 PUSH1 0xA0 SHL SUB SWAP1 SWAP2 AND DUP2 MSTORE PUSH1 0x20 SWAP1 RETURN JUMPDEST CALLVALUE PUSH2 0x28D JUMPI PUSH1 0x0 CALLDATASIZE PUSH1 0x3 NOT ADD SLT PUSH2 0x28D JUMPI PUSH1 0x20 PUSH1 0x40 MLOAD PUSH2 0x400 DUP2 MSTORE RETURN JUMPDEST CALLVALUE PUSH2 0x28D JUMPI PUSH1 0x20 CALLDATASIZE PUSH1 0x3 NOT ADD SLT PUSH2 0x28D JUMPI PUSH2 0x146B PUSH2 0x28B8 JUMP JUMPDEST POP PUSH1 0x4 CALLDATALOAD PUSH1 0x0 MSTORE PUSH1 0x3 PUSH1 0x20 MSTORE PUSH2 0x2FF PUSH2 0x1487 PUSH1 0x40 PUSH1 0x0 KECCAK256 PUSH2 0x23FA JUMP JUMPDEST PUSH2 0x1493 DUP2 MLOAD ISZERO ISZERO PUSH2 0x24E2 JUMP JUMPDEST PUSH1 0x40 MLOAD SWAP2 DUP3 SWAP2 PUSH1 0x20 DUP4 MSTORE PUSH1 0x20 DUP4 ADD SWAP1 PUSH2 0x1EBB JUMP JUMPDEST CALLVALUE PUSH2 0x28D JUMPI PUSH1 0x60 CALLDATASIZE PUSH1 0x3 NOT ADD SLT PUSH2 0x28D JUMPI PUSH1 0x4 CALLDATALOAD PUSH2 0x14C3 PUSH2 0x1E12 JUMP JUMPDEST PUSH1 0x44 CALLDATALOAD PUSH2 0x14CE PUSH2 0x2331 JUMP JUMPDEST DUP3 PUSH1 0x0 MSTORE PUSH1 0x20 SWAP3 PUSH1 0x3 DUP5 MSTORE PUSH1 0x40 PUSH1 0x0 KECCAK256 PUSH2 0x14EA DUP2 SLOAD ISZERO ISZERO PUSH2 0x24E2 JUMP JUMPDEST PUSH1 0x7 DUP2 ADD SWAP1 PUSH1 0xFF DUP3 SLOAD AND PUSH1 0x5 DUP2 LT ISZERO PUSH2 0x277 JUMPI PUSH1 0x1 PUSH2 0x1509 SWAP2 EQ PUSH2 0x27A0 JUMP JUMPDEST PUSH2 0x151E PUSH2 0x121E DUP7 PUSH2 0x1519 DUP5 PUSH2 0x23FA JUMP JUMPDEST PUSH2 0x2953 JUMP JUMPDEST PUSH1 0x1 PUSH1 0x1 PUSH1 0xA0 SHL SUB DUP6 DUP2 AND SWAP5 CALLER DUP7 SWAP1 SUB PUSH2 0x1768 JUMPI PUSH1 0x40 MLOAD PUSH4 0x186CCD5 PUSH1 0xE2 SHL DUP2 MSTORE PUSH1 0x4 DUP2 ADD DUP7 SWAP1 MSTORE PUSH1 0x1 PUSH1 0x1 PUSH1 0xA0 SHL SUB DUP9 AND PUSH1 0x24 DUP3 ADD MSTORE SWAP1 DUP9 DUP3 PUSH1 0x44 DUP2 ADDRESS GAS STATICCALL SWAP2 DUP3 ISZERO PUSH2 0x1356 JUMPI PUSH1 0x0 SWAP3 PUSH2 0x1739 JUMPI JUMPDEST POP DUP2 ISZERO PUSH2 0x16F4 JUMPI DUP1 PUSH2 0x169B JUMPI POP SWAP1 PUSH2 0x15CD SWAP2 SWAP7 DUP8 SWAP2 JUMPDEST DUP7 PUSH1 0x0 MSTORE PUSH1 0x6 DUP11 MSTORE PUSH1 0x40 PUSH1 0x0 KECCAK256 DUP9 PUSH1 0x0 MSTORE DUP11 MSTORE PUSH1 0x40 PUSH1 0x0 KECCAK256 PUSH2 0x15A6 DUP5 DUP3 SLOAD PUSH2 0x2118 JUMP JUMPDEST SWAP1 SSTORE DUP7 PUSH1 0x0 MSTORE PUSH1 0x5 DUP11 MSTORE PUSH1 0x40 PUSH1 0x0 KECCAK256 DUP9 PUSH1 0x0 MSTORE DUP11 MSTORE TIMESTAMP PUSH1 0x40 PUSH1 0x0 KECCAK256 SSTORE PUSH1 0x3 DUP6 ADD SLOAD AND PUSH2 0x2AEB JUMP JUMPDEST ISZERO PUSH2 0x1656 JUMPI PUSH1 0x4 PUSH2 0x15DE TIMESTAMP DUP6 PUSH2 0x29A8 JUMP JUMPDEST SWAP2 ADD SLOAD GT ISZERO PUSH2 0x161F JUMPI JUMPDEST POP PUSH32 0xB8794A93AD70D58BD94788F8523CD8EBCFF47F5541F8816ADE60C636F1B57827 DUP5 PUSH1 0x40 MLOAD DUP6 DUP2 MSTORE LOG3 PUSH1 0x1 PUSH1 0x0 SSTORE PUSH1 0x40 MLOAD SWAP1 DUP2 MSTORE RETURN JUMPDEST DUP1 SLOAD PUSH1 0xFF NOT AND PUSH1 0x4 OR SWAP1 SSTORE DUP1 PUSH32 0x9F42D6CDA766C435D861D2FF395B3E17ADE9BF57CF770549B62662947FF15B4A PUSH1 0x0 DUP1 LOG2 DUP5 PUSH2 0x15E8 JUMP JUMPDEST PUSH1 0x40 MLOAD PUSH3 0x461BCD PUSH1 0xE5 SHL DUP2 MSTORE PUSH1 0x4 DUP2 ADD DUP8 SWAP1 MSTORE PUSH1 0x19 PUSH1 0x24 DUP3 ADD MSTORE PUSH32 0x44726970436F72653A205472616E73666572206661696C656400000000000000 PUSH1 0x44 DUP3 ADD MSTORE PUSH1 0x64 SWAP1 REVERT JUMPDEST SWAP1 DUP2 GT PUSH2 0x16AF JUMPI SWAP1 PUSH2 0x15CD SWAP2 SWAP7 DUP8 SWAP2 PUSH2 0x1583 JUMP JUMPDEST PUSH1 0x40 MLOAD PUSH3 0x461BCD PUSH1 0xE5 SHL DUP2 MSTORE PUSH1 0x4 DUP2 ADD DUP10 SWAP1 MSTORE PUSH1 0x1E PUSH1 0x24 DUP3 ADD MSTORE PUSH32 0x44726970436F72653A20496E73756666696369656E742062616C616E63650000 PUSH1 0x44 DUP3 ADD MSTORE PUSH1 0x64 SWAP1 REVERT JUMPDEST PUSH1 0x40 MLOAD PUSH3 0x461BCD PUSH1 0xE5 SHL DUP2 MSTORE PUSH1 0x4 DUP2 ADD DUP11 SWAP1 MSTORE PUSH1 0x1E PUSH1 0x24 DUP3 ADD MSTORE PUSH32 0x44726970436F72653A204E6F2062616C616E636520617661696C61626C650000 PUSH1 0x44 DUP3 ADD MSTORE PUSH1 0x64 SWAP1 REVERT JUMPDEST SWAP1 SWAP2 POP DUP9 DUP2 DUP2 RETURNDATASIZE DUP4 GT PUSH2 0x1761 JUMPI JUMPDEST PUSH2 0x1751 DUP2 DUP4 PUSH2 0x21C8 JUMP JUMPDEST DUP2 ADD SUB SLT PUSH2 0x28D JUMPI MLOAD SWAP1 DUP10 PUSH2 0x156D JUMP JUMPDEST POP RETURNDATASIZE PUSH2 0x1747 JUMP JUMPDEST PUSH1 0x40 MLOAD PUSH3 0x461BCD PUSH1 0xE5 SHL DUP2 MSTORE PUSH1 0x4 DUP2 ADD DUP10 SWAP1 MSTORE PUSH1 0x25 PUSH1 0x24 DUP3 ADD MSTORE PUSH32 0x44726970436F72653A204F6E6C7920726563697069656E742063616E20776974 PUSH1 0x44 DUP3 ADD MSTORE PUSH5 0x6864726177 PUSH1 0xD8 SHL PUSH1 0x64 DUP3 ADD MSTORE PUSH1 0x84 SWAP1 REVERT JUMPDEST CALLVALUE PUSH2 0x28D JUMPI PUSH1 0x20 CALLDATASIZE PUSH1 0x3 NOT ADD SLT PUSH2 0x28D JUMPI PUSH1 0x4 CALLDATALOAD DUP1 PUSH1 0x0 MSTORE PUSH1 0x3 PUSH1 0x20 MSTORE PUSH1 0x40 PUSH1 0x0 KECCAK256 PUSH2 0x17E9 DUP2 SLOAD ISZERO ISZERO PUSH2 0x24E2 JUMP JUMPDEST PUSH1 0x7 DUP2 ADD SWAP1 PUSH1 0xFF DUP3 SLOAD AND PUSH1 0x5 DUP2 LT ISZERO PUSH2 0x277 JUMPI PUSH2 0x1828 SWAP2 PUSH2 0x180D PUSH1 0x1 DUP1 SWAP4 EQ PUSH2 0x27A0 JUMP JUMPDEST DUP2 DUP1 PUSH1 0xA0 SHL SUB SWAP2 DUP3 SWAP2 ADD SLOAD AND CALLER EQ SWAP1 DUP2 ISZERO PUSH2 0x186C JUMPI POP PUSH2 0x2817 JUMP JUMPDEST DUP2 PUSH1 0x0 MSTORE PUSH1 0xA PUSH1 0x20 MSTORE TIMESTAMP PUSH1 0x40 PUSH1 0x0 KECCAK256 SSTORE PUSH1 0x2 PUSH1 0xFF NOT DUP3 SLOAD AND OR SWAP1 SSTORE CALLER SWAP1 PUSH32 0xFF71F52D9D3AD4AE0959691A14EF1D1478D482CA10AC8BE29C8E7D88CF3BABA6 PUSH1 0x0 DUP1 LOG3 STOP JUMPDEST SWAP1 POP PUSH1 0x1 SLOAD AND CALLER EQ DUP5 PUSH2 0x19A JUMP JUMPDEST CALLVALUE PUSH2 0x28D JUMPI PUSH1 0x0 CALLDATASIZE PUSH1 0x3 NOT ADD SLT PUSH2 0x28D JUMPI PUSH2 0x1893 PUSH2 0x2057 JUMP JUMPDEST PUSH1 0x1 DUP1 SLOAD PUSH1 0x1 PUSH1 0x1 PUSH1 0xA0 SHL SUB NOT DUP2 AND SWAP1 SWAP2 SSTORE PUSH1 0x0 SWAP1 PUSH1 0x1 PUSH1 0x1 PUSH1 0xA0 SHL SUB AND PUSH32 0x8BE0079C531659141344CD1FD0A4F28419497F9722A3DAAFE3B4186F6B6457E0 DUP3 DUP1 LOG3 STOP JUMPDEST CALLVALUE PUSH2 0x28D JUMPI PUSH1 0x20 CALLDATASIZE PUSH1 0x3 NOT ADD SLT PUSH2 0x28D JUMPI PUSH1 0x4 CALLDATALOAD PUSH2 0x18F3 PUSH2 0x2331 JUMP JUMPDEST DUP1 PUSH1 0x0 MSTORE PUSH1 0x3 PUSH1 0x20 MSTORE PUSH1 0x40 PUSH1 0x0 KECCAK256 SWAP1 PUSH2 0x190E DUP3 SLOAD ISZERO ISZERO PUSH2 0x24E2 JUMP JUMPDEST PUSH1 0x7 DUP3 ADD SWAP2 DUP3 SLOAD PUSH1 0xFF DUP2 AND PUSH1 0x5 DUP2 LT ISZERO PUSH2 0x277 JUMPI PUSH1 0x1 DUP2 EQ SWAP1 DUP2 ISZERO PUSH2 0x1ABF JUMPI JUMPDEST POP ISZERO PUSH2 0x1A6E JUMPI PUSH1 0x1 DUP3 ADD SLOAD PUSH1 0x3 SWAP5 PUSH1 0x1 PUSH1 0x1 PUSH1 0xA0 SHL SUB SWAP2 DUP3 AND SWAP2 SWAP1 PUSH1 0x0 SWAP1 CALLER DUP5 EQ DUP1 ISZERO PUSH2 0x1A61 JUMPI JUMPDEST PUSH2 0x195F SWAP1 PUSH2 0x2817 JUMP JUMPDEST PUSH2 0x1969 TIMESTAMP DUP9 PUSH2 0x29A8 JUMP JUMPDEST SWAP1 PUSH1 0x4 DUP8 ADD SWAP2 DUP3 SLOAD SWAP1 DUP1 DUP3 GT DUP6 EQ PUSH2 0x1A56 JUMPI PUSH2 0x1984 SWAP2 PUSH2 0x2138 JUMP JUMPDEST SWAP9 DUP10 SWAP7 JUMPDEST PUSH1 0xFF NOT AND OR SWAP1 SSTORE SSTORE DUP3 PUSH2 0x19CB JUMPI JUMPDEST DUP3 DUP6 PUSH1 0x40 MLOAD SWAP2 DUP3 MSTORE PUSH32 0xFEED183D9F143664E4CA27CA57080BE96D765AB4BFF9D02E3BB0A9B04E149C25 PUSH1 0x20 CALLER SWAP4 LOG3 PUSH1 0x1 PUSH1 0x0 SSTORE STOP JUMPDEST PUSH1 0x3 PUSH2 0x19EE SWAP5 ADD SLOAD AND DUP1 ISZERO PUSH1 0x0 EQ PUSH2 0x1A41 JUMPI PUSH2 0x19E9 DUP4 SELFBALANCE LT ISZERO PUSH2 0x285C JUMP JUMPDEST PUSH2 0x2AEB JUMP JUMPDEST ISZERO PUSH2 0x19FC JUMPI DUP3 DUP3 DUP2 DUP1 PUSH2 0x1996 JUMP JUMPDEST PUSH1 0x40 MLOAD PUSH3 0x461BCD PUSH1 0xE5 SHL DUP2 MSTORE PUSH1 0x20 PUSH1 0x4 DUP3 ADD MSTORE PUSH1 0x17 PUSH1 0x24 DUP3 ADD MSTORE PUSH32 0x44726970436F72653A20526566756E64206661696C6564000000000000000000 PUSH1 0x44 DUP3 ADD MSTORE PUSH1 0x64 SWAP1 REVERT JUMPDEST PUSH2 0x19E9 DUP4 PUSH2 0x1A4F ADDRESS DUP5 PUSH2 0x2D61 JUMP JUMPDEST LT ISZERO PUSH2 0x285C JUMP JUMPDEST POP POP DUP3 SWAP9 DUP10 SWAP7 PUSH2 0x1988 JUMP JUMPDEST POP PUSH1 0x1 SLOAD DUP4 AND CALLER EQ PUSH2 0x1956 JUMP JUMPDEST PUSH1 0x40 MLOAD PUSH3 0x461BCD PUSH1 0xE5 SHL DUP2 MSTORE PUSH1 0x20 PUSH1 0x4 DUP3 ADD MSTORE PUSH1 0x24 DUP1 DUP3 ADD MSTORE PUSH32 0x44726970436F72653A2053747265616D2063616E6E6F742062652063616E6365 PUSH1 0x44 DUP3 ADD MSTORE PUSH4 0x1B1B1959 PUSH1 0xE2 SHL PUSH1 0x64 DUP3 ADD MSTORE PUSH1 0x84 SWAP1 REVERT JUMPDEST PUSH1 0x2 SWAP2 POP EQ DUP6 PUSH2 0x192E JUMP JUMPDEST CALLVALUE PUSH2 0x28D JUMPI PUSH1 0x20 CALLDATASIZE PUSH1 0x3 NOT ADD SLT PUSH2 0x28D JUMPI PUSH1 0x20 PUSH2 0x1AEF PUSH2 0x1AE8 PUSH2 0x1E28 JUMP JUMPDEST ADDRESS SWAP1 PUSH2 0x2D61 JUMP JUMPDEST PUSH1 0x40 MLOAD SWAP1 DUP2 MSTORE RETURN JUMPDEST CALLVALUE PUSH2 0x28D JUMPI PUSH1 0x20 DUP1 PUSH1 0x3 NOT CALLDATASIZE ADD SLT PUSH2 0x28D JUMPI PUSH1 0x4 CALLDATALOAD SWAP1 DUP2 PUSH1 0x0 MSTORE PUSH1 0x3 DUP2 MSTORE PUSH1 0x40 PUSH2 0x1B23 DUP2 PUSH1 0x0 KECCAK256 PUSH2 0x23FA JUMP JUMPDEST PUSH2 0x1B2F DUP2 MLOAD ISZERO ISZERO PUSH2 0x24E2 JUMP JUMPDEST ADD DUP1 MLOAD MLOAD SWAP3 PUSH2 0x1B3D DUP5 PUSH2 0x2234 JUMP JUMPDEST SWAP4 PUSH2 0x1B4B PUSH1 0x40 MLOAD SWAP6 DUP7 PUSH2 0x21C8 JUMP JUMPDEST DUP1 DUP6 MSTORE PUSH2 0x1B5A PUSH1 0x1F NOT SWAP2 PUSH2 0x2234 JUMP JUMPDEST ADD DUP4 PUSH1 0x0 JUMPDEST DUP3 DUP2 LT PUSH2 0x1CE7 JUMPI POP POP POP PUSH1 0x0 JUMPDEST DUP3 MLOAD DUP1 MLOAD DUP3 LT ISZERO PUSH2 0x1C6D JUMPI PUSH1 0x1 PUSH1 0x1 PUSH1 0xA0 SHL SUB SWAP2 SWAP1 PUSH2 0x1BC7 SWAP1 DUP4 SWAP1 PUSH2 0x1B92 SWAP1 DUP5 SWAP1 PUSH2 0x224B JUMP JUMPDEST MLOAD PUSH1 0x40 MLOAD PUSH4 0xABC4F541 PUSH1 0xE0 SHL DUP2 MSTORE PUSH1 0x4 DUP2 ADD DUP8 SWAP1 MSTORE SWAP2 AND PUSH1 0x1 PUSH1 0x1 PUSH1 0xA0 SHL SUB AND PUSH1 0x24 DUP3 ADD MSTORE PUSH1 0xA0 SWAP2 DUP3 SWAP1 DUP3 SWAP1 DUP2 SWAP1 PUSH1 0x44 DUP3 ADD SWAP1 JUMP JUMPDEST SUB DUP2 ADDRESS GAS STATICCALL SWAP2 DUP3 ISZERO PUSH2 0x1356 JUMPI PUSH1 0x0 SWAP3 PUSH2 0x1BFC JUMPI JUMPDEST POP POP PUSH2 0x1BF7 SWAP3 POP PUSH2 0x1BEC DUP3 DUP9 PUSH2 0x224B JUMP JUMPDEST MSTORE PUSH2 0x10E0 DUP2 DUP8 PUSH2 0x224B JUMP JUMPDEST PUSH2 0x1B6C JUMP JUMPDEST SWAP1 DUP1 SWAP3 POP DUP2 RETURNDATASIZE DUP4 GT PUSH2 0x1C66 JUMPI JUMPDEST PUSH2 0x1C13 DUP2 DUP4 PUSH2 0x21C8 JUMP JUMPDEST DUP2 ADD SUB SLT PUSH2 0x28D JUMPI PUSH1 0x40 MLOAD SWAP1 PUSH2 0x1C28 DUP3 PUSH2 0x2191 JUMP JUMPDEST DUP1 MLOAD SWAP4 DUP5 AND DUP5 SUB PUSH2 0x28D JUMPI PUSH2 0x1BF7 SWAP4 DUP3 MSTORE DUP7 DUP2 ADD MLOAD DUP8 DUP4 ADD MSTORE PUSH1 0x40 DUP2 ADD MLOAD PUSH1 0x40 DUP4 ADD MSTORE PUSH1 0x60 DUP1 DUP3 ADD MLOAD SWAP1 DUP4 ADD MSTORE PUSH1 0x80 DUP1 SWAP2 ADD MLOAD SWAP1 DUP3 ADD MSTORE DUP8 DUP1 PUSH2 0x1BDB JUMP JUMPDEST POP RETURNDATASIZE PUSH2 0x1C09 JUMP JUMPDEST PUSH1 0x40 DUP1 MLOAD DUP7 DUP2 MSTORE DUP8 MLOAD DUP2 DUP9 ADD DUP2 SWAP1 MSTORE DUP9 DUP9 ADD SWAP3 DUP3 ADD SWAP1 DUP9 PUSH1 0x0 JUMPDEST DUP3 DUP2 LT PUSH2 0x1C94 JUMPI DUP5 DUP5 SUB DUP6 RETURN JUMPDEST SWAP1 SWAP2 SWAP3 DUP3 PUSH1 0xA0 DUP3 PUSH2 0x1CD8 PUSH1 0x1 SWAP5 DUP11 MLOAD PUSH1 0x80 DUP1 SWAP2 PUSH1 0x1 DUP1 PUSH1 0xA0 SHL SUB DUP2 MLOAD AND DUP5 MSTORE PUSH1 0x20 DUP2 ADD MLOAD PUSH1 0x20 DUP6 ADD MSTORE PUSH1 0x40 DUP2 ADD MLOAD PUSH1 0x40 DUP6 ADD MSTORE PUSH1 0x60 DUP2 ADD MLOAD PUSH1 0x60 DUP6 ADD MSTORE ADD MLOAD SWAP2 ADD MSTORE JUMP JUMPDEST ADD SWAP7 ADD SWAP2 ADD SWAP5 SWAP3 SWAP2 SWAP1 SWAP5 PUSH2 0x1C87 JUMP JUMPDEST PUSH2 0x1CEF PUSH2 0x27EC JUMP JUMPDEST DUP3 DUP3 DUP10 ADD ADD MSTORE ADD DUP5 SWAP1 PUSH2 0x1B5F JUMP JUMPDEST CALLVALUE PUSH2 0x28D JUMPI PUSH1 0x0 CALLDATASIZE PUSH1 0x3 NOT ADD SLT PUSH2 0x28D JUMPI PUSH1 0x20 PUSH1 0xB SLOAD PUSH1 0x40 MLOAD SWAP1 DUP2 MSTORE RETURN JUMPDEST CALLVALUE PUSH2 0x28D JUMPI PUSH1 0x0 CALLDATASIZE PUSH1 0x3 NOT ADD SLT PUSH2 0x28D JUMPI PUSH1 0x20 PUSH1 0x40 MLOAD PUSH1 0x78 DUP2 MSTORE RETURN JUMPDEST CALLVALUE PUSH2 0x28D JUMPI PUSH1 0x20 CALLDATASIZE PUSH1 0x3 NOT ADD SLT PUSH2 0x28D JUMPI PUSH2 0x1D50 PUSH2 0x1E28 JUMP JUMPDEST PUSH2 0x1D58 PUSH2 0x2057 JUMP JUMPDEST PUSH1 0x1 PUSH1 0x1 PUSH1 0xA0 SHL SUB AND PUSH2 0x1D6C DUP2 ISZERO ISZERO PUSH2 0x20CC JUMP JUMPDEST PUSH1 0x1 PUSH1 0x1 PUSH1 0x60 SHL SUB PUSH1 0xA0 SHL PUSH1 0xC SLOAD AND OR PUSH1 0xC SSTORE PUSH1 0x0 DUP1 RETURN JUMPDEST CALLVALUE PUSH2 0x28D JUMPI PUSH1 0x20 CALLDATASIZE PUSH1 0x3 NOT ADD SLT PUSH2 0x28D JUMPI PUSH1 0x4 CALLDATALOAD PUSH2 0x1DA0 PUSH2 0x2057 JUMP JUMPDEST PUSH2 0x3E8 DUP2 GT PUSH2 0x1DAE JUMPI PUSH1 0xB SSTORE STOP JUMPDEST PUSH1 0x40 MLOAD PUSH3 0x461BCD PUSH1 0xE5 SHL DUP2 MSTORE PUSH1 0x20 PUSH1 0x4 DUP3 ADD MSTORE PUSH1 0x16 PUSH1 0x24 DUP3 ADD MSTORE PUSH22 0x88E4D2E086DEE4CA74408CCACA40E8DEDE40D0D2CED PUSH1 0x53 SHL PUSH1 0x44 DUP3 ADD MSTORE PUSH1 0x64 SWAP1 REVERT JUMPDEST CALLVALUE PUSH2 0x28D JUMPI PUSH1 0x40 CALLDATASIZE PUSH1 0x3 NOT ADD SLT PUSH2 0x28D JUMPI PUSH1 0x20 PUSH2 0x1AEF PUSH2 0x1E0A PUSH2 0x1E12 JUMP JUMPDEST PUSH1 0x4 CALLDATALOAD PUSH2 0x257A JUMP JUMPDEST PUSH1 0x24 CALLDATALOAD SWAP1 PUSH1 0x1 PUSH1 0x1 PUSH1 0xA0 SHL SUB DUP3 AND DUP3 SUB PUSH2 0x28D JUMPI JUMP JUMPDEST PUSH1 0x4 CALLDATALOAD SWAP1 PUSH1 0x1 PUSH1 0x1 PUSH1 0xA0 SHL SUB DUP3 AND DUP3 SUB PUSH2 0x28D JUMPI JUMP JUMPDEST SWAP1 DUP2 MLOAD DUP1 DUP3 MSTORE PUSH1 0x20 DUP1 DUP1 SWAP4 ADD SWAP4 ADD SWAP2 PUSH1 0x0 JUMPDEST DUP3 DUP2 LT PUSH2 0x1E5E JUMPI POP POP POP POP SWAP1 JUMP JUMPDEST DUP4 MLOAD PUSH1 0x1 PUSH1 0x1 PUSH1 0xA0 SHL SUB AND DUP6 MSTORE SWAP4 DUP2 ADD SWAP4 SWAP3 DUP2 ADD SWAP3 PUSH1 0x1 ADD PUSH2 0x1E50 JUMP JUMPDEST SWAP2 SWAP1 DUP3 MLOAD SWAP3 DUP4 DUP3 MSTORE PUSH1 0x0 JUMPDEST DUP5 DUP2 LT PUSH2 0x1EA7 JUMPI POP POP DUP3 PUSH1 0x0 PUSH1 0x20 DUP1 SWAP5 SWAP6 DUP5 ADD ADD MSTORE PUSH1 0x1F DUP1 NOT SWAP2 ADD AND ADD ADD SWAP1 JUMP JUMPDEST PUSH1 0x20 DUP2 DUP4 ADD DUP2 ADD MLOAD DUP5 DUP4 ADD DUP3 ADD MSTORE ADD PUSH2 0x1E86 JUMP JUMPDEST SWAP1 DUP2 MLOAD DUP2 MSTORE PUSH1 0x1 DUP1 PUSH1 0xA0 SHL SUB SWAP2 DUP3 PUSH1 0x20 DUP3 ADD MLOAD AND PUSH1 0x20 DUP4 ADD MSTORE PUSH2 0x1EED PUSH1 0x40 DUP3 ADD MLOAD PUSH2 0x140 DUP1 PUSH1 0x40 DUP7 ADD MSTORE DUP5 ADD SWAP1 PUSH2 0x1E3E JUMP JUMPDEST SWAP3 PUSH1 0x60 DUP3 ADD MLOAD AND PUSH1 0x60 DUP4 ADD MSTORE PUSH1 0x80 DUP2 ADD MLOAD PUSH1 0x80 DUP4 ADD MSTORE PUSH1 0xA0 DUP2 ADD MLOAD PUSH1 0xA0 DUP4 ADD MSTORE PUSH1 0xC0 DUP2 ADD MLOAD PUSH1 0xC0 DUP4 ADD MSTORE PUSH1 0xE0 DUP2 ADD MLOAD PUSH1 0x5 DUP2 LT ISZERO PUSH2 0x277 JUMPI PUSH2 0x1F5A SWAP4 PUSH2 0x1F46 SWAP2 PUSH1 0xE0 DUP6 ADD MSTORE PUSH2 0x100 DUP1 DUP5 ADD MLOAD SWAP1 DUP6 DUP4 SUB SWAP1 DUP7 ADD MSTORE PUSH2 0x1E7B JUMP JUMPDEST SWAP2 PUSH2 0x120 DUP1 SWAP3 ADD MLOAD SWAP2 DUP2 DUP5 SUB SWAP2 ADD MSTORE PUSH2 0x1E7B JUMP JUMPDEST SWAP1 JUMP JUMPDEST PUSH1 0x20 DUP1 DUP3 ADD SWAP1 DUP1 DUP4 MSTORE DUP4 MLOAD DUP1 SWAP3 MSTORE PUSH1 0x40 DUP4 ADD SWAP3 DUP2 PUSH1 0x40 DUP5 PUSH1 0x5 SHL DUP4 ADD ADD SWAP6 ADD SWAP4 PUSH1 0x0 SWAP2 JUMPDEST DUP5 DUP4 LT PUSH2 0x1F91 JUMPI POP POP POP POP POP POP SWAP1 JUMP JUMPDEST SWAP1 SWAP2 SWAP3 SWAP4 SWAP5 SWAP6 DUP5 DUP1 PUSH2 0x1FAF PUSH1 0x1 SWAP4 PUSH1 0x3F NOT DUP7 DUP3 SUB ADD DUP8 MSTORE DUP11 MLOAD PUSH2 0x1EBB JUMP JUMPDEST SWAP9 ADD SWAP4 ADD SWAP4 ADD SWAP2 SWAP5 SWAP4 SWAP3 SWAP1 PUSH2 0x1F81 JUMP JUMPDEST PUSH1 0x20 SWAP1 DUP2 PUSH1 0x40 DUP2 DUP4 ADD SWAP3 DUP3 DUP2 MSTORE DUP6 MLOAD DUP1 SWAP5 MSTORE ADD SWAP4 ADD SWAP2 PUSH1 0x0 JUMPDEST DUP3 DUP2 LT PUSH2 0x1FE6 JUMPI POP POP POP POP SWAP1 JUMP JUMPDEST DUP4 MLOAD DUP6 MSTORE SWAP4 DUP2 ADD SWAP4 SWAP3 DUP2 ADD SWAP3 PUSH1 0x1 ADD PUSH2 0x1FD8 JUMP JUMPDEST SWAP2 DUP2 PUSH1 0x1F DUP5 ADD SLT ISZERO PUSH2 0x28D JUMPI DUP3 CALLDATALOAD SWAP2 PUSH1 0x1 PUSH1 0x1 PUSH1 0x40 SHL SUB DUP4 GT PUSH2 0x28D JUMPI PUSH1 0x20 DUP1 DUP6 ADD SWAP5 DUP5 PUSH1 0x5 SHL ADD ADD GT PUSH2 0x28D JUMPI JUMP JUMPDEST SWAP2 DUP2 PUSH1 0x1F DUP5 ADD SLT ISZERO PUSH2 0x28D JUMPI DUP3 CALLDATALOAD SWAP2 PUSH1 0x1 PUSH1 0x1 PUSH1 0x40 SHL SUB DUP4 GT PUSH2 0x28D JUMPI PUSH1 0x20 DUP4 DUP2 DUP7 ADD SWAP6 ADD ADD GT PUSH2 0x28D JUMPI JUMP JUMPDEST PUSH1 0x1 SLOAD PUSH1 0x1 PUSH1 0x1 PUSH1 0xA0 SHL SUB AND CALLER SUB PUSH2 0x206B JUMPI JUMP JUMPDEST PUSH1 0x40 MLOAD PUSH4 0x118CDAA7 PUSH1 0xE0 SHL DUP2 MSTORE CALLER PUSH1 0x4 DUP3 ADD MSTORE PUSH1 0x24 SWAP1 REVERT JUMPDEST PUSH1 0x0 NOT DUP2 EQ PUSH2 0xD75 JUMPI PUSH1 0x1 ADD SWAP1 JUMP JUMPDEST SWAP2 SWAP1 DUP2 LT ISZERO PUSH2 0x20A2 JUMPI PUSH1 0x5 SHL ADD SWAP1 JUMP JUMPDEST PUSH4 0x4E487B71 PUSH1 0xE0 SHL PUSH1 0x0 MSTORE PUSH1 0x32 PUSH1 0x4 MSTORE PUSH1 0x24 PUSH1 0x0 REVERT JUMPDEST CALLDATALOAD PUSH1 0x1 PUSH1 0x1 PUSH1 0xA0 SHL SUB DUP2 AND DUP2 SUB PUSH2 0x28D JUMPI SWAP1 JUMP JUMPDEST ISZERO PUSH2 0x20D3 JUMPI JUMP JUMPDEST PUSH1 0x40 MLOAD PUSH3 0x461BCD PUSH1 0xE5 SHL DUP2 MSTORE PUSH1 0x20 PUSH1 0x4 DUP3 ADD MSTORE PUSH1 0x1B PUSH1 0x24 DUP3 ADD MSTORE PUSH32 0x44726970436F72653A20496E76616C696420726563697069656E740000000000 PUSH1 0x44 DUP3 ADD MSTORE PUSH1 0x64 SWAP1 REVERT JUMPDEST SWAP2 SWAP1 DUP3 ADD DUP1 SWAP3 GT PUSH2 0xD75 JUMPI JUMP JUMPDEST DUP2 DUP2 MUL SWAP3 SWAP2 DUP2 ISZERO SWAP2 DUP5 DIV EQ OR ISZERO PUSH2 0xD75 JUMPI JUMP JUMPDEST SWAP2 SWAP1 DUP3 SUB SWAP2 DUP3 GT PUSH2 0xD75 JUMPI JUMP JUMPDEST ISZERO PUSH2 0x214C JUMPI JUMP JUMPDEST PUSH1 0x40 MLOAD PUSH3 0x461BCD PUSH1 0xE5 SHL DUP2 MSTORE PUSH1 0x20 PUSH1 0x4 DUP3 ADD MSTORE PUSH1 0x1D PUSH1 0x24 DUP3 ADD MSTORE PUSH32 0x44726970436F72653A20466565207472616E73666572206661696C6564000000 PUSH1 0x44 DUP3 ADD MSTORE PUSH1 0x64 SWAP1 REVERT JUMPDEST PUSH1 0xA0 DUP2 ADD SWAP1 DUP2 LT PUSH1 0x1 PUSH1 0x1 PUSH1 0x40 SHL SUB DUP3 GT OR PUSH2 0x8DB JUMPI PUSH1 0x40 MSTORE JUMP JUMPDEST PUSH2 0x140 DUP2 ADD SWAP1 DUP2 LT PUSH1 0x1 PUSH1 0x1 PUSH1 0x40 SHL SUB DUP3 GT OR PUSH2 0x8DB JUMPI PUSH1 0x40 MSTORE JUMP JUMPDEST SWAP1 PUSH1 0x1F DUP1 NOT SWAP2 ADD AND DUP2 ADD SWAP1 DUP2 LT PUSH1 0x1 PUSH1 0x1 PUSH1 0x40 SHL SUB DUP3 GT OR PUSH2 0x8DB JUMPI PUSH1 0x40 MSTORE JUMP JUMPDEST PUSH1 0x1 PUSH1 0x1 PUSH1 0x40 SHL SUB DUP2 GT PUSH2 0x8DB JUMPI PUSH1 0x1F ADD PUSH1 0x1F NOT AND PUSH1 0x20 ADD SWAP1 JUMP JUMPDEST RETURNDATASIZE ISZERO PUSH2 0x222F JUMPI RETURNDATASIZE SWAP1 PUSH2 0x2215 DUP3 PUSH2 0x21E9 JUMP JUMPDEST SWAP2 PUSH2 0x2223 PUSH1 0x40 MLOAD SWAP4 DUP5 PUSH2 0x21C8 JUMP JUMPDEST DUP3 MSTORE RETURNDATASIZE PUSH1 0x0 PUSH1 0x20 DUP5 ADD RETURNDATACOPY JUMP JUMPDEST PUSH1 0x60 SWAP1 JUMP JUMPDEST PUSH1 0x1 PUSH1 0x1 PUSH1 0x40 SHL SUB DUP2 GT PUSH2 0x8DB JUMPI PUSH1 0x5 SHL PUSH1 0x20 ADD SWAP1 JUMP JUMPDEST DUP1 MLOAD DUP3 LT ISZERO PUSH2 0x20A2 JUMPI PUSH1 0x20 SWAP2 PUSH1 0x5 SHL ADD ADD SWAP1 JUMP JUMPDEST SWAP3 SWAP2 SWAP3 PUSH2 0x226B DUP3 PUSH2 0x21E9 JUMP JUMPDEST SWAP2 PUSH2 0x2279 PUSH1 0x40 MLOAD SWAP4 DUP5 PUSH2 0x21C8 JUMP JUMPDEST DUP3 SWAP5 DUP2 DUP5 MSTORE DUP2 DUP4 ADD GT PUSH2 0x28D JUMPI DUP3 DUP2 PUSH1 0x20 SWAP4 DUP5 PUSH1 0x0 SWAP7 ADD CALLDATACOPY ADD ADD MSTORE JUMP JUMPDEST DUP2 DUP2 LT PUSH2 0x22A1 JUMPI POP POP JUMP JUMPDEST PUSH1 0x0 DUP2 SSTORE PUSH1 0x1 ADD PUSH2 0x2296 JUMP JUMPDEST SWAP1 PUSH1 0x1 DUP3 DUP2 SHR SWAP3 AND DUP1 ISZERO PUSH2 0x22DD JUMPI JUMPDEST PUSH1 0x20 DUP4 LT EQ PUSH2 0x22C7 JUMPI JUMP JUMPDEST PUSH4 0x4E487B71 PUSH1 0xE0 SHL PUSH1 0x0 MSTORE PUSH1 0x22 PUSH1 0x4 MSTORE PUSH1 0x24 PUSH1 0x0 REVERT JUMPDEST SWAP2 PUSH1 0x7F AND SWAP2 PUSH2 0x22BC JUMP JUMPDEST DUP1 SLOAD SWAP1 PUSH1 0x1 PUSH1 0x40 SHL DUP3 LT ISZERO PUSH2 0x8DB JUMPI PUSH1 0x1 DUP3 ADD DUP1 DUP3 SSTORE DUP3 LT ISZERO PUSH2 0x20A2 JUMPI PUSH1 0x0 MSTORE PUSH1 0x20 PUSH1 0x0 KECCAK256 ADD SSTORE JUMP JUMPDEST SWAP1 DUP1 PUSH1 0x20 SWAP4 SWAP3 DUP2 DUP5 MSTORE DUP5 DUP5 ADD CALLDATACOPY PUSH1 0x0 DUP3 DUP3 ADD DUP5 ADD MSTORE PUSH1 0x1F ADD PUSH1 0x1F NOT AND ADD ADD SWAP1 JUMP JUMPDEST PUSH1 0x2 PUSH1 0x0 SLOAD EQ PUSH2 0x2342 JUMPI PUSH1 0x2 PUSH1 0x0 SSTORE JUMP JUMPDEST PUSH1 0x40 MLOAD PUSH4 0x3EE5AEB5 PUSH1 0xE0 SHL DUP2 MSTORE PUSH1 0x4 SWAP1 REVERT JUMPDEST SWAP1 PUSH1 0x40 MLOAD SWAP2 DUP3 PUSH1 0x0 DUP3 SLOAD SWAP3 PUSH2 0x2368 DUP5 PUSH2 0x22AD JUMP JUMPDEST SWAP1 DUP2 DUP5 MSTORE PUSH1 0x1 SWAP5 DUP6 DUP2 AND SWAP1 DUP2 PUSH1 0x0 EQ PUSH2 0x23D7 JUMPI POP PUSH1 0x1 EQ PUSH2 0x2394 JUMPI JUMPDEST POP POP PUSH2 0x2392 SWAP3 POP SUB DUP4 PUSH2 0x21C8 JUMP JUMPDEST JUMP JUMPDEST SWAP1 SWAP4 SWAP2 POP PUSH1 0x0 MSTORE PUSH1 0x20 SWAP1 DUP2 PUSH1 0x0 KECCAK256 SWAP4 PUSH1 0x0 SWAP2 JUMPDEST DUP2 DUP4 LT PUSH2 0x23BF JUMPI POP POP PUSH2 0x2392 SWAP4 POP DUP3 ADD ADD CODESIZE DUP1 PUSH2 0x2384 JUMP JUMPDEST DUP6 SLOAD DUP9 DUP5 ADD DUP6 ADD MSTORE SWAP5 DUP6 ADD SWAP5 DUP8 SWAP5 POP SWAP2 DUP4 ADD SWAP2 PUSH2 0x23A7 JUMP JUMPDEST SWAP2 POP POP PUSH2 0x2392 SWAP5 POP PUSH1 0x20 SWAP3 POP PUSH1 0xFF NOT AND DUP3 DUP5 ADD MSTORE ISZERO ISZERO PUSH1 0x5 SHL DUP3 ADD ADD CODESIZE DUP1 PUSH2 0x2384 JUMP JUMPDEST SWAP1 PUSH1 0x40 MLOAD PUSH2 0x2407 DUP2 PUSH2 0x21AC JUMP JUMPDEST DUP1 SWAP3 DUP1 SLOAD DUP3 MSTORE PUSH1 0x1 DUP1 PUSH1 0xA0 SHL SUB PUSH1 0x1 DUP2 DUP2 DUP5 ADD SLOAD AND PUSH1 0x20 SWAP1 DUP2 DUP7 ADD MSTORE PUSH1 0x2 DUP5 ADD PUSH1 0x40 MLOAD SWAP2 DUP3 SWAP4 DUP5 SWAP4 DUP3 DUP5 SLOAD SWAP2 DUP3 DUP2 MSTORE ADD SWAP4 PUSH1 0x0 MSTORE DUP3 PUSH1 0x0 KECCAK256 SWAP3 PUSH1 0x0 SWAP1 JUMPDEST DUP3 DUP3 LT PUSH2 0x24C8 JUMPI POP POP POP POP POP SWAP1 PUSH2 0x245C SWAP2 SUB DUP3 PUSH2 0x21C8 JUMP JUMPDEST PUSH1 0x40 DUP5 ADD MSTORE PUSH1 0x3 DUP3 ADD SLOAD AND PUSH1 0x60 DUP4 ADD MSTORE PUSH1 0x4 DUP2 ADD SLOAD PUSH1 0x80 DUP4 ADD MSTORE PUSH1 0x5 DUP2 ADD SLOAD PUSH1 0xA0 DUP4 ADD MSTORE PUSH1 0x6 DUP2 ADD SLOAD PUSH1 0xC0 DUP4 ADD MSTORE PUSH1 0xFF PUSH1 0x7 DUP3 ADD SLOAD AND SWAP1 PUSH1 0x5 DUP3 LT ISZERO PUSH2 0x277 JUMPI PUSH1 0x9 PUSH2 0x24C3 SWAP2 PUSH2 0x120 SWAP4 PUSH1 0xE0 DUP7 ADD MSTORE PUSH2 0x24B7 PUSH1 0x8 DUP3 ADD PUSH2 0x2354 JUMP JUMPDEST PUSH2 0x100 DUP7 ADD MSTORE ADD PUSH2 0x2354 JUMP JUMPDEST SWAP2 ADD MSTORE JUMP JUMPDEST DUP5 SLOAD DUP10 AND DUP7 MSTORE DUP8 SWAP7 POP SWAP5 DUP6 ADD SWAP5 SWAP4 DUP4 ADD SWAP4 SWAP1 DUP4 ADD SWAP1 PUSH2 0x2444 JUMP JUMPDEST ISZERO PUSH2 0x24E9 JUMPI JUMP JUMPDEST PUSH1 0x40 MLOAD PUSH3 0x461BCD PUSH1 0xE5 SHL DUP2 MSTORE PUSH1 0x20 PUSH1 0x4 DUP3 ADD MSTORE PUSH1 0x1F PUSH1 0x24 DUP3 ADD MSTORE PUSH32 0x44726970436F72653A2053747265616D20646F6573206E6F7420657869737400 PUSH1 0x44 DUP3 ADD MSTORE PUSH1 0x64 SWAP1 REVERT JUMPDEST ISZERO PUSH2 0x2535 JUMPI JUMP JUMPDEST PUSH1 0x40 MLOAD PUSH3 0x461BCD PUSH1 0xE5 SHL DUP2 MSTORE PUSH1 0x20 PUSH1 0x4 DUP3 ADD MSTORE PUSH1 0x19 PUSH1 0x24 DUP3 ADD MSTORE PUSH32 0x44726970436F72653A204E6F74206120726563697069656E7400000000000000 PUSH1 0x44 DUP3 ADD MSTORE PUSH1 0x64 SWAP1 REVERT JUMPDEST SWAP1 PUSH1 0x0 SWAP1 DUP3 DUP3 MSTORE PUSH1 0x20 SWAP1 PUSH1 0x3 DUP3 MSTORE PUSH1 0x40 PUSH2 0x2595 DUP2 DUP6 KECCAK256 PUSH2 0x23FA JUMP JUMPDEST SWAP3 PUSH2 0x25A2 DUP5 MLOAD ISZERO ISZERO PUSH2 0x24E2 JUMP JUMPDEST PUSH2 0x25AF PUSH2 0x121E DUP5 DUP7 PUSH2 0x2953 JUMP JUMPDEST PUSH1 0xE0 DUP5 ADD SWAP2 DUP3 MLOAD PUSH1 0x5 DUP2 LT ISZERO PUSH2 0x26F6 JUMPI PUSH1 0x1 EQ ISZERO DUP1 PUSH2 0x278B JUMPI JUMPDEST PUSH2 0x2781 JUMPI DUP7 DUP7 MSTORE PUSH1 0x4 DUP3 MSTORE DUP1 DUP7 KECCAK256 PUSH1 0x1 PUSH1 0x1 PUSH1 0xA0 SHL SUB SWAP1 SWAP5 AND DUP1 DUP8 MSTORE SWAP4 DUP3 MSTORE DUP1 DUP7 KECCAK256 SLOAD SWAP4 DUP5 ISZERO PUSH2 0x2776 JUMPI DUP8 DUP8 MSTORE PUSH1 0x5 DUP4 MSTORE DUP2 DUP8 KECCAK256 SWAP1 DUP8 MSTORE DUP3 MSTORE DUP1 DUP7 KECCAK256 SLOAD SWAP3 DUP4 ISZERO PUSH2 0x276A JUMPI JUMPDEST DUP8 DUP8 MSTORE PUSH1 0x9 DUP4 MSTORE DUP2 DUP8 KECCAK256 SLOAD DUP2 MLOAD PUSH1 0x5 DUP2 LT ISZERO PUSH2 0x2756 JUMPI PUSH1 0x2 EQ DUP1 PUSH2 0x2743 JUMPI JUMPDEST PUSH2 0x271E JUMPI JUMPDEST POP DUP4 TIMESTAMP GT PUSH1 0x0 EQ PUSH2 0x270A JUMPI PUSH2 0x2647 DUP5 TIMESTAMP PUSH2 0x2138 JUMP JUMPDEST SWAP4 DUP9 DUP9 MSTORE PUSH1 0xA DUP5 MSTORE DUP3 DUP9 KECCAK256 SLOAD GT SWAP1 DUP2 PUSH2 0x26DF JUMPI JUMPDEST POP SWAP3 PUSH2 0x269A SWAP3 PUSH1 0x80 SWAP6 SWAP3 PUSH2 0x26A2 SWAP6 PUSH1 0x0 EQ PUSH2 0x26D7 JUMPI PUSH1 0xA PUSH2 0x2683 SWAP3 DUP12 DUP12 MSTORE MSTORE DUP9 KECCAK256 SLOAD TIMESTAMP PUSH2 0x2138 JUMP JUMPDEST DUP1 DUP3 GT ISZERO PUSH2 0x26CE JUMPI PUSH2 0x2694 SWAP2 PUSH2 0x2138 JUMP JUMPDEST SWAP1 PUSH2 0x2125 JUMP JUMPDEST SWAP5 TIMESTAMP SWAP1 PUSH2 0x29A8 JUMP JUMPDEST SWAP2 ADD MLOAD DUP2 DUP2 GT ISZERO PUSH2 0x26C7 JUMPI PUSH2 0x26B7 SWAP3 POP PUSH2 0x2138 JUMP JUMPDEST DUP1 DUP3 GT PUSH2 0x26C2 JUMPI POP SWAP1 JUMP JUMPDEST SWAP1 POP SWAP1 JUMP JUMPDEST POP POP PUSH2 0x26B7 JUMP JUMPDEST POP POP DUP6 SWAP1 PUSH2 0x2125 JUMP JUMPDEST POP POP SWAP1 PUSH2 0x2125 JUMP JUMPDEST SWAP1 POP MLOAD PUSH1 0x5 DUP2 LT ISZERO PUSH2 0x26F6 JUMPI PUSH1 0x2 EQ PUSH2 0x269A PUSH2 0x265B JUMP JUMPDEST PUSH4 0x4E487B71 PUSH1 0xE0 SHL DUP8 MSTORE PUSH1 0x21 PUSH1 0x4 MSTORE PUSH1 0x24 DUP8 REVERT JUMPDEST POP POP POP POP PUSH2 0x26A2 PUSH2 0x269A PUSH1 0x80 SWAP3 DUP6 SWAP1 PUSH2 0x2125 JUMP JUMPDEST PUSH2 0x273C SWAP1 DUP10 DUP10 MSTORE PUSH1 0xA DUP6 MSTORE PUSH2 0x2736 DUP5 DUP11 KECCAK256 SLOAD TIMESTAMP PUSH2 0x2138 JUMP JUMPDEST SWAP1 PUSH2 0x2118 JUMP JUMPDEST POP CODESIZE PUSH2 0x2632 JUMP JUMPDEST POP DUP9 DUP9 MSTORE PUSH1 0xA DUP5 MSTORE DUP3 DUP9 KECCAK256 SLOAD ISZERO ISZERO PUSH2 0x262D JUMP JUMPDEST PUSH4 0x4E487B71 PUSH1 0xE0 SHL DUP10 MSTORE PUSH1 0x21 PUSH1 0x4 MSTORE PUSH1 0x24 DUP10 REVERT JUMPDEST PUSH1 0xA0 DUP7 ADD MLOAD SWAP4 POP PUSH2 0x260E JUMP JUMPDEST POP POP POP POP POP POP SWAP1 POP SWAP1 JUMP JUMPDEST POP POP POP POP POP SWAP1 POP SWAP1 JUMP JUMPDEST POP DUP3 MLOAD PUSH1 0x5 DUP2 LT ISZERO PUSH2 0x26F6 JUMPI PUSH1 0x2 EQ ISZERO PUSH2 0x25C9 JUMP JUMPDEST ISZERO PUSH2 0x27A7 JUMPI JUMP JUMPDEST PUSH1 0x40 MLOAD PUSH3 0x461BCD PUSH1 0xE5 SHL DUP2 MSTORE PUSH1 0x20 PUSH1 0x4 DUP3 ADD MSTORE PUSH1 0x1B PUSH1 0x24 DUP3 ADD MSTORE PUSH32 0x44726970436F72653A2053747265616D206E6F74206163746976650000000000 PUSH1 0x44 DUP3 ADD MSTORE PUSH1 0x64 SWAP1 REVERT JUMPDEST PUSH1 0x40 MLOAD SWAP1 PUSH2 0x27F9 DUP3 PUSH2 0x2191 JUMP JUMPDEST PUSH1 0x0 PUSH1 0x80 DUP4 DUP3 DUP2 MSTORE DUP3 PUSH1 0x20 DUP3 ADD MSTORE DUP3 PUSH1 0x40 DUP3 ADD MSTORE DUP3 PUSH1 0x60 DUP3 ADD MSTORE ADD MSTORE JUMP JUMPDEST ISZERO PUSH2 0x281E JUMPI JUMP JUMPDEST PUSH1 0x40 MLOAD PUSH3 0x461BCD PUSH1 0xE5 SHL DUP2 MSTORE PUSH1 0x20 PUSH1 0x4 DUP3 ADD MSTORE PUSH1 0x16 PUSH1 0x24 DUP3 ADD MSTORE PUSH22 0x111C9A5C10DBDC994E88155B985D5D1A1BDC9A5E9959 PUSH1 0x52 SHL PUSH1 0x44 DUP3 ADD MSTORE PUSH1 0x64 SWAP1 REVERT JUMPDEST ISZERO PUSH2 0x2863 JUMPI JUMP JUMPDEST PUSH1 0x40 MLOAD PUSH3 0x461BCD PUSH1 0xE5 SHL DUP2 MSTORE PUSH1 0x20 PUSH1 0x4 DUP3 ADD MSTORE PUSH1 0x27 PUSH1 0x24 DUP3 ADD MSTORE PUSH32 0x44726970436F72653A20496E73756666696369656E7420636F6E747261637420 PUSH1 0x44 DUP3 ADD MSTORE PUSH7 0x62616C616E6365 PUSH1 0xC8 SHL PUSH1 0x64 DUP3 ADD MSTORE PUSH1 0x84 SWAP1 REVERT JUMPDEST PUSH1 0x40 MLOAD SWAP1 PUSH2 0x28C5 DUP3 PUSH2 0x21AC JUMP JUMPDEST PUSH1 0x60 PUSH2 0x120 DUP4 PUSH1 0x0 DUP1 DUP3 MSTORE DUP1 PUSH1 0x20 DUP4 ADD MSTORE DUP4 PUSH1 0x40 DUP4 ADD MSTORE DUP1 DUP5 DUP4 ADD MSTORE DUP1 PUSH1 0x80 DUP4 ADD MSTORE DUP1 PUSH1 0xA0 DUP4 ADD MSTORE DUP1 PUSH1 0xC0 DUP4 ADD MSTORE PUSH1 0xE0 DUP3 ADD MSTORE DUP3 PUSH2 0x100 DUP3 ADD MSTORE ADD MSTORE JUMP JUMPDEST SWAP1 PUSH2 0x290D DUP3 PUSH2 0x2234 JUMP JUMPDEST PUSH2 0x291A PUSH1 0x40 MLOAD SWAP2 DUP3 PUSH2 0x21C8 JUMP JUMPDEST DUP3 DUP2 MSTORE DUP1 SWAP3 PUSH2 0x292B PUSH1 0x1F NOT SWAP2 PUSH2 0x2234 JUMP JUMPDEST ADD SWAP1 PUSH1 0x0 JUMPDEST DUP3 DUP2 LT PUSH2 0x293C JUMPI POP POP POP JUMP JUMPDEST PUSH1 0x20 SWAP1 PUSH2 0x2947 PUSH2 0x28B8 JUMP JUMPDEST DUP3 DUP3 DUP6 ADD ADD MSTORE ADD PUSH2 0x2930 JUMP JUMPDEST SWAP1 PUSH1 0x0 JUMPDEST PUSH1 0x40 DUP4 ADD MLOAD DUP1 MLOAD DUP3 LT ISZERO PUSH2 0x299F JUMPI PUSH1 0x1 PUSH1 0x1 PUSH1 0xA0 SHL SUB SWAP1 DUP2 SWAP1 PUSH2 0x297B SWAP1 DUP5 SWAP1 PUSH2 0x224B JUMP JUMPDEST MLOAD AND SWAP1 DUP4 AND EQ PUSH2 0x2997 JUMPI PUSH2 0x2990 PUSH1 0x40 SWAP2 PUSH2 0x2083 JUMP JUMPDEST SWAP1 POP PUSH2 0x2957 JUMP JUMPDEST POP POP POP PUSH1 0x1 SWAP1 JUMP JUMPDEST POP POP POP POP PUSH1 0x0 SWAP1 JUMP JUMPDEST SWAP1 SWAP2 PUSH1 0x0 DUP3 DUP2 MSTORE PUSH1 0x20 SWAP4 PUSH1 0x3 DUP6 MSTORE PUSH1 0x40 SWAP5 PUSH2 0x29C4 DUP7 DUP5 KECCAK256 PUSH2 0x23FA JUMP JUMPDEST SWAP5 DUP6 MLOAD ISZERO PUSH2 0x2AC9 JUMPI DUP4 SWAP6 SWAP5 SWAP3 SWAP6 SWAP3 DUP5 SWAP6 DUP9 DUP2 ADD SWAP5 JUMPDEST DUP6 MLOAD MLOAD DUP9 LT ISZERO PUSH2 0x2A22 JUMPI PUSH2 0x2A16 PUSH2 0x2A1C SWAP2 DUP6 DUP10 MSTORE PUSH1 0x4 DUP8 MSTORE DUP12 DUP10 KECCAK256 PUSH1 0x1 DUP1 PUSH1 0xA0 SHL SUB PUSH2 0x2A06 DUP13 DUP12 MLOAD PUSH2 0x224B JUMP JUMPDEST MLOAD AND DUP11 MSTORE DUP8 MSTORE DUP12 DUP10 KECCAK256 SLOAD SWAP1 PUSH2 0x2118 JUMP JUMPDEST SWAP8 PUSH2 0x2083 JUMP JUMPDEST SWAP7 PUSH2 0x29D9 JUMP JUMPDEST SWAP7 POP SWAP7 SWAP3 SWAP1 SWAP8 SWAP2 SWAP4 POP DUP4 DUP6 MSTORE PUSH1 0x9 DUP2 MSTORE DUP2 DUP6 KECCAK256 SLOAD SWAP4 PUSH1 0xE0 DUP9 ADD MLOAD PUSH1 0x5 DUP2 LT ISZERO PUSH2 0x26F6 JUMPI SWAP2 PUSH1 0x80 SWAP8 SWAP6 SWAP4 SWAP2 PUSH1 0x2 PUSH2 0x2A83 SWAP9 SWAP7 SWAP5 EQ DUP1 PUSH2 0x2AB6 JUMPI JUMPDEST PUSH2 0x2A91 JUMPI JUMPDEST POP POP POP PUSH1 0xA0 DUP8 ADD MLOAD PUSH2 0x2A71 SWAP2 PUSH2 0x2138 JUMP JUMPDEST DUP2 DUP2 GT ISZERO PUSH2 0x26D7 JUMPI PUSH2 0x2694 SWAP3 POP PUSH2 0x2138 JUMP JUMPDEST SWAP2 ADD MLOAD DUP1 DUP3 GT PUSH2 0x26C2 JUMPI POP SWAP1 JUMP JUMPDEST PUSH2 0x2AAD SWAP3 PUSH1 0xA PUSH2 0x2A71 SWAP6 SWAP7 SWAP4 PUSH2 0x2736 SWAP4 DUP10 MSTORE MSTORE DUP7 KECCAK256 SLOAD DUP6 PUSH2 0x2138 JUMP JUMPDEST SWAP2 SWAP1 CODESIZE DUP1 PUSH2 0x2A60 JUMP JUMPDEST POP DUP1 DUP7 MSTORE PUSH1 0xA DUP3 MSTORE DUP3 DUP7 KECCAK256 SLOAD ISZERO ISZERO PUSH2 0x2A5B JUMP JUMPDEST POP POP POP SWAP2 POP SWAP2 POP SWAP1 JUMP JUMPDEST SWAP1 DUP2 PUSH1 0x20 SWAP2 SUB SLT PUSH2 0x28D JUMPI MLOAD DUP1 ISZERO ISZERO DUP2 SUB PUSH2 0x28D JUMPI SWAP1 JUMP JUMPDEST PUSH1 0x0 SWAP3 DUP4 SWAP3 SWAP1 SWAP2 PUSH1 0x1 PUSH1 0x1 PUSH1 0xA0 SHL SUB SWAP1 DUP2 AND DUP1 PUSH2 0x2B70 JUMPI POP POP DUP3 SWAP4 POP DUP3 SWAP2 DUP3 SWAP2 GAS CALL PUSH2 0x2B15 PUSH2 0x2204 JUMP JUMPDEST POP DUP1 ISZERO PUSH2 0x2B1F JUMPI SWAP1 JUMP JUMPDEST PUSH1 0x40 MLOAD PUSH3 0x461BCD PUSH1 0xE5 SHL DUP2 MSTORE PUSH1 0x20 PUSH1 0x4 DUP3 ADD MSTORE PUSH1 0x23 PUSH1 0x24 DUP3 ADD MSTORE PUSH32 0x546F6B656E48656C7065723A204E6174697665207472616E7366657220666169 PUSH1 0x44 DUP3 ADD MSTORE PUSH3 0x1B1959 PUSH1 0xEA SHL PUSH1 0x64 DUP3 ADD MSTORE PUSH1 0x84 SWAP1 REVERT JUMPDEST PUSH1 0x20 SWAP3 DUP6 PUSH1 0x44 SWAP3 PUSH1 0x40 MLOAD SWAP7 DUP8 SWAP6 DUP7 SWAP5 PUSH4 0xA9059CBB PUSH1 0xE0 SHL DUP7 MSTORE AND PUSH1 0x4 DUP6 ADD MSTORE PUSH1 0x24 DUP5 ADD MSTORE GAS CALL SWAP2 DUP3 ISZERO PUSH2 0x2C2A JUMPI SWAP2 PUSH2 0x2BFC JUMPI JUMPDEST POP ISZERO PUSH2 0x2BAC JUMPI SWAP1 JUMP JUMPDEST PUSH1 0x40 MLOAD PUSH3 0x461BCD PUSH1 0xE5 SHL DUP2 MSTORE PUSH1 0x20 PUSH1 0x4 DUP3 ADD MSTORE PUSH1 0x22 PUSH1 0x24 DUP3 ADD MSTORE PUSH32 0x546F6B656E48656C7065723A204552433230207472616E73666572206661696C PUSH1 0x44 DUP3 ADD MSTORE PUSH2 0x1959 PUSH1 0xF2 SHL PUSH1 0x64 DUP3 ADD MSTORE PUSH1 0x84 SWAP1 REVERT JUMPDEST PUSH2 0x2C1D SWAP2 POP PUSH1 0x20 RETURNDATASIZE DUP2 GT PUSH2 0x2C23 JUMPI JUMPDEST PUSH2 0x2C15 DUP2 DUP4 PUSH2 0x21C8 JUMP JUMPDEST DUP2 ADD SWAP1 PUSH2 0x2AD3 JUMP JUMPDEST CODESIZE PUSH2 0x2BA3 JUMP JUMPDEST POP RETURNDATASIZE PUSH2 0x2C0B JUMP JUMPDEST PUSH1 0x40 MLOAD SWAP1 RETURNDATASIZE SWAP1 DUP3 RETURNDATACOPY RETURNDATASIZE SWAP1 REVERT JUMPDEST SWAP2 SWAP3 SWAP2 PUSH1 0x1 PUSH1 0x1 PUSH1 0xA0 SHL SUB SWAP2 SWAP1 DUP3 AND SWAP1 DUP2 ISZERO PUSH2 0x2D06 JUMPI PUSH1 0x0 PUSH1 0x64 SWAP3 PUSH1 0x20 SWAP6 DUP6 PUSH1 0x40 MLOAD SWAP9 DUP10 SWAP8 DUP9 SWAP7 PUSH4 0x23B872DD PUSH1 0xE0 SHL DUP9 MSTORE AND PUSH1 0x4 DUP8 ADD MSTORE AND PUSH1 0x24 DUP6 ADD MSTORE PUSH1 0x44 DUP5 ADD MSTORE GAS CALL SWAP1 DUP2 ISZERO PUSH2 0x1356 JUMPI PUSH1 0x0 SWAP2 PUSH2 0x2CE8 JUMPI JUMPDEST POP ISZERO PUSH2 0x2C94 JUMPI PUSH1 0x1 SWAP1 JUMP JUMPDEST PUSH1 0x40 MLOAD PUSH3 0x461BCD PUSH1 0xE5 SHL DUP2 MSTORE PUSH1 0x20 PUSH1 0x4 DUP3 ADD MSTORE PUSH1 0x26 PUSH1 0x24 DUP3 ADD MSTORE PUSH32 0x546F6B656E48656C7065723A204552433230207472616E7366657246726F6D20 PUSH1 0x44 DUP3 ADD MSTORE PUSH6 0x19985A5B1959 PUSH1 0xD2 SHL PUSH1 0x64 DUP3 ADD MSTORE PUSH1 0x84 SWAP1 REVERT JUMPDEST PUSH2 0x2D00 SWAP2 POP PUSH1 0x20 RETURNDATASIZE DUP2 GT PUSH2 0x2C23 JUMPI PUSH2 0x2C15 DUP2 DUP4 PUSH2 0x21C8 JUMP JUMPDEST CODESIZE PUSH2 0x2C89 JUMP JUMPDEST PUSH1 0x40 MLOAD PUSH3 0x461BCD PUSH1 0xE5 SHL DUP2 MSTORE PUSH1 0x20 PUSH1 0x4 DUP3 ADD MSTORE PUSH1 0x2D PUSH1 0x24 DUP3 ADD MSTORE PUSH32 0x546F6B656E48656C7065723A2043616E6E6F74207472616E7366657246726F6D PUSH1 0x44 DUP3 ADD MSTORE PUSH13 0x103730BA34BB32903A37B5B2B7 PUSH1 0x99 SHL PUSH1 0x64 DUP3 ADD MSTORE PUSH1 0x84 SWAP1 REVERT JUMPDEST PUSH1 0x1 PUSH1 0x1 PUSH1 0xA0 SHL SUB SWAP1 DUP2 AND SWAP1 DUP2 PUSH2 0x2D78 JUMPI POP POP BALANCE SWAP1 JUMP JUMPDEST PUSH1 0x40 MLOAD PUSH4 0x70A08231 PUSH1 0xE0 SHL DUP2 MSTORE SWAP3 AND PUSH1 0x4 DUP4 ADD MSTORE PUSH1 0x20 SWAP1 DUP3 SWAP1 PUSH1 0x24 SWAP1 DUP3 SWAP1 GAS STATICCALL SWAP1 DUP2 ISZERO PUSH2 0x1356 JUMPI PUSH1 0x0 SWAP2 PUSH2 0x2DAA JUMPI POP SWAP1 JUMP JUMPDEST SWAP1 PUSH1 0x20 DUP3 RETURNDATASIZE DUP3 GT PUSH2 0x2DD3 JUMPI JUMPDEST DUP2 PUSH2 0x2DC3 PUSH1 0x20 SWAP4 DUP4 PUSH2 0x21C8 JUMP JUMPDEST DUP2 ADD SUB SLT PUSH2 0x2DD0 JUMPI POP MLOAD SWAP1 JUMP JUMPDEST DUP1 REVERT JUMPDEST RETURNDATASIZE SWAP2 POP PUSH2 0x2DB6 JUMP INVALID LOG2 PUSH5 0x6970667358 0x22 SLT KECCAK256 0x4B CALLCODE 0xDB SWAP10 SWAP4 MOD 0x1E 0xE0 0xD0 DUP2 0xC3 0xBD PC 0xE5 0xDB OR BALANCE SWAP5 SGT NUMBER PUSH6 0xBBBC6465F54F SWAP3 0xD1 SWAP1 PUSH6 0x3A64736F6C63 NUMBER STOP ADDMOD EQ STOP CALLER "
        },
        "methodIdentifiers": {
          "MAX_DESCRIPTION_LEN()": "8a2320da",
          "MAX_DURATION()": "b1724b46",
          "MAX_TITLE_LEN()": "1b3a65b4",
          "MIN_DURATION()": "b6a6d177",
          "cancelStream(uint256)": "6db9241b",
          "createStream(address[],address,uint256[],uint256,uint256,string,string)": "ef89f4ec",
          "getAllRecipientsInfo(uint256)": "344ec966",
          "getContractBalance(address)": "43ab265f",
          "getRecipientBalance(uint256,address)": "061b3354",
          "getRecipientInfo(uint256,address)": "abc4f541",
          "getRecipientStreams(address)": "f7afe902",
          "getSenderStreams(address)": "c019f4fc",
          "getStream(uint256)": "894e9a0d",
          "getUserReceivedStreams(address)": "93710ba0",
          "getUserSentStreams(address)": "df3bc5bc",
          "owner()": "8da5cb5b",
          "pauseStream(uint256)": "746ff13d",
          "platformFeeBps()": "22dcd13e",
          "platformFeeRecipient()": "eb13554f",
          "renounceOwnership()": "715018a6",
          "resumeStream(uint256)": "fb6a984e",
          "setPlatformFee(uint256)": "12e8e2c3",
          "setPlatformFeeRecipient(address)": "1871e243",
          "transferOwnership(address)": "f2fde38b",
          "withdrawFromStream(uint256,address,uint256)": "819c3582"
        }
      }
    }
  }
}