{
  "contracts/utils/TokenHelper.sol": {
    "TokenHelper": {
      "abi": [
        {
          "inputs": [],
          "name": "NATIVE_TOKEN",
          "outputs": [
            {
              "internalType": "address",
              "name": "",
              "type": "address"
            }
          ],
          "stateMutability": "view",
          "type": "function"
        }
      ],
      "evm": {
        "bytecode": {
          "linkReferences": {},
          "object": "608080604052346018576075908161001e823930815050f35b600080fdfe6080806040526004361015601257600080fd5b60003560e01c6331f7d96414602657600080fd5b6000366003190112603a5780600060209252f35b600080fdfea2646970667358221220d9ec1614356df7205d8acb5c9aaab11b463adef7a0567c8345a4f88c89cf7b9464736f6c63430008140033",
          "opcodes": "PUSH1 0x80 DUP1 PUSH1 0x40 MSTORE CALLVALUE PUSH1 0x18 JUMPI PUSH1 0x75 SWAP1 DUP2 PUSH2 0x1E DUP3 CODECOPY ADDRESS DUP2 POP POP RETURN JUMPDEST PUSH1 0x0 DUP1 REVERT INVALID PUSH1 0x80 DUP1 PUSH1 0x40 MSTORE PUSH1 0x4 CALLDATASIZE LT ISZERO PUSH1 0x12 JUMPI PUSH1 0x0 DUP1 REVERT JUMPDEST PUSH1 0x0 CALLDATALOAD PUSH1 0xE0 SHR PUSH4 0x31F7D964 EQ PUSH1 0x26 JUMPI PUSH1 0x0 DUP1 REVERT JUMPDEST PUSH1 0x0 CALLDATASIZE PUSH1 0x3 NOT ADD SLT PUSH1 0x3A JUMPI DUP1 PUSH1 0x0 PUSH1 0x20 SWAP3 MSTORE RETURN JUMPDEST PUSH1 0x0 DUP1 REVERT INVALID LOG2 PUSH5 0x6970667358 0x22 SLT KECCAK256 0xD9 0xEC AND EQ CALLDATALOAD PUSH14 0xF7205D8ACB5C9AAAB11B463ADEF7 LOG0 JUMP PUSH29 0x8345A4F88C89CF7B9464736F6C63430008140033000000000000000000 "
        },
        "methodIdentifiers": {
          "NATIVE_TOKEN()": "31f7d964"
        }
      }
    }
  }
}