{
  "contracts/SubscriptionManager.sol": {
    "SubscriptionManager": {
      "abi": [
        {
          "inputs": [
            {
              "internalType": "address",
              "name": "_dripCore",
              "type": "address"
            },
            {
              "internalType": "address",
              "name": "_platformFeeRecipient",
              "type": "address"
            }
          ],
          "stateMutability": "nonpayable",
          "type": "constructor"
        },
        {
          "inputs": [
            {
              "internalType": "address",
              "name": "owner",
              "type": "address"
            }
          ],
          "name": "OwnableInvalidOwner",
          "type": "error"
        },
        {
          "inputs": [
            {
              "internalType": "address",
              "name": "account",
              "type": "address"
            }
          ],
          "name": "OwnableUnauthorizedAccount",
          "type": "error"
        },
        {
          "inputs": [],
          "name": "ReentrancyGuardReentrantCall",
          "type": "error"
        },
        {
          "anonymous": false,
          "inputs": [
            {
              "indexed": true,
              "internalType": "address",
              "name": "previousOwner",
              "type": "address"
            },
            {
              "indexed": true,
              "internalType": "address",
              "name": "newOwner",
              "type": "address"
            }
          ],
          "name": "OwnershipTransferred",
          "type": "event"
        },
        {
          "anonymous": false,
          "inputs": [
            {
              "indexed": true,
              "internalType": "uint256",
              "name": "subscriptionId",
              "type": "uint256"
            },
            {
              "indexed": true,
              "internalType": "uint256",
              "name": "paymentId",
              "type": "uint256"
            },
            {
              "indexed": true,
              "internalType": "address",
              "name": "recipient",
              "type": "address"
            },
            {
              "indexed": false,
              "internalType": "uint256",
              "name": "amount",
              "type": "uint256"
            },
            {
              "indexed": false,
              "internalType": "uint256",
              "name": "timestamp",
              "type": "uint256"
            }
          ],
          "name": "PaymentExecuted",
          "type": "event"
        },
        {
          "anonymous": false,
          "inputs": [
            {
              "indexed": true,
              "internalType": "uint256",
              "name": "subscriptionId",
              "type": "uint256"
            },
            {
              "indexed": true,
              "internalType": "address",
              "name": "by",
              "type": "address"
            }
          ],
          "name": "SubscriptionCancelled",
          "type": "event"
        },
        {
          "anonymous": false,
          "inputs": [
            {
              "indexed": true,
              "internalType": "uint256",
              "name": "subscriptionId",
              "type": "uint256"
            },
            {
              "indexed": true,
              "internalType": "address",
              "name": "subscriber",
              "type": "address"
            },
            {
              "indexed": true,
              "internalType": "address",
              "name": "recipient",
              "type": "address"
            },
            {
              "indexed": false,
              "internalType": "address",
              "name": "token",
              "type": "address"
            },
            {
              "indexed": false,
              "internalType": "uint256",
              "name": "amount",
              "type": "uint256"
            },
            {
              "indexed": false,
              "internalType": "enum ISubscription.Cadence",
              "name": "cadence",
              "type": "uint8"
            },
            {
              "indexed": false,
              "internalType": "uint256",
              "name": "nextPaymentTime",
              "type": "uint256"
            },
            {
              "indexed": false,
              "internalType": "string",
              "name": "title",
              "type": "string"
            },
            {
              "indexed": false,
              "internalType": "string",
              "name": "description",
              "type": "string"
            }
          ],
          "name": "SubscriptionCreated",
          "type": "event"
        },
        {
          "anonymous": false,
          "inputs": [
            {
              "indexed": true,
              "internalType": "uint256",
              "name": "subscriptionId",
              "type": "uint256"
            },
            {
              "indexed": true,
              "internalType": "address",
              "name": "subscriber",
              "type": "address"
            },
            {
              "indexed": false,
              "internalType": "uint256",
              "name": "amount",
              "type": "uint256"
            },
            {
              "indexed": false,
              "internalType": "uint256",
              "name": "newBalance",
              "type": "uint256"
            }
          ],
          "name": "SubscriptionDeposited",
          "type": "event"
        },
        {
          "anonymous": false,
          "inputs": [
            {
              "indexed": true,
              "internalType": "uint256",
              "name": "subscriptionId",
              "type": "uint256"
            },
            {
              "indexed": false,
              "internalType": "uint256",
              "name": "newAmount",
              "type": "uint256"
            },
            {
              "indexed": false,
              "internalType": "enum ISubscription.Cadence",
              "name": "newCadence",
              "type": "uint8"
            },
            {
              "indexed": false,
              "internalType": "uint256",
              "name": "newInterval",
              "type": "uint256"
            }
          ],
          "name": "SubscriptionModified",
          "type": "event"
        },
        {
          "anonymous": false,
          "inputs": [
            {
              "indexed": true,
              "internalType": "uint256",
              "name": "subscriptionId",
              "type": "uint256"
            },
            {
              "indexed": true,
              "internalType": "address",
              "name": "by",
              "type": "address"
            }
          ],
          "name": "SubscriptionPaused",
          "type": "event"
        },
        {
          "anonymous": false,
          "inputs": [
            {
              "indexed": true,
              "internalType": "uint256",
              "name": "subscriptionId",
              "type": "uint256"
            },
            {
              "indexed": true,
              "internalType": "address",
              "name": "by",
              "type": "address"
            }
          ],
          "name": "SubscriptionResumed",
          "type": "event"
        },
        {
          "inputs": [],
          "name": "MAX_AMOUNT",
          "outputs": [
            {
              "internalType": "uint256",
              "name": "",
              "type": "uint256"
            }
          ],
          "stateMutability": "view",
          "type": "function"
        },
        {
          "inputs": [],
          "name": "MAX_DESCRIPTION_LEN",
          "outputs": [
            {
              "internalType": "uint256",
              "name": "",
              "type": "uint256"
            }
          ],
          "stateMutability": "view",
          "type": "function"
        },
        {
          "inputs": [],
          "name": "MAX_TITLE_LEN",
          "outputs": [
            {
              "internalType": "uint256",
              "name": "",
              "type": "uint256"
            }
          ],
          "stateMutability": "view",
          "type": "function"
        },
        {
          "inputs": [],
          "name": "MIN_AMOUNT",
          "outputs": [
            {
              "internalType": "uint256",
              "name": "",
              "type": "uint256"
            }
          ],
          "stateMutability": "view",
          "type": "function"
        },
        {
          "inputs": [
            {
              "internalType": "uint256",
              "name": "subscriptionId",
              "type": "uint256"
            }
          ],
          "name": "cancelSubscription",
          "outputs": [],
          "stateMutability": "nonpayable",
          "type": "function"
        },
        {
          "inputs": [
            {
              "internalType": "address",
              "name": "recipient",
              "type": "address"
            },
            {
              "internalType": "address",
              "name": "token",
              "type": "address"
            },
            {
              "internalType": "uint256",
              "name": "amount",
              "type": "uint256"
            },
            {
              "internalType": "enum ISubscription.Cadence",
              "name": "cadence",
              "type": "uint8"
            },
            {
              "internalType": "uint256",
              "name": "customInterval",
              "type": "uint256"
            },
            {
              "internalType": "uint256",
              "name": "firstPaymentTime",
              "type": "uint256"
            },
            {
              "internalType": "string",
              "name": "title",
              "type": "string"
            },
            {
              "internalType": "string",
              "name": "description",
              "type": "string"
            }
          ],
          "name": "createSubscription",
          "outputs": [
            {
              "internalType": "uint256",
              "name": "subscriptionId",
              "type": "uint256"
            }
          ],
          "stateMutability": "payable",
          "type": "function"
        },
        {
          "inputs": [
            {
              "internalType": "uint256",
              "name": "subscriptionId",
              "type": "uint256"
            },
            {
              "internalType": "uint256",
              "name": "amount",
              "type": "uint256"
            }
          ],
          "name": "depositToSubscription",
          "outputs": [],
          "stateMutability": "payable",
          "type": "function"
        },
        {
          "inputs": [],
          "name": "dripCore",
          "outputs": [
            {
              "internalType": "contract IDrip",
              "name": "",
              "type": "address"
            }
          ],
          "stateMutability": "view",
          "type": "function"
        },
        {
          "inputs": [
            {
              "internalType": "uint256[]",
              "name": "subscriptionIds",
              "type": "uint256[]"
            }
          ],
          "name": "executeBatchPayments",
          "outputs": [
            {
              "internalType": "uint256",
              "name": "successCount",
              "type": "uint256"
            }
          ],
          "stateMutability": "nonpayable",
          "type": "function"
        },
        {
          "inputs": [
            {
              "internalType": "uint256",
              "name": "subscriptionId",
              "type": "uint256"
            }
          ],
          "name": "executePayment",
          "outputs": [
            {
              "internalType": "bool",
              "name": "success",
              "type": "bool"
            },
            {
              "internalType": "uint256",
              "name": "paymentId",
              "type": "uint256"
            },
            {
              "internalType": "uint256",
              "name": "intervalsPaid",
              "type": "uint256"
            }
          ],
          "stateMutability": "nonpayable",
          "type": "function"
        },
        {
          "inputs": [
            {
              "internalType": "address",
              "name": "token",
              "type": "address"
            }
          ],
          "name": "getContractBalance",
          "outputs": [
            {
              "internalType": "uint256",
              "name": "balance",
              "type": "uint256"
            }
          ],
          "stateMutability": "view",
          "type": "function"
        },
        {
          "inputs": [
            {
              "internalType": "uint256",
              "name": "subscriptionId",
              "type": "uint256"
            },
            {
              "internalType": "uint256",
              "name": "offset",
              "type": "uint256"
            },
            {
              "internalType": "uint256",
              "name": "limit",
              "type": "uint256"
            }
          ],
          "name": "getPaymentHistory",
          "outputs": [
            {
              "components": [
                {
                  "internalType": "uint256",
                  "name": "paymentId",
                  "type": "uint256"
                },
                {
                  "internalType": "uint256",
                  "name": "subscriptionId",
                  "type": "uint256"
                },
                {
                  "internalType": "uint256",
                  "name": "amount",
                  "type": "uint256"
                },
                {
                  "internalType": "uint256",
                  "name": "timestamp",
                  "type": "uint256"
                },
                {
                  "internalType": "bool",
                  "name": "success",
                  "type": "bool"
                }
              ],
              "internalType": "struct ISubscription.PaymentRecord[]",
              "name": "payments",
              "type": "tuple[]"
            },
            {
              "internalType": "uint256",
              "name": "total",
              "type": "uint256"
            }
          ],
          "stateMutability": "view",
          "type": "function"
        },
        {
          "inputs": [
            {
              "internalType": "address",
              "name": "recipient",
              "type": "address"
            }
          ],
          "name": "getRecipientSubscriptions",
          "outputs": [
            {
              "internalType": "uint256[]",
              "name": "subscriptionIds",
              "type": "uint256[]"
            }
          ],
          "stateMutability": "view",
          "type": "function"
        },
        {
          "inputs": [
            {
              "internalType": "address",
              "name": "subscriber",
              "type": "address"
            }
          ],
          "name": "getSubscriberSubscriptions",
          "outputs": [
            {
              "internalType": "uint256[]",
              "name": "subscriptionIds",
              "type": "uint256[]"
            }
          ],
          "stateMutability": "view",
          "type": "function"
        },
        {
          "inputs": [
            {
              "internalType": "uint256",
              "name": "subscriptionId",
              "type": "uint256"
            }
          ],
          "name": "getSubscription",
          "outputs": [
            {
              "components": [
                {
                  "internalType": "uint256",
                  "name": "subscriptionId",
                  "type": "uint256"
                },
                {
                  "internalType": "address",
                  "name": "subscriber",
                  "type": "address"
                },
                {
                  "internalType": "address",
                  "name": "recipient",
                  "type": "address"
                },
                {
                  "internalType": "address",
                  "name": "token",
                  "type": "address"
                },
                {
                  "internalType": "uint256",
                  "name": "amount",
                  "type": "uint256"
                },
                {
                  "internalType": "enum ISubscription.Cadence",
                  "name": "cadence",
                  "type": "uint8"
                },
                {
                  "internalType": "uint256",
                  "name": "interval",
                  "type": "uint256"
                },
                {
                  "internalType": "uint256",
                  "name": "nextPaymentTime",
                  "type": "uint256"
                },
                {
                  "internalType": "uint256",
                  "name": "lastPaymentTime",
                  "type": "uint256"
                },
                {
                  "internalType": "uint256",
                  "name": "totalPaid",
                  "type": "uint256"
                },
                {
                  "internalType": "uint256",
                  "name": "paymentCount",
                  "type": "uint256"
                },
                {
                  "internalType": "uint256",
                  "name": "balance",
                  "type": "uint256"
                },
                {
                  "internalType": "enum ISubscription.SubscriptionStatus",
                  "name": "status",
                  "type": "uint8"
                },
                {
                  "internalType": "string",
                  "name": "title",
                  "type": "string"
                },
                {
                  "internalType": "string",
                  "name": "description",
                  "type": "string"
                }
              ],
              "internalType": "struct ISubscription.Subscription",
              "name": "subscription",
              "type": "tuple"
            }
          ],
          "stateMutability": "view",
          "type": "function"
        },
        {
          "inputs": [
            {
              "internalType": "uint256",
              "name": "subscriptionId",
              "type": "uint256"
            }
          ],
          "name": "getSubscriptionBalance",
          "outputs": [
            {
              "internalType": "uint256",
              "name": "balance",
              "type": "uint256"
            }
          ],
          "stateMutability": "view",
          "type": "function"
        },
        {
          "inputs": [
            {
              "internalType": "address",
              "name": "user",
              "type": "address"
            }
          ],
          "name": "getUserReceivedSubscriptions",
          "outputs": [
            {
              "components": [
                {
                  "internalType": "uint256",
                  "name": "subscriptionId",
                  "type": "uint256"
                },
                {
                  "internalType": "address",
                  "name": "subscriber",
                  "type": "address"
                },
                {
                  "internalType": "address",
                  "name": "recipient",
                  "type": "address"
                },
                {
                  "internalType": "address",
                  "name": "token",
                  "type": "address"
                },
                {
                  "internalType": "uint256",
                  "name": "amount",
                  "type": "uint256"
                },
                {
                  "internalType": "enum ISubscription.Cadence",
                  "name": "cadence",
                  "type": "uint8"
                },
                {
                  "internalType": "uint256",
                  "name": "interval",
                  "type": "uint256"
                },
                {
                  "internalType": "uint256",
                  "name": "nextPaymentTime",
                  "type": "uint256"
                },
                {
                  "internalType": "uint256",
                  "name": "lastPaymentTime",
                  "type": "uint256"
                },
                {
                  "internalType": "uint256",
                  "name": "totalPaid",
                  "type": "uint256"
                },
                {
                  "internalType": "uint256",
                  "name": "paymentCount",
                  "type": "uint256"
                },
                {
                  "internalType": "uint256",
                  "name": "balance",
                  "type": "uint256"
                },
                {
                  "internalType": "enum ISubscription.SubscriptionStatus",
                  "name": "status",
                  "type": "uint8"
                },
                {
                  "internalType": "string",
                  "name": "title",
                  "type": "string"
                },
                {
                  "internalType": "string",
                  "name": "description",
                  "type": "string"
                }
              ],
              "internalType": "struct ISubscription.Subscription[]",
              "name": "subscriptions",
              "type": "tuple[]"
            }
          ],
          "stateMutability": "view",
          "type": "function"
        },
        {
          "inputs": [
            {
              "internalType": "address",
              "name": "user",
              "type": "address"
            }
          ],
          "name": "getUserSubscriptions",
          "outputs": [
            {
              "components": [
                {
                  "internalType": "uint256",
                  "name": "subscriptionId",
                  "type": "uint256"
                },
                {
                  "internalType": "address",
                  "name": "subscriber",
                  "type": "address"
                },
                {
                  "internalType": "address",
                  "name": "recipient",
                  "type": "address"
                },
                {
                  "internalType": "address",
                  "name": "token",
                  "type": "address"
                },
                {
                  "internalType": "uint256",
                  "name": "amount",
                  "type": "uint256"
                },
                {
                  "internalType": "enum ISubscription.Cadence",
                  "name": "cadence",
                  "type": "uint8"
                },
                {
                  "internalType": "uint256",
                  "name": "interval",
                  "type": "uint256"
                },
                {
                  "internalType": "uint256",
                  "name": "nextPaymentTime",
                  "type": "uint256"
                },
                {
                  "internalType": "uint256",
                  "name": "lastPaymentTime",
                  "type": "uint256"
                },
                {
                  "internalType": "uint256",
                  "name": "totalPaid",
                  "type": "uint256"
                },
                {
                  "internalType": "uint256",
                  "name": "paymentCount",
                  "type": "uint256"
                },
                {
                  "internalType": "uint256",
                  "name": "balance",
                  "type": "uint256"
                },
                {
                  "internalType": "enum ISubscription.SubscriptionStatus",
                  "name": "status",
                  "type": "uint8"
                },
                {
                  "internalType": "string",
                  "name": "title",
                  "type": "string"
                },
                {
                  "internalType": "string",
                  "name": "description",
                  "type": "string"
                }
              ],
              "internalType": "struct ISubscription.Subscription[]",
              "name": "subscriptions",
              "type": "tuple[]"
            }
          ],
          "stateMutability": "view",
          "type": "function"
        },
        {
          "inputs": [
            {
              "internalType": "address",
              "name": "user",
              "type": "address"
            }
          ],
          "name": "getUserSubscriptionsAll",
          "outputs": [
            {
              "components": [
                {
                  "internalType": "uint256",
                  "name": "subscriptionId",
                  "type": "uint256"
                },
                {
                  "internalType": "address",
                  "name": "subscriber",
                  "type": "address"
                },
                {
                  "internalType": "address",
                  "name": "recipient",
                  "type": "address"
                },
                {
                  "internalType": "address",
                  "name": "token",
                  "type": "address"
                },
                {
                  "internalType": "uint256",
                  "name": "amount",
                  "type": "uint256"
                },
                {
                  "internalType": "enum ISubscription.Cadence",
                  "name": "cadence",
                  "type": "uint8"
                },
                {
                  "internalType": "uint256",
                  "name": "interval",
                  "type": "uint256"
                },
                {
                  "internalType": "uint256",
                  "name": "nextPaymentTime",
                  "type": "uint256"
                },
                {
                  "internalType": "uint256",
                  "name": "lastPaymentTime",
                  "type": "uint256"
                },
                {
                  "internalType": "uint256",
                  "name": "totalPaid",
                  "type": "uint256"
                },
                {
                  "internalType": "uint256",
                  "name": "paymentCount",
                  "type": "uint256"
                },
                {
                  "internalType": "uint256",
                  "name": "balance",
                  "type": "uint256"
                },
                {
                  "internalType": "enum ISubscription.SubscriptionStatus",
                  "name": "status",
                  "type": "uint8"
                },
                {
                  "internalType": "string",
                  "name": "title",
                  "type": "string"
                },
                {
                  "internalType": "string",
                  "name": "description",
                  "type": "string"
                }
              ],
              "internalType": "struct ISubscription.Subscription[]",
              "name": "subscriptions",
              "type": "tuple[]"
            }
          ],
          "stateMutability": "view",
          "type": "function"
        },
        {
          "inputs": [
            {
              "internalType": "uint256",
              "name": "subscriptionId",
              "type": "uint256"
            }
          ],
          "name": "isPaymentDue",
          "outputs": [
            {
              "internalType": "bool",
              "name": "isDue",
              "type": "bool"
            },
            {
              "internalType": "uint256",
              "name": "nextPaymentTime",
              "type": "uint256"
            }
          ],
          "stateMutability": "view",
          "type": "function"
        },
        {
          "inputs": [
            {
              "internalType": "uint256",
              "name": "subscriptionId",
              "type": "uint256"
            },
            {
              "internalType": "uint256",
              "name": "newAmount",
              "type": "uint256"
            },
            {
              "internalType": "enum ISubscription.Cadence",
              "name": "newCadence",
              "type": "uint8"
            },
            {
              "internalType": "uint256",
              "name": "newInterval",
              "type": "uint256"
            }
          ],
          "name": "modifySubscription",
          "outputs": [],
          "stateMutability": "nonpayable",
          "type": "function"
        },
        {
          "inputs": [],
          "name": "owner",
          "outputs": [
            {
              "internalType": "address",
              "name": "",
              "type": "address"
            }
          ],
          "stateMutability": "view",
          "type": "function"
        },
        {
          "inputs": [
            {
              "internalType": "uint256",
              "name": "subscriptionId",
              "type": "uint256"
            }
          ],
          "name": "pauseSubscription",
          "outputs": [],
          "stateMutability": "nonpayable",
          "type": "function"
        },
        {
          "inputs": [],
          "name": "platformFeeBps",
          "outputs": [
            {
              "internalType": "uint256",
              "name": "",
              "type": "uint256"
            }
          ],
          "stateMutability": "view",
          "type": "function"
        },
        {
          "inputs": [],
          "name": "platformFeeRecipient",
          "outputs": [
            {
              "internalType": "address",
              "name": "",
              "type": "address"
            }
          ],
          "stateMutability": "view",
          "type": "function"
        },
        {
          "inputs": [],
          "name": "renounceOwnership",
          "outputs": [],
          "stateMutability": "nonpayable",
          "type": "function"
        },
        {
          "inputs": [
            {
              "internalType": "uint256",
              "name": "subscriptionId",
              "type": "uint256"
            }
          ],
          "name": "resumeSubscription",
          "outputs": [],
          "stateMutability": "nonpayable",
          "type": "function"
        },
        {
          "inputs": [
            {
              "internalType": "uint256",
              "name": "newFeeBps",
              "type": "uint256"
            }
          ],
          "name": "setPlatformFee",
          "outputs": [],
          "stateMutability": "nonpayable",
          "type": "function"
        },
        {
          "inputs": [
            {
              "internalType": "address",
              "name": "newRecipient",
              "type": "address"
            }
          ],
          "name": "setPlatformFeeRecipient",
          "outputs": [],
          "stateMutability": "nonpayable",
          "type": "function"
        },
        {
          "inputs": [
            {
              "internalType": "address",
              "name": "newOwner",
              "type": "address"
            }
          ],
          "name": "transferOwnership",
          "outputs": [],
          "stateMutability": "nonpayable",
          "type": "function"
        },
        {
          "stateMutability": "payable",
          "type": "receive"
        }
      ],
      "evm": {
        "bytecode": {
          "linkReferences": {},
          "object": "608034620001b757620037d290601f38839003908101601f19168201906001600160401b03821183831017620001bc5780839160409586948552833981010312620001b7576200005d60206200005583620001d2565b9201620001d2565b600160005533156200019f5760018054336001600160a01b0319808316821790935585519492936001600160a01b0393909284929083167f8be0079c531659141344cd1fd0a4f28419497f9722a3daafe3b4186f6b6457e0600080a360326009551693841562000147575016918215620000f057816002541617600255600a541617600a55516135ea9081620001e88239f35b835162461bcd60e51b815260206004820152602a60248201527f537562736372697074696f6e4d616e616765723a20496e76616c696420666565604482015269081c9958da5c1a595b9d60b21b6064820152608490fd5b62461bcd60e51b815260206004820152602d60248201527f537562736372697074696f6e4d616e616765723a20496e76616c69642044726960448201526c70436f7265206164647265737360981b6064820152608490fd5b8251631e4fbdf760e01b815260006004820152602490fd5b600080fd5b634e487b7160e01b600052604160045260246000fd5b51906001600160a01b0382168203620001b75756fe6080604052600436101561001b575b361561001957600080fd5b005b60003560e01c8063023a584e1461223757806312e8e2c3146121be578063137f986014611dde578063162a0cf814611d9e5780631871e24314611d515780631b3a65b414611d355780632123508314611baa57806322dcd13e14611b8c5780632e6ca58814611a31578063408c8d56146118ad5780634121b8c8146117c757806341f23f0a1461171b57806343ab265f146116ee578063715018a61461169157806375ce012b146112ba57806388d2cea314610f905780638a2320da14610f735780638da5cb5b14610f4a5780639d48dde914610dc3578063a434fcfa1461067f578063a4bb0d2d14610656578063b5126bf1146105c1578063c31bb1e514610549578063c7ae12ff146104c5578063d40dc8701461049d578063dc311dd314610390578063ddbcb5fa1461036e578063e816e87f14610221578063eb13554f146101f85763f2fde38b0361000e57346101f35760203660031901126101f357610183612328565b61018b61252b565b6001600160a01b039081169081156101da57600154826001600160601b0360a01b821617600155167f8be0079c531659141344cd1fd0a4f28419497f9722a3daafe3b4186f6b6457e0600080a3005b604051631e4fbdf760e01b815260006004820152602490fd5b600080fd5b346101f35760003660031901126101f357600a546040516001600160a01b039091168152602090f35b346101f35760203660031901126101f3576004356000526005602052604060002060405161024e8161271c565b8154815260018201546001600160a01b039081166020830152600283015481166040830152600383015416606082015260048201546080820152600582015461029d9060ff1660a08301612777565b600682015460c082015261032660078301549160e0810192835260088401546101008201526009840154610120820152600a840154610140820152600b840154610160820152610318600e60ff600c870154169561030061018085019788612783565b61030c600d8201612f81565b6101a085015201612f81565b6101c08201525115156128b7565b5190519060038210156103585760409115908161034c575b825191151582526020820152f35b8091504210159061033e565b634e487b7160e01b600052602160045260246000fd5b346101f35760003660031901126101f357602060405166038d7ea4c680008152f35b346101f35760203660031901126101f3576103a9612f13565b5060043560005260056020526104996040600020610473600e604051926103cf8461271c565b8054845260018101546001600160a01b039081166020860152600282015481166040860152600382015416606085015260048101546080850152600581015461041e9060ff1660a08601612777565b600681015460c0850152600781015460e085015260088101546101008501526009810154610120850152600a810154610140850152600b81015461016085015261030060ff600c830154166101808601612783565b6101c0820152610485815115156128b7565b60405191829160208352602083019061238b565b0390f35b346101f35760003660031901126101f35760206040516c0c9f2c9cd04674edea400000008152f35b346101f3576020806003193601126101f3576001600160a01b036104e7612328565b1660005260088152604060002090604051908181845491828152019360005281600020916000905b828210610532576104998561052681890382612755565b604051918291826124f0565b83548652948501946001938401939091019061050f565b346101f3576020806003193601126101f3576001600160a01b0361056b612328565b1660005260078152604060002090604051908181845491828152019360005281600020916000905b8282106105aa576104998561052681890382612755565b835486529485019460019384019390910190610593565b346101f3576060806003193601126101f3576105e4604435602435600435613053565b906040519160408301916040845280518093528484019260208092019060005b818110610618575050508380955001520390f35b825180518752808501518588015260408082015190880152888101518988015260809081015115159087015260a09095019491830191600101610604565b346101f35760003660031901126101f3576002546040516001600160a01b039091168152602090f35b6101003660031901126101f357610694612328565b602435906001600160a01b03821682036101f357600460643510156101f35760c43567ffffffffffffffff81116101f3576106d39036906004016124c2565b9260e43567ffffffffffffffff81116101f3576106f49036906004016124c2565b9290916106ff612894565b6107136001600160a01b0386161515612557565b6001600160a01b0385163314610d68576044359461073a66038d7ea4c680008710156125b2565b6107536c0c9f2c9cd04674edea4000000087111561260c565b60788711610d17576104008511610cc057610797610775608435606435613267565b96610781881515612666565b612710610790600954836126c0565b04906126f3565b966107a3600354612700565b60038190559660a4358015610caf57905b604051906107c18261271c565b8982523360208301526001600160a01b03858116604084015286166060830152608082018b90526107f760643560a08401612777565b60c08201528160e0820152600061010082015260006101208201526000610140820152600061016082015260006101808201526108353684886127ab565b6101a08201526108463689896127ab565b6101c0820152886000526005602052604060002090805182556001820160018060a01b03602083015116906001600160601b0360a01b91828254161790556002830160018060a01b0360408401511682825416179055600383019060018060a01b03606084015116908254161790556080810151600483015560a08101516004811015610358576108da90600584016127e2565b60c0810151600683015560e0810151600783015561010081015160088301556101208101516009830155610140810151600a830155610160810151600b830155600c820161018082015160038110156103585760ff801983541691161790556101a081015180519067ffffffffffffffff8211610bd35761095e600d8501546127fa565b601f8111610c68575b50602090601f8311600114610bf4576101c093929160009183610be9575b50508160011b916000199060031b1c191617600d8401555b015180519067ffffffffffffffff8211610bd3576109be600e8401546127fa565b601f8111610b8c575b509160209b9593918b9795938d90601f8311600114610ad45792600e83610ab9989794610a9e97947f41abc4b24ef1f8fb8e7b654e9d9b95830c12e5690fd93b80f9a6e3b4091dad4e9d9e97600092610ac9575b50508160011b916000199060031b1c1916179101555b3360005260078e52610a478a6040600020612834565b60018060a01b03851660005260088e52610a658a6040600020612834565b60405197889760018060a01b031688528e880152610a886040880160643561233e565b606087015260c0608087015260c0860191612873565b83810360a08501526001600160a01b03909116973397612873565b0390a46001600055604051908152f35b015190503880610a1b565b999493929190600e83016000528e6000209a60005b601f1984168110610b5d57506001837f41abc4b24ef1f8fb8e7b654e9d9b95830c12e5690fd93b80f9a6e3b4091dad4e9c9d610a9e989694600e94610ab99c9b9997601f19811610610b44575b505050811b01910155610a31565b015160001960f88460031b161c19169055388080610b36565b929496989a5090929496989a8f600181928685015181550194019201908e9a98969492919b999795939b610ae9565b600e84016000526020600020601f840160051c810160208510610bcc575b601f830160051c82018110610bc05750506109c7565b60008155600101610baa565b5080610baa565b634e487b7160e01b600052604160045260246000fd5b015190508e80610985565b90600d850160005260206000209160005b601f1985168110610c5057509183916001936101c09695601f19811610610c37575b505050811b01600d84015561099d565b015160001960f88460031b161c191690558e8080610c27565b91926020600181928685015181550194019201610c05565b600d85016000526020600020601f840160051c810160208510610ca8575b601f830160051c82018110610c9c575050610967565b60008155600101610c86565b5080610c86565b50610cba814261270f565b906107b4565b60405162461bcd60e51b815260206004820152602960248201527f537562736372697074696f6e4d616e616765723a204465736372697074696f6e60448201526820746f6f206c6f6e6760b81b6064820152608490fd5b60405162461bcd60e51b815260206004820152602360248201527f537562736372697074696f6e4d616e616765723a205469746c6520746f6f206c6044820152626f6e6760e81b6064820152608490fd5b60405162461bcd60e51b815260206004820152602d60248201527f537562736372697074696f6e4d616e616765723a2043616e6e6f74207375627360448201526c31b934b132903a379039b2b63360991b6064820152608490fd5b346101f35760803660031901126101f3576004356024356044359060048210156101f357826000526005602052604060002090610e02825415156128b7565b60ff600c830154166003811015610358578015908115610f3f575b5015610eef576006610ed97f477db6e20f923c0d3d35a24ed877bd4c4f9f8a7237557a4bc7e8dd3ca8d0e04f94606094610e6e60018060a01b03806001840154163314908115610ee1575b50612e66565b610e8166038d7ea4c680008610156125b2565b610e9a6c0c9f2c9cd04674edea4000000086111561260c565b610ea660643583613267565b938491610eb4831515612666565b866004820155610ec784600583016127e2565b0155604051938452602084019061233e565b6040820152a2005b90506001541633148a610e68565b60405162461bcd60e51b815260206004820152603460248201526000805160206135958339815191526044820152731b8818d85b9b9bdd081899481b5bd91a599a595960621b6064820152608490fd5b600191501485610e1d565b346101f35760003660031901126101f3576001546040516001600160a01b039091168152602090f35b346101f35760003660031901126101f35760206040516104008152f35b346101f3576020806003193601126101f3576001600160a01b0380610fb3612328565b169182600052600791828252604060002093604051808685829854938481520190600052856000209260005b878282106112a457505050610ff692500386612755565b6000526008808352604060002090604051808386829554938481520190600052866000209260005b8882821061128e5750505061103592500383612755565b611042865183519061270f565b9361104c85613027565b9461105a6040519687612755565b808652611069601f1991613027565b01368287013760009360005b88518110156110f9576000805b8781106110c3575b509061109a911561109f57612700565b611075565b6110a9818b61303f565b516110bd6110b689612700565b988a61303f565b52612700565b6110cd818a61303f565b516110d8848d61303f565b51146110ec576110e790612700565b611082565b506001905061109a61108a565b50859185918860005b8751811015611180576000805b86811061114a575b5090611127911561112c57612700565b611102565b611136818a61303f565b516110bd61114388612700565b978961303f565b611154818961303f565b5161115f848c61303f565b51146111735761116e90612700565b61110f565b5060019050611127611117565b508561118b85613217565b9560005b8681106111a457604051806104998a82612460565b806111b2611289928461303f565b516000526005808852611268600e6040600020610300604051946111d58661271c565b825486528b6001840154168d8701528b60028401541660408701528b60038401541660608701526004830154608087015261121a60ff80928501541660a08801612777565b600683015460c08701528a83015460e0870152898301546101008701526009830154610120870152600a830154610140870152600b830154610160870152600c830154166101808601612783565b6101c0820152611278828b61303f565b52611283818a61303f565b50612700565b61118f565b855484526001958601958895509301920161101e565b855484526001958601958b955093019201610fdf565b346101f35760203660031901126101f35760043567ffffffffffffffff8082116101f357366023830112156101f3578160040135116101f357366024826004013560051b830101116101f35760009060005b8160040135811061132257602083604051908152f35b61133481836004013560248501612e56565b35600052600560205260406000208054158015611678575b61166e57600781015480421061166357600682015460019161136e828261270f565b421015611629575b5050906004810154916113ac816113a6816113a16127106113996009548a6126c0565b0480986126f3565b6126c0565b946126c0565b906113b7828561270f565b9182600b8501541061161b5760038401805490919086906001600160a01b0316806115a457505090506113ec83471015612959565b60008080808860018060a01b0360028a0154165af19061140a612a1d565b50801515828161159c575b50611572575b505b611434575b5050505061142f90612700565b61130c565b91611496611568949261142f969894426008850155611465600785015461145f6006870154846126c0565b9061270f565b60078501556009840161147986825461270f565b905561148a600a850191825461270f565b9055600b8301546126f3565b600b8201556114a6600454612700565b90816004556114bd88886004013560248a01612e56565b35600052600660205261150f60406000206114e08a8a6004013560248c01612e56565b3590604051916114ef83612739565b858352602083015285604083015242606083015260016080830152612a4d565b7f2727caf80b6da2dfa4408df2026c1fe59761d4b9184f422b225772bb9c3b7ee260406115448a8a6004013560248c01612e56565b60029093015481519586524260208701526001600160a01b031694923592a4612700565b9290848080611422565b60008080806115969460018060a01b03600a54165af1611590612a1d565b506129c0565b8861141b565b90508a611415565b906115d2916115be876115b7308461351a565b1015612959565b60028801546001600160a01b0316906133df565b9181151580611614575b6115e8575b505061141d565b54600a5461160d926116089290916001600160a01b0390811691166133df565b6129c0565b88806115e1565b50826115dc565b505050505061142f90612700565b9061163761163c92426126f3565b6126d3565b90810180911161164d578580611376565b634e487b7160e01b600052601160045260246000fd5b505061142f90612700565b5061142f90612700565b5060ff600c82015416600381101561035857151561134c565b346101f35760003660031901126101f3576116aa61252b565b600180546001600160a01b031981169091556000906001600160a01b03167f8be0079c531659141344cd1fd0a4f28419497f9722a3daafe3b4186f6b6457e08280a3005b346101f35760203660031901126101f357602061171361170c612328565b309061351a565b604051908152f35b346101f35760203660031901126101f3576004358060005260056020526040600020611749815415156128b7565b600c810190815460ff811691600383101561035857600161178a9161176f82951561290a565b818060a01b0391829101541633149081156117ba5750612e66565b60ff191617905533907f25a87732c0536735f3ab7dd339abd21dd0ef78059a500c3927a6cfeb98f90694600080a3005b9050835416331486610e68565b346101f35760203660031901126101f3576004356000526005602052602060406000206118a46040516117f98161271c565b8254815260018301546001600160a01b039081168583015260028401548116604083015260038401541660608201526004830154608082015260058301546118479060ff1660a08301612777565b600683015460c0820152600783015460e082015260088301546101008201526009830154610120820152600a830154610140820152610318600e600b85015494610160840195865261030060ff600c830154166101808601612783565b51604051908152f35b346101f3576020806003193601126101f3576001600160a01b03806118d0612328565b16600052600891828152604060002091604051808484829654938481520190600052846000209260005b86828210611a1b5750505061191192500384612755565b61191b8351613217565b9360005b8451811015611a0d5780611936611a08928761303f565b5160005260058086526119ed600e6040600020610300604051946119598661271c565b82548652896001840154168b8701528960028401541660408701528960038401541660608701526004830154608087015261199e60ff80928501541660a08801612777565b600683015460c0870152600783015460e0870152888301546101008701526009830154610120870152600a830154610140870152600b830154610160870152600c830154166101808601612783565b6101c08201526119fd828961303f565b52611283818861303f565b61191f565b604051806104998882612460565b85548452600195860195899550930192016118fa565b346101f3576020806003193601126101f3576001600160a01b0380611a54612328565b16600052600791828152604060002091604051808484829654938481520190600052846000209260005b86828210611b7657505050611a9592500384612755565b611a9f8351613217565b9360005b8451811015611a0d5780611aba611b71928761303f565b5160005260058086526119ed600e604060002061030060405194611add8661271c565b82548652896001840154168b87015289600284015416604087015289600384015416606087015260048301546080870152611b2260ff80928501541660a08801612777565b600683015460c08701528883015460e087015260088301546101008701526009830154610120870152600a830154610140870152600b830154610160870152600c830154166101808601612783565b611aa3565b8554845260019586019589955093019201611a7e565b346101f35760003660031901126101f3576020600954604051908152f35b346101f35760203660031901126101f357600435611bc6612894565b8060005260056020526040600020611be0815415156128b7565b600c81019081549160ff83166003811015610358578015908115611d2a575b5015611cd957600182019060018060a01b0392600084845416928333148015611ccc575b611c2c90612e66565b600b830190600282549860ff19161790555584611c72575b33867f533734a768f070673b823079652464b7e002bb51cdf15e3108209f397425225f600080a36001600055005b60030154831680611cb25750506000808481948294611c96611ca898471015612959565b54165af1611ca2612a1d565b50612ebc565b8180808080611c44565b611cc29350611cc79492506133df565b612ebc565b611ca8565b5060015486163314611c23565b60405162461bcd60e51b815260206004820152603560248201526000805160206135958339815191526044820152741b8818d85b9b9bdd0818994818d85b98d95b1b1959605a1b6064820152608490fd5b600191501485611bff565b346101f35760003660031901126101f357602060405160788152f35b346101f35760203660031901126101f357611d6a612328565b611d7261252b565b6001600160a01b0316611d86811515612557565b6001600160601b0360a01b600a541617600a55600080f35b346101f35760203660031901126101f357611db7612894565b6060611dc4600435612ab3565b906001600055604051921515835260208301526040820152f35b60403660031901126101f35760246004358135611df9612894565b8160005260209060058252604060002093611e16855415156128b7565b60018501546001600160a01b0390811633036121615760ff600c87015416600381101561214c5780611e519115908115612141575b5061290a565b60038601541680611f8057503415611f2a578115611f1f57348203611ec05750600b90935b818101611e8486825461270f565b90555b0154906040519384528301527f624d25e63da06971e79203affbcdea82cd63e6a28fa1ac420aa5018b97a8cd5160403393a36001600055005b8260336084926040519262461bcd60e51b845260048401528201527f537562736372697074696f6e4d616e616765723a20416d6f756e74206d69736d604482015272617463682077697468206d73672e76616c756560681b6064820152fd5b5050600b3493611e76565b82602a6084926040519262461bcd60e51b845260048401528201527f537562736372697074696f6e4d616e616765723a204e6f206e617469766520746044820152691bdad95b9cc81cd95b9d60b21b6064820152fd5b949190346120ca5781156120735760008483976064604051809481936323b872dd60e01b835233600484015230888401528860448401525af19081156120675760009161203a575b5015611fe8575090600b91611fe183830191825461270f565b9055611e87565b8360266084926040519262461bcd60e51b845260048401528201527f546f6b656e48656c7065723a204552433230207472616e7366657246726f6d2060448201526519985a5b195960d21b6064820152fd5b61205a9150853d8711612060575b6120528183612755565b8101906133c7565b87611fc8565b503d612048565b6040513d6000823e3d90fd5b83602b6084926040519262461bcd60e51b845260048401528201527f537562736372697074696f6e4d616e616765723a20496e76616c69642064657060448201526a1bdcda5d08185b5bdd5b9d60aa1b6064820152fd5b83604560a4926040519262461bcd60e51b845260048401528201527f537562736372697074696f6e4d616e616765723a204e617469766520746f6b6560448201527f6e206e6f7420657870656374656420666f722045524332302073756273637269606482015264383a34b7b760d91b6084820152fd5b600191501488611e4b565b82634e487b7160e01b60005260216004526000fd5b60405162461bcd60e51b8152600481018590526030818401527f537562736372697074696f6e4d616e616765723a204f6e6c792073756273637260448201526f1a58995c8818d85b8819195c1bdcda5d60821b6064820152608490fd5b346101f35760203660031901126101f3576004356121da61252b565b6103e881116121e857600955005b60405162461bcd60e51b815260206004820152602160248201527f537562736372697074696f6e4d616e616765723a2046656520746f6f206869676044820152600d60fb1b6064820152608490fd5b346101f35760203660031901126101f3576004358060005260056020526040600020612265815415156128b7565b600c81019081549060ff82166003811015610358576001036122e057600101546122a390336001600160a01b03918216149081156122d25750612e66565b60ff1916905533907fd13b5f8d2e4901890b0c4487e78268b05e17db24ed2b23450caa809f66b24585600080a3005b905060015416331485610e68565b60405162461bcd60e51b815260206004820152602c602482015260008051602061359583398151915260448201526b1b881b9bdd081c185d5cd95960a21b6064820152608490fd5b600435906001600160a01b03821682036101f357565b9060048210156103585752565b919082519283825260005b848110612377575050826000602080949584010152601f8019910116010190565b602081830181015184830182015201612356565b908151815260018060a01b038060208401511660208301528060408401511660408301526060830151166060820152608082015160808201526123d660a083015160a083019061233e565b60c082015160c082015260e082015160e08201526101008083015190820152610120808301519082015261014080830151908201526101608083015190820152610180918281015160038110156103585761245d938301526124496101a080830151906101e0809186015284019061234b565b916101c0809201519181840391015261234b565b90565b602080820190808352835180925260408301928160408460051b8301019501936000915b8483106124945750505050505090565b90919293949584806124b2600193603f198682030187528a5161238b565b9801930193019194939290612484565b9181601f840112156101f35782359167ffffffffffffffff83116101f357602083818601950101116101f357565b6020908160408183019282815285518094520193019160005b828110612517575050505090565b835185529381019392810192600101612509565b6001546001600160a01b0316330361253f57565b60405163118cdaa760e01b8152336004820152602490fd5b1561255e57565b60405162461bcd60e51b815260206004820152602660248201527f537562736372697074696f6e4d616e616765723a20496e76616c6964207265636044820152651a5c1a595b9d60d21b6064820152608490fd5b156125b957565b60405162461bcd60e51b815260206004820152602560248201527f537562736372697074696f6e4d616e616765723a20416d6f756e7420746f6f206044820152641cdb585b1b60da1b6064820152608490fd5b1561261357565b60405162461bcd60e51b815260206004820152602560248201527f537562736372697074696f6e4d616e616765723a20416d6f756e7420746f6f206044820152646c6172676560d81b6064820152608490fd5b1561266d57565b60405162461bcd60e51b815260206004820152602560248201527f537562736372697074696f6e4d616e616765723a20496e76616c696420696e74604482015264195c9d985b60da1b6064820152608490fd5b8181029291811591840414171561164d57565b81156126dd570490565b634e487b7160e01b600052601260045260246000fd5b9190820391821161164d57565b600019811461164d5760010190565b9190820180921161164d57565b6101e0810190811067ffffffffffffffff821117610bd357604052565b60a0810190811067ffffffffffffffff821117610bd357604052565b90601f8019910116810190811067ffffffffffffffff821117610bd357604052565b60048210156103585752565b60038210156103585752565b67ffffffffffffffff8111610bd357601f01601f191660200190565b9291926127b78261278f565b916127c56040519384612755565b8294818452818301116101f3578281602093846000960137010152565b9060048110156103585760ff80198354169116179055565b90600182811c9216801561282a575b602083101461281457565b634e487b7160e01b600052602260045260246000fd5b91607f1691612809565b805490600160401b821015610bd3576001820180825582101561285d5760005260206000200155565b634e487b7160e01b600052603260045260246000fd5b908060209392818452848401376000828201840152601f01601f1916010190565b6002600054146128a5576002600055565b604051633ee5aeb560e01b8152600490fd5b156128be57565b60405162461bcd60e51b8152602060048201526030602482015260008051602061359583398151915260448201526f1b88191bd95cc81b9bdd08195e1a5cdd60821b6064820152608490fd5b1561291157565b60405162461bcd60e51b815260206004820152602c602482015260008051602061359583398151915260448201526b6e206e6f742061637469766560a01b6064820152608490fd5b1561296057565b60405162461bcd60e51b815260206004820152603260248201527f537562736372697074696f6e4d616e616765723a20496e73756666696369656e6044820152717420636f6e74726163742062616c616e636560701b6064820152608490fd5b156129c757565b60405162461bcd60e51b815260206004820152602860248201527f537562736372697074696f6e4d616e616765723a20466565207472616e7366656044820152671c8819985a5b195960c21b6064820152608490fd5b3d15612a48573d90612a2e8261278f565b91612a3c6040519384612755565b82523d6000602084013e565b606090565b805490600160401b821015610bd3576001820180825582101561285d57608091600491600052600560206000209102018351815560208401516001820155604084015160028201556060840151600382015501910151151560ff80198354169116179055565b60009181835260206005815260409283852090612ad2825415156128b7565b60ff600c830154166003811015612e4257612aed901561290a565b60078201948554804210612df2576001966006850191825490612b10828261270f565b421015612dbb575b50506004948581015492612b4a8a612b44816113a1612710612b3c6009548b6126c0565b0480996126f3565b956126c0565b92612b55848661270f565b90600b84019282845410612d66578d600386019660018060a01b03888a82809b54168015600014612d085750505050612b9085471015612959565b818080808c8c60028d0154165af191612ba7612a1d565b508115158381612d00575b50612ce3575b50505b15612c90577f2727caf80b6da2dfa4408df2026c1fe59761d4b9184f422b225772bb9c3b7ee2979695949260029492612c068f9361145f612c32954260088a015584549254906126c0565b905560098401612c1788825461270f565b90558d612c29600a860191825461270f565b905582546126f3565b9055612c7a85612c428a54612700565b9d8e809b5589815260068c5220865190612c5b82612739565b8a8252898c830152868883015242606083015260016080830152612a4d565b0154169582519182524290820152a46001929190565b5050505050509083979650612ca9612cdd959454612700565b8098558287526006845280872092815194612cc386612739565b898652850152830152426060830152846080830152612a4d565b81929190565b808080612cf9948c600a54165af1611590612a1d565b388f612bb8565b905038612bb2565b612d2b9293949550612d1e896115b7308461351a565b8460028c015416906133df565b9280151580612d5f575b612d42575b505050612bbb565b612d57926116089254168a600a5416906133df565b863880612d3a565b5083612d35565b875162461bcd60e51b8152808b018c9052602960248201527f537562736372697074696f6e4d616e616765723a20496e73756666696369656e604482015268742062616c616e636560b81b6064820152608490fd5b90611637612dcc929a939a426126f3565b908101809111612dde57963880612b18565b634e487b7160e01b89526011600452602489fd5b815162461bcd60e51b8152600481018690526024808201527f537562736372697074696f6e4d616e616765723a205061796d656e74206e6f746044820152632064756560e01b6064820152608490fd5b634e487b7160e01b87526021600452602487fd5b919081101561285d5760051b0190565b15612e6d57565b60405162461bcd60e51b815260206004820152602160248201527f537562736372697074696f6e4d616e616765723a20556e617574686f72697a656044820152601960fa1b6064820152608490fd5b15612ec357565b60405162461bcd60e51b815260206004820152602260248201527f537562736372697074696f6e4d616e616765723a20526566756e64206661696c604482015261195960f21b6064820152608490fd5b60405190612f208261271c565b60606101c083600080825280602083015280604083015280848301528060808301528060a08301528060c08301528060e083015280610100830152806101208301528061014083015280610160830152610180820152826101a08201520152565b9060405191826000825492612f95846127fa565b9081845260019485811690816000146130045750600114612fc1575b5050612fbf92500383612755565b565b9093915060005260209081600020936000915b818310612fec575050612fbf93508201013880612fb1565b85548884018501529485019487945091830191612fd4565b915050612fbf94506020925060ff191682840152151560051b8201013880612fb1565b67ffffffffffffffff8111610bd35760051b60200190565b805182101561285d5760209160051b010190565b909291926000908282526005906020928284526040946130778683205415156128b7565b8152600684528481209283549061308d82613027565b9461309a88519687612755565b82865283528583208390878088015b8584106131c8575050505050508251968783101561318e576130cb908361270f565b82888211613186575b6130dd916126f3565b936130e785613027565b956130f481519788612755565b858752601f1961310387613027565b0190835b82811061315457505050505b83811061312257505050509190565b8061313961313361314f938561270f565b8561303f565b51613144828861303f565b52611283818761303f565b613113565b8390825161316181612739565b8681528683820152868482015286606082015286608082015282828c01015201613107565b8891506130d4565b50929391505080519283019083821067ffffffffffffffff8311176131b4575281529190565b634e487b7160e01b83526041600452602483fd5b60019185918c516131d881612739565b8554815284860154838201528d6002870154908201526003860154606082015260ff6004870154161515608082015281520192019201919088906130a9565b9061322182613027565b61322e6040519182612755565b828152809261323f601f1991613027565b019060005b82811061325057505050565b60209061325b612f13565b82828501015201613244565b6004811015610358578061327e5750506201518090565b6001810361328f57505062093a8090565b600281036132a057505062278d0090565b6003036133765762015180811061331a576301e1338081116132bf5790565b60405162461bcd60e51b815260206004820152602d60248201527f537562736372697074696f6e4d616e616765723a20437573746f6d20696e746560448201526c7276616c20746f6f206c6f6e6760981b6064820152608490fd5b60405162461bcd60e51b815260206004820152602e60248201527f537562736372697074696f6e4d616e616765723a20437573746f6d20696e746560448201526d1c9d985b081d1bdbc81cda1bdc9d60921b6064820152608490fd5b60405162461bcd60e51b8152602060048201526024808201527f537562736372697074696f6e4d616e616765723a20496e76616c696420636164604482015263656e636560e01b6064820152608490fd5b908160209103126101f3575180151581036101f35790565b600092839290916001600160a01b0390811680613464575050829350829182915af1613409612a1d565b5080156134135790565b60405162461bcd60e51b815260206004820152602360248201527f546f6b656e48656c7065723a204e6174697665207472616e73666572206661696044820152621b195960ea1b6064820152608490fd5b60209285604492604051968795869463a9059cbb60e01b865216600485015260248401525af191821561350e57916134f0575b50156134a05790565b60405162461bcd60e51b815260206004820152602260248201527f546f6b656e48656c7065723a204552433230207472616e73666572206661696c604482015261195960f21b6064820152608490fd5b613508915060203d8111612060576120528183612755565b38613497565b604051903d90823e3d90fd5b6001600160a01b0390811690816135315750503190565b6040516370a0823160e01b815292166004830152602090829060249082905afa90811561206757600091613563575090565b906020823d821161358c575b8161357c60209383612755565b8101031261358957505190565b80fd5b3d915061356f56fe537562736372697074696f6e4d616e616765723a20537562736372697074696fa2646970667358221220d9dea0fc814b56cc847f6030f65da50eefb2ca86f6ae481ee6e75e2eed7c9f7964736f6c63430008140033",
          "opcodes": "PUSH1 0x80 CALLVALUE PUSH3 0x1B7 JUMPI PUSH3 0x37D2 SWAP1 PUSH1 0x1F CODESIZE DUP4 SWAP1 SUB SWAP1 DUP2 ADD PUSH1 0x1F NOT AND DUP3 ADD SWAP1 PUSH1 0x1 PUSH1 0x1 PUSH1 0x40 SHL SUB DUP3 GT DUP4 DUP4 LT OR PUSH3 0x1BC JUMPI DUP1 DUP4 SWAP2 PUSH1 0x40 SWAP6 DUP7 SWAP5 DUP6 MSTORE DUP4 CODECOPY DUP2 ADD SUB SLT PUSH3 0x1B7 JUMPI PUSH3 0x5D PUSH1 0x20 PUSH3 0x55 DUP4 PUSH3 0x1D2 JUMP JUMPDEST SWAP3 ADD PUSH3 0x1D2 JUMP JUMPDEST PUSH1 0x1 PUSH1 0x0 SSTORE CALLER ISZERO PUSH3 0x19F JUMPI PUSH1 0x1 DUP1 SLOAD CALLER PUSH1 0x1 PUSH1 0x1 PUSH1 0xA0 SHL SUB NOT DUP1 DUP4 AND DUP3 OR SWAP1 SWAP4 SSTORE DUP6 MLOAD SWAP5 SWAP3 SWAP4 PUSH1 0x1 PUSH1 0x1 PUSH1 0xA0 SHL SUB SWAP4 SWAP1 SWAP3 DUP5 SWAP3 SWAP1 DUP4 AND PUSH32 0x8BE0079C531659141344CD1FD0A4F28419497F9722A3DAAFE3B4186F6B6457E0 PUSH1 0x0 DUP1 LOG3 PUSH1 0x32 PUSH1 0x9 SSTORE AND SWAP4 DUP5 ISZERO PUSH3 0x147 JUMPI POP AND SWAP2 DUP3 ISZERO PUSH3 0xF0 JUMPI DUP2 PUSH1 0x2 SLOAD AND OR PUSH1 0x2 SSTORE PUSH1 0xA SLOAD AND OR PUSH1 0xA SSTORE MLOAD PUSH2 0x35EA SWAP1 DUP2 PUSH3 0x1E8 DUP3 CODECOPY RETURN JUMPDEST DUP4 MLOAD PUSH3 0x461BCD PUSH1 0xE5 SHL DUP2 MSTORE PUSH1 0x20 PUSH1 0x4 DUP3 ADD MSTORE PUSH1 0x2A PUSH1 0x24 DUP3 ADD MSTORE PUSH32 0x537562736372697074696F6E4D616E616765723A20496E76616C696420666565 PUSH1 0x44 DUP3 ADD MSTORE PUSH10 0x81C9958DA5C1A595B9D PUSH1 0xB2 SHL PUSH1 0x64 DUP3 ADD MSTORE PUSH1 0x84 SWAP1 REVERT JUMPDEST PUSH3 0x461BCD PUSH1 0xE5 SHL DUP2 MSTORE PUSH1 0x20 PUSH1 0x4 DUP3 ADD MSTORE PUSH1 0x2D PUSH1 0x24 DUP3 ADD MSTORE PUSH32 0x537562736372697074696F6E4D616E616765723A20496E76616C696420447269 PUSH1 0x44 DUP3 ADD MSTORE PUSH13 0x70436F72652061646472657373 PUSH1 0x98 SHL PUSH1 0x64 DUP3 ADD MSTORE PUSH1 0x84 SWAP1 REVERT JUMPDEST DUP3 MLOAD PUSH4 0x1E4FBDF7 PUSH1 0xE0 SHL DUP2 MSTORE PUSH1 0x0 PUSH1 0x4 DUP3 ADD MSTORE PUSH1 0x24 SWAP1 REVERT JUMPDEST PUSH1 0x0 DUP1 REVERT JUMPDEST PUSH4 0x4E487B71 PUSH1 0xE0 SHL PUSH1 0x0 MSTORE PUSH1 0x41 PUSH1 0x4 MSTORE PUSH1 0x24 PUSH1 0x0 REVERT JUMPDEST MLOAD SWAP1 PUSH1 0x1 PUSH1 0x1 PUSH1 0xA0 SHL SUB DUP3 AND DUP3 SUB PUSH3 0x1B7 JUMPI JUMP INVALID PUSH1 0x80 PUSH1 0x40 MSTORE PUSH1 0x4 CALLDATASIZE LT ISZERO PUSH2 0x1B JUMPI JUMPDEST CALLDATASIZE ISZERO PUSH2 0x19 JUMPI PUSH1 0x0 DUP1 REVERT JUMPDEST STOP JUMPDEST PUSH1 0x0 CALLDATALOAD PUSH1 0xE0 SHR DUP1 PUSH4 0x23A584E EQ PUSH2 0x2237 JUMPI DUP1 PUSH4 0x12E8E2C3 EQ PUSH2 0x21BE JUMPI DUP1 PUSH4 0x137F9860 EQ PUSH2 0x1DDE JUMPI DUP1 PUSH4 0x162A0CF8 EQ PUSH2 0x1D9E JUMPI DUP1 PUSH4 0x1871E243 EQ PUSH2 0x1D51 JUMPI DUP1 PUSH4 0x1B3A65B4 EQ PUSH2 0x1D35 JUMPI DUP1 PUSH4 0x21235083 EQ PUSH2 0x1BAA JUMPI DUP1 PUSH4 0x22DCD13E EQ PUSH2 0x1B8C JUMPI DUP1 PUSH4 0x2E6CA588 EQ PUSH2 0x1A31 JUMPI DUP1 PUSH4 0x408C8D56 EQ PUSH2 0x18AD JUMPI DUP1 PUSH4 0x4121B8C8 EQ PUSH2 0x17C7 JUMPI DUP1 PUSH4 0x41F23F0A EQ PUSH2 0x171B JUMPI DUP1 PUSH4 0x43AB265F EQ PUSH2 0x16EE JUMPI DUP1 PUSH4 0x715018A6 EQ PUSH2 0x1691 JUMPI DUP1 PUSH4 0x75CE012B EQ PUSH2 0x12BA JUMPI DUP1 PUSH4 0x88D2CEA3 EQ PUSH2 0xF90 JUMPI DUP1 PUSH4 0x8A2320DA EQ PUSH2 0xF73 JUMPI DUP1 PUSH4 0x8DA5CB5B EQ PUSH2 0xF4A JUMPI DUP1 PUSH4 0x9D48DDE9 EQ PUSH2 0xDC3 JUMPI DUP1 PUSH4 0xA434FCFA EQ PUSH2 0x67F JUMPI DUP1 PUSH4 0xA4BB0D2D EQ PUSH2 0x656 JUMPI DUP1 PUSH4 0xB5126BF1 EQ PUSH2 0x5C1 JUMPI DUP1 PUSH4 0xC31BB1E5 EQ PUSH2 0x549 JUMPI DUP1 PUSH4 0xC7AE12FF EQ PUSH2 0x4C5 JUMPI DUP1 PUSH4 0xD40DC870 EQ PUSH2 0x49D JUMPI DUP1 PUSH4 0xDC311DD3 EQ PUSH2 0x390 JUMPI DUP1 PUSH4 0xDDBCB5FA EQ PUSH2 0x36E JUMPI DUP1 PUSH4 0xE816E87F EQ PUSH2 0x221 JUMPI DUP1 PUSH4 0xEB13554F EQ PUSH2 0x1F8 JUMPI PUSH4 0xF2FDE38B SUB PUSH2 0xE JUMPI CALLVALUE PUSH2 0x1F3 JUMPI PUSH1 0x20 CALLDATASIZE PUSH1 0x3 NOT ADD SLT PUSH2 0x1F3 JUMPI PUSH2 0x183 PUSH2 0x2328 JUMP JUMPDEST PUSH2 0x18B PUSH2 0x252B JUMP JUMPDEST PUSH1 0x1 PUSH1 0x1 PUSH1 0xA0 SHL SUB SWAP1 DUP2 AND SWAP1 DUP2 ISZERO PUSH2 0x1DA JUMPI PUSH1 0x1 SLOAD DUP3 PUSH1 0x1 PUSH1 0x1 PUSH1 0x60 SHL SUB PUSH1 0xA0 SHL DUP3 AND OR PUSH1 0x1 SSTORE AND PUSH32 0x8BE0079C531659141344CD1FD0A4F28419497F9722A3DAAFE3B4186F6B6457E0 PUSH1 0x0 DUP1 LOG3 STOP JUMPDEST PUSH1 0x40 MLOAD PUSH4 0x1E4FBDF7 PUSH1 0xE0 SHL DUP2 MSTORE PUSH1 0x0 PUSH1 0x4 DUP3 ADD MSTORE PUSH1 0x24 SWAP1 REVERT JUMPDEST PUSH1 0x0 DUP1 REVERT JUMPDEST CALLVALUE PUSH2 0x1F3 JUMPI PUSH1 0x0 CALLDATASIZE PUSH1 0x3 NOT ADD SLT PUSH2 0x1F3 JUMPI PUSH1 0xA SLOAD PUSH1 0x40 MLOAD PUSH1 0x1 PUSH1 0x1 PUSH1 0xA0 SHL SUB SWAP1 SWAP2 AND DUP2 MSTORE PUSH1 0x20 SWAP1 RETURN JUMPDEST CALLVALUE PUSH2 0x1F3 JUMPI PUSH1 0x20 CALLDATASIZE PUSH1 0x3 NOT ADD SLT PUSH2 0x1F3 JUMPI PUSH1 0x4 CALLDATALOAD PUSH1 0x0 MSTORE PUSH1 0x5 PUSH1 0x20 MSTORE PUSH1 0x40 PUSH1 0x0 KECCAK256 PUSH1 0x40 MLOAD PUSH2 0x24E DUP2 PUSH2 0x271C JUMP JUMPDEST DUP2 SLOAD DUP2 MSTORE PUSH1 0x1 DUP3 ADD SLOAD PUSH1 0x1 PUSH1 0x1 PUSH1 0xA0 SHL SUB SWAP1 DUP2 AND PUSH1 0x20 DUP4 ADD MSTORE PUSH1 0x2 DUP4 ADD SLOAD DUP2 AND PUSH1 0x40 DUP4 ADD MSTORE PUSH1 0x3 DUP4 ADD SLOAD AND PUSH1 0x60 DUP3 ADD MSTORE PUSH1 0x4 DUP3 ADD SLOAD PUSH1 0x80 DUP3 ADD MSTORE PUSH1 0x5 DUP3 ADD SLOAD PUSH2 0x29D SWAP1 PUSH1 0xFF AND PUSH1 0xA0 DUP4 ADD PUSH2 0x2777 JUMP JUMPDEST PUSH1 0x6 DUP3 ADD SLOAD PUSH1 0xC0 DUP3 ADD MSTORE PUSH2 0x326 PUSH1 0x7 DUP4 ADD SLOAD SWAP2 PUSH1 0xE0 DUP2 ADD SWAP3 DUP4 MSTORE PUSH1 0x8 DUP5 ADD SLOAD PUSH2 0x100 DUP3 ADD MSTORE PUSH1 0x9 DUP5 ADD SLOAD PUSH2 0x120 DUP3 ADD MSTORE PUSH1 0xA DUP5 ADD SLOAD PUSH2 0x140 DUP3 ADD MSTORE PUSH1 0xB DUP5 ADD SLOAD PUSH2 0x160 DUP3 ADD MSTORE PUSH2 0x318 PUSH1 0xE PUSH1 0xFF PUSH1 0xC DUP8 ADD SLOAD AND SWAP6 PUSH2 0x300 PUSH2 0x180 DUP6 ADD SWAP8 DUP9 PUSH2 0x2783 JUMP JUMPDEST PUSH2 0x30C PUSH1 0xD DUP3 ADD PUSH2 0x2F81 JUMP JUMPDEST PUSH2 0x1A0 DUP6 ADD MSTORE ADD PUSH2 0x2F81 JUMP JUMPDEST PUSH2 0x1C0 DUP3 ADD MSTORE MLOAD ISZERO ISZERO PUSH2 0x28B7 JUMP JUMPDEST MLOAD SWAP1 MLOAD SWAP1 PUSH1 0x3 DUP3 LT ISZERO PUSH2 0x358 JUMPI PUSH1 0x40 SWAP2 ISZERO SWAP1 DUP2 PUSH2 0x34C JUMPI JUMPDEST DUP3 MLOAD SWAP2 ISZERO ISZERO DUP3 MSTORE PUSH1 0x20 DUP3 ADD MSTORE RETURN JUMPDEST DUP1 SWAP2 POP TIMESTAMP LT ISZERO SWAP1 PUSH2 0x33E JUMP JUMPDEST PUSH4 0x4E487B71 PUSH1 0xE0 SHL PUSH1 0x0 MSTORE PUSH1 0x21 PUSH1 0x4 MSTORE PUSH1 0x24 PUSH1 0x0 REVERT JUMPDEST CALLVALUE PUSH2 0x1F3 JUMPI PUSH1 0x0 CALLDATASIZE PUSH1 0x3 NOT ADD SLT PUSH2 0x1F3 JUMPI PUSH1 0x20 PUSH1 0x40 MLOAD PUSH7 0x38D7EA4C68000 DUP2 MSTORE RETURN JUMPDEST CALLVALUE PUSH2 0x1F3 JUMPI PUSH1 0x20 CALLDATASIZE PUSH1 0x3 NOT ADD SLT PUSH2 0x1F3 JUMPI PUSH2 0x3A9 PUSH2 0x2F13 JUMP JUMPDEST POP PUSH1 0x4 CALLDATALOAD PUSH1 0x0 MSTORE PUSH1 0x5 PUSH1 0x20 MSTORE PUSH2 0x499 PUSH1 0x40 PUSH1 0x0 KECCAK256 PUSH2 0x473 PUSH1 0xE PUSH1 0x40 MLOAD SWAP3 PUSH2 0x3CF DUP5 PUSH2 0x271C JUMP JUMPDEST DUP1 SLOAD DUP5 MSTORE PUSH1 0x1 DUP2 ADD SLOAD PUSH1 0x1 PUSH1 0x1 PUSH1 0xA0 SHL SUB SWAP1 DUP2 AND PUSH1 0x20 DUP7 ADD MSTORE PUSH1 0x2 DUP3 ADD SLOAD DUP2 AND PUSH1 0x40 DUP7 ADD MSTORE PUSH1 0x3 DUP3 ADD SLOAD AND PUSH1 0x60 DUP6 ADD MSTORE PUSH1 0x4 DUP2 ADD SLOAD PUSH1 0x80 DUP6 ADD MSTORE PUSH1 0x5 DUP2 ADD SLOAD PUSH2 0x41E SWAP1 PUSH1 0xFF AND PUSH1 0xA0 DUP7 ADD PUSH2 0x2777 JUMP JUMPDEST PUSH1 0x6 DUP2 ADD SLOAD PUSH1 0xC0 DUP6 ADD MSTORE PUSH1 0x7 DUP2 ADD SLOAD PUSH1 0xE0 DUP6 ADD MSTORE PUSH1 0x8 DUP2 ADD SLOAD PUSH2 0x100 DUP6 ADD MSTORE PUSH1 0x9 DUP2 ADD SLOAD PUSH2 0x120 DUP6 ADD MSTORE PUSH1 0xA DUP2 ADD SLOAD PUSH2 0x140 DUP6 ADD MSTORE PUSH1 0xB DUP2 ADD SLOAD PUSH2 0x160 DUP6 ADD MSTORE PUSH2 0x300 PUSH1 0xFF PUSH1 0xC DUP4 ADD SLOAD AND PUSH2 0x180 DUP7 ADD PUSH2 0x2783 JUMP JUMPDEST PUSH2 0x1C0 DUP3 ADD MSTORE PUSH2 0x485 DUP2 MLOAD ISZERO ISZERO PUSH2 0x28B7 JUMP JUMPDEST PUSH1 0x40 MLOAD SWAP2 DUP3 SWAP2 PUSH1 0x20 DUP4 MSTORE PUSH1 0x20 DUP4 ADD SWAP1 PUSH2 0x238B JUMP JUMPDEST SUB SWAP1 RETURN JUMPDEST CALLVALUE PUSH2 0x1F3 JUMPI PUSH1 0x0 CALLDATASIZE PUSH1 0x3 NOT ADD SLT PUSH2 0x1F3 JUMPI PUSH1 0x20 PUSH1 0x40 MLOAD PUSH13 0xC9F2C9CD04674EDEA40000000 DUP2 MSTORE RETURN JUMPDEST CALLVALUE PUSH2 0x1F3 JUMPI PUSH1 0x20 DUP1 PUSH1 0x3 NOT CALLDATASIZE ADD SLT PUSH2 0x1F3 JUMPI PUSH1 0x1 PUSH1 0x1 PUSH1 0xA0 SHL SUB PUSH2 0x4E7 PUSH2 0x2328 JUMP JUMPDEST AND PUSH1 0x0 MSTORE PUSH1 0x8 DUP2 MSTORE PUSH1 0x40 PUSH1 0x0 KECCAK256 SWAP1 PUSH1 0x40 MLOAD SWAP1 DUP2 DUP2 DUP5 SLOAD SWAP2 DUP3 DUP2 MSTORE ADD SWAP4 PUSH1 0x0 MSTORE DUP2 PUSH1 0x0 KECCAK256 SWAP2 PUSH1 0x0 SWAP1 JUMPDEST DUP3 DUP3 LT PUSH2 0x532 JUMPI PUSH2 0x499 DUP6 PUSH2 0x526 DUP2 DUP10 SUB DUP3 PUSH2 0x2755 JUMP JUMPDEST PUSH1 0x40 MLOAD SWAP2 DUP3 SWAP2 DUP3 PUSH2 0x24F0 JUMP JUMPDEST DUP4 SLOAD DUP7 MSTORE SWAP5 DUP6 ADD SWAP5 PUSH1 0x1 SWAP4 DUP5 ADD SWAP4 SWAP1 SWAP2 ADD SWAP1 PUSH2 0x50F JUMP JUMPDEST CALLVALUE PUSH2 0x1F3 JUMPI PUSH1 0x20 DUP1 PUSH1 0x3 NOT CALLDATASIZE ADD SLT PUSH2 0x1F3 JUMPI PUSH1 0x1 PUSH1 0x1 PUSH1 0xA0 SHL SUB PUSH2 0x56B PUSH2 0x2328 JUMP JUMPDEST AND PUSH1 0x0 MSTORE PUSH1 0x7 DUP2 MSTORE PUSH1 0x40 PUSH1 0x0 KECCAK256 SWAP1 PUSH1 0x40 MLOAD SWAP1 DUP2 DUP2 DUP5 SLOAD SWAP2 DUP3 DUP2 MSTORE ADD SWAP4 PUSH1 0x0 MSTORE DUP2 PUSH1 0x0 KECCAK256 SWAP2 PUSH1 0x0 SWAP1 JUMPDEST DUP3 DUP3 LT PUSH2 0x5AA JUMPI PUSH2 0x499 DUP6 PUSH2 0x526 DUP2 DUP10 SUB DUP3 PUSH2 0x2755 JUMP JUMPDEST DUP4 SLOAD DUP7 MSTORE SWAP5 DUP6 ADD SWAP5 PUSH1 0x1 SWAP4 DUP5 ADD SWAP4 SWAP1 SWAP2 ADD SWAP1 PUSH2 0x593 JUMP JUMPDEST CALLVALUE PUSH2 0x1F3 JUMPI PUSH1 0x60 DUP1 PUSH1 0x3 NOT CALLDATASIZE ADD SLT PUSH2 0x1F3 JUMPI PUSH2 0x5E4 PUSH1 0x44 CALLDATALOAD PUSH1 0x24 CALLDATALOAD PUSH1 0x4 CALLDATALOAD PUSH2 0x3053 JUMP JUMPDEST SWAP1 PUSH1 0x40 MLOAD SWAP2 PUSH1 0x40 DUP4 ADD SWAP2 PUSH1 0x40 DUP5 MSTORE DUP1 MLOAD DUP1 SWAP4 MSTORE DUP5 DUP5 ADD SWAP3 PUSH1 0x20 DUP1 SWAP3 ADD SWAP1 PUSH1 0x0 JUMPDEST DUP2 DUP2 LT PUSH2 0x618 JUMPI POP POP POP DUP4 DUP1 SWAP6 POP ADD MSTORE SUB SWAP1 RETURN JUMPDEST DUP3 MLOAD DUP1 MLOAD DUP8 MSTORE DUP1 DUP6 ADD MLOAD DUP6 DUP9 ADD MSTORE PUSH1 0x40 DUP1 DUP3 ADD MLOAD SWAP1 DUP9 ADD MSTORE DUP9 DUP2 ADD MLOAD DUP10 DUP9 ADD MSTORE PUSH1 0x80 SWAP1 DUP2 ADD MLOAD ISZERO ISZERO SWAP1 DUP8 ADD MSTORE PUSH1 0xA0 SWAP1 SWAP6 ADD SWAP5 SWAP2 DUP4 ADD SWAP2 PUSH1 0x1 ADD PUSH2 0x604 JUMP JUMPDEST CALLVALUE PUSH2 0x1F3 JUMPI PUSH1 0x0 CALLDATASIZE PUSH1 0x3 NOT ADD SLT PUSH2 0x1F3 JUMPI PUSH1 0x2 SLOAD PUSH1 0x40 MLOAD PUSH1 0x1 PUSH1 0x1 PUSH1 0xA0 SHL SUB SWAP1 SWAP2 AND DUP2 MSTORE PUSH1 0x20 SWAP1 RETURN JUMPDEST PUSH2 0x100 CALLDATASIZE PUSH1 0x3 NOT ADD SLT PUSH2 0x1F3 JUMPI PUSH2 0x694 PUSH2 0x2328 JUMP JUMPDEST PUSH1 0x24 CALLDATALOAD SWAP1 PUSH1 0x1 PUSH1 0x1 PUSH1 0xA0 SHL SUB DUP3 AND DUP3 SUB PUSH2 0x1F3 JUMPI PUSH1 0x4 PUSH1 0x64 CALLDATALOAD LT ISZERO PUSH2 0x1F3 JUMPI PUSH1 0xC4 CALLDATALOAD PUSH8 0xFFFFFFFFFFFFFFFF DUP2 GT PUSH2 0x1F3 JUMPI PUSH2 0x6D3 SWAP1 CALLDATASIZE SWAP1 PUSH1 0x4 ADD PUSH2 0x24C2 JUMP JUMPDEST SWAP3 PUSH1 0xE4 CALLDATALOAD PUSH8 0xFFFFFFFFFFFFFFFF DUP2 GT PUSH2 0x1F3 JUMPI PUSH2 0x6F4 SWAP1 CALLDATASIZE SWAP1 PUSH1 0x4 ADD PUSH2 0x24C2 JUMP JUMPDEST SWAP3 SWAP1 SWAP2 PUSH2 0x6FF PUSH2 0x2894 JUMP JUMPDEST PUSH2 0x713 PUSH1 0x1 PUSH1 0x1 PUSH1 0xA0 SHL SUB DUP7 AND ISZERO ISZERO PUSH2 0x2557 JUMP JUMPDEST PUSH1 0x1 PUSH1 0x1 PUSH1 0xA0 SHL SUB DUP6 AND CALLER EQ PUSH2 0xD68 JUMPI PUSH1 0x44 CALLDATALOAD SWAP5 PUSH2 0x73A PUSH7 0x38D7EA4C68000 DUP8 LT ISZERO PUSH2 0x25B2 JUMP JUMPDEST PUSH2 0x753 PUSH13 0xC9F2C9CD04674EDEA40000000 DUP8 GT ISZERO PUSH2 0x260C JUMP JUMPDEST PUSH1 0x78 DUP8 GT PUSH2 0xD17 JUMPI PUSH2 0x400 DUP6 GT PUSH2 0xCC0 JUMPI PUSH2 0x797 PUSH2 0x775 PUSH1 0x84 CALLDATALOAD PUSH1 0x64 CALLDATALOAD PUSH2 0x3267 JUMP JUMPDEST SWAP7 PUSH2 0x781 DUP9 ISZERO ISZERO PUSH2 0x2666 JUMP JUMPDEST PUSH2 0x2710 PUSH2 0x790 PUSH1 0x9 SLOAD DUP4 PUSH2 0x26C0 JUMP JUMPDEST DIV SWAP1 PUSH2 0x26F3 JUMP JUMPDEST SWAP7 PUSH2 0x7A3 PUSH1 0x3 SLOAD PUSH2 0x2700 JUMP JUMPDEST PUSH1 0x3 DUP2 SWAP1 SSTORE SWAP7 PUSH1 0xA4 CALLDATALOAD DUP1 ISZERO PUSH2 0xCAF JUMPI SWAP1 JUMPDEST PUSH1 0x40 MLOAD SWAP1 PUSH2 0x7C1 DUP3 PUSH2 0x271C JUMP JUMPDEST DUP10 DUP3 MSTORE CALLER PUSH1 0x20 DUP4 ADD MSTORE PUSH1 0x1 PUSH1 0x1 PUSH1 0xA0 SHL SUB DUP6 DUP2 AND PUSH1 0x40 DUP5 ADD MSTORE DUP7 AND PUSH1 0x60 DUP4 ADD MSTORE PUSH1 0x80 DUP3 ADD DUP12 SWAP1 MSTORE PUSH2 0x7F7 PUSH1 0x64 CALLDATALOAD PUSH1 0xA0 DUP5 ADD PUSH2 0x2777 JUMP JUMPDEST PUSH1 0xC0 DUP3 ADD MSTORE DUP2 PUSH1 0xE0 DUP3 ADD MSTORE PUSH1 0x0 PUSH2 0x100 DUP3 ADD MSTORE PUSH1 0x0 PUSH2 0x120 DUP3 ADD MSTORE PUSH1 0x0 PUSH2 0x140 DUP3 ADD MSTORE PUSH1 0x0 PUSH2 0x160 DUP3 ADD MSTORE PUSH1 0x0 PUSH2 0x180 DUP3 ADD MSTORE PUSH2 0x835 CALLDATASIZE DUP5 DUP9 PUSH2 0x27AB JUMP JUMPDEST PUSH2 0x1A0 DUP3 ADD MSTORE PUSH2 0x846 CALLDATASIZE DUP10 DUP10 PUSH2 0x27AB JUMP JUMPDEST PUSH2 0x1C0 DUP3 ADD MSTORE DUP9 PUSH1 0x0 MSTORE PUSH1 0x5 PUSH1 0x20 MSTORE PUSH1 0x40 PUSH1 0x0 KECCAK256 SWAP1 DUP1 MLOAD DUP3 SSTORE PUSH1 0x1 DUP3 ADD PUSH1 0x1 DUP1 PUSH1 0xA0 SHL SUB PUSH1 0x20 DUP4 ADD MLOAD AND SWAP1 PUSH1 0x1 PUSH1 0x1 PUSH1 0x60 SHL SUB PUSH1 0xA0 SHL SWAP2 DUP3 DUP3 SLOAD AND OR SWAP1 SSTORE PUSH1 0x2 DUP4 ADD PUSH1 0x1 DUP1 PUSH1 0xA0 SHL SUB PUSH1 0x40 DUP5 ADD MLOAD AND DUP3 DUP3 SLOAD AND OR SWAP1 SSTORE PUSH1 0x3 DUP4 ADD SWAP1 PUSH1 0x1 DUP1 PUSH1 0xA0 SHL SUB PUSH1 0x60 DUP5 ADD MLOAD AND SWAP1 DUP3 SLOAD AND OR SWAP1 SSTORE PUSH1 0x80 DUP2 ADD MLOAD PUSH1 0x4 DUP4 ADD SSTORE PUSH1 0xA0 DUP2 ADD MLOAD PUSH1 0x4 DUP2 LT ISZERO PUSH2 0x358 JUMPI PUSH2 0x8DA SWAP1 PUSH1 0x5 DUP5 ADD PUSH2 0x27E2 JUMP JUMPDEST PUSH1 0xC0 DUP2 ADD MLOAD PUSH1 0x6 DUP4 ADD SSTORE PUSH1 0xE0 DUP2 ADD MLOAD PUSH1 0x7 DUP4 ADD SSTORE PUSH2 0x100 DUP2 ADD MLOAD PUSH1 0x8 DUP4 ADD SSTORE PUSH2 0x120 DUP2 ADD MLOAD PUSH1 0x9 DUP4 ADD SSTORE PUSH2 0x140 DUP2 ADD MLOAD PUSH1 0xA DUP4 ADD SSTORE PUSH2 0x160 DUP2 ADD MLOAD PUSH1 0xB DUP4 ADD SSTORE PUSH1 0xC DUP3 ADD PUSH2 0x180 DUP3 ADD MLOAD PUSH1 0x3 DUP2 LT ISZERO PUSH2 0x358 JUMPI PUSH1 0xFF DUP1 NOT DUP4 SLOAD AND SWAP2 AND OR SWAP1 SSTORE PUSH2 0x1A0 DUP2 ADD MLOAD DUP1 MLOAD SWAP1 PUSH8 0xFFFFFFFFFFFFFFFF DUP3 GT PUSH2 0xBD3 JUMPI PUSH2 0x95E PUSH1 0xD DUP6 ADD SLOAD PUSH2 0x27FA JUMP JUMPDEST PUSH1 0x1F DUP2 GT PUSH2 0xC68 JUMPI JUMPDEST POP PUSH1 0x20 SWAP1 PUSH1 0x1F DUP4 GT PUSH1 0x1 EQ PUSH2 0xBF4 JUMPI PUSH2 0x1C0 SWAP4 SWAP3 SWAP2 PUSH1 0x0 SWAP2 DUP4 PUSH2 0xBE9 JUMPI JUMPDEST POP POP DUP2 PUSH1 0x1 SHL SWAP2 PUSH1 0x0 NOT SWAP1 PUSH1 0x3 SHL SHR NOT AND OR PUSH1 0xD DUP5 ADD SSTORE JUMPDEST ADD MLOAD DUP1 MLOAD SWAP1 PUSH8 0xFFFFFFFFFFFFFFFF DUP3 GT PUSH2 0xBD3 JUMPI PUSH2 0x9BE PUSH1 0xE DUP5 ADD SLOAD PUSH2 0x27FA JUMP JUMPDEST PUSH1 0x1F DUP2 GT PUSH2 0xB8C JUMPI JUMPDEST POP SWAP2 PUSH1 0x20 SWAP12 SWAP6 SWAP4 SWAP2 DUP12 SWAP8 SWAP6 SWAP4 DUP14 SWAP1 PUSH1 0x1F DUP4 GT PUSH1 0x1 EQ PUSH2 0xAD4 JUMPI SWAP3 PUSH1 0xE DUP4 PUSH2 0xAB9 SWAP9 SWAP8 SWAP5 PUSH2 0xA9E SWAP8 SWAP5 PUSH32 0x41ABC4B24EF1F8FB8E7B654E9D9B95830C12E5690FD93B80F9A6E3B4091DAD4E SWAP14 SWAP15 SWAP8 PUSH1 0x0 SWAP3 PUSH2 0xAC9 JUMPI JUMPDEST POP POP DUP2 PUSH1 0x1 SHL SWAP2 PUSH1 0x0 NOT SWAP1 PUSH1 0x3 SHL SHR NOT AND OR SWAP2 ADD SSTORE JUMPDEST CALLER PUSH1 0x0 MSTORE PUSH1 0x7 DUP15 MSTORE PUSH2 0xA47 DUP11 PUSH1 0x40 PUSH1 0x0 KECCAK256 PUSH2 0x2834 JUMP JUMPDEST PUSH1 0x1 DUP1 PUSH1 0xA0 SHL SUB DUP6 AND PUSH1 0x0 MSTORE PUSH1 0x8 DUP15 MSTORE PUSH2 0xA65 DUP11 PUSH1 0x40 PUSH1 0x0 KECCAK256 PUSH2 0x2834 JUMP JUMPDEST PUSH1 0x40 MLOAD SWAP8 DUP9 SWAP8 PUSH1 0x1 DUP1 PUSH1 0xA0 SHL SUB AND DUP9 MSTORE DUP15 DUP9 ADD MSTORE PUSH2 0xA88 PUSH1 0x40 DUP9 ADD PUSH1 0x64 CALLDATALOAD PUSH2 0x233E JUMP JUMPDEST PUSH1 0x60 DUP8 ADD MSTORE PUSH1 0xC0 PUSH1 0x80 DUP8 ADD MSTORE PUSH1 0xC0 DUP7 ADD SWAP2 PUSH2 0x2873 JUMP JUMPDEST DUP4 DUP2 SUB PUSH1 0xA0 DUP6 ADD MSTORE PUSH1 0x1 PUSH1 0x1 PUSH1 0xA0 SHL SUB SWAP1 SWAP2 AND SWAP8 CALLER SWAP8 PUSH2 0x2873 JUMP JUMPDEST SUB SWAP1 LOG4 PUSH1 0x1 PUSH1 0x0 SSTORE PUSH1 0x40 MLOAD SWAP1 DUP2 MSTORE RETURN JUMPDEST ADD MLOAD SWAP1 POP CODESIZE DUP1 PUSH2 0xA1B JUMP JUMPDEST SWAP10 SWAP5 SWAP4 SWAP3 SWAP2 SWAP1 PUSH1 0xE DUP4 ADD PUSH1 0x0 MSTORE DUP15 PUSH1 0x0 KECCAK256 SWAP11 PUSH1 0x0 JUMPDEST PUSH1 0x1F NOT DUP5 AND DUP2 LT PUSH2 0xB5D JUMPI POP PUSH1 0x1 DUP4 PUSH32 0x41ABC4B24EF1F8FB8E7B654E9D9B95830C12E5690FD93B80F9A6E3B4091DAD4E SWAP13 SWAP14 PUSH2 0xA9E SWAP9 SWAP7 SWAP5 PUSH1 0xE SWAP5 PUSH2 0xAB9 SWAP13 SWAP12 SWAP10 SWAP8 PUSH1 0x1F NOT DUP2 AND LT PUSH2 0xB44 JUMPI JUMPDEST POP POP POP DUP2 SHL ADD SWAP2 ADD SSTORE PUSH2 0xA31 JUMP JUMPDEST ADD MLOAD PUSH1 0x0 NOT PUSH1 0xF8 DUP5 PUSH1 0x3 SHL AND SHR NOT AND SWAP1 SSTORE CODESIZE DUP1 DUP1 PUSH2 0xB36 JUMP JUMPDEST SWAP3 SWAP5 SWAP7 SWAP9 SWAP11 POP SWAP1 SWAP3 SWAP5 SWAP7 SWAP9 SWAP11 DUP16 PUSH1 0x1 DUP2 SWAP3 DUP7 DUP6 ADD MLOAD DUP2 SSTORE ADD SWAP5 ADD SWAP3 ADD SWAP1 DUP15 SWAP11 SWAP9 SWAP7 SWAP5 SWAP3 SWAP2 SWAP12 SWAP10 SWAP8 SWAP6 SWAP4 SWAP12 PUSH2 0xAE9 JUMP JUMPDEST PUSH1 0xE DUP5 ADD PUSH1 0x0 MSTORE PUSH1 0x20 PUSH1 0x0 KECCAK256 PUSH1 0x1F DUP5 ADD PUSH1 0x5 SHR DUP2 ADD PUSH1 0x20 DUP6 LT PUSH2 0xBCC JUMPI JUMPDEST PUSH1 0x1F DUP4 ADD PUSH1 0x5 SHR DUP3 ADD DUP2 LT PUSH2 0xBC0 JUMPI POP POP PUSH2 0x9C7 JUMP JUMPDEST PUSH1 0x0 DUP2 SSTORE PUSH1 0x1 ADD PUSH2 0xBAA JUMP JUMPDEST POP DUP1 PUSH2 0xBAA JUMP JUMPDEST PUSH4 0x4E487B71 PUSH1 0xE0 SHL PUSH1 0x0 MSTORE PUSH1 0x41 PUSH1 0x4 MSTORE PUSH1 0x24 PUSH1 0x0 REVERT JUMPDEST ADD MLOAD SWAP1 POP DUP15 DUP1 PUSH2 0x985 JUMP JUMPDEST SWAP1 PUSH1 0xD DUP6 ADD PUSH1 0x0 MSTORE PUSH1 0x20 PUSH1 0x0 KECCAK256 SWAP2 PUSH1 0x0 JUMPDEST PUSH1 0x1F NOT DUP6 AND DUP2 LT PUSH2 0xC50 JUMPI POP SWAP2 DUP4 SWAP2 PUSH1 0x1 SWAP4 PUSH2 0x1C0 SWAP7 SWAP6 PUSH1 0x1F NOT DUP2 AND LT PUSH2 0xC37 JUMPI JUMPDEST POP POP POP DUP2 SHL ADD PUSH1 0xD DUP5 ADD SSTORE PUSH2 0x99D JUMP JUMPDEST ADD MLOAD PUSH1 0x0 NOT PUSH1 0xF8 DUP5 PUSH1 0x3 SHL AND SHR NOT AND SWAP1 SSTORE DUP15 DUP1 DUP1 PUSH2 0xC27 JUMP JUMPDEST SWAP2 SWAP3 PUSH1 0x20 PUSH1 0x1 DUP2 SWAP3 DUP7 DUP6 ADD MLOAD DUP2 SSTORE ADD SWAP5 ADD SWAP3 ADD PUSH2 0xC05 JUMP JUMPDEST PUSH1 0xD DUP6 ADD PUSH1 0x0 MSTORE PUSH1 0x20 PUSH1 0x0 KECCAK256 PUSH1 0x1F DUP5 ADD PUSH1 0x5 SHR DUP2 ADD PUSH1 0x20 DUP6 LT PUSH2 0xCA8 JUMPI JUMPDEST PUSH1 0x1F DUP4 ADD PUSH1 0x5 SHR DUP3 ADD DUP2 LT PUSH2 0xC9C JUMPI POP POP PUSH2 0x967 JUMP JUMPDEST PUSH1 0x0 DUP2 SSTORE PUSH1 0x1 ADD PUSH2 0xC86 JUMP JUMPDEST POP DUP1 PUSH2 0xC86 JUMP JUMPDEST POP PUSH2 0xCBA DUP2 TIMESTAMP PUSH2 0x270F JUMP JUMPDEST SWAP1 PUSH2 0x7B4 JUMP JUMPDEST PUSH1 0x40 MLOAD PUSH3 0x461BCD PUSH1 0xE5 SHL DUP2 MSTORE PUSH1 0x20 PUSH1 0x4 DUP3 ADD MSTORE PUSH1 0x29 PUSH1 0x24 DUP3 ADD MSTORE PUSH32 0x537562736372697074696F6E4D616E616765723A204465736372697074696F6E PUSH1 0x44 DUP3 ADD MSTORE PUSH9 0x20746F6F206C6F6E67 PUSH1 0xB8 SHL PUSH1 0x64 DUP3 ADD MSTORE PUSH1 0x84 SWAP1 REVERT JUMPDEST PUSH1 0x40 MLOAD PUSH3 0x461BCD PUSH1 0xE5 SHL DUP2 MSTORE PUSH1 0x20 PUSH1 0x4 DUP3 ADD MSTORE PUSH1 0x23 PUSH1 0x24 DUP3 ADD MSTORE PUSH32 0x537562736372697074696F6E4D616E616765723A205469746C6520746F6F206C PUSH1 0x44 DUP3 ADD MSTORE PUSH3 0x6F6E67 PUSH1 0xE8 SHL PUSH1 0x64 DUP3 ADD MSTORE PUSH1 0x84 SWAP1 REVERT JUMPDEST PUSH1 0x40 MLOAD PUSH3 0x461BCD PUSH1 0xE5 SHL DUP2 MSTORE PUSH1 0x20 PUSH1 0x4 DUP3 ADD MSTORE PUSH1 0x2D PUSH1 0x24 DUP3 ADD MSTORE PUSH32 0x537562736372697074696F6E4D616E616765723A2043616E6E6F742073756273 PUSH1 0x44 DUP3 ADD MSTORE PUSH13 0x31B934B132903A379039B2B633 PUSH1 0x99 SHL PUSH1 0x64 DUP3 ADD MSTORE PUSH1 0x84 SWAP1 REVERT JUMPDEST CALLVALUE PUSH2 0x1F3 JUMPI PUSH1 0x80 CALLDATASIZE PUSH1 0x3 NOT ADD SLT PUSH2 0x1F3 JUMPI PUSH1 0x4 CALLDATALOAD PUSH1 0x24 CALLDATALOAD PUSH1 0x44 CALLDATALOAD SWAP1 PUSH1 0x4 DUP3 LT ISZERO PUSH2 0x1F3 JUMPI DUP3 PUSH1 0x0 MSTORE PUSH1 0x5 PUSH1 0x20 MSTORE PUSH1 0x40 PUSH1 0x0 KECCAK256 SWAP1 PUSH2 0xE02 DUP3 SLOAD ISZERO ISZERO PUSH2 0x28B7 JUMP JUMPDEST PUSH1 0xFF PUSH1 0xC DUP4 ADD SLOAD AND PUSH1 0x3 DUP2 LT ISZERO PUSH2 0x358 JUMPI DUP1 ISZERO SWAP1 DUP2 ISZERO PUSH2 0xF3F JUMPI JUMPDEST POP ISZERO PUSH2 0xEEF JUMPI PUSH1 0x6 PUSH2 0xED9 PUSH32 0x477DB6E20F923C0D3D35A24ED877BD4C4F9F8A7237557A4BC7E8DD3CA8D0E04F SWAP5 PUSH1 0x60 SWAP5 PUSH2 0xE6E PUSH1 0x1 DUP1 PUSH1 0xA0 SHL SUB DUP1 PUSH1 0x1 DUP5 ADD SLOAD AND CALLER EQ SWAP1 DUP2 ISZERO PUSH2 0xEE1 JUMPI JUMPDEST POP PUSH2 0x2E66 JUMP JUMPDEST PUSH2 0xE81 PUSH7 0x38D7EA4C68000 DUP7 LT ISZERO PUSH2 0x25B2 JUMP JUMPDEST PUSH2 0xE9A PUSH13 0xC9F2C9CD04674EDEA40000000 DUP7 GT ISZERO PUSH2 0x260C JUMP JUMPDEST PUSH2 0xEA6 PUSH1 0x64 CALLDATALOAD DUP4 PUSH2 0x3267 JUMP JUMPDEST SWAP4 DUP5 SWAP2 PUSH2 0xEB4 DUP4 ISZERO ISZERO PUSH2 0x2666 JUMP JUMPDEST DUP7 PUSH1 0x4 DUP3 ADD SSTORE PUSH2 0xEC7 DUP5 PUSH1 0x5 DUP4 ADD PUSH2 0x27E2 JUMP JUMPDEST ADD SSTORE PUSH1 0x40 MLOAD SWAP4 DUP5 MSTORE PUSH1 0x20 DUP5 ADD SWAP1 PUSH2 0x233E JUMP JUMPDEST PUSH1 0x40 DUP3 ADD MSTORE LOG2 STOP JUMPDEST SWAP1 POP PUSH1 0x1 SLOAD AND CALLER EQ DUP11 PUSH2 0xE68 JUMP JUMPDEST PUSH1 0x40 MLOAD PUSH3 0x461BCD PUSH1 0xE5 SHL DUP2 MSTORE PUSH1 0x20 PUSH1 0x4 DUP3 ADD MSTORE PUSH1 0x34 PUSH1 0x24 DUP3 ADD MSTORE PUSH1 0x0 DUP1 MLOAD PUSH1 0x20 PUSH2 0x3595 DUP4 CODECOPY DUP2 MLOAD SWAP2 MSTORE PUSH1 0x44 DUP3 ADD MSTORE PUSH20 0x1B8818D85B9B9BDD081899481B5BD91A599A5959 PUSH1 0x62 SHL PUSH1 0x64 DUP3 ADD MSTORE PUSH1 0x84 SWAP1 REVERT JUMPDEST PUSH1 0x1 SWAP2 POP EQ DUP6 PUSH2 0xE1D JUMP JUMPDEST CALLVALUE PUSH2 0x1F3 JUMPI PUSH1 0x0 CALLDATASIZE PUSH1 0x3 NOT ADD SLT PUSH2 0x1F3 JUMPI PUSH1 0x1 SLOAD PUSH1 0x40 MLOAD PUSH1 0x1 PUSH1 0x1 PUSH1 0xA0 SHL SUB SWAP1 SWAP2 AND DUP2 MSTORE PUSH1 0x20 SWAP1 RETURN JUMPDEST CALLVALUE PUSH2 0x1F3 JUMPI PUSH1 0x0 CALLDATASIZE PUSH1 0x3 NOT ADD SLT PUSH2 0x1F3 JUMPI PUSH1 0x20 PUSH1 0x40 MLOAD PUSH2 0x400 DUP2 MSTORE RETURN JUMPDEST CALLVALUE PUSH2 0x1F3 JUMPI PUSH1 0x20 DUP1 PUSH1 0x3 NOT CALLDATASIZE ADD SLT PUSH2 0x1F3 JUMPI PUSH1 0x1 PUSH1 0x1 PUSH1 0xA0 SHL SUB DUP1 PUSH2 0xFB3 PUSH2 0x2328 JUMP JUMPDEST AND SWAP2 DUP3 PUSH1 0x0 MSTORE PUSH1 0x7 SWAP2 DUP3 DUP3 MSTORE PUSH1 0x40 PUSH1 0x0 KECCAK256 SWAP4 PUSH1 0x40 MLOAD DUP1 DUP7 DUP6 DUP3 SWAP9 SLOAD SWAP4 DUP5 DUP2 MSTORE ADD SWAP1 PUSH1 0x0 MSTORE DUP6 PUSH1 0x0 KECCAK256 SWAP3 PUSH1 0x0 JUMPDEST DUP8 DUP3 DUP3 LT PUSH2 0x12A4 JUMPI POP POP POP PUSH2 0xFF6 SWAP3 POP SUB DUP7 PUSH2 0x2755 JUMP JUMPDEST PUSH1 0x0 MSTORE PUSH1 0x8 DUP1 DUP4 MSTORE PUSH1 0x40 PUSH1 0x0 KECCAK256 SWAP1 PUSH1 0x40 MLOAD DUP1 DUP4 DUP7 DUP3 SWAP6 SLOAD SWAP4 DUP5 DUP2 MSTORE ADD SWAP1 PUSH1 0x0 MSTORE DUP7 PUSH1 0x0 KECCAK256 SWAP3 PUSH1 0x0 JUMPDEST DUP9 DUP3 DUP3 LT PUSH2 0x128E JUMPI POP POP POP PUSH2 0x1035 SWAP3 POP SUB DUP4 PUSH2 0x2755 JUMP JUMPDEST PUSH2 0x1042 DUP7 MLOAD DUP4 MLOAD SWAP1 PUSH2 0x270F JUMP JUMPDEST SWAP4 PUSH2 0x104C DUP6 PUSH2 0x3027 JUMP JUMPDEST SWAP5 PUSH2 0x105A PUSH1 0x40 MLOAD SWAP7 DUP8 PUSH2 0x2755 JUMP JUMPDEST DUP1 DUP7 MSTORE PUSH2 0x1069 PUSH1 0x1F NOT SWAP2 PUSH2 0x3027 JUMP JUMPDEST ADD CALLDATASIZE DUP3 DUP8 ADD CALLDATACOPY PUSH1 0x0 SWAP4 PUSH1 0x0 JUMPDEST DUP9 MLOAD DUP2 LT ISZERO PUSH2 0x10F9 JUMPI PUSH1 0x0 DUP1 JUMPDEST DUP8 DUP2 LT PUSH2 0x10C3 JUMPI JUMPDEST POP SWAP1 PUSH2 0x109A SWAP2 ISZERO PUSH2 0x109F JUMPI PUSH2 0x2700 JUMP JUMPDEST PUSH2 0x1075 JUMP JUMPDEST PUSH2 0x10A9 DUP2 DUP12 PUSH2 0x303F JUMP JUMPDEST MLOAD PUSH2 0x10BD PUSH2 0x10B6 DUP10 PUSH2 0x2700 JUMP JUMPDEST SWAP9 DUP11 PUSH2 0x303F JUMP JUMPDEST MSTORE PUSH2 0x2700 JUMP JUMPDEST PUSH2 0x10CD DUP2 DUP11 PUSH2 0x303F JUMP JUMPDEST MLOAD PUSH2 0x10D8 DUP5 DUP14 PUSH2 0x303F JUMP JUMPDEST MLOAD EQ PUSH2 0x10EC JUMPI PUSH2 0x10E7 SWAP1 PUSH2 0x2700 JUMP JUMPDEST PUSH2 0x1082 JUMP JUMPDEST POP PUSH1 0x1 SWAP1 POP PUSH2 0x109A PUSH2 0x108A JUMP JUMPDEST POP DUP6 SWAP2 DUP6 SWAP2 DUP9 PUSH1 0x0 JUMPDEST DUP8 MLOAD DUP2 LT ISZERO PUSH2 0x1180 JUMPI PUSH1 0x0 DUP1 JUMPDEST DUP7 DUP2 LT PUSH2 0x114A JUMPI JUMPDEST POP SWAP1 PUSH2 0x1127 SWAP2 ISZERO PUSH2 0x112C JUMPI PUSH2 0x2700 JUMP JUMPDEST PUSH2 0x1102 JUMP JUMPDEST PUSH2 0x1136 DUP2 DUP11 PUSH2 0x303F JUMP JUMPDEST MLOAD PUSH2 0x10BD PUSH2 0x1143 DUP9 PUSH2 0x2700 JUMP JUMPDEST SWAP8 DUP10 PUSH2 0x303F JUMP JUMPDEST PUSH2 0x1154 DUP2 DUP10 PUSH2 0x303F JUMP JUMPDEST MLOAD PUSH2 0x115F DUP5 DUP13 PUSH2 0x303F JUMP JUMPDEST MLOAD EQ PUSH2 0x1173 JUMPI PUSH2 0x116E SWAP1 PUSH2 0x2700 JUMP JUMPDEST PUSH2 0x110F JUMP JUMPDEST POP PUSH1 0x1 SWAP1 POP PUSH2 0x1127 PUSH2 0x1117 JUMP JUMPDEST POP DUP6 PUSH2 0x118B DUP6 PUSH2 0x3217 JUMP JUMPDEST SWAP6 PUSH1 0x0 JUMPDEST DUP7 DUP2 LT PUSH2 0x11A4 JUMPI PUSH1 0x40 MLOAD DUP1 PUSH2 0x499 DUP11 DUP3 PUSH2 0x2460 JUMP JUMPDEST DUP1 PUSH2 0x11B2 PUSH2 0x1289 SWAP3 DUP5 PUSH2 0x303F JUMP JUMPDEST MLOAD PUSH1 0x0 MSTORE PUSH1 0x5 DUP1 DUP9 MSTORE PUSH2 0x1268 PUSH1 0xE PUSH1 0x40 PUSH1 0x0 KECCAK256 PUSH2 0x300 PUSH1 0x40 MLOAD SWAP5 PUSH2 0x11D5 DUP7 PUSH2 0x271C JUMP JUMPDEST DUP3 SLOAD DUP7 MSTORE DUP12 PUSH1 0x1 DUP5 ADD SLOAD AND DUP14 DUP8 ADD MSTORE DUP12 PUSH1 0x2 DUP5 ADD SLOAD AND PUSH1 0x40 DUP8 ADD MSTORE DUP12 PUSH1 0x3 DUP5 ADD SLOAD AND PUSH1 0x60 DUP8 ADD MSTORE PUSH1 0x4 DUP4 ADD SLOAD PUSH1 0x80 DUP8 ADD MSTORE PUSH2 0x121A PUSH1 0xFF DUP1 SWAP3 DUP6 ADD SLOAD AND PUSH1 0xA0 DUP9 ADD PUSH2 0x2777 JUMP JUMPDEST PUSH1 0x6 DUP4 ADD SLOAD PUSH1 0xC0 DUP8 ADD MSTORE DUP11 DUP4 ADD SLOAD PUSH1 0xE0 DUP8 ADD MSTORE DUP10 DUP4 ADD SLOAD PUSH2 0x100 DUP8 ADD MSTORE PUSH1 0x9 DUP4 ADD SLOAD PUSH2 0x120 DUP8 ADD MSTORE PUSH1 0xA DUP4 ADD SLOAD PUSH2 0x140 DUP8 ADD MSTORE PUSH1 0xB DUP4 ADD SLOAD PUSH2 0x160 DUP8 ADD MSTORE PUSH1 0xC DUP4 ADD SLOAD AND PUSH2 0x180 DUP7 ADD PUSH2 0x2783 JUMP JUMPDEST PUSH2 0x1C0 DUP3 ADD MSTORE PUSH2 0x1278 DUP3 DUP12 PUSH2 0x303F JUMP JUMPDEST MSTORE PUSH2 0x1283 DUP2 DUP11 PUSH2 0x303F JUMP JUMPDEST POP PUSH2 0x2700 JUMP JUMPDEST PUSH2 0x118F JUMP JUMPDEST DUP6 SLOAD DUP5 MSTORE PUSH1 0x1 SWAP6 DUP7 ADD SWAP6 DUP9 SWAP6 POP SWAP4 ADD SWAP3 ADD PUSH2 0x101E JUMP JUMPDEST DUP6 SLOAD DUP5 MSTORE PUSH1 0x1 SWAP6 DUP7 ADD SWAP6 DUP12 SWAP6 POP SWAP4 ADD SWAP3 ADD PUSH2 0xFDF JUMP JUMPDEST CALLVALUE PUSH2 0x1F3 JUMPI PUSH1 0x20 CALLDATASIZE PUSH1 0x3 NOT ADD SLT PUSH2 0x1F3 JUMPI PUSH1 0x4 CALLDATALOAD PUSH8 0xFFFFFFFFFFFFFFFF DUP1 DUP3 GT PUSH2 0x1F3 JUMPI CALLDATASIZE PUSH1 0x23 DUP4 ADD SLT ISZERO PUSH2 0x1F3 JUMPI DUP2 PUSH1 0x4 ADD CALLDATALOAD GT PUSH2 0x1F3 JUMPI CALLDATASIZE PUSH1 0x24 DUP3 PUSH1 0x4 ADD CALLDATALOAD PUSH1 0x5 SHL DUP4 ADD ADD GT PUSH2 0x1F3 JUMPI PUSH1 0x0 SWAP1 PUSH1 0x0 JUMPDEST DUP2 PUSH1 0x4 ADD CALLDATALOAD DUP2 LT PUSH2 0x1322 JUMPI PUSH1 0x20 DUP4 PUSH1 0x40 MLOAD SWAP1 DUP2 MSTORE RETURN JUMPDEST PUSH2 0x1334 DUP2 DUP4 PUSH1 0x4 ADD CALLDATALOAD PUSH1 0x24 DUP6 ADD PUSH2 0x2E56 JUMP JUMPDEST CALLDATALOAD PUSH1 0x0 MSTORE PUSH1 0x5 PUSH1 0x20 MSTORE PUSH1 0x40 PUSH1 0x0 KECCAK256 DUP1 SLOAD ISZERO DUP1 ISZERO PUSH2 0x1678 JUMPI JUMPDEST PUSH2 0x166E JUMPI PUSH1 0x7 DUP2 ADD SLOAD DUP1 TIMESTAMP LT PUSH2 0x1663 JUMPI PUSH1 0x6 DUP3 ADD SLOAD PUSH1 0x1 SWAP2 PUSH2 0x136E DUP3 DUP3 PUSH2 0x270F JUMP JUMPDEST TIMESTAMP LT ISZERO PUSH2 0x1629 JUMPI JUMPDEST POP POP SWAP1 PUSH1 0x4 DUP2 ADD SLOAD SWAP2 PUSH2 0x13AC DUP2 PUSH2 0x13A6 DUP2 PUSH2 0x13A1 PUSH2 0x2710 PUSH2 0x1399 PUSH1 0x9 SLOAD DUP11 PUSH2 0x26C0 JUMP JUMPDEST DIV DUP1 SWAP9 PUSH2 0x26F3 JUMP JUMPDEST PUSH2 0x26C0 JUMP JUMPDEST SWAP5 PUSH2 0x26C0 JUMP JUMPDEST SWAP1 PUSH2 0x13B7 DUP3 DUP6 PUSH2 0x270F JUMP JUMPDEST SWAP2 DUP3 PUSH1 0xB DUP6 ADD SLOAD LT PUSH2 0x161B JUMPI PUSH1 0x3 DUP5 ADD DUP1 SLOAD SWAP1 SWAP2 SWAP1 DUP7 SWAP1 PUSH1 0x1 PUSH1 0x1 PUSH1 0xA0 SHL SUB AND DUP1 PUSH2 0x15A4 JUMPI POP POP SWAP1 POP PUSH2 0x13EC DUP4 SELFBALANCE LT ISZERO PUSH2 0x2959 JUMP JUMPDEST PUSH1 0x0 DUP1 DUP1 DUP1 DUP9 PUSH1 0x1 DUP1 PUSH1 0xA0 SHL SUB PUSH1 0x2 DUP11 ADD SLOAD AND GAS CALL SWAP1 PUSH2 0x140A PUSH2 0x2A1D JUMP JUMPDEST POP DUP1 ISZERO ISZERO DUP3 DUP2 PUSH2 0x159C JUMPI JUMPDEST POP PUSH2 0x1572 JUMPI JUMPDEST POP JUMPDEST PUSH2 0x1434 JUMPI JUMPDEST POP POP POP POP PUSH2 0x142F SWAP1 PUSH2 0x2700 JUMP JUMPDEST PUSH2 0x130C JUMP JUMPDEST SWAP2 PUSH2 0x1496 PUSH2 0x1568 SWAP5 SWAP3 PUSH2 0x142F SWAP7 SWAP9 SWAP5 TIMESTAMP PUSH1 0x8 DUP6 ADD SSTORE PUSH2 0x1465 PUSH1 0x7 DUP6 ADD SLOAD PUSH2 0x145F PUSH1 0x6 DUP8 ADD SLOAD DUP5 PUSH2 0x26C0 JUMP JUMPDEST SWAP1 PUSH2 0x270F JUMP JUMPDEST PUSH1 0x7 DUP6 ADD SSTORE PUSH1 0x9 DUP5 ADD PUSH2 0x1479 DUP7 DUP3 SLOAD PUSH2 0x270F JUMP JUMPDEST SWAP1 SSTORE PUSH2 0x148A PUSH1 0xA DUP6 ADD SWAP2 DUP3 SLOAD PUSH2 0x270F JUMP JUMPDEST SWAP1 SSTORE PUSH1 0xB DUP4 ADD SLOAD PUSH2 0x26F3 JUMP JUMPDEST PUSH1 0xB DUP3 ADD SSTORE PUSH2 0x14A6 PUSH1 0x4 SLOAD PUSH2 0x2700 JUMP JUMPDEST SWAP1 DUP2 PUSH1 0x4 SSTORE PUSH2 0x14BD DUP9 DUP9 PUSH1 0x4 ADD CALLDATALOAD PUSH1 0x24 DUP11 ADD PUSH2 0x2E56 JUMP JUMPDEST CALLDATALOAD PUSH1 0x0 MSTORE PUSH1 0x6 PUSH1 0x20 MSTORE PUSH2 0x150F PUSH1 0x40 PUSH1 0x0 KECCAK256 PUSH2 0x14E0 DUP11 DUP11 PUSH1 0x4 ADD CALLDATALOAD PUSH1 0x24 DUP13 ADD PUSH2 0x2E56 JUMP JUMPDEST CALLDATALOAD SWAP1 PUSH1 0x40 MLOAD SWAP2 PUSH2 0x14EF DUP4 PUSH2 0x2739 JUMP JUMPDEST DUP6 DUP4 MSTORE PUSH1 0x20 DUP4 ADD MSTORE DUP6 PUSH1 0x40 DUP4 ADD MSTORE TIMESTAMP PUSH1 0x60 DUP4 ADD MSTORE PUSH1 0x1 PUSH1 0x80 DUP4 ADD MSTORE PUSH2 0x2A4D JUMP JUMPDEST PUSH32 0x2727CAF80B6DA2DFA4408DF2026C1FE59761D4B9184F422B225772BB9C3B7EE2 PUSH1 0x40 PUSH2 0x1544 DUP11 DUP11 PUSH1 0x4 ADD CALLDATALOAD PUSH1 0x24 DUP13 ADD PUSH2 0x2E56 JUMP JUMPDEST PUSH1 0x2 SWAP1 SWAP4 ADD SLOAD DUP2 MLOAD SWAP6 DUP7 MSTORE TIMESTAMP PUSH1 0x20 DUP8 ADD MSTORE PUSH1 0x1 PUSH1 0x1 PUSH1 0xA0 SHL SUB AND SWAP5 SWAP3 CALLDATALOAD SWAP3 LOG4 PUSH2 0x2700 JUMP JUMPDEST SWAP3 SWAP1 DUP5 DUP1 DUP1 PUSH2 0x1422 JUMP JUMPDEST PUSH1 0x0 DUP1 DUP1 DUP1 PUSH2 0x1596 SWAP5 PUSH1 0x1 DUP1 PUSH1 0xA0 SHL SUB PUSH1 0xA SLOAD AND GAS CALL PUSH2 0x1590 PUSH2 0x2A1D JUMP JUMPDEST POP PUSH2 0x29C0 JUMP JUMPDEST DUP9 PUSH2 0x141B JUMP JUMPDEST SWAP1 POP DUP11 PUSH2 0x1415 JUMP JUMPDEST SWAP1 PUSH2 0x15D2 SWAP2 PUSH2 0x15BE DUP8 PUSH2 0x15B7 ADDRESS DUP5 PUSH2 0x351A JUMP JUMPDEST LT ISZERO PUSH2 0x2959 JUMP JUMPDEST PUSH1 0x2 DUP9 ADD SLOAD PUSH1 0x1 PUSH1 0x1 PUSH1 0xA0 SHL SUB AND SWAP1 PUSH2 0x33DF JUMP JUMPDEST SWAP2 DUP2 ISZERO ISZERO DUP1 PUSH2 0x1614 JUMPI JUMPDEST PUSH2 0x15E8 JUMPI JUMPDEST POP POP PUSH2 0x141D JUMP JUMPDEST SLOAD PUSH1 0xA SLOAD PUSH2 0x160D SWAP3 PUSH2 0x1608 SWAP3 SWAP1 SWAP2 PUSH1 0x1 PUSH1 0x1 PUSH1 0xA0 SHL SUB SWAP1 DUP2 AND SWAP2 AND PUSH2 0x33DF JUMP JUMPDEST PUSH2 0x29C0 JUMP JUMPDEST DUP9 DUP1 PUSH2 0x15E1 JUMP JUMPDEST POP DUP3 PUSH2 0x15DC JUMP JUMPDEST POP POP POP POP POP PUSH2 0x142F SWAP1 PUSH2 0x2700 JUMP JUMPDEST SWAP1 PUSH2 0x1637 PUSH2 0x163C SWAP3 TIMESTAMP PUSH2 0x26F3 JUMP JUMPDEST PUSH2 0x26D3 JUMP JUMPDEST SWAP1 DUP2 ADD DUP1 SWAP2 GT PUSH2 0x164D JUMPI DUP6 DUP1 PUSH2 0x1376 JUMP JUMPDEST PUSH4 0x4E487B71 PUSH1 0xE0 SHL PUSH1 0x0 MSTORE PUSH1 0x11 PUSH1 0x4 MSTORE PUSH1 0x24 PUSH1 0x0 REVERT JUMPDEST POP POP PUSH2 0x142F SWAP1 PUSH2 0x2700 JUMP JUMPDEST POP PUSH2 0x142F SWAP1 PUSH2 0x2700 JUMP JUMPDEST POP PUSH1 0xFF PUSH1 0xC DUP3 ADD SLOAD AND PUSH1 0x3 DUP2 LT ISZERO PUSH2 0x358 JUMPI ISZERO ISZERO PUSH2 0x134C JUMP JUMPDEST CALLVALUE PUSH2 0x1F3 JUMPI PUSH1 0x0 CALLDATASIZE PUSH1 0x3 NOT ADD SLT PUSH2 0x1F3 JUMPI PUSH2 0x16AA PUSH2 0x252B JUMP JUMPDEST PUSH1 0x1 DUP1 SLOAD PUSH1 0x1 PUSH1 0x1 PUSH1 0xA0 SHL SUB NOT DUP2 AND SWAP1 SWAP2 SSTORE PUSH1 0x0 SWAP1 PUSH1 0x1 PUSH1 0x1 PUSH1 0xA0 SHL SUB AND PUSH32 0x8BE0079C531659141344CD1FD0A4F28419497F9722A3DAAFE3B4186F6B6457E0 DUP3 DUP1 LOG3 STOP JUMPDEST CALLVALUE PUSH2 0x1F3 JUMPI PUSH1 0x20 CALLDATASIZE PUSH1 0x3 NOT ADD SLT PUSH2 0x1F3 JUMPI PUSH1 0x20 PUSH2 0x1713 PUSH2 0x170C PUSH2 0x2328 JUMP JUMPDEST ADDRESS SWAP1 PUSH2 0x351A JUMP JUMPDEST PUSH1 0x40 MLOAD SWAP1 DUP2 MSTORE RETURN JUMPDEST CALLVALUE PUSH2 0x1F3 JUMPI PUSH1 0x20 CALLDATASIZE PUSH1 0x3 NOT ADD SLT PUSH2 0x1F3 JUMPI PUSH1 0x4 CALLDATALOAD DUP1 PUSH1 0x0 MSTORE PUSH1 0x5 PUSH1 0x20 MSTORE PUSH1 0x40 PUSH1 0x0 KECCAK256 PUSH2 0x1749 DUP2 SLOAD ISZERO ISZERO PUSH2 0x28B7 JUMP JUMPDEST PUSH1 0xC DUP2 ADD SWAP1 DUP2 SLOAD PUSH1 0xFF DUP2 AND SWAP2 PUSH1 0x3 DUP4 LT ISZERO PUSH2 0x358 JUMPI PUSH1 0x1 PUSH2 0x178A SWAP2 PUSH2 0x176F DUP3 SWAP6 ISZERO PUSH2 0x290A JUMP JUMPDEST DUP2 DUP1 PUSH1 0xA0 SHL SUB SWAP2 DUP3 SWAP2 ADD SLOAD AND CALLER EQ SWAP1 DUP2 ISZERO PUSH2 0x17BA JUMPI POP PUSH2 0x2E66 JUMP JUMPDEST PUSH1 0xFF NOT AND OR SWAP1 SSTORE CALLER SWAP1 PUSH32 0x25A87732C0536735F3AB7DD339ABD21DD0EF78059A500C3927A6CFEB98F90694 PUSH1 0x0 DUP1 LOG3 STOP JUMPDEST SWAP1 POP DUP4 SLOAD AND CALLER EQ DUP7 PUSH2 0xE68 JUMP JUMPDEST CALLVALUE PUSH2 0x1F3 JUMPI PUSH1 0x20 CALLDATASIZE PUSH1 0x3 NOT ADD SLT PUSH2 0x1F3 JUMPI PUSH1 0x4 CALLDATALOAD PUSH1 0x0 MSTORE PUSH1 0x5 PUSH1 0x20 MSTORE PUSH1 0x20 PUSH1 0x40 PUSH1 0x0 KECCAK256 PUSH2 0x18A4 PUSH1 0x40 MLOAD PUSH2 0x17F9 DUP2 PUSH2 0x271C JUMP JUMPDEST DUP3 SLOAD DUP2 MSTORE PUSH1 0x1 DUP4 ADD SLOAD PUSH1 0x1 PUSH1 0x1 PUSH1 0xA0 SHL SUB SWAP1 DUP2 AND DUP6 DUP4 ADD MSTORE PUSH1 0x2 DUP5 ADD SLOAD DUP2 AND PUSH1 0x40 DUP4 ADD MSTORE PUSH1 0x3 DUP5 ADD SLOAD AND PUSH1 0x60 DUP3 ADD MSTORE PUSH1 0x4 DUP4 ADD SLOAD PUSH1 0x80 DUP3 ADD MSTORE PUSH1 0x5 DUP4 ADD SLOAD PUSH2 0x1847 SWAP1 PUSH1 0xFF AND PUSH1 0xA0 DUP4 ADD PUSH2 0x2777 JUMP JUMPDEST PUSH1 0x6 DUP4 ADD SLOAD PUSH1 0xC0 DUP3 ADD MSTORE PUSH1 0x7 DUP4 ADD SLOAD PUSH1 0xE0 DUP3 ADD MSTORE PUSH1 0x8 DUP4 ADD SLOAD PUSH2 0x100 DUP3 ADD MSTORE PUSH1 0x9 DUP4 ADD SLOAD PUSH2 0x120 DUP3 ADD MSTORE PUSH1 0xA DUP4 ADD SLOAD PUSH2 0x140 DUP3 ADD MSTORE PUSH2 0x318 PUSH1 0xE PUSH1 0xB DUP6 ADD SLOAD SWAP5 PUSH2 0x160 DUP5 ADD SWAP6 DUP7 MSTORE PUSH2 0x300 PUSH1 0xFF PUSH1 0xC DUP4 ADD SLOAD AND PUSH2 0x180 DUP7 ADD PUSH2 0x2783 JUMP JUMPDEST MLOAD PUSH1 0x40 MLOAD SWAP1 DUP2 MSTORE RETURN JUMPDEST CALLVALUE PUSH2 0x1F3 JUMPI PUSH1 0x20 DUP1 PUSH1 0x3 NOT CALLDATASIZE ADD SLT PUSH2 0x1F3 JUMPI PUSH1 0x1 PUSH1 0x1 PUSH1 0xA0 SHL SUB DUP1 PUSH2 0x18D0 PUSH2 0x2328 JUMP JUMPDEST AND PUSH1 0x0 MSTORE PUSH1 0x8 SWAP2 DUP3 DUP2 MSTORE PUSH1 0x40 PUSH1 0x0 KECCAK256 SWAP2 PUSH1 0x40 MLOAD DUP1 DUP5 DUP5 DUP3 SWAP7 SLOAD SWAP4 DUP5 DUP2 MSTORE ADD SWAP1 PUSH1 0x0 MSTORE DUP5 PUSH1 0x0 KECCAK256 SWAP3 PUSH1 0x0 JUMPDEST DUP7 DUP3 DUP3 LT PUSH2 0x1A1B JUMPI POP POP POP PUSH2 0x1911 SWAP3 POP SUB DUP5 PUSH2 0x2755 JUMP JUMPDEST PUSH2 0x191B DUP4 MLOAD PUSH2 0x3217 JUMP JUMPDEST SWAP4 PUSH1 0x0 JUMPDEST DUP5 MLOAD DUP2 LT ISZERO PUSH2 0x1A0D JUMPI DUP1 PUSH2 0x1936 PUSH2 0x1A08 SWAP3 DUP8 PUSH2 0x303F JUMP JUMPDEST MLOAD PUSH1 0x0 MSTORE PUSH1 0x5 DUP1 DUP7 MSTORE PUSH2 0x19ED PUSH1 0xE PUSH1 0x40 PUSH1 0x0 KECCAK256 PUSH2 0x300 PUSH1 0x40 MLOAD SWAP5 PUSH2 0x1959 DUP7 PUSH2 0x271C JUMP JUMPDEST DUP3 SLOAD DUP7 MSTORE DUP10 PUSH1 0x1 DUP5 ADD SLOAD AND DUP12 DUP8 ADD MSTORE DUP10 PUSH1 0x2 DUP5 ADD SLOAD AND PUSH1 0x40 DUP8 ADD MSTORE DUP10 PUSH1 0x3 DUP5 ADD SLOAD AND PUSH1 0x60 DUP8 ADD MSTORE PUSH1 0x4 DUP4 ADD SLOAD PUSH1 0x80 DUP8 ADD MSTORE PUSH2 0x199E PUSH1 0xFF DUP1 SWAP3 DUP6 ADD SLOAD AND PUSH1 0xA0 DUP9 ADD PUSH2 0x2777 JUMP JUMPDEST PUSH1 0x6 DUP4 ADD SLOAD PUSH1 0xC0 DUP8 ADD MSTORE PUSH1 0x7 DUP4 ADD SLOAD PUSH1 0xE0 DUP8 ADD MSTORE DUP9 DUP4 ADD SLOAD PUSH2 0x100 DUP8 ADD MSTORE PUSH1 0x9 DUP4 ADD SLOAD PUSH2 0x120 DUP8 ADD MSTORE PUSH1 0xA DUP4 ADD SLOAD PUSH2 0x140 DUP8 ADD MSTORE PUSH1 0xB DUP4 ADD SLOAD PUSH2 0x160 DUP8 ADD MSTORE PUSH1 0xC DUP4 ADD SLOAD AND PUSH2 0x180 DUP7 ADD PUSH2 0x2783 JUMP JUMPDEST PUSH2 0x1C0 DUP3 ADD MSTORE PUSH2 0x19FD DUP3 DUP10 PUSH2 0x303F JUMP JUMPDEST MSTORE PUSH2 0x1283 DUP2 DUP9 PUSH2 0x303F JUMP JUMPDEST PUSH2 0x191F JUMP JUMPDEST PUSH1 0x40 MLOAD DUP1 PUSH2 0x499 DUP9 DUP3 PUSH2 0x2460 JUMP JUMPDEST DUP6 SLOAD DUP5 MSTORE PUSH1 0x1 SWAP6 DUP7 ADD SWAP6 DUP10 SWAP6 POP SWAP4 ADD SWAP3 ADD PUSH2 0x18FA JUMP JUMPDEST CALLVALUE PUSH2 0x1F3 JUMPI PUSH1 0x20 DUP1 PUSH1 0x3 NOT CALLDATASIZE ADD SLT PUSH2 0x1F3 JUMPI PUSH1 0x1 PUSH1 0x1 PUSH1 0xA0 SHL SUB DUP1 PUSH2 0x1A54 PUSH2 0x2328 JUMP JUMPDEST AND PUSH1 0x0 MSTORE PUSH1 0x7 SWAP2 DUP3 DUP2 MSTORE PUSH1 0x40 PUSH1 0x0 KECCAK256 SWAP2 PUSH1 0x40 MLOAD DUP1 DUP5 DUP5 DUP3 SWAP7 SLOAD SWAP4 DUP5 DUP2 MSTORE ADD SWAP1 PUSH1 0x0 MSTORE DUP5 PUSH1 0x0 KECCAK256 SWAP3 PUSH1 0x0 JUMPDEST DUP7 DUP3 DUP3 LT PUSH2 0x1B76 JUMPI POP POP POP PUSH2 0x1A95 SWAP3 POP SUB DUP5 PUSH2 0x2755 JUMP JUMPDEST PUSH2 0x1A9F DUP4 MLOAD PUSH2 0x3217 JUMP JUMPDEST SWAP4 PUSH1 0x0 JUMPDEST DUP5 MLOAD DUP2 LT ISZERO PUSH2 0x1A0D JUMPI DUP1 PUSH2 0x1ABA PUSH2 0x1B71 SWAP3 DUP8 PUSH2 0x303F JUMP JUMPDEST MLOAD PUSH1 0x0 MSTORE PUSH1 0x5 DUP1 DUP7 MSTORE PUSH2 0x19ED PUSH1 0xE PUSH1 0x40 PUSH1 0x0 KECCAK256 PUSH2 0x300 PUSH1 0x40 MLOAD SWAP5 PUSH2 0x1ADD DUP7 PUSH2 0x271C JUMP JUMPDEST DUP3 SLOAD DUP7 MSTORE DUP10 PUSH1 0x1 DUP5 ADD SLOAD AND DUP12 DUP8 ADD MSTORE DUP10 PUSH1 0x2 DUP5 ADD SLOAD AND PUSH1 0x40 DUP8 ADD MSTORE DUP10 PUSH1 0x3 DUP5 ADD SLOAD AND PUSH1 0x60 DUP8 ADD MSTORE PUSH1 0x4 DUP4 ADD SLOAD PUSH1 0x80 DUP8 ADD MSTORE PUSH2 0x1B22 PUSH1 0xFF DUP1 SWAP3 DUP6 ADD SLOAD AND PUSH1 0xA0 DUP9 ADD PUSH2 0x2777 JUMP JUMPDEST PUSH1 0x6 DUP4 ADD SLOAD PUSH1 0xC0 DUP8 ADD MSTORE DUP9 DUP4 ADD SLOAD PUSH1 0xE0 DUP8 ADD MSTORE PUSH1 0x8 DUP4 ADD SLOAD PUSH2 0x100 DUP8 ADD MSTORE PUSH1 0x9 DUP4 ADD SLOAD PUSH2 0x120 DUP8 ADD MSTORE PUSH1 0xA DUP4 ADD SLOAD PUSH2 0x140 DUP8 ADD MSTORE PUSH1 0xB DUP4 ADD SLOAD PUSH2 0x160 DUP8 ADD MSTORE PUSH1 0xC DUP4 ADD SLOAD AND PUSH2 0x180 DUP7 ADD PUSH2 0x2783 JUMP JUMPDEST PUSH2 0x1AA3 JUMP JUMPDEST DUP6 SLOAD DUP5 MSTORE PUSH1 0x1 SWAP6 DUP7 ADD SWAP6 DUP10 SWAP6 POP SWAP4 ADD SWAP3 ADD PUSH2 0x1A7E JUMP JUMPDEST CALLVALUE PUSH2 0x1F3 JUMPI PUSH1 0x0 CALLDATASIZE PUSH1 0x3 NOT ADD SLT PUSH2 0x1F3 JUMPI PUSH1 0x20 PUSH1 0x9 SLOAD PUSH1 0x40 MLOAD SWAP1 DUP2 MSTORE RETURN JUMPDEST CALLVALUE PUSH2 0x1F3 JUMPI PUSH1 0x20 CALLDATASIZE PUSH1 0x3 NOT ADD SLT PUSH2 0x1F3 JUMPI PUSH1 0x4 CALLDATALOAD PUSH2 0x1BC6 PUSH2 0x2894 JUMP JUMPDEST DUP1 PUSH1 0x0 MSTORE PUSH1 0x5 PUSH1 0x20 MSTORE PUSH1 0x40 PUSH1 0x0 KECCAK256 PUSH2 0x1BE0 DUP2 SLOAD ISZERO ISZERO PUSH2 0x28B7 JUMP JUMPDEST PUSH1 0xC DUP2 ADD SWAP1 DUP2 SLOAD SWAP2 PUSH1 0xFF DUP4 AND PUSH1 0x3 DUP2 LT ISZERO PUSH2 0x358 JUMPI DUP1 ISZERO SWAP1 DUP2 ISZERO PUSH2 0x1D2A JUMPI JUMPDEST POP ISZERO PUSH2 0x1CD9 JUMPI PUSH1 0x1 DUP3 ADD SWAP1 PUSH1 0x1 DUP1 PUSH1 0xA0 SHL SUB SWAP3 PUSH1 0x0 DUP5 DUP5 SLOAD AND SWAP3 DUP4 CALLER EQ DUP1 ISZERO PUSH2 0x1CCC JUMPI JUMPDEST PUSH2 0x1C2C SWAP1 PUSH2 0x2E66 JUMP JUMPDEST PUSH1 0xB DUP4 ADD SWAP1 PUSH1 0x2 DUP3 SLOAD SWAP9 PUSH1 0xFF NOT AND OR SWAP1 SSTORE SSTORE DUP5 PUSH2 0x1C72 JUMPI JUMPDEST CALLER DUP7 PUSH32 0x533734A768F070673B823079652464B7E002BB51CDF15E3108209F397425225F PUSH1 0x0 DUP1 LOG3 PUSH1 0x1 PUSH1 0x0 SSTORE STOP JUMPDEST PUSH1 0x3 ADD SLOAD DUP4 AND DUP1 PUSH2 0x1CB2 JUMPI POP POP PUSH1 0x0 DUP1 DUP5 DUP2 SWAP5 DUP3 SWAP5 PUSH2 0x1C96 PUSH2 0x1CA8 SWAP9 SELFBALANCE LT ISZERO PUSH2 0x2959 JUMP JUMPDEST SLOAD AND GAS CALL PUSH2 0x1CA2 PUSH2 0x2A1D JUMP JUMPDEST POP PUSH2 0x2EBC JUMP JUMPDEST DUP2 DUP1 DUP1 DUP1 DUP1 PUSH2 0x1C44 JUMP JUMPDEST PUSH2 0x1CC2 SWAP4 POP PUSH2 0x1CC7 SWAP5 SWAP3 POP PUSH2 0x33DF JUMP JUMPDEST PUSH2 0x2EBC JUMP JUMPDEST PUSH2 0x1CA8 JUMP JUMPDEST POP PUSH1 0x1 SLOAD DUP7 AND CALLER EQ PUSH2 0x1C23 JUMP JUMPDEST PUSH1 0x40 MLOAD PUSH3 0x461BCD PUSH1 0xE5 SHL DUP2 MSTORE PUSH1 0x20 PUSH1 0x4 DUP3 ADD MSTORE PUSH1 0x35 PUSH1 0x24 DUP3 ADD MSTORE PUSH1 0x0 DUP1 MLOAD PUSH1 0x20 PUSH2 0x3595 DUP4 CODECOPY DUP2 MLOAD SWAP2 MSTORE PUSH1 0x44 DUP3 ADD MSTORE PUSH21 0x1B8818D85B9B9BDD0818994818D85B98D95B1B1959 PUSH1 0x5A SHL PUSH1 0x64 DUP3 ADD MSTORE PUSH1 0x84 SWAP1 REVERT JUMPDEST PUSH1 0x1 SWAP2 POP EQ DUP6 PUSH2 0x1BFF JUMP JUMPDEST CALLVALUE PUSH2 0x1F3 JUMPI PUSH1 0x0 CALLDATASIZE PUSH1 0x3 NOT ADD SLT PUSH2 0x1F3 JUMPI PUSH1 0x20 PUSH1 0x40 MLOAD PUSH1 0x78 DUP2 MSTORE RETURN JUMPDEST CALLVALUE PUSH2 0x1F3 JUMPI PUSH1 0x20 CALLDATASIZE PUSH1 0x3 NOT ADD SLT PUSH2 0x1F3 JUMPI PUSH2 0x1D6A PUSH2 0x2328 JUMP JUMPDEST PUSH2 0x1D72 PUSH2 0x252B JUMP JUMPDEST PUSH1 0x1 PUSH1 0x1 PUSH1 0xA0 SHL SUB AND PUSH2 0x1D86 DUP2 ISZERO ISZERO PUSH2 0x2557 JUMP JUMPDEST PUSH1 0x1 PUSH1 0x1 PUSH1 0x60 SHL SUB PUSH1 0xA0 SHL PUSH1 0xA SLOAD AND OR PUSH1 0xA SSTORE PUSH1 0x0 DUP1 RETURN JUMPDEST CALLVALUE PUSH2 0x1F3 JUMPI PUSH1 0x20 CALLDATASIZE PUSH1 0x3 NOT ADD SLT PUSH2 0x1F3 JUMPI PUSH2 0x1DB7 PUSH2 0x2894 JUMP JUMPDEST PUSH1 0x60 PUSH2 0x1DC4 PUSH1 0x4 CALLDATALOAD PUSH2 0x2AB3 JUMP JUMPDEST SWAP1 PUSH1 0x1 PUSH1 0x0 SSTORE PUSH1 0x40 MLOAD SWAP3 ISZERO ISZERO DUP4 MSTORE PUSH1 0x20 DUP4 ADD MSTORE PUSH1 0x40 DUP3 ADD MSTORE RETURN JUMPDEST PUSH1 0x40 CALLDATASIZE PUSH1 0x3 NOT ADD SLT PUSH2 0x1F3 JUMPI PUSH1 0x24 PUSH1 0x4 CALLDATALOAD DUP2 CALLDATALOAD PUSH2 0x1DF9 PUSH2 0x2894 JUMP JUMPDEST DUP2 PUSH1 0x0 MSTORE PUSH1 0x20 SWAP1 PUSH1 0x5 DUP3 MSTORE PUSH1 0x40 PUSH1 0x0 KECCAK256 SWAP4 PUSH2 0x1E16 DUP6 SLOAD ISZERO ISZERO PUSH2 0x28B7 JUMP JUMPDEST PUSH1 0x1 DUP6 ADD SLOAD PUSH1 0x1 PUSH1 0x1 PUSH1 0xA0 SHL SUB SWAP1 DUP2 AND CALLER SUB PUSH2 0x2161 JUMPI PUSH1 0xFF PUSH1 0xC DUP8 ADD SLOAD AND PUSH1 0x3 DUP2 LT ISZERO PUSH2 0x214C JUMPI DUP1 PUSH2 0x1E51 SWAP2 ISZERO SWAP1 DUP2 ISZERO PUSH2 0x2141 JUMPI JUMPDEST POP PUSH2 0x290A JUMP JUMPDEST PUSH1 0x3 DUP7 ADD SLOAD AND DUP1 PUSH2 0x1F80 JUMPI POP CALLVALUE ISZERO PUSH2 0x1F2A JUMPI DUP2 ISZERO PUSH2 0x1F1F JUMPI CALLVALUE DUP3 SUB PUSH2 0x1EC0 JUMPI POP PUSH1 0xB SWAP1 SWAP4 JUMPDEST DUP2 DUP2 ADD PUSH2 0x1E84 DUP7 DUP3 SLOAD PUSH2 0x270F JUMP JUMPDEST SWAP1 SSTORE JUMPDEST ADD SLOAD SWAP1 PUSH1 0x40 MLOAD SWAP4 DUP5 MSTORE DUP4 ADD MSTORE PUSH32 0x624D25E63DA06971E79203AFFBCDEA82CD63E6A28FA1AC420AA5018B97A8CD51 PUSH1 0x40 CALLER SWAP4 LOG3 PUSH1 0x1 PUSH1 0x0 SSTORE STOP JUMPDEST DUP3 PUSH1 0x33 PUSH1 0x84 SWAP3 PUSH1 0x40 MLOAD SWAP3 PUSH3 0x461BCD PUSH1 0xE5 SHL DUP5 MSTORE PUSH1 0x4 DUP5 ADD MSTORE DUP3 ADD MSTORE PUSH32 0x537562736372697074696F6E4D616E616765723A20416D6F756E74206D69736D PUSH1 0x44 DUP3 ADD MSTORE PUSH19 0x617463682077697468206D73672E76616C7565 PUSH1 0x68 SHL PUSH1 0x64 DUP3 ADD MSTORE REVERT JUMPDEST POP POP PUSH1 0xB CALLVALUE SWAP4 PUSH2 0x1E76 JUMP JUMPDEST DUP3 PUSH1 0x2A PUSH1 0x84 SWAP3 PUSH1 0x40 MLOAD SWAP3 PUSH3 0x461BCD PUSH1 0xE5 SHL DUP5 MSTORE PUSH1 0x4 DUP5 ADD MSTORE DUP3 ADD MSTORE PUSH32 0x537562736372697074696F6E4D616E616765723A204E6F206E61746976652074 PUSH1 0x44 DUP3 ADD MSTORE PUSH10 0x1BDAD95B9CC81CD95B9D PUSH1 0xB2 SHL PUSH1 0x64 DUP3 ADD MSTORE REVERT JUMPDEST SWAP5 SWAP2 SWAP1 CALLVALUE PUSH2 0x20CA JUMPI DUP2 ISZERO PUSH2 0x2073 JUMPI PUSH1 0x0 DUP5 DUP4 SWAP8 PUSH1 0x64 PUSH1 0x40 MLOAD DUP1 SWAP5 DUP2 SWAP4 PUSH4 0x23B872DD PUSH1 0xE0 SHL DUP4 MSTORE CALLER PUSH1 0x4 DUP5 ADD MSTORE ADDRESS DUP9 DUP5 ADD MSTORE DUP9 PUSH1 0x44 DUP5 ADD MSTORE GAS CALL SWAP1 DUP2 ISZERO PUSH2 0x2067 JUMPI PUSH1 0x0 SWAP2 PUSH2 0x203A JUMPI JUMPDEST POP ISZERO PUSH2 0x1FE8 JUMPI POP SWAP1 PUSH1 0xB SWAP2 PUSH2 0x1FE1 DUP4 DUP4 ADD SWAP2 DUP3 SLOAD PUSH2 0x270F JUMP JUMPDEST SWAP1 SSTORE PUSH2 0x1E87 JUMP JUMPDEST DUP4 PUSH1 0x26 PUSH1 0x84 SWAP3 PUSH1 0x40 MLOAD SWAP3 PUSH3 0x461BCD PUSH1 0xE5 SHL DUP5 MSTORE PUSH1 0x4 DUP5 ADD MSTORE DUP3 ADD MSTORE PUSH32 0x546F6B656E48656C7065723A204552433230207472616E7366657246726F6D20 PUSH1 0x44 DUP3 ADD MSTORE PUSH6 0x19985A5B1959 PUSH1 0xD2 SHL PUSH1 0x64 DUP3 ADD MSTORE REVERT JUMPDEST PUSH2 0x205A SWAP2 POP DUP6 RETURNDATASIZE DUP8 GT PUSH2 0x2060 JUMPI JUMPDEST PUSH2 0x2052 DUP2 DUP4 PUSH2 0x2755 JUMP JUMPDEST DUP2 ADD SWAP1 PUSH2 0x33C7 JUMP JUMPDEST DUP8 PUSH2 0x1FC8 JUMP JUMPDEST POP RETURNDATASIZE PUSH2 0x2048 JUMP JUMPDEST PUSH1 0x40 MLOAD RETURNDATASIZE PUSH1 0x0 DUP3 RETURNDATACOPY RETURNDATASIZE SWAP1 REVERT JUMPDEST DUP4 PUSH1 0x2B PUSH1 0x84 SWAP3 PUSH1 0x40 MLOAD SWAP3 PUSH3 0x461BCD PUSH1 0xE5 SHL DUP5 MSTORE PUSH1 0x4 DUP5 ADD MSTORE DUP3 ADD MSTORE PUSH32 0x537562736372697074696F6E4D616E616765723A20496E76616C696420646570 PUSH1 0x44 DUP3 ADD MSTORE PUSH11 0x1BDCDA5D08185B5BDD5B9D PUSH1 0xAA SHL PUSH1 0x64 DUP3 ADD MSTORE REVERT JUMPDEST DUP4 PUSH1 0x45 PUSH1 0xA4 SWAP3 PUSH1 0x40 MLOAD SWAP3 PUSH3 0x461BCD PUSH1 0xE5 SHL DUP5 MSTORE PUSH1 0x4 DUP5 ADD MSTORE DUP3 ADD MSTORE PUSH32 0x537562736372697074696F6E4D616E616765723A204E617469766520746F6B65 PUSH1 0x44 DUP3 ADD MSTORE PUSH32 0x6E206E6F7420657870656374656420666F722045524332302073756273637269 PUSH1 0x64 DUP3 ADD MSTORE PUSH5 0x383A34B7B7 PUSH1 0xD9 SHL PUSH1 0x84 DUP3 ADD MSTORE REVERT JUMPDEST PUSH1 0x1 SWAP2 POP EQ DUP9 PUSH2 0x1E4B JUMP JUMPDEST DUP3 PUSH4 0x4E487B71 PUSH1 0xE0 SHL PUSH1 0x0 MSTORE PUSH1 0x21 PUSH1 0x4 MSTORE PUSH1 0x0 REVERT JUMPDEST PUSH1 0x40 MLOAD PUSH3 0x461BCD PUSH1 0xE5 SHL DUP2 MSTORE PUSH1 0x4 DUP2 ADD DUP6 SWAP1 MSTORE PUSH1 0x30 DUP2 DUP5 ADD MSTORE PUSH32 0x537562736372697074696F6E4D616E616765723A204F6E6C7920737562736372 PUSH1 0x44 DUP3 ADD MSTORE PUSH16 0x1A58995C8818D85B8819195C1BDCDA5D PUSH1 0x82 SHL PUSH1 0x64 DUP3 ADD MSTORE PUSH1 0x84 SWAP1 REVERT JUMPDEST CALLVALUE PUSH2 0x1F3 JUMPI PUSH1 0x20 CALLDATASIZE PUSH1 0x3 NOT ADD SLT PUSH2 0x1F3 JUMPI PUSH1 0x4 CALLDATALOAD PUSH2 0x21DA PUSH2 0x252B JUMP JUMPDEST PUSH2 0x3E8 DUP2 GT PUSH2 0x21E8 JUMPI PUSH1 0x9 SSTORE STOP JUMPDEST PUSH1 0x40 MLOAD PUSH3 0x461BCD PUSH1 0xE5 SHL DUP2 MSTORE PUSH1 0x20 PUSH1 0x4 DUP3 ADD MSTORE PUSH1 0x21 PUSH1 0x24 DUP3 ADD MSTORE PUSH32 0x537562736372697074696F6E4D616E616765723A2046656520746F6F20686967 PUSH1 0x44 DUP3 ADD MSTORE PUSH1 0xD PUSH1 0xFB SHL PUSH1 0x64 DUP3 ADD MSTORE PUSH1 0x84 SWAP1 REVERT JUMPDEST CALLVALUE PUSH2 0x1F3 JUMPI PUSH1 0x20 CALLDATASIZE PUSH1 0x3 NOT ADD SLT PUSH2 0x1F3 JUMPI PUSH1 0x4 CALLDATALOAD DUP1 PUSH1 0x0 MSTORE PUSH1 0x5 PUSH1 0x20 MSTORE PUSH1 0x40 PUSH1 0x0 KECCAK256 PUSH2 0x2265 DUP2 SLOAD ISZERO ISZERO PUSH2 0x28B7 JUMP JUMPDEST PUSH1 0xC DUP2 ADD SWAP1 DUP2 SLOAD SWAP1 PUSH1 0xFF DUP3 AND PUSH1 0x3 DUP2 LT ISZERO PUSH2 0x358 JUMPI PUSH1 0x1 SUB PUSH2 0x22E0 JUMPI PUSH1 0x1 ADD SLOAD PUSH2 0x22A3 SWAP1 CALLER PUSH1 0x1 PUSH1 0x1 PUSH1 0xA0 SHL SUB SWAP2 DUP3 AND EQ SWAP1 DUP2 ISZERO PUSH2 0x22D2 JUMPI POP PUSH2 0x2E66 JUMP JUMPDEST PUSH1 0xFF NOT AND SWAP1 SSTORE CALLER SWAP1 PUSH32 0xD13B5F8D2E4901890B0C4487E78268B05E17DB24ED2B23450CAA809F66B24585 PUSH1 0x0 DUP1 LOG3 STOP JUMPDEST SWAP1 POP PUSH1 0x1 SLOAD AND CALLER EQ DUP6 PUSH2 0xE68 JUMP JUMPDEST PUSH1 0x40 MLOAD PUSH3 0x461BCD PUSH1 0xE5 SHL DUP2 MSTORE PUSH1 0x20 PUSH1 0x4 DUP3 ADD MSTORE PUSH1 0x2C PUSH1 0x24 DUP3 ADD MSTORE PUSH1 0x0 DUP1 MLOAD PUSH1 0x20 PUSH2 0x3595 DUP4 CODECOPY DUP2 MLOAD SWAP2 MSTORE PUSH1 0x44 DUP3 ADD MSTORE PUSH12 0x1B881B9BDD081C185D5CD959 PUSH1 0xA2 SHL PUSH1 0x64 DUP3 ADD MSTORE PUSH1 0x84 SWAP1 REVERT JUMPDEST PUSH1 0x4 CALLDATALOAD SWAP1 PUSH1 0x1 PUSH1 0x1 PUSH1 0xA0 SHL SUB DUP3 AND DUP3 SUB PUSH2 0x1F3 JUMPI JUMP JUMPDEST SWAP1 PUSH1 0x4 DUP3 LT ISZERO PUSH2 0x358 JUMPI MSTORE JUMP JUMPDEST SWAP2 SWAP1 DUP3 MLOAD SWAP3 DUP4 DUP3 MSTORE PUSH1 0x0 JUMPDEST DUP5 DUP2 LT PUSH2 0x2377 JUMPI POP POP DUP3 PUSH1 0x0 PUSH1 0x20 DUP1 SWAP5 SWAP6 DUP5 ADD ADD MSTORE PUSH1 0x1F DUP1 NOT SWAP2 ADD AND ADD ADD SWAP1 JUMP JUMPDEST PUSH1 0x20 DUP2 DUP4 ADD DUP2 ADD MLOAD DUP5 DUP4 ADD DUP3 ADD MSTORE ADD PUSH2 0x2356 JUMP JUMPDEST SWAP1 DUP2 MLOAD DUP2 MSTORE PUSH1 0x1 DUP1 PUSH1 0xA0 SHL SUB DUP1 PUSH1 0x20 DUP5 ADD MLOAD AND PUSH1 0x20 DUP4 ADD MSTORE DUP1 PUSH1 0x40 DUP5 ADD MLOAD AND PUSH1 0x40 DUP4 ADD MSTORE PUSH1 0x60 DUP4 ADD MLOAD AND PUSH1 0x60 DUP3 ADD MSTORE PUSH1 0x80 DUP3 ADD MLOAD PUSH1 0x80 DUP3 ADD MSTORE PUSH2 0x23D6 PUSH1 0xA0 DUP4 ADD MLOAD PUSH1 0xA0 DUP4 ADD SWAP1 PUSH2 0x233E JUMP JUMPDEST PUSH1 0xC0 DUP3 ADD MLOAD PUSH1 0xC0 DUP3 ADD MSTORE PUSH1 0xE0 DUP3 ADD MLOAD PUSH1 0xE0 DUP3 ADD MSTORE PUSH2 0x100 DUP1 DUP4 ADD MLOAD SWAP1 DUP3 ADD MSTORE PUSH2 0x120 DUP1 DUP4 ADD MLOAD SWAP1 DUP3 ADD MSTORE PUSH2 0x140 DUP1 DUP4 ADD MLOAD SWAP1 DUP3 ADD MSTORE PUSH2 0x160 DUP1 DUP4 ADD MLOAD SWAP1 DUP3 ADD MSTORE PUSH2 0x180 SWAP2 DUP3 DUP2 ADD MLOAD PUSH1 0x3 DUP2 LT ISZERO PUSH2 0x358 JUMPI PUSH2 0x245D SWAP4 DUP4 ADD MSTORE PUSH2 0x2449 PUSH2 0x1A0 DUP1 DUP4 ADD MLOAD SWAP1 PUSH2 0x1E0 DUP1 SWAP2 DUP7 ADD MSTORE DUP5 ADD SWAP1 PUSH2 0x234B JUMP JUMPDEST SWAP2 PUSH2 0x1C0 DUP1 SWAP3 ADD MLOAD SWAP2 DUP2 DUP5 SUB SWAP2 ADD MSTORE PUSH2 0x234B JUMP JUMPDEST SWAP1 JUMP JUMPDEST PUSH1 0x20 DUP1 DUP3 ADD SWAP1 DUP1 DUP4 MSTORE DUP4 MLOAD DUP1 SWAP3 MSTORE PUSH1 0x40 DUP4 ADD SWAP3 DUP2 PUSH1 0x40 DUP5 PUSH1 0x5 SHL DUP4 ADD ADD SWAP6 ADD SWAP4 PUSH1 0x0 SWAP2 JUMPDEST DUP5 DUP4 LT PUSH2 0x2494 JUMPI POP POP POP POP POP POP SWAP1 JUMP JUMPDEST SWAP1 SWAP2 SWAP3 SWAP4 SWAP5 SWAP6 DUP5 DUP1 PUSH2 0x24B2 PUSH1 0x1 SWAP4 PUSH1 0x3F NOT DUP7 DUP3 SUB ADD DUP8 MSTORE DUP11 MLOAD PUSH2 0x238B JUMP JUMPDEST SWAP9 ADD SWAP4 ADD SWAP4 ADD SWAP2 SWAP5 SWAP4 SWAP3 SWAP1 PUSH2 0x2484 JUMP JUMPDEST SWAP2 DUP2 PUSH1 0x1F DUP5 ADD SLT ISZERO PUSH2 0x1F3 JUMPI DUP3 CALLDATALOAD SWAP2 PUSH8 0xFFFFFFFFFFFFFFFF DUP4 GT PUSH2 0x1F3 JUMPI PUSH1 0x20 DUP4 DUP2 DUP7 ADD SWAP6 ADD ADD GT PUSH2 0x1F3 JUMPI JUMP JUMPDEST PUSH1 0x20 SWAP1 DUP2 PUSH1 0x40 DUP2 DUP4 ADD SWAP3 DUP3 DUP2 MSTORE DUP6 MLOAD DUP1 SWAP5 MSTORE ADD SWAP4 ADD SWAP2 PUSH1 0x0 JUMPDEST DUP3 DUP2 LT PUSH2 0x2517 JUMPI POP POP POP POP SWAP1 JUMP JUMPDEST DUP4 MLOAD DUP6 MSTORE SWAP4 DUP2 ADD SWAP4 SWAP3 DUP2 ADD SWAP3 PUSH1 0x1 ADD PUSH2 0x2509 JUMP JUMPDEST PUSH1 0x1 SLOAD PUSH1 0x1 PUSH1 0x1 PUSH1 0xA0 SHL SUB AND CALLER SUB PUSH2 0x253F JUMPI JUMP JUMPDEST PUSH1 0x40 MLOAD PUSH4 0x118CDAA7 PUSH1 0xE0 SHL DUP2 MSTORE CALLER PUSH1 0x4 DUP3 ADD MSTORE PUSH1 0x24 SWAP1 REVERT JUMPDEST ISZERO PUSH2 0x255E JUMPI JUMP JUMPDEST PUSH1 0x40 MLOAD PUSH3 0x461BCD PUSH1 0xE5 SHL DUP2 MSTORE PUSH1 0x20 PUSH1 0x4 DUP3 ADD MSTORE PUSH1 0x26 PUSH1 0x24 DUP3 ADD MSTORE PUSH32 0x537562736372697074696F6E4D616E616765723A20496E76616C696420726563 PUSH1 0x44 DUP3 ADD MSTORE PUSH6 0x1A5C1A595B9D PUSH1 0xD2 SHL PUSH1 0x64 DUP3 ADD MSTORE PUSH1 0x84 SWAP1 REVERT JUMPDEST ISZERO PUSH2 0x25B9 JUMPI JUMP JUMPDEST PUSH1 0x40 MLOAD PUSH3 0x461BCD PUSH1 0xE5 SHL DUP2 MSTORE PUSH1 0x20 PUSH1 0x4 DUP3 ADD MSTORE PUSH1 0x25 PUSH1 0x24 DUP3 ADD MSTORE PUSH32 0x537562736372697074696F6E4D616E616765723A20416D6F756E7420746F6F20 PUSH1 0x44 DUP3 ADD MSTORE PUSH5 0x1CDB585B1B PUSH1 0xDA SHL PUSH1 0x64 DUP3 ADD MSTORE PUSH1 0x84 SWAP1 REVERT JUMPDEST ISZERO PUSH2 0x2613 JUMPI JUMP JUMPDEST PUSH1 0x40 MLOAD PUSH3 0x461BCD PUSH1 0xE5 SHL DUP2 MSTORE PUSH1 0x20 PUSH1 0x4 DUP3 ADD MSTORE PUSH1 0x25 PUSH1 0x24 DUP3 ADD MSTORE PUSH32 0x537562736372697074696F6E4D616E616765723A20416D6F756E7420746F6F20 PUSH1 0x44 DUP3 ADD MSTORE PUSH5 0x6C61726765 PUSH1 0xD8 SHL PUSH1 0x64 DUP3 ADD MSTORE PUSH1 0x84 SWAP1 REVERT JUMPDEST ISZERO PUSH2 0x266D JUMPI JUMP JUMPDEST PUSH1 0x40 MLOAD PUSH3 0x461BCD PUSH1 0xE5 SHL DUP2 MSTORE PUSH1 0x20 PUSH1 0x4 DUP3 ADD MSTORE PUSH1 0x25 PUSH1 0x24 DUP3 ADD MSTORE PUSH32 0x537562736372697074696F6E4D616E616765723A20496E76616C696420696E74 PUSH1 0x44 DUP3 ADD MSTORE PUSH5 0x195C9D985B PUSH1 0xDA SHL PUSH1 0x64 DUP3 ADD MSTORE PUSH1 0x84 SWAP1 REVERT JUMPDEST DUP2 DUP2 MUL SWAP3 SWAP2 DUP2 ISZERO SWAP2 DUP5 DIV EQ OR ISZERO PUSH2 0x164D JUMPI JUMP JUMPDEST DUP2 ISZERO PUSH2 0x26DD JUMPI DIV SWAP1 JUMP JUMPDEST PUSH4 0x4E487B71 PUSH1 0xE0 SHL PUSH1 0x0 MSTORE PUSH1 0x12 PUSH1 0x4 MSTORE PUSH1 0x24 PUSH1 0x0 REVERT JUMPDEST SWAP2 SWAP1 DUP3 SUB SWAP2 DUP3 GT PUSH2 0x164D JUMPI JUMP JUMPDEST PUSH1 0x0 NOT DUP2 EQ PUSH2 0x164D JUMPI PUSH1 0x1 ADD SWAP1 JUMP JUMPDEST SWAP2 SWAP1 DUP3 ADD DUP1 SWAP3 GT PUSH2 0x164D JUMPI JUMP JUMPDEST PUSH2 0x1E0 DUP2 ADD SWAP1 DUP2 LT PUSH8 0xFFFFFFFFFFFFFFFF DUP3 GT OR PUSH2 0xBD3 JUMPI PUSH1 0x40 MSTORE JUMP JUMPDEST PUSH1 0xA0 DUP2 ADD SWAP1 DUP2 LT PUSH8 0xFFFFFFFFFFFFFFFF DUP3 GT OR PUSH2 0xBD3 JUMPI PUSH1 0x40 MSTORE JUMP JUMPDEST SWAP1 PUSH1 0x1F DUP1 NOT SWAP2 ADD AND DUP2 ADD SWAP1 DUP2 LT PUSH8 0xFFFFFFFFFFFFFFFF DUP3 GT OR PUSH2 0xBD3 JUMPI PUSH1 0x40 MSTORE JUMP JUMPDEST PUSH1 0x4 DUP3 LT ISZERO PUSH2 0x358 JUMPI MSTORE JUMP JUMPDEST PUSH1 0x3 DUP3 LT ISZERO PUSH2 0x358 JUMPI MSTORE JUMP JUMPDEST PUSH8 0xFFFFFFFFFFFFFFFF DUP2 GT PUSH2 0xBD3 JUMPI PUSH1 0x1F ADD PUSH1 0x1F NOT AND PUSH1 0x20 ADD SWAP1 JUMP JUMPDEST SWAP3 SWAP2 SWAP3 PUSH2 0x27B7 DUP3 PUSH2 0x278F JUMP JUMPDEST SWAP2 PUSH2 0x27C5 PUSH1 0x40 MLOAD SWAP4 DUP5 PUSH2 0x2755 JUMP JUMPDEST DUP3 SWAP5 DUP2 DUP5 MSTORE DUP2 DUP4 ADD GT PUSH2 0x1F3 JUMPI DUP3 DUP2 PUSH1 0x20 SWAP4 DUP5 PUSH1 0x0 SWAP7 ADD CALLDATACOPY ADD ADD MSTORE JUMP JUMPDEST SWAP1 PUSH1 0x4 DUP2 LT ISZERO PUSH2 0x358 JUMPI PUSH1 0xFF DUP1 NOT DUP4 SLOAD AND SWAP2 AND OR SWAP1 SSTORE JUMP JUMPDEST SWAP1 PUSH1 0x1 DUP3 DUP2 SHR SWAP3 AND DUP1 ISZERO PUSH2 0x282A JUMPI JUMPDEST PUSH1 0x20 DUP4 LT EQ PUSH2 0x2814 JUMPI JUMP JUMPDEST PUSH4 0x4E487B71 PUSH1 0xE0 SHL PUSH1 0x0 MSTORE PUSH1 0x22 PUSH1 0x4 MSTORE PUSH1 0x24 PUSH1 0x0 REVERT JUMPDEST SWAP2 PUSH1 0x7F AND SWAP2 PUSH2 0x2809 JUMP JUMPDEST DUP1 SLOAD SWAP1 PUSH1 0x1 PUSH1 0x40 SHL DUP3 LT ISZERO PUSH2 0xBD3 JUMPI PUSH1 0x1 DUP3 ADD DUP1 DUP3 SSTORE DUP3 LT ISZERO PUSH2 0x285D JUMPI PUSH1 0x0 MSTORE PUSH1 0x20 PUSH1 0x0 KECCAK256 ADD SSTORE JUMP JUMPDEST PUSH4 0x4E487B71 PUSH1 0xE0 SHL PUSH1 0x0 MSTORE PUSH1 0x32 PUSH1 0x4 MSTORE PUSH1 0x24 PUSH1 0x0 REVERT JUMPDEST SWAP1 DUP1 PUSH1 0x20 SWAP4 SWAP3 DUP2 DUP5 MSTORE DUP5 DUP5 ADD CALLDATACOPY PUSH1 0x0 DUP3 DUP3 ADD DUP5 ADD MSTORE PUSH1 0x1F ADD PUSH1 0x1F NOT AND ADD ADD SWAP1 JUMP JUMPDEST PUSH1 0x2 PUSH1 0x0 SLOAD EQ PUSH2 0x28A5 JUMPI PUSH1 0x2 PUSH1 0x0 SSTORE JUMP JUMPDEST PUSH1 0x40 MLOAD PUSH4 0x3EE5AEB5 PUSH1 0xE0 SHL DUP2 MSTORE PUSH1 0x4 SWAP1 REVERT JUMPDEST ISZERO PUSH2 0x28BE JUMPI JUMP JUMPDEST PUSH1 0x40 MLOAD PUSH3 0x461BCD PUSH1 0xE5 SHL DUP2 MSTORE PUSH1 0x20 PUSH1 0x4 DUP3 ADD MSTORE PUSH1 0x30 PUSH1 0x24 DUP3 ADD MSTORE PUSH1 0x0 DUP1 MLOAD PUSH1 0x20 PUSH2 0x3595 DUP4 CODECOPY DUP2 MLOAD SWAP2 MSTORE PUSH1 0x44 DUP3 ADD MSTORE PUSH16 0x1B88191BD95CC81B9BDD08195E1A5CDD PUSH1 0x82 SHL PUSH1 0x64 DUP3 ADD MSTORE PUSH1 0x84 SWAP1 REVERT JUMPDEST ISZERO PUSH2 0x2911 JUMPI JUMP JUMPDEST PUSH1 0x40 MLOAD PUSH3 0x461BCD PUSH1 0xE5 SHL DUP2 MSTORE PUSH1 0x20 PUSH1 0x4 DUP3 ADD MSTORE PUSH1 0x2C PUSH1 0x24 DUP3 ADD MSTORE PUSH1 0x0 DUP1 MLOAD PUSH1 0x20 PUSH2 0x3595 DUP4 CODECOPY DUP2 MLOAD SWAP2 MSTORE PUSH1 0x44 DUP3 ADD MSTORE PUSH12 0x6E206E6F7420616374697665 PUSH1 0xA0 SHL PUSH1 0x64 DUP3 ADD MSTORE PUSH1 0x84 SWAP1 REVERT JUMPDEST ISZERO PUSH2 0x2960 JUMPI JUMP JUMPDEST PUSH1 0x40 MLOAD PUSH3 0x461BCD PUSH1 0xE5 SHL DUP2 MSTORE PUSH1 0x20 PUSH1 0x4 DUP3 ADD MSTORE PUSH1 0x32 PUSH1 0x24 DUP3 ADD MSTORE PUSH32 0x537562736372697074696F6E4D616E616765723A20496E73756666696369656E PUSH1 0x44 DUP3 ADD MSTORE PUSH18 0x7420636F6E74726163742062616C616E6365 PUSH1 0x70 SHL PUSH1 0x64 DUP3 ADD MSTORE PUSH1 0x84 SWAP1 REVERT JUMPDEST ISZERO PUSH2 0x29C7 JUMPI JUMP JUMPDEST PUSH1 0x40 MLOAD PUSH3 0x461BCD PUSH1 0xE5 SHL DUP2 MSTORE PUSH1 0x20 PUSH1 0x4 DUP3 ADD MSTORE PUSH1 0x28 PUSH1 0x24 DUP3 ADD MSTORE PUSH32 0x537562736372697074696F6E4D616E616765723A20466565207472616E736665 PUSH1 0x44 DUP3 ADD MSTORE PUSH8 0x1C8819985A5B1959 PUSH1 0xC2 SHL PUSH1 0x64 DUP3 ADD MSTORE PUSH1 0x84 SWAP1 REVERT JUMPDEST RETURNDATASIZE ISZERO PUSH2 0x2A48 JUMPI RETURNDATASIZE SWAP1 PUSH2 0x2A2E DUP3 PUSH2 0x278F JUMP JUMPDEST SWAP2 PUSH2 0x2A3C PUSH1 0x40 MLOAD SWAP4 DUP5 PUSH2 0x2755 JUMP JUMPDEST DUP3 MSTORE RETURNDATASIZE PUSH1 0x0 PUSH1 0x20 DUP5 ADD RETURNDATACOPY JUMP JUMPDEST PUSH1 0x60 SWAP1 JUMP JUMPDEST DUP1 SLOAD SWAP1 PUSH1 0x1 PUSH1 0x40 SHL DUP3 LT ISZERO PUSH2 0xBD3 JUMPI PUSH1 0x1 DUP3 ADD DUP1 DUP3 SSTORE DUP3 LT ISZERO PUSH2 0x285D JUMPI PUSH1 0x80 SWAP2 PUSH1 0x4 SWAP2 PUSH1 0x0 MSTORE PUSH1 0x5 PUSH1 0x20 PUSH1 0x0 KECCAK256 SWAP2 MUL ADD DUP4 MLOAD DUP2 SSTORE PUSH1 0x20 DUP5 ADD MLOAD PUSH1 0x1 DUP3 ADD SSTORE PUSH1 0x40 DUP5 ADD MLOAD PUSH1 0x2 DUP3 ADD SSTORE PUSH1 0x60 DUP5 ADD MLOAD PUSH1 0x3 DUP3 ADD SSTORE ADD SWAP2 ADD MLOAD ISZERO ISZERO PUSH1 0xFF DUP1 NOT DUP4 SLOAD AND SWAP2 AND OR SWAP1 SSTORE JUMP JUMPDEST PUSH1 0x0 SWAP2 DUP2 DUP4 MSTORE PUSH1 0x20 PUSH1 0x5 DUP2 MSTORE PUSH1 0x40 SWAP3 DUP4 DUP6 KECCAK256 SWAP1 PUSH2 0x2AD2 DUP3 SLOAD ISZERO ISZERO PUSH2 0x28B7 JUMP JUMPDEST PUSH1 0xFF PUSH1 0xC DUP4 ADD SLOAD AND PUSH1 0x3 DUP2 LT ISZERO PUSH2 0x2E42 JUMPI PUSH2 0x2AED SWAP1 ISZERO PUSH2 0x290A JUMP JUMPDEST PUSH1 0x7 DUP3 ADD SWAP5 DUP6 SLOAD DUP1 TIMESTAMP LT PUSH2 0x2DF2 JUMPI PUSH1 0x1 SWAP7 PUSH1 0x6 DUP6 ADD SWAP2 DUP3 SLOAD SWAP1 PUSH2 0x2B10 DUP3 DUP3 PUSH2 0x270F JUMP JUMPDEST TIMESTAMP LT ISZERO PUSH2 0x2DBB JUMPI JUMPDEST POP POP PUSH1 0x4 SWAP5 DUP6 DUP2 ADD SLOAD SWAP3 PUSH2 0x2B4A DUP11 PUSH2 0x2B44 DUP2 PUSH2 0x13A1 PUSH2 0x2710 PUSH2 0x2B3C PUSH1 0x9 SLOAD DUP12 PUSH2 0x26C0 JUMP JUMPDEST DIV DUP1 SWAP10 PUSH2 0x26F3 JUMP JUMPDEST SWAP6 PUSH2 0x26C0 JUMP JUMPDEST SWAP3 PUSH2 0x2B55 DUP5 DUP7 PUSH2 0x270F JUMP JUMPDEST SWAP1 PUSH1 0xB DUP5 ADD SWAP3 DUP3 DUP5 SLOAD LT PUSH2 0x2D66 JUMPI DUP14 PUSH1 0x3 DUP7 ADD SWAP7 PUSH1 0x1 DUP1 PUSH1 0xA0 SHL SUB DUP9 DUP11 DUP3 DUP1 SWAP12 SLOAD AND DUP1 ISZERO PUSH1 0x0 EQ PUSH2 0x2D08 JUMPI POP POP POP POP PUSH2 0x2B90 DUP6 SELFBALANCE LT ISZERO PUSH2 0x2959 JUMP JUMPDEST DUP2 DUP1 DUP1 DUP1 DUP13 DUP13 PUSH1 0x2 DUP14 ADD SLOAD AND GAS CALL SWAP2 PUSH2 0x2BA7 PUSH2 0x2A1D JUMP JUMPDEST POP DUP2 ISZERO ISZERO DUP4 DUP2 PUSH2 0x2D00 JUMPI JUMPDEST POP PUSH2 0x2CE3 JUMPI JUMPDEST POP POP JUMPDEST ISZERO PUSH2 0x2C90 JUMPI PUSH32 0x2727CAF80B6DA2DFA4408DF2026C1FE59761D4B9184F422B225772BB9C3B7EE2 SWAP8 SWAP7 SWAP6 SWAP5 SWAP3 PUSH1 0x2 SWAP5 SWAP3 PUSH2 0x2C06 DUP16 SWAP4 PUSH2 0x145F PUSH2 0x2C32 SWAP6 TIMESTAMP PUSH1 0x8 DUP11 ADD SSTORE DUP5 SLOAD SWAP3 SLOAD SWAP1 PUSH2 0x26C0 JUMP JUMPDEST SWAP1 SSTORE PUSH1 0x9 DUP5 ADD PUSH2 0x2C17 DUP9 DUP3 SLOAD PUSH2 0x270F JUMP JUMPDEST SWAP1 SSTORE DUP14 PUSH2 0x2C29 PUSH1 0xA DUP7 ADD SWAP2 DUP3 SLOAD PUSH2 0x270F JUMP JUMPDEST SWAP1 SSTORE DUP3 SLOAD PUSH2 0x26F3 JUMP JUMPDEST SWAP1 SSTORE PUSH2 0x2C7A DUP6 PUSH2 0x2C42 DUP11 SLOAD PUSH2 0x2700 JUMP JUMPDEST SWAP14 DUP15 DUP1 SWAP12 SSTORE DUP10 DUP2 MSTORE PUSH1 0x6 DUP13 MSTORE KECCAK256 DUP7 MLOAD SWAP1 PUSH2 0x2C5B DUP3 PUSH2 0x2739 JUMP JUMPDEST DUP11 DUP3 MSTORE DUP10 DUP13 DUP4 ADD MSTORE DUP7 DUP9 DUP4 ADD MSTORE TIMESTAMP PUSH1 0x60 DUP4 ADD MSTORE PUSH1 0x1 PUSH1 0x80 DUP4 ADD MSTORE PUSH2 0x2A4D JUMP JUMPDEST ADD SLOAD AND SWAP6 DUP3 MLOAD SWAP2 DUP3 MSTORE TIMESTAMP SWAP1 DUP3 ADD MSTORE LOG4 PUSH1 0x1 SWAP3 SWAP2 SWAP1 JUMP JUMPDEST POP POP POP POP POP POP SWAP1 DUP4 SWAP8 SWAP7 POP PUSH2 0x2CA9 PUSH2 0x2CDD SWAP6 SWAP5 SLOAD PUSH2 0x2700 JUMP JUMPDEST DUP1 SWAP9 SSTORE DUP3 DUP8 MSTORE PUSH1 0x6 DUP5 MSTORE DUP1 DUP8 KECCAK256 SWAP3 DUP2 MLOAD SWAP5 PUSH2 0x2CC3 DUP7 PUSH2 0x2739 JUMP JUMPDEST DUP10 DUP7 MSTORE DUP6 ADD MSTORE DUP4 ADD MSTORE TIMESTAMP PUSH1 0x60 DUP4 ADD MSTORE DUP5 PUSH1 0x80 DUP4 ADD MSTORE PUSH2 0x2A4D JUMP JUMPDEST DUP2 SWAP3 SWAP2 SWAP1 JUMP JUMPDEST DUP1 DUP1 DUP1 PUSH2 0x2CF9 SWAP5 DUP13 PUSH1 0xA SLOAD AND GAS CALL PUSH2 0x1590 PUSH2 0x2A1D JUMP JUMPDEST CODESIZE DUP16 PUSH2 0x2BB8 JUMP JUMPDEST SWAP1 POP CODESIZE PUSH2 0x2BB2 JUMP JUMPDEST PUSH2 0x2D2B SWAP3 SWAP4 SWAP5 SWAP6 POP PUSH2 0x2D1E DUP10 PUSH2 0x15B7 ADDRESS DUP5 PUSH2 0x351A JUMP JUMPDEST DUP5 PUSH1 0x2 DUP13 ADD SLOAD AND SWAP1 PUSH2 0x33DF JUMP JUMPDEST SWAP3 DUP1 ISZERO ISZERO DUP1 PUSH2 0x2D5F JUMPI JUMPDEST PUSH2 0x2D42 JUMPI JUMPDEST POP POP POP PUSH2 0x2BBB JUMP JUMPDEST PUSH2 0x2D57 SWAP3 PUSH2 0x1608 SWAP3 SLOAD AND DUP11 PUSH1 0xA SLOAD AND SWAP1 PUSH2 0x33DF JUMP JUMPDEST DUP7 CODESIZE DUP1 PUSH2 0x2D3A JUMP JUMPDEST POP DUP4 PUSH2 0x2D35 JUMP JUMPDEST DUP8 MLOAD PUSH3 0x461BCD PUSH1 0xE5 SHL DUP2 MSTORE DUP1 DUP12 ADD DUP13 SWAP1 MSTORE PUSH1 0x29 PUSH1 0x24 DUP3 ADD MSTORE PUSH32 0x537562736372697074696F6E4D616E616765723A20496E73756666696369656E PUSH1 0x44 DUP3 ADD MSTORE PUSH9 0x742062616C616E6365 PUSH1 0xB8 SHL PUSH1 0x64 DUP3 ADD MSTORE PUSH1 0x84 SWAP1 REVERT JUMPDEST SWAP1 PUSH2 0x1637 PUSH2 0x2DCC SWAP3 SWAP11 SWAP4 SWAP11 TIMESTAMP PUSH2 0x26F3 JUMP JUMPDEST SWAP1 DUP2 ADD DUP1 SWAP2 GT PUSH2 0x2DDE JUMPI SWAP7 CODESIZE DUP1 PUSH2 0x2B18 JUMP JUMPDEST PUSH4 0x4E487B71 PUSH1 0xE0 SHL DUP10 MSTORE PUSH1 0x11 PUSH1 0x4 MSTORE PUSH1 0x24 DUP10 REVERT JUMPDEST DUP2 MLOAD PUSH3 0x461BCD PUSH1 0xE5 SHL DUP2 MSTORE PUSH1 0x4 DUP2 ADD DUP7 SWAP1 MSTORE PUSH1 0x24 DUP1 DUP3 ADD MSTORE PUSH32 0x537562736372697074696F6E4D616E616765723A205061796D656E74206E6F74 PUSH1 0x44 DUP3 ADD MSTORE PUSH4 0x20647565 PUSH1 0xE0 SHL PUSH1 0x64 DUP3 ADD MSTORE PUSH1 0x84 SWAP1 REVERT JUMPDEST PUSH4 0x4E487B71 PUSH1 0xE0 SHL DUP8 MSTORE PUSH1 0x21 PUSH1 0x4 MSTORE PUSH1 0x24 DUP8 REVERT JUMPDEST SWAP2 SWAP1 DUP2 LT ISZERO PUSH2 0x285D JUMPI PUSH1 0x5 SHL ADD SWAP1 JUMP JUMPDEST ISZERO PUSH2 0x2E6D JUMPI JUMP JUMPDEST PUSH1 0x40 MLOAD PUSH3 0x461BCD PUSH1 0xE5 SHL DUP2 MSTORE PUSH1 0x20 PUSH1 0x4 DUP3 ADD MSTORE PUSH1 0x21 PUSH1 0x24 DUP3 ADD MSTORE PUSH32 0x537562736372697074696F6E4D616E616765723A20556E617574686F72697A65 PUSH1 0x44 DUP3 ADD MSTORE PUSH1 0x19 PUSH1 0xFA SHL PUSH1 0x64 DUP3 ADD MSTORE PUSH1 0x84 SWAP1 REVERT JUMPDEST ISZERO PUSH2 0x2EC3 JUMPI JUMP JUMPDEST PUSH1 0x40 MLOAD PUSH3 0x461BCD PUSH1 0xE5 SHL DUP2 MSTORE PUSH1 0x20 PUSH1 0x4 DUP3 ADD MSTORE PUSH1 0x22 PUSH1 0x24 DUP3 ADD MSTORE PUSH32 0x537562736372697074696F6E4D616E616765723A20526566756E64206661696C PUSH1 0x44 DUP3 ADD MSTORE PUSH2 0x1959 PUSH1 0xF2 SHL PUSH1 0x64 DUP3 ADD MSTORE PUSH1 0x84 SWAP1 REVERT JUMPDEST PUSH1 0x40 MLOAD SWAP1 PUSH2 0x2F20 DUP3 PUSH2 0x271C JUMP JUMPDEST PUSH1 0x60 PUSH2 0x1C0 DUP4 PUSH1 0x0 DUP1 DUP3 MSTORE DUP1 PUSH1 0x20 DUP4 ADD MSTORE DUP1 PUSH1 0x40 DUP4 ADD MSTORE DUP1 DUP5 DUP4 ADD MSTORE DUP1 PUSH1 0x80 DUP4 ADD MSTORE DUP1 PUSH1 0xA0 DUP4 ADD MSTORE DUP1 PUSH1 0xC0 DUP4 ADD MSTORE DUP1 PUSH1 0xE0 DUP4 ADD MSTORE DUP1 PUSH2 0x100 DUP4 ADD MSTORE DUP1 PUSH2 0x120 DUP4 ADD MSTORE DUP1 PUSH2 0x140 DUP4 ADD MSTORE DUP1 PUSH2 0x160 DUP4 ADD MSTORE PUSH2 0x180 DUP3 ADD MSTORE DUP3 PUSH2 0x1A0 DUP3 ADD MSTORE ADD MSTORE JUMP JUMPDEST SWAP1 PUSH1 0x40 MLOAD SWAP2 DUP3 PUSH1 0x0 DUP3 SLOAD SWAP3 PUSH2 0x2F95 DUP5 PUSH2 0x27FA JUMP JUMPDEST SWAP1 DUP2 DUP5 MSTORE PUSH1 0x1 SWAP5 DUP6 DUP2 AND SWAP1 DUP2 PUSH1 0x0 EQ PUSH2 0x3004 JUMPI POP PUSH1 0x1 EQ PUSH2 0x2FC1 JUMPI JUMPDEST POP POP PUSH2 0x2FBF SWAP3 POP SUB DUP4 PUSH2 0x2755 JUMP JUMPDEST JUMP JUMPDEST SWAP1 SWAP4 SWAP2 POP PUSH1 0x0 MSTORE PUSH1 0x20 SWAP1 DUP2 PUSH1 0x0 KECCAK256 SWAP4 PUSH1 0x0 SWAP2 JUMPDEST DUP2 DUP4 LT PUSH2 0x2FEC JUMPI POP POP PUSH2 0x2FBF SWAP4 POP DUP3 ADD ADD CODESIZE DUP1 PUSH2 0x2FB1 JUMP JUMPDEST DUP6 SLOAD DUP9 DUP5 ADD DUP6 ADD MSTORE SWAP5 DUP6 ADD SWAP5 DUP8 SWAP5 POP SWAP2 DUP4 ADD SWAP2 PUSH2 0x2FD4 JUMP JUMPDEST SWAP2 POP POP PUSH2 0x2FBF SWAP5 POP PUSH1 0x20 SWAP3 POP PUSH1 0xFF NOT AND DUP3 DUP5 ADD MSTORE ISZERO ISZERO PUSH1 0x5 SHL DUP3 ADD ADD CODESIZE DUP1 PUSH2 0x2FB1 JUMP JUMPDEST PUSH8 0xFFFFFFFFFFFFFFFF DUP2 GT PUSH2 0xBD3 JUMPI PUSH1 0x5 SHL PUSH1 0x20 ADD SWAP1 JUMP JUMPDEST DUP1 MLOAD DUP3 LT ISZERO PUSH2 0x285D JUMPI PUSH1 0x20 SWAP2 PUSH1 0x5 SHL ADD ADD SWAP1 JUMP JUMPDEST SWAP1 SWAP3 SWAP2 SWAP3 PUSH1 0x0 SWAP1 DUP3 DUP3 MSTORE PUSH1 0x5 SWAP1 PUSH1 0x20 SWAP3 DUP3 DUP5 MSTORE PUSH1 0x40 SWAP5 PUSH2 0x3077 DUP7 DUP4 KECCAK256 SLOAD ISZERO ISZERO PUSH2 0x28B7 JUMP JUMPDEST DUP2 MSTORE PUSH1 0x6 DUP5 MSTORE DUP5 DUP2 KECCAK256 SWAP3 DUP4 SLOAD SWAP1 PUSH2 0x308D DUP3 PUSH2 0x3027 JUMP JUMPDEST SWAP5 PUSH2 0x309A DUP9 MLOAD SWAP7 DUP8 PUSH2 0x2755 JUMP JUMPDEST DUP3 DUP7 MSTORE DUP4 MSTORE DUP6 DUP4 KECCAK256 DUP4 SWAP1 DUP8 DUP1 DUP9 ADD JUMPDEST DUP6 DUP5 LT PUSH2 0x31C8 JUMPI POP POP POP POP POP POP DUP3 MLOAD SWAP7 DUP8 DUP4 LT ISZERO PUSH2 0x318E JUMPI PUSH2 0x30CB SWAP1 DUP4 PUSH2 0x270F JUMP JUMPDEST DUP3 DUP9 DUP3 GT PUSH2 0x3186 JUMPI JUMPDEST PUSH2 0x30DD SWAP2 PUSH2 0x26F3 JUMP JUMPDEST SWAP4 PUSH2 0x30E7 DUP6 PUSH2 0x3027 JUMP JUMPDEST SWAP6 PUSH2 0x30F4 DUP2 MLOAD SWAP8 DUP9 PUSH2 0x2755 JUMP JUMPDEST DUP6 DUP8 MSTORE PUSH1 0x1F NOT PUSH2 0x3103 DUP8 PUSH2 0x3027 JUMP JUMPDEST ADD SWAP1 DUP4 JUMPDEST DUP3 DUP2 LT PUSH2 0x3154 JUMPI POP POP POP POP JUMPDEST DUP4 DUP2 LT PUSH2 0x3122 JUMPI POP POP POP POP SWAP2 SWAP1 JUMP JUMPDEST DUP1 PUSH2 0x3139 PUSH2 0x3133 PUSH2 0x314F SWAP4 DUP6 PUSH2 0x270F JUMP JUMPDEST DUP6 PUSH2 0x303F JUMP JUMPDEST MLOAD PUSH2 0x3144 DUP3 DUP9 PUSH2 0x303F JUMP JUMPDEST MSTORE PUSH2 0x1283 DUP2 DUP8 PUSH2 0x303F JUMP JUMPDEST PUSH2 0x3113 JUMP JUMPDEST DUP4 SWAP1 DUP3 MLOAD PUSH2 0x3161 DUP2 PUSH2 0x2739 JUMP JUMPDEST DUP7 DUP2 MSTORE DUP7 DUP4 DUP3 ADD MSTORE DUP7 DUP5 DUP3 ADD MSTORE DUP7 PUSH1 0x60 DUP3 ADD MSTORE DUP7 PUSH1 0x80 DUP3 ADD MSTORE DUP3 DUP3 DUP13 ADD ADD MSTORE ADD PUSH2 0x3107 JUMP JUMPDEST DUP9 SWAP2 POP PUSH2 0x30D4 JUMP JUMPDEST POP SWAP3 SWAP4 SWAP2 POP POP DUP1 MLOAD SWAP3 DUP4 ADD SWAP1 DUP4 DUP3 LT PUSH8 0xFFFFFFFFFFFFFFFF DUP4 GT OR PUSH2 0x31B4 JUMPI MSTORE DUP2 MSTORE SWAP2 SWAP1 JUMP JUMPDEST PUSH4 0x4E487B71 PUSH1 0xE0 SHL DUP4 MSTORE PUSH1 0x41 PUSH1 0x4 MSTORE PUSH1 0x24 DUP4 REVERT JUMPDEST PUSH1 0x1 SWAP2 DUP6 SWAP2 DUP13 MLOAD PUSH2 0x31D8 DUP2 PUSH2 0x2739 JUMP JUMPDEST DUP6 SLOAD DUP2 MSTORE DUP5 DUP7 ADD SLOAD DUP4 DUP3 ADD MSTORE DUP14 PUSH1 0x2 DUP8 ADD SLOAD SWAP1 DUP3 ADD MSTORE PUSH1 0x3 DUP7 ADD SLOAD PUSH1 0x60 DUP3 ADD MSTORE PUSH1 0xFF PUSH1 0x4 DUP8 ADD SLOAD AND ISZERO ISZERO PUSH1 0x80 DUP3 ADD MSTORE DUP2 MSTORE ADD SWAP3 ADD SWAP3 ADD SWAP2 SWAP1 DUP9 SWAP1 PUSH2 0x30A9 JUMP JUMPDEST SWAP1 PUSH2 0x3221 DUP3 PUSH2 0x3027 JUMP JUMPDEST PUSH2 0x322E PUSH1 0x40 MLOAD SWAP2 DUP3 PUSH2 0x2755 JUMP JUMPDEST DUP3 DUP2 MSTORE DUP1 SWAP3 PUSH2 0x323F PUSH1 0x1F NOT SWAP2 PUSH2 0x3027 JUMP JUMPDEST ADD SWAP1 PUSH1 0x0 JUMPDEST DUP3 DUP2 LT PUSH2 0x3250 JUMPI POP POP POP JUMP JUMPDEST PUSH1 0x20 SWAP1 PUSH2 0x325B PUSH2 0x2F13 JUMP JUMPDEST DUP3 DUP3 DUP6 ADD ADD MSTORE ADD PUSH2 0x3244 JUMP JUMPDEST PUSH1 0x4 DUP2 LT ISZERO PUSH2 0x358 JUMPI DUP1 PUSH2 0x327E JUMPI POP POP PUSH3 0x15180 SWAP1 JUMP JUMPDEST PUSH1 0x1 DUP2 SUB PUSH2 0x328F JUMPI POP POP PUSH3 0x93A80 SWAP1 JUMP JUMPDEST PUSH1 0x2 DUP2 SUB PUSH2 0x32A0 JUMPI POP POP PUSH3 0x278D00 SWAP1 JUMP JUMPDEST PUSH1 0x3 SUB PUSH2 0x3376 JUMPI PUSH3 0x15180 DUP2 LT PUSH2 0x331A JUMPI PUSH4 0x1E13380 DUP2 GT PUSH2 0x32BF JUMPI SWAP1 JUMP JUMPDEST PUSH1 0x40 MLOAD PUSH3 0x461BCD PUSH1 0xE5 SHL DUP2 MSTORE PUSH1 0x20 PUSH1 0x4 DUP3 ADD MSTORE PUSH1 0x2D PUSH1 0x24 DUP3 ADD MSTORE PUSH32 0x537562736372697074696F6E4D616E616765723A20437573746F6D20696E7465 PUSH1 0x44 DUP3 ADD MSTORE PUSH13 0x7276616C20746F6F206C6F6E67 PUSH1 0x98 SHL PUSH1 0x64 DUP3 ADD MSTORE PUSH1 0x84 SWAP1 REVERT JUMPDEST PUSH1 0x40 MLOAD PUSH3 0x461BCD PUSH1 0xE5 SHL DUP2 MSTORE PUSH1 0x20 PUSH1 0x4 DUP3 ADD MSTORE PUSH1 0x2E PUSH1 0x24 DUP3 ADD MSTORE PUSH32 0x537562736372697074696F6E4D616E616765723A20437573746F6D20696E7465 PUSH1 0x44 DUP3 ADD MSTORE PUSH14 0x1C9D985B081D1BDBC81CDA1BDC9D PUSH1 0x92 SHL PUSH1 0x64 DUP3 ADD MSTORE PUSH1 0x84 SWAP1 REVERT JUMPDEST PUSH1 0x40 MLOAD PUSH3 0x461BCD PUSH1 0xE5 SHL DUP2 MSTORE PUSH1 0x20 PUSH1 0x4 DUP3 ADD MSTORE PUSH1 0x24 DUP1 DUP3 ADD MSTORE PUSH32 0x537562736372697074696F6E4D616E616765723A20496E76616C696420636164 PUSH1 0x44 DUP3 ADD MSTORE PUSH4 0x656E6365 PUSH1 0xE0 SHL PUSH1 0x64 DUP3 ADD MSTORE PUSH1 0x84 SWAP1 REVERT JUMPDEST SWAP1 DUP2 PUSH1 0x20 SWAP2 SUB SLT PUSH2 0x1F3 JUMPI MLOAD DUP1 ISZERO ISZERO DUP2 SUB PUSH2 0x1F3 JUMPI SWAP1 JUMP JUMPDEST PUSH1 0x0 SWAP3 DUP4 SWAP3 SWAP1 SWAP2 PUSH1 0x1 PUSH1 0x1 PUSH1 0xA0 SHL SUB SWAP1 DUP2 AND DUP1 PUSH2 0x3464 JUMPI POP POP DUP3 SWAP4 POP DUP3 SWAP2 DUP3 SWAP2 GAS CALL PUSH2 0x3409 PUSH2 0x2A1D JUMP JUMPDEST POP DUP1 ISZERO PUSH2 0x3413 JUMPI SWAP1 JUMP JUMPDEST PUSH1 0x40 MLOAD PUSH3 0x461BCD PUSH1 0xE5 SHL DUP2 MSTORE PUSH1 0x20 PUSH1 0x4 DUP3 ADD MSTORE PUSH1 0x23 PUSH1 0x24 DUP3 ADD MSTORE PUSH32 0x546F6B656E48656C7065723A204E6174697665207472616E7366657220666169 PUSH1 0x44 DUP3 ADD MSTORE PUSH3 0x1B1959 PUSH1 0xEA SHL PUSH1 0x64 DUP3 ADD MSTORE PUSH1 0x84 SWAP1 REVERT JUMPDEST PUSH1 0x20 SWAP3 DUP6 PUSH1 0x44 SWAP3 PUSH1 0x40 MLOAD SWAP7 DUP8 SWAP6 DUP7 SWAP5 PUSH4 0xA9059CBB PUSH1 0xE0 SHL DUP7 MSTORE AND PUSH1 0x4 DUP6 ADD MSTORE PUSH1 0x24 DUP5 ADD MSTORE GAS CALL SWAP2 DUP3 ISZERO PUSH2 0x350E JUMPI SWAP2 PUSH2 0x34F0 JUMPI JUMPDEST POP ISZERO PUSH2 0x34A0 JUMPI SWAP1 JUMP JUMPDEST PUSH1 0x40 MLOAD PUSH3 0x461BCD PUSH1 0xE5 SHL DUP2 MSTORE PUSH1 0x20 PUSH1 0x4 DUP3 ADD MSTORE PUSH1 0x22 PUSH1 0x24 DUP3 ADD MSTORE PUSH32 0x546F6B656E48656C7065723A204552433230207472616E73666572206661696C PUSH1 0x44 DUP3 ADD MSTORE PUSH2 0x1959 PUSH1 0xF2 SHL PUSH1 0x64 DUP3 ADD MSTORE PUSH1 0x84 SWAP1 REVERT JUMPDEST PUSH2 0x3508 SWAP2 POP PUSH1 0x20 RETURNDATASIZE DUP2 GT PUSH2 0x2060 JUMPI PUSH2 0x2052 DUP2 DUP4 PUSH2 0x2755 JUMP JUMPDEST CODESIZE PUSH2 0x3497 JUMP JUMPDEST PUSH1 0x40 MLOAD SWAP1 RETURNDATASIZE SWAP1 DUP3 RETURNDATACOPY RETURNDATASIZE SWAP1 REVERT JUMPDEST PUSH1 0x1 PUSH1 0x1 PUSH1 0xA0 SHL SUB SWAP1 DUP2 AND SWAP1 DUP2 PUSH2 0x3531 JUMPI POP POP BALANCE SWAP1 JUMP JUMPDEST PUSH1 0x40 MLOAD PUSH4 0x70A08231 PUSH1 0xE0 SHL DUP2 MSTORE SWAP3 AND PUSH1 0x4 DUP4 ADD MSTORE PUSH1 0x20 SWAP1 DUP3 SWAP1 PUSH1 0x24 SWAP1 DUP3 SWAP1 GAS STATICCALL SWAP1 DUP2 ISZERO PUSH2 0x2067 JUMPI PUSH1 0x0 SWAP2 PUSH2 0x3563 JUMPI POP SWAP1 JUMP JUMPDEST SWAP1 PUSH1 0x20 DUP3 RETURNDATASIZE DUP3 GT PUSH2 0x358C JUMPI JUMPDEST DUP2 PUSH2 0x357C PUSH1 0x20 SWAP4 DUP4 PUSH2 0x2755 JUMP JUMPDEST DUP2 ADD SUB SLT PUSH2 0x3589 JUMPI POP MLOAD SWAP1 JUMP JUMPDEST DUP1 REVERT JUMPDEST RETURNDATASIZE SWAP2 POP PUSH2 0x356F JUMP INVALID MSTORE8 PUSH22 0x62736372697074696F6E4D616E616765723A20537562 PUSH20 0x6372697074696FA2646970667358221220D9DEA0 0xFC DUP2 0x4B JUMP 0xCC DUP5 PUSH32 0x6030F65DA50EEFB2CA86F6AE481EE6E75E2EED7C9F7964736F6C634300081400 CALLER "
        },
        "methodIdentifiers": {
          "MAX_AMOUNT()": "d40dc870",
          "MAX_DESCRIPTION_LEN()": "8a2320da",
          "MAX_TITLE_LEN()": "1b3a65b4",
          "MIN_AMOUNT()": "ddbcb5fa",
          "cancelSubscription(uint256)": "21235083",
          "createSubscription(address,address,uint256,uint8,uint256,uint256,string,string)": "a434fcfa",
          "depositToSubscription(uint256,uint256)": "137f9860",
          "dripCore()": "a4bb0d2d",
          "executeBatchPayments(uint256[])": "75ce012b",
          "executePayment(uint256)": "162a0cf8",
          "getContractBalance(address)": "43ab265f",
          "getPaymentHistory(uint256,uint256,uint256)": "b5126bf1",
          "getRecipientSubscriptions(address)": "c7ae12ff",
          "getSubscriberSubscriptions(address)": "c31bb1e5",
          "getSubscription(uint256)": "dc311dd3",
          "getSubscriptionBalance(uint256)": "4121b8c8",
          "getUserReceivedSubscriptions(address)": "408c8d56",
          "getUserSubscriptions(address)": "2e6ca588",
          "getUserSubscriptionsAll(address)": "88d2cea3",
          "isPaymentDue(uint256)": "e816e87f",
          "modifySubscription(uint256,uint256,uint8,uint256)": "9d48dde9",
          "owner()": "8da5cb5b",
          "pauseSubscription(uint256)": "41f23f0a",
          "platformFeeBps()": "22dcd13e",
          "platformFeeRecipient()": "eb13554f",
          "renounceOwnership()": "715018a6",
          "resumeSubscription(uint256)": "023a584e",
          "setPlatformFee(uint256)": "12e8e2c3",
          "setPlatformFeeRecipient(address)": "1871e243",
          "transferOwnership(address)": "f2fde38b"
        }
      }
    }
  }
}