{
  "_format": "hh-sol-artifact-1",
  "contractName": "DripCore",
  "sourceName": "contracts/DripCore.sol",
  "abi": [
    {
      "inputs": [
        {
          "internalType": "address",
          "name": "_platformFeeRecipient",
          "type": "address"
        }
      ],
      "stateMutability": "nonpayable",
      "type": "constructor"
    },
    {
      "inputs": [
        {
          "internalType": "address",
          "name": "owner",
          "type": "address"
        }
      ],
      "name": "OwnableInvalidOwner",
      "type": "error"
    },
    {
      "inputs": [
        {
          "internalType": "address",
          "name": "account",
          "type": "address"
        }
      ],
      "name": "OwnableUnauthorizedAccount",
      "type": "error"
    },
    {
      "inputs": [],
      "name": "ReentrancyGuardReentrantCall",
      "type": "error"
    },
    {
      "anonymous": false,
      "inputs": [
        {
          "indexed": true,
          "internalType": "address",
          "name": "previousOwner",
          "type": "address"
        },
        {
          "indexed": true,
          "internalType": "address",
          "name": "newOwner",
          "type": "address"
        }
      ],
      "name": "OwnershipTransferred",
      "type": "event"
    },
    {
      "anonymous": false,
      "inputs": [
        {
          "indexed": true,
          "internalType": "uint256",
          "name": "streamId",
          "type": "uint256"
        },
        {
          "indexed": true,
          "internalType": "address",
          "name": "recipient",
          "type": "address"
        },
        {
          "indexed": false,
          "internalType": "uint256",
          "name": "amountPerPeriod",
          "type": "uint256"
        },
        {
          "indexed": false,
          "internalType": "uint256",
          "name": "ratePerSecond",
          "type": "uint256"
        }
      ],
      "name": "RecipientAdded",
      "type": "event"
    },
    {
      "anonymous": false,
      "inputs": [
        {
          "indexed": true,
          "internalType": "uint256",
          "name": "streamId",
          "type": "uint256"
        },
        {
          "indexed": true,
          "internalType": "address",
          "name": "recipient",
          "type": "address"
        },
        {
          "indexed": false,
          "internalType": "uint256",
          "name": "oldRatePerSecond",
          "type": "uint256"
        },
        {
          "indexed": false,
          "internalType": "uint256",
          "name": "newRatePerSecond",
          "type": "uint256"
        }
      ],
      "name": "RecipientRateUpdated",
      "type": "event"
    },
    {
      "anonymous": false,
      "inputs": [
        {
          "indexed": true,
          "internalType": "uint256",
          "name": "streamId",
          "type": "uint256"
        },
        {
          "indexed": true,
          "internalType": "address",
          "name": "recipient",
          "type": "address"
        },
        {
          "indexed": false,
          "internalType": "uint256",
          "name": "refundAmount",
          "type": "uint256"
        }
      ],
      "name": "RecipientRemoved",
      "type": "event"
    },
    {
      "anonymous": false,
      "inputs": [
        {
          "indexed": true,
          "internalType": "uint256",
          "name": "streamId",
          "type": "uint256"
        },
        {
          "indexed": true,
          "internalType": "address",
          "name": "by",
          "type": "address"
        },
        {
          "indexed": false,
          "internalType": "uint256",
          "name": "refundAmount",
          "type": "uint256"
        }
      ],
      "name": "StreamCancelled",
      "type": "event"
    },
    {
      "anonymous": false,
      "inputs": [
        {
          "indexed": true,
          "internalType": "uint256",
          "name": "streamId",
          "type": "uint256"
        }
      ],
      "name": "StreamCompleted",
      "type": "event"
    },
    {
      "anonymous": false,
      "inputs": [
        {
          "indexed": true,
          "internalType": "uint256",
          "name": "streamId",
          "type": "uint256"
        },
        {
          "indexed": true,
          "internalType": "address",
          "name": "sender",
          "type": "address"
        },
        {
          "indexed": false,
          "internalType": "address[]",
          "name": "recipients",
          "type": "address[]"
        },
        {
          "indexed": false,
          "internalType": "address",
          "name": "token",
          "type": "address"
        },
        {
          "indexed": false,
          "internalType": "uint256",
          "name": "deposit",
          "type": "uint256"
        },
        {
          "indexed": false,
          "internalType": "uint256",
          "name": "startTime",
          "type": "uint256"
        },
        {
          "indexed": false,
          "internalType": "uint256",
          "name": "endTime",
          "type": "uint256"
        },
        {
          "indexed": false,
          "internalType": "string",
          "name": "title",
          "type": "string"
        },
        {
          "indexed": false,
          "internalType": "string",
          "name": "description",
          "type": "string"
        }
      ],
      "name": "StreamCreated",
      "type": "event"
    },
    {
      "anonymous": false,
      "inputs": [
        {
          "indexed": true,
          "internalType": "uint256",
          "name": "streamId",
          "type": "uint256"
        },
        {
          "indexed": true,
          "internalType": "address",
          "name": "by",
          "type": "address"
        }
      ],
      "name": "StreamPaused",
      "type": "event"
    },
    {
      "anonymous": false,
      "inputs": [
        {
          "indexed": true,
          "internalType": "uint256",
          "name": "streamId",
          "type": "uint256"
        },
        {
          "indexed": true,
          "internalType": "address",
          "name": "by",
          "type": "address"
        }
      ],
      "name": "StreamResumed",
      "type": "event"
    },
    {
      "anonymous": false,
      "inputs": [
        {
          "indexed": true,
          "internalType": "uint256",
          "name": "streamId",
          "type": "uint256"
        },
        {
          "indexed": true,
          "internalType": "address",
          "name": "recipient",
          "type": "address"
        },
        {
          "indexed": false,
          "internalType": "uint256",
          "name": "amount",
          "type": "uint256"
        }
      ],
      "name": "StreamWithdrawn",
      "type": "event"
    },
    {
      "inputs": [],
      "name": "MAX_DESCRIPTION_LEN",
      "outputs": [
        {
          "internalType": "uint256",
          "name": "",
          "type": "uint256"
        }
      ],
      "stateMutability": "view",
      "type": "function"
    },
    {
      "inputs": [],
      "name": "MAX_DURATION",
      "outputs": [
        {
          "internalType": "uint256",
          "name": "",
          "type": "uint256"
        }
      ],
      "stateMutability": "view",
      "type": "function"
    },
    {
      "inputs": [],
      "name": "MAX_TITLE_LEN",
      "outputs": [
        {
          "internalType": "uint256",
          "name": "",
          "type": "uint256"
        }
      ],
      "stateMutability": "view",
      "type": "function"
    },
    {
      "inputs": [],
      "name": "MIN_DURATION",
      "outputs": [
        {
          "internalType": "uint256",
          "name": "",
          "type": "uint256"
        }
      ],
      "stateMutability": "view",
      "type": "function"
    },
    {
      "inputs": [
        {
          "internalType": "uint256",
          "name": "streamId",
          "type": "uint256"
        },
        {
          "internalType": "address",
          "name": "recipient",
          "type": "address"
        },
        {
          "internalType": "uint256",
          "name": "amountPerPeriod",
          "type": "uint256"
        },
        {
          "internalType": "uint256",
          "name": "additionalDeposit",
          "type": "uint256"
        }
      ],
      "name": "addRecipient",
      "outputs": [],
      "stateMutability": "payable",
      "type": "function"
    },
    {
      "inputs": [
        {
          "internalType": "uint256",
          "name": "streamId",
          "type": "uint256"
        }
      ],
      "name": "cancelStream",
      "outputs": [],
      "stateMutability": "nonpayable",
      "type": "function"
    },
    {
      "inputs": [
        {
          "internalType": "address[]",
          "name": "recipients",
          "type": "address[]"
        },
        {
          "internalType": "address",
          "name": "token",
          "type": "address"
        },
        {
          "internalType": "uint256[]",
          "name": "amountsPerPeriod",
          "type": "uint256[]"
        },
        {
          "internalType": "uint256",
          "name": "periodSeconds",
          "type": "uint256"
        },
        {
          "internalType": "uint256",
          "name": "deposit",
          "type": "uint256"
        },
        {
          "internalType": "string",
          "name": "title",
          "type": "string"
        },
        {
          "internalType": "string",
          "name": "description",
          "type": "string"
        }
      ],
      "name": "createStream",
      "outputs": [
        {
          "internalType": "uint256",
          "name": "streamId",
          "type": "uint256"
        }
      ],
      "stateMutability": "payable",
      "type": "function"
    },
    {
      "inputs": [
        {
          "internalType": "uint256",
          "name": "streamId",
          "type": "uint256"
        }
      ],
      "name": "getAllRecipientsInfo",
      "outputs": [
        {
          "components": [
            {
              "internalType": "address",
              "name": "recipient",
              "type": "address"
            },
            {
              "internalType": "uint256",
              "name": "ratePerSecond",
              "type": "uint256"
            },
            {
              "internalType": "uint256",
              "name": "totalWithdrawn",
              "type": "uint256"
            },
            {
              "internalType": "uint256",
              "name": "lastWithdrawTime",
              "type": "uint256"
            },
            {
              "internalType": "uint256",
              "name": "currentAccrued",
              "type": "uint256"
            }
          ],
          "internalType": "struct IDrip.RecipientInfo[]",
          "name": "recipients",
          "type": "tuple[]"
        }
      ],
      "stateMutability": "view",
      "type": "function"
    },
    {
      "inputs": [
        {
          "internalType": "address",
          "name": "token",
          "type": "address"
        }
      ],
      "name": "getContractBalance",
      "outputs": [
        {
          "internalType": "uint256",
          "name": "balance",
          "type": "uint256"
        }
      ],
      "stateMutability": "view",
      "type": "function"
    },
    {
      "inputs": [
        {
          "internalType": "uint256",
          "name": "streamId",
          "type": "uint256"
        },
        {
          "internalType": "address",
          "name": "recipient",
          "type": "address"
        }
      ],
      "name": "getRecipientBalance",
      "outputs": [
        {
          "internalType": "uint256",
          "name": "balance",
          "type": "uint256"
        }
      ],
      "stateMutability": "view",
      "type": "function"
    },
    {
      "inputs": [
        {
          "internalType": "uint256",
          "name": "streamId",
          "type": "uint256"
        },
        {
          "internalType": "address",
          "name": "recipient",
          "type": "address"
        }
      ],
      "name": "getRecipientInfo",
      "outputs": [
        {
          "components": [
            {
              "internalType": "address",
              "name": "recipient",
              "type": "address"
            },
            {
              "internalType": "uint256",
              "name": "ratePerSecond",
              "type": "uint256"
            },
            {
              "internalType": "uint256",
              "name": "totalWithdrawn",
              "type": "uint256"
            },
            {
              "internalType": "uint256",
              "name": "lastWithdrawTime",
              "type": "uint256"
            },
            {
              "internalType": "uint256",
              "name": "currentAccrued",
              "type": "uint256"
            }
          ],
          "internalType": "struct IDrip.RecipientInfo",
          "name": "info",
          "type": "tuple"
        }
      ],
      "stateMutability": "view",
      "type": "function"
    },
    {
      "inputs": [
        {
          "internalType": "address",
          "name": "recipient",
          "type": "address"
        }
      ],
      "name": "getRecipientStreams",
      "outputs": [
        {
          "internalType": "uint256[]",
          "name": "streamIds",
          "type": "uint256[]"
        }
      ],
      "stateMutability": "view",
      "type": "function"
    },
    {
      "inputs": [
        {
          "internalType": "address",
          "name": "sender",
          "type": "address"
        }
      ],
      "name": "getSenderStreams",
      "outputs": [
        {
          "internalType": "uint256[]",
          "name": "streamIds",
          "type": "uint256[]"
        }
      ],
      "stateMutability": "view",
      "type": "function"
    },
    {
      "inputs": [
        {
          "internalType": "uint256",
          "name": "streamId",
          "type": "uint256"
        }
      ],
      "name": "getStream",
      "outputs": [
        {
          "components": [
            {
              "internalType": "uint256",
              "name": "streamId",
              "type": "uint256"
            },
            {
              "internalType": "address",
              "name": "sender",
              "type": "address"
            },
            {
              "internalType": "address[]",
              "name": "recipients",
              "type": "address[]"
            },
            {
              "internalType": "address",
              "name": "token",
              "type": "address"
            },
            {
              "internalType": "uint256",
              "name": "deposit",
              "type": "uint256"
            },
            {
              "internalType": "uint256",
              "name": "startTime",
              "type": "uint256"
            },
            {
              "internalType": "uint256",
              "name": "endTime",
              "type": "uint256"
            },
            {
              "internalType": "enum IDrip.StreamStatus",
              "name": "status",
              "type": "uint8"
            },
            {
              "internalType": "string",
              "name": "title",
              "type": "string"
            },
            {
              "internalType": "string",
              "name": "description",
              "type": "string"
            }
          ],
          "internalType": "struct IDrip.Stream",
          "name": "stream",
          "type": "tuple"
        }
      ],
      "stateMutability": "view",
      "type": "function"
    },
    {
      "inputs": [
        {
          "internalType": "address",
          "name": "user",
          "type": "address"
        }
      ],
      "name": "getUserReceivedStreams",
      "outputs": [
        {
          "components": [
            {
              "internalType": "uint256",
              "name": "streamId",
              "type": "uint256"
            },
            {
              "internalType": "address",
              "name": "sender",
              "type": "address"
            },
            {
              "internalType": "address[]",
              "name": "recipients",
              "type": "address[]"
            },
            {
              "internalType": "address",
              "name": "token",
              "type": "address"
            },
            {
              "internalType": "uint256",
              "name": "deposit",
              "type": "uint256"
            },
            {
              "internalType": "uint256",
              "name": "startTime",
              "type": "uint256"
            },
            {
              "internalType": "uint256",
              "name": "endTime",
              "type": "uint256"
            },
            {
              "internalType": "enum IDrip.StreamStatus",
              "name": "status",
              "type": "uint8"
            },
            {
              "internalType": "string",
              "name": "title",
              "type": "string"
            },
            {
              "internalType": "string",
              "name": "description",
              "type": "string"
            }
          ],
          "internalType": "struct IDrip.Stream[]",
          "name": "streams",
          "type": "tuple[]"
        }
      ],
      "stateMutability": "view",
      "type": "function"
    },
    {
      "inputs": [
        {
          "internalType": "address",
          "name": "user",
          "type": "address"
        }
      ],
      "name": "getUserSentStreams",
      "outputs": [
        {
          "components": [
            {
              "internalType": "uint256",
              "name": "streamId",
              "type": "uint256"
            },
            {
              "internalType": "address",
              "name": "sender",
              "type": "address"
            },
            {
              "internalType": "address[]",
              "name": "recipients",
              "type": "address[]"
            },
            {
              "internalType": "address",
              "name": "token",
              "type": "address"
            },
            {
              "internalType": "uint256",
              "name": "deposit",
              "type": "uint256"
            },
            {
              "internalType": "uint256",
              "name": "startTime",
              "type": "uint256"
            },
            {
              "internalType": "uint256",
              "name": "endTime",
              "type": "uint256"
            },
            {
              "internalType": "enum IDrip.StreamStatus",
              "name": "status",
              "type": "uint8"
            },
            {
              "internalType": "string",
              "name": "title",
              "type": "string"
            },
            {
              "internalType": "string",
              "name": "description",
              "type": "string"
            }
          ],
          "internalType": "struct IDrip.Stream[]",
          "name": "streams",
          "type": "tuple[]"
        }
      ],
      "stateMutability": "view",
      "type": "function"
    },
    {
      "inputs": [],
      "name": "owner",
      "outputs": [
        {
          "internalType": "address",
          "name": "",
          "type": "address"
        }
      ],
      "stateMutability": "view",
      "type": "function"
    },
    {
      "inputs": [
        {
          "internalType": "uint256",
          "name": "streamId",
          "type": "uint256"
        }
      ],
      "name": "pauseStream",
      "outputs": [],
      "stateMutability": "nonpayable",
      "type": "function"
    },
    {
      "inputs": [],
      "name": "platformFeeBps",
      "outputs": [
        {
          "internalType": "uint256",
          "name": "",
          "type": "uint256"
        }
      ],
      "stateMutability": "view",
      "type": "function"
    },
    {
      "inputs": [],
      "name": "platformFeeRecipient",
      "outputs": [
        {
          "internalType": "address",
          "name": "",
          "type": "address"
        }
      ],
      "stateMutability": "view",
      "type": "function"
    },
    {
      "inputs": [
        {
          "internalType": "uint256",
          "name": "streamId",
          "type": "uint256"
        },
        {
          "internalType": "address",
          "name": "recipient",
          "type": "address"
        }
      ],
      "name": "removeRecipient",
      "outputs": [],
      "stateMutability": "nonpayable",
      "type": "function"
    },
    {
      "inputs": [],
      "name": "renounceOwnership",
      "outputs": [],
      "stateMutability": "nonpayable",
      "type": "function"
    },
    {
      "inputs": [
        {
          "internalType": "uint256",
          "name": "streamId",
          "type": "uint256"
        }
      ],
      "name": "resumeStream",
      "outputs": [],
      "stateMutability": "nonpayable",
      "type": "function"
    },
    {
      "inputs": [
        {
          "internalType": "uint256",
          "name": "newFeeBps",
          "type": "uint256"
        }
      ],
      "name": "setPlatformFee",
      "outputs": [],
      "stateMutability": "nonpayable",
      "type": "function"
    },
    {
      "inputs": [
        {
          "internalType": "address",
          "name": "newRecipient",
          "type": "address"
        }
      ],
      "name": "setPlatformFeeRecipient",
      "outputs": [],
      "stateMutability": "nonpayable",
      "type": "function"
    },
    {
      "inputs": [
        {
          "internalType": "address",
          "name": "newOwner",
          "type": "address"
        }
      ],
      "name": "transferOwnership",
      "outputs": [],
      "stateMutability": "nonpayable",
      "type": "function"
    },
    {
      "inputs": [
        {
          "internalType": "uint256",
          "name": "streamId",
          "type": "uint256"
        },
        {
          "internalType": "address",
          "name": "recipient",
          "type": "address"
        },
        {
          "internalType": "uint256",
          "name": "newAmountPerPeriod",
          "type": "uint256"
        },
        {
          "internalType": "uint256",
          "name": "additionalDeposit",
          "type": "uint256"
        }
      ],
      "name": "updateRecipientRate",
      "outputs": [],
      "stateMutability": "payable",
      "type": "function"
    },
    {
      "inputs": [
        {
          "internalType": "uint256",
          "name": "streamId",
          "type": "uint256"
        },
        {
          "internalType": "address",
          "name": "recipient",
          "type": "address"
        },
        {
          "internalType": "uint256",
          "name": "amount",
          "type": "uint256"
        }
      ],
      "name": "withdrawFromStream",
      "outputs": [
        {
          "internalType": "uint256",
          "name": "withdrawn",
          "type": "uint256"
        }
      ],
      "stateMutability": "nonpayable",
      "type": "function"
    },
    {
      "stateMutability": "payable",
      "type": "receive"
    }
  ],
  "bytecode": "0x6080346200012657601f62003be538819003918201601f19168301916001600160401b038311848410176200012b578084926020946040528339810103126200012657516001600160a01b03808216918290036200012657600160005533156200010d5760018054336001600160a01b0319808316821790935560405192939091167f8be0079c531659141344cd1fd0a4f28419497f9722a3daafe3b4186f6b6457e0600080a36032600b558215620000cb5750600c541617600c55604051613aa39081620001428239f35b62461bcd60e51b815260206004820152601f60248201527f44726970436f72653a20496e76616c69642066656520726563697069656e74006044820152606490fd5b604051631e4fbdf760e01b815260006004820152602490fd5b600080fd5b634e487b7160e01b600052604160045260246000fdfe6080604052600436101561001b575b361561001957600080fd5b005b60003560e01c8063061b3354146126bd5780630e3c61331461237357806312e8e2c31461230b5780631871e243146122be5780631b3a65b4146122a257806322dcd13e14612284578063344ec9661461207e57806343ab265f146120515780636db9241b14611ea3578063715018a614611e46578063746ff13d14611d87578063819c358214611a78578063894e9a0d14611a235780638a2320da14611a065780638da5cb5b146119dd57806393710ba01461193f578063abc4f54114611794578063b1724b4614611775578063b6a6d17714611758578063c019f4fc146116e0578063df3bc5bc14611604578063eb13554f146115db578063ef89f4ec14610b92578063f2fde38b14610b09578063f7afe90214610a81578063fb6a984e1461093d578063fe3fbbad1461049c5763fe69d64f0361000e5761015d3661270f565b610168939293612e74565b8260005260206003815260406000209161018483541515613023565b60ff6007840154166005811015610486578060016101ab921490811561047b575b50613439565b60018301546001600160a01b0390811693906101c8338614613493565b6101e26101dd896101d885612f3b565b6135e5565b6134f3565b6101ed861515612a63565b8660005260048452806040600020981697886000528452604060002054956102286102216006850154600586015490612aef565b8092612acf565b95610234871515612d42565b610248610241838a612abc565b9288612abc565b90828211156103f057509061025c91612aef565b80931061039957917f231de38ea21ef32f910318d63ef4c885c1b8ddcd5471d0202363402718e8524d95939160409593826102be575b5050505b8560005260048152836000208760005281528184600020558351928352820152a36001600055005b610315916004916127106102d4600b5487612abc565b04946102e08682612aef565b956003840191878484541680156000146103445750506103039192503414612bec565b8061031f575b50505b01918254612aaf565b9055388080610292565b60008080809361033d95600c54165af1610337612cb5565b50612ba0565b3880610309565b610366925090610361916103583415612afc565b309033906138c8565b612b54565b80610374575b50505061030c565b826103919361038c93541690600c54169033906138c8565b612ba0565b38808061036c565b60405162461bcd60e51b815260048101859052602960248201527f44726970436f72653a20496e73756666696369656e74206164646974696f6e616044820152681b0819195c1bdcda5d60ba1b6064820152608490fd5b906040979550610424907f231de38ea21ef32f910318d63ef4c885c1b8ddcd5471d0202363402718e8524d99979593612aef565b908115158061046d575b61043c575b50505050610296565b61046493600384600461045f9601610455868254612aef565b905501541661377d565b6133ed565b38808080610433565b50816004840154101561042e565b6002915014386101a5565b634e487b7160e01b600052602160045260246000fd5b34610938576040366003190112610938576104b56126e3565b6104bd612e74565b600435600052600360205260406000206104d981541515613023565b60ff60078201541690600582101590816104865760018314801561092a575b61050190613439565b60018101546001600160a01b03169261051b338514613493565b61052b6101dd866101d885612f3b565b600435600052600460205260406000209460018060a01b03169485600052602052604060002054906005830154918242116000146109235761056d8342612aef565b8060043560005260096020526040600020549661048657600296876105c995148061090a575b6108e1575b8091116000146108d2576105b26105b8916105c393612aef565b83612abc565b936006860154612aef565b90612abc565b90808211156108c7576105db91612aef565b80935b811515806108b9575b610886575b505001805460001992918382018281116107a95761060990612cfc565b916000805b8281106108195750508251926001600160401b03841161080357600160401b8411610803576020918484558085106107e6575b500190600052602060002060005b8381106107c95750505050600435600052600460205260406000208360005260205260006040812055600435600052600560205260406000208360005260205260006040812055600435600052600660205260406000208360005260205260006040812055600860205260406000209160005b8354808210156107bf576106d68286612e16565b60043591549060031b1c146106f457506106ef90612982565b6106c2565b90828295939495019182116107a95761072161071361073a9385612e16565b90549060031b1c9184612e16565b90919082549060031b91821b91600019901b1916179055565b805480156107935782019161074f8383612e16565b909182549160031b1b19169055555b6040519081527fb51bb980431dfe4581b1edf9c4e611157fe2a030a3b50a89d30febe1c7f652e3602060043592a36001600055005b634e487b7160e01b600052603160045260246000fd5b634e487b7160e01b600052601160045260246000fd5b505050905061075e565b82516001600160a01b03168183015560209092019160010161064f565b6107fd908460005285846000209182019101612dc5565b87610641565b634e487b7160e01b600052604160045260246000fd5b876108248286612e16565b905460039190911b1c6001600160a01b03160361084a575b61084590612982565b61060e565b9061087e6108459161085c8487612e16565b905460039190911b1c6001600160a01b03166108788289612d2e565b52612982565b91905061083c565b6108b29161045f916004850161089d838254612aef565b905560038501546001600160a01b031661377d565b82856105ec565b5081600484015410156105e7565b5050600080936105de565b50506105c36105b860006105b2565b61090590600435600052600a6020526108ff60406000205442612aef565b90612aaf565b610598565b50600435600052600a6020526040600020541515610593565b600061056d565b5060009150600283146104f8565b600080fd5b34610938576020806003193601126109385760043590816000526003815260406000209061096d82541515613023565b600782019160ff835416600581101561048657600203610a3c57600101546109aa90336001600160a01b0391821614908115610a2e575b5061334c565b82600052600a815260406000205490816109f5575b5050805460ff1916600117905533907f0dbfa51df8b0b3b2d196641ff6e01b8ad3a3bfea169bbd41f321c0391a3e8973600080a3005b610a01600a9242612aef565b8460005260098252610a196040600020918254612aaf565b905583600052526000604081205582806109bf565b9050600154163314856109a4565b60405162461bcd60e51b815260048101839052601b60248201527f44726970436f72653a2053747265616d206e6f742070617573656400000000006044820152606490fd5b3461093857602080600319360112610938576001600160a01b03610aa36126f9565b1660005260088152604060002090604051908181845491828152019360005281600020916000905b828210610af257610aee85610ae281890382612c79565b604051918291826128be565b0390f35b835486529485019460019384019390910190610acb565b3461093857602036600319011261093857610b226126f9565b610b2a612956565b6001600160a01b03908116908115610b7957600154826001600160601b0360a01b821617600155167f8be0079c531659141344cd1fd0a4f28419497f9722a3daafe3b4186f6b6457e0600080a3005b604051631e4fbdf760e01b815260006004820152602490fd5b60e0366003190112610938576004356001600160401b03811161093857610bbd9036906004016128f9565b90610bc66126e3565b90604480356001600160401b03811161093857610be79036906004016128f9565b909360a4356001600160401b03811161093857610c08903690600401612929565b9060c4356001600160401b03811161093857610c28903690600401612929565b949096610c33612e74565b891561158557818a03611541576084359081156114fd57606497610e108935106114ba576312cc030089351161147757607886116114345761040088116113f1576000848c8e5b858185106112f757505050505050612710610c97600b5484612abc565b04610ca28184612aef565b926001600160a01b0388166112ad57610cbc903414612bec565b80611289575b509691965b8a610cd3600254612982565b9a8b998a600255610ce5863542612aaf565b9584610cf085612cfc565b809d6000915b8783106111a1575050505050505050604051610d1181612c5d565b8a8152336020820152604081018990526001600160a01b0387166060820152608081018390524260a082015260c08101849052600160e0820152610d56368787612d8e565b610100820152610d6736898c612d8e565b6101208201528a6000526003602052604060002090805182556001820160018060a01b036020830151166001600160601b0360a01b82541617905560408101518051906001600160401b03821161080357600160401b8211610803576020906002850154836002870155808410611181575b500160028401600052602060002060005b83811061116457505050506003820160018060a01b036060830151166001600160601b0360a01b8254161790556080810151600483015560a0810151600583015560c081015160068301556007820160e082015160058110156104865760ff8019835416911617905561010081015180516001600160401b038111610803576008840191610e788354612ddc565b601f8111611132575b50602090601f83116001146110c35761012094939291600091836110b8575b50508160011b916000199060031b1c19161790555b0151908151906001600160401b03821161080357600982910192610ed98454612ddc565b601f811161107b575b50602090601f831160011461100f57600092611004575b50508160011b916000199060031b1c19161790555b336000526007602052610f258a6040600020612e2e565b60005b8b8110610fc4575060208a8a817f99c2935b6c5640469c44ba48d835b891d4672bf2a5a6514f2467d743c26e5f78610f7a8d610fb48e610fa48f8f8f8f8f604051998a9960e08b5260e08b019061273d565b9460018060a01b03168f8a01526040890152426060890152608088015286830360a0880152612e53565b9083820360c08501523397612e53565b0390a36001600055604051908152f35b808c610fe3610fde610fff9460018060a01b039387612991565b6129b7565b166000526008602052610ffa8c6040600020612e2e565b612982565b610f28565b015190508e80610ef9565b9250836000526020600020906000935b601f1984168510611060576001945083601f19811610611047575b505050811b019055610f0e565b015160001960f88460031b161c191690558e808061103a565b8181015183556020948501946001909301929091019061101f565b6110a890856000526020600020601f850160051c810191602086106110ae575b601f0160051c0190612dc5565b8f610ee2565b909150819061109b565b015190503880610ea0565b908360005260206000209160005b601f198516811061111a5750918391600193610120979695601f19811610611101575b505050811b019055610eb5565b015160001960f88460031b161c191690553880806110f4565b919260206001819286850151815501940192016110d1565b61115e90846000526020600020601f850160051c810191602086106110ae57601f0160051c0190612dc5565b38610e81565b82516001600160a01b031681830155602090920191600101610dea565b61119b906002870160005284846000209182019101612dc5565b38610dd9565b6111bc836111b6610fde828c61128099612991565b92612d2e565b6001600160a01b0390911690526111df84356111d984888a612991565b35612acf565b906111eb821515612d42565b806000526020916004835260406000208a611211610fde878d60018060a01b0394612991565b1660005283526040600020558060005260058252604060002089611240610fde868c60018060a01b0394612991565b166000528252426040600020556000526006815260406000209060018060a01b0361126f610fde858b8d612991565b166000525260006040812055612982565b85908f8e610cf6565b60008080806112a79460018060a01b03600c54165af1610337612cb5565b8b610cc2565b506112b83415612afc565b6112c76103618430338b6138c8565b806112d6575b50969196610cc7565b600c546112f19161038c916001600160a01b0316338a6138c8565b8b6112cd565b6001600160a01b039361134e9361134693879361134191889061133990610fde9088906113328561132a8585858b612991565b1615156129cb565b3395612991565b161415612a17565b612991565b351515612a63565b600182018083116107a9578e5b85818310611378575050505061137090612982565b848c8e610c7a565b83611396610fde8561138f610fde8a888798612991565b958b612991565b169116146113ae576113a88f91612982565b9061135b565b60405162461bcd60e51b815260206004820152601d60248201527f44726970436f72653a204475706c696361746520726563697069656e74000000818601528c90fd5b88907f44726970436f72653a204465736372697074696f6e20746f6f206c6f6e6700006040519162461bcd60e51b835260206004840152601e6024840152820152fd5b88907f44726970436f72653a205469746c6520746f6f206c6f6e6700000000000000006040519162461bcd60e51b83526020600484015260186024840152820152fd5b88907f44726970436f72653a20506572696f6420746f6f206c6f6e67000000000000006040519162461bcd60e51b83526020600484015260196024840152820152fd5b88907f44726970436f72653a20506572696f6420746f6f2073686f72740000000000006040519162461bcd60e51b835260206004840152601a6024840152820152fd5b60405162461bcd60e51b815260206004820152601960248201527f44726970436f72653a20496e76616c6964206465706f73697400000000000000818a0152606490fd5b60405162461bcd60e51b815260206004820152601b60248201527f44726970436f72653a204d69736d61746368656420617272617973000000000081890152606490fd5b60405162461bcd60e51b815260206004820152602960248201527f44726970436f72653a204174206c65617374206f6e6520726563697069656e748189015268081c995c5d5a5c995960ba1b6064820152608490fd5b3461093857600036600319011261093857600c546040516001600160a01b039091168152602090f35b3461093857602080600319360112610938576001600160a01b036116266126f9565b16600052600781526040600020604051808284829454938481520190600052846000209260005b868282106116ca578461166281860382612c79565b61166c8151613595565b9160005b82518110156116bc57806116876116b79285612d2e565b516000526003835261169c6040600020612f3b565b6116a68287612d2e565b526116b18186612d2e565b50612982565b611670565b60405180610aee868261285c565b855484526001958601958795509301920161164d565b3461093857602080600319360112610938576001600160a01b036117026126f9565b1660005260078152604060002090604051908181845491828152019360005281600020916000905b82821061174157610aee85610ae281890382612c79565b83548652948501946001938401939091019061172a565b34610938576000366003190112610938576020604051610e108152f35b346109385760003660031901126109385760206040516312cc03008152f35b346109385760403660031901126109385761187f6004356117b36126e3565b906117bc613321565b5080600052602090600382526117d56040600020612f3b565b906117e282511515613023565b6117f46117ef85846135e5565b61306f565b60008181526005845260408082206001600160a01b038716808452908652912054909490928315611933575b5060008281526004808652604080832088845287528083205485845260068852818420898552885292819020549051630186ccd560e21b8152918201949094526001600160a01b03909216602483015290958490879081906044820190565b0381305afa938415611927576000946118f7575b60a09650604051956118a487612c42565b86528501526040840152606083015260808201526118f560405180926080809160018060a01b0381511684526020810151602085015260408101516040850152606081015160608501520151910152565bf35b80945086813d8311611920575b61190e8183612c79565b810103126109385760a0955193611893565b503d611904565b6040513d6000823e3d90fd5b60a00151925086611820565b3461093857602080600319360112610938576001600160a01b036119616126f9565b16600052600881526040600020604051808284829454938481520190600052846000209260005b868282106119c7578461199d81860382612c79565b6119a78151613595565b9160005b82518110156116bc57806116876119c29285612d2e565b6119ab565b8554845260019586019587955093019201611988565b34610938576000366003190112610938576001546040516001600160a01b039091168152602090f35b346109385760003660031901126109385760206040516104008152f35b3461093857602036600319011261093857611a3c61354a565b506004356000526003602052610aee611a586040600020612f3b565b611a6481511515613023565b6040519182916020835260208301906127ba565b3461093857606036600319011261093857600435611a946126e3565b604435611a9f612e74565b82600052602092600384526040600020611abb81541515613023565b600781019060ff8254166005811015610486576001611ada91146132d5565b611aea6117ef866101d884612f3b565b6001600160a01b038581169433869003611d3457604051630186ccd560e21b8152600481018690526001600160a01b0388166024820152908882604481305afa91821561192757600092611d05575b508115611cc05780611c67575090611b99919687915b8660005260068a526040600020886000528a526040600020611b72848254612aaf565b90558660005260058a526040600020886000528a524260406000205560038501541661377d565b15611c22576004611baa428561363a565b9101541115611beb575b507fb8794a93ad70d58bd94788f8523cd8ebcff47f5541f8816ade60c636f1b5782784604051858152a36001600055604051908152f35b805460ff19166004179055807f9f42d6cda766c435d861d2ff395b3e17ade9bf57cf770549b62662947ff15b4a600080a284611bb4565b60405162461bcd60e51b815260048101879052601960248201527f44726970436f72653a205472616e73666572206661696c6564000000000000006044820152606490fd5b908111611c7b5790611b9991968791611b4f565b60405162461bcd60e51b815260048101899052601e60248201527f44726970436f72653a20496e73756666696369656e742062616c616e636500006044820152606490fd5b60405162461bcd60e51b8152600481018a9052601e60248201527f44726970436f72653a204e6f2062616c616e636520617661696c61626c6500006044820152606490fd5b9091508881813d8311611d2d575b611d1d8183612c79565b8101031261093857519089611b39565b503d611d13565b60405162461bcd60e51b815260048101899052602560248201527f44726970436f72653a204f6e6c7920726563697069656e742063616e20776974604482015264686472617760d81b6064820152608490fd5b34610938576020366003190112610938576004358060005260036020526040600020611db581541515613023565b600781019060ff825416600581101561048657611df491611dd960018093146132d5565b818060a01b039182910154163314908115611e38575061334c565b81600052600a60205242604060002055600260ff1982541617905533907fff71f52d9d3ad4ae0959691a14ef1d1478d482ca10ac8be29c8e7d88cf3baba6600080a3005b9050600154163314846109a4565b3461093857600036600319011261093857611e5f612956565b600180546001600160a01b031981169091556000906001600160a01b03167f8be0079c531659141344cd1fd0a4f28419497f9722a3daafe3b4186f6b6457e08280a3005b3461093857602036600319011261093857600435611ebf612e74565b806000526003602052604060002090611eda82541515613023565b6007820180549260ff841660058110156104865760018114908115612046575b5015611ff55760018101546003946001600160a01b039390918416906000903383148015611fe8575b611f2c9061334c565b611f36428861363a565b9060048601918254908082118514611fdd57611f5191612aef565b9889955b60ff19161790555581611f98575b50836040519182527ffeed183d9f143664e4ca27ca57080be96d765ab4bff9d02e3bb0a9b04e149c2560203393a36001600055005b611fbf93600361045f940154168015600014611fc857611fba83471015613391565b61377d565b82808381611f63565b611fba83611fd630846139f3565b1015613391565b505082988995611f55565b5060015486163314611f23565b60405162461bcd60e51b8152602060048201526024808201527f44726970436f72653a2053747265616d2063616e6e6f742062652063616e63656044820152631b1b195960e21b6064820152608490fd5b600291501485611efa565b3461093857602036600319011261093857602061207661206f6126f9565b30906139f3565b604051908152f35b34610938576020806003193601126109385760043590816000526003815260406120aa81600020612f3b565b6120b681511515613023565b01805151926120c484612ce5565b936120d26040519586612c79565b8085526120e1601f1991612ce5565b018360005b82811061226e5750505060005b825180518210156121f4576001600160a01b03919061214e908390612119908490612d2e565b5160405163abc4f54160e01b81526004810187905291166001600160a01b0316602482015260a0918290829081906044820190565b0381305afa91821561192757600092612183575b505061217e92506121738288612d2e565b526116b18187612d2e565b6120f3565b90809250813d83116121ed575b61219a8183612c79565b8101031261093857604051906121af82612c42565b805193841684036109385761217e93825286810151878301526040810151604083015260608082015190830152608080910151908201528780612162565b503d612190565b604080518681528751818801819052888801928201908860005b82811061221b5784840385f35b9091928260a08261225f6001948a516080809160018060a01b0381511684526020810151602085015260408101516040850152606081015160608501520151910152565b0196019101949291909461220e565b612276613321565b8282890101520184906120e6565b34610938576000366003190112610938576020600b54604051908152f35b3461093857600036600319011261093857602060405160788152f35b34610938576020366003190112610938576122d76126f9565b6122df612956565b6001600160a01b03166122f38115156129cb565b6001600160601b0360a01b600c541617600c55600080f35b3461093857602036600319011261093857600435612327612956565b6103e8811161233557600b55005b60405162461bcd60e51b8152602060048201526016602482015275088e4d2e086dee4ca74408ccaca40e8dede40d0d2ced60531b6044820152606490fd5b61237c3661270f565b9290612386612e74565b81600052600393602085815260406000206123a381541515613023565b60ff600782015416966005881015610486576123cb6001988981149081156126b25750613439565b878201546001600160a01b03906123e59082163314613493565b612417818916986123f78a15156129cb565b612403338b1415612a17565b61240e881515612a63565b6101d885612f3b565b61266257600260068401549361243c6124366005830196875490612aef565b89612acf565b96612448881515612d42565b806125a5575b50019081548a81018082116107a95761246690612cfc565b9360005b8281106125805750508961247e8286612d2e565b528351936001600160401b03851161080357600160401b8511610803578691858555808610612563575b50019160005284600020908a60005b85811061254f57508a8a7f3f2b5459ddef627ba573bf65311b87b001dcabeb90971ab276a691445e0913c960408c8c8c8c866000526004825284600020886000528252828560002055548660005260058252846000208860005282528460002055856000526006815283600020876000528152600084812055600881526125418685600020612e2e565b8351928352820152a3600055005b878386511695019481850155018b906124b7565b61257a908560005286846000209182019101612dc5565b8c6124a8565b808461258f6125a09388612e16565b905490851b1c166108788289612d2e565b61246a565b836127106125b5600b5484612abc565b046125c08184612aef565b928785018484825416801560001461261f575050506125e29192503414612bec565b80612601575b505b6125f960048301918254612aaf565b90558b61244e565b60008080806126199489600c54165af1610337612cb5565b8c6125e8565b6126359294935090610361916103583415612afc565b80612643575b5050506125ea565b61265a9261038c92541687600c54169033906138c8565b838d8061263b565b60405162461bcd60e51b815260048101859052602260248201527f44726970436f72653a20526563697069656e7420616c72656164792065786973604482015261747360f01b6064820152608490fd5b60029150148a6101a5565b346109385760403660031901126109385760206120766126db6126e3565b6004356130bb565b602435906001600160a01b038216820361093857565b600435906001600160a01b038216820361093857565b608090600319011261093857600435906024356001600160a01b038116810361093857906044359060643590565b90815180825260208080930193019160005b82811061275d575050505090565b83516001600160a01b03168552938101939281019260010161274f565b919082519283825260005b8481106127a6575050826000602080949584010152601f8019910116010190565b602081830181015184830182015201612785565b908151815260018060a01b03918260208201511660208301526127ec604082015161014080604086015284019061273d565b9260608201511660608301526080810151608083015260a081015160a083015260c081015160c083015260e0810151600581101561048657612859936128459160e085015261010080840151908583039086015261277a565b91610120809201519181840391015261277a565b90565b602080820190808352835180925260408301928160408460051b8301019501936000915b8483106128905750505050505090565b90919293949584806128ae600193603f198682030187528a516127ba565b9801930193019194939290612880565b6020908160408183019282815285518094520193019160005b8281106128e5575050505090565b8351855293810193928101926001016128d7565b9181601f84011215610938578235916001600160401b038311610938576020808501948460051b01011161093857565b9181601f84011215610938578235916001600160401b038311610938576020838186019501011161093857565b6001546001600160a01b0316330361296a57565b60405163118cdaa760e01b8152336004820152602490fd5b60001981146107a95760010190565b91908110156129a15760051b0190565b634e487b7160e01b600052603260045260246000fd5b356001600160a01b03811681036109385790565b156129d257565b60405162461bcd60e51b815260206004820152601b60248201527f44726970436f72653a20496e76616c696420726563697069656e7400000000006044820152606490fd5b15612a1e57565b60405162461bcd60e51b815260206004820152601f60248201527f44726970436f72653a2043616e6e6f742073747265616d20746f2073656c66006044820152606490fd5b15612a6a57565b60405162461bcd60e51b815260206004820152601860248201527f44726970436f72653a20496e76616c696420616d6f756e7400000000000000006044820152606490fd5b919082018092116107a957565b818102929181159184041417156107a957565b8115612ad9570490565b634e487b7160e01b600052601260045260246000fd5b919082039182116107a957565b15612b0357565b60405162461bcd60e51b815260206004820152602360248201527f44726970436f72653a204e617469766520746f6b656e206e6f742065787065636044820152621d195960ea1b6064820152608490fd5b15612b5b57565b60405162461bcd60e51b815260206004820152601f60248201527f44726970436f72653a20546f6b656e207472616e73666572206661696c6564006044820152606490fd5b15612ba757565b60405162461bcd60e51b815260206004820152601d60248201527f44726970436f72653a20466565207472616e73666572206661696c65640000006044820152606490fd5b15612bf357565b60405162461bcd60e51b815260206004820152602160248201527f44726970436f72653a20496e636f7272656374206e617469766520616d6f756e6044820152601d60fa1b6064820152608490fd5b60a081019081106001600160401b0382111761080357604052565b61014081019081106001600160401b0382111761080357604052565b90601f801991011681019081106001600160401b0382111761080357604052565b6001600160401b03811161080357601f01601f191660200190565b3d15612ce0573d90612cc682612c9a565b91612cd46040519384612c79565b82523d6000602084013e565b606090565b6001600160401b0381116108035760051b60200190565b90612d0682612ce5565b612d136040519182612c79565b8281528092612d24601f1991612ce5565b0190602036910137565b80518210156129a15760209160051b010190565b15612d4957565b60405162461bcd60e51b815260206004820152601860248201527f44726970436f72653a205261746520746f6f20736d616c6c00000000000000006044820152606490fd5b929192612d9a82612c9a565b91612da86040519384612c79565b829481845281830111610938578281602093846000960137010152565b818110612dd0575050565b60008155600101612dc5565b90600182811c92168015612e0c575b6020831014612df657565b634e487b7160e01b600052602260045260246000fd5b91607f1691612deb565b80548210156129a15760005260206000200190600090565b90815491600160401b8310156108035782610721916001612e5195018155612e16565b565b908060209392818452848401376000828201840152601f01601f1916010190565b600260005414612e85576002600055565b604051633ee5aeb560e01b8152600490fd5b9060405191826000825492612eab84612ddc565b908184526001948581169081600014612f185750600114612ed5575b5050612e5192500383612c79565b9093915060005260209081600020936000915b818310612f00575050612e5193508201013880612ec7565b85548884018501529485019487945091830191612ee8565b915050612e5194506020925060ff191682840152151560051b8201013880612ec7565b90604051612f4881612c5d565b80928054825260018060a01b0360018181840154166020908186015260028401604051918293849382845491828152019360005282600020926000905b82821061300957505050505090612f9d910382612c79565b6040840152600382015416606083015260048101546080830152600581015460a0830152600681015460c083015260ff600782015416906005821015610486576009613004916101209360e0860152612ff860088201612e97565b61010086015201612e97565b910152565b845489168652879650948501949383019390830190612f85565b1561302a57565b60405162461bcd60e51b815260206004820152601f60248201527f44726970436f72653a2053747265616d20646f6573206e6f74206578697374006044820152606490fd5b1561307657565b60405162461bcd60e51b815260206004820152601960248201527f44726970436f72653a204e6f74206120726563697069656e74000000000000006044820152606490fd5b906000908282526020906003825260406130d6818520612f3b565b926130e384511515613023565b6130f06117ef84866135e5565b60e0840191825160058110156132315760011415806132c0575b6132b657868652600482528086206001600160a01b03909416808752938252808620549384156132ab578787526005835281872090875282528086205492831561329f575b87875260098352818720548151600581101561328b5760021480613278575b613259575b50834211600014613245576131888442612aef565b93888852600a84528288205411908161321a575b50926131d592608095926131dd9560001461321257600a6131c4928b8b525288205442612aef565b80821115613209576105c391612aef565b94429061363a565b91015181811115613202576131f29250612aef565b8082116131fd575090565b905090565b50506131f2565b50508590612abc565b505090612abc565b9050516005811015613231576002146131d561319c565b634e487b7160e01b87526021600452602487fd5b505050506131dd6131d56080928590612abc565b61327190898952600a85526108ff848a205442612aef565b5038613173565b50888852600a845282882054151561316e565b634e487b7160e01b89526021600452602489fd5b60a0860151935061314f565b505050505050905090565b5050505050905090565b5082516005811015613231576002141561310a565b156132dc57565b60405162461bcd60e51b815260206004820152601b60248201527f44726970436f72653a2053747265616d206e6f742061637469766500000000006044820152606490fd5b6040519061332e82612c42565b60006080838281528260208201528260408201528260608201520152565b1561335357565b60405162461bcd60e51b8152602060048201526016602482015275111c9a5c10dbdc994e88155b985d5d1a1bdc9a5e995960521b6044820152606490fd5b1561339857565b60405162461bcd60e51b815260206004820152602760248201527f44726970436f72653a20496e73756666696369656e7420636f6e74726163742060448201526662616c616e636560c81b6064820152608490fd5b156133f457565b60405162461bcd60e51b815260206004820152601760248201527f44726970436f72653a20526566756e64206661696c65640000000000000000006044820152606490fd5b1561344057565b60405162461bcd60e51b815260206004820152602560248201527f44726970436f72653a2053747265616d206e6f7420616374697665206f722070604482015264185d5cd95960da1b6064820152608490fd5b1561349a57565b60405162461bcd60e51b815260206004820152602b60248201527f44726970436f72653a204f6e6c792073656e6465722063616e206d6f6469667960448201526a20726563697069656e747360a81b6064820152608490fd5b156134fa57565b60405162461bcd60e51b815260206004820152602260248201527f44726970436f72653a20526563697069656e7420646f6573206e6f74206578696044820152611cdd60f21b6064820152608490fd5b6040519061355782612c5d565b606061012083600080825280602083015283604083015280848301528060808301528060a08301528060c083015260e0820152826101008201520152565b9061359f82612ce5565b6135ac6040519182612c79565b82815280926135bd601f1991612ce5565b019060005b8281106135ce57505050565b6020906135d961354a565b828285010152016135c2565b9060005b60408301518051821015613631576001600160a01b0390819061360d908490612d2e565b51169083161461362957613622604091612982565b90506135e9565b505050600190565b50505050600090565b9091600082815260209360038552604094613656868420612f3b565b9485511561375b578395949295928495888101945b8551518810156136b4576136a86136ae91858952600487528b892060018060a01b036136988c8b51612d2e565b51168a5287528b89205490612aaf565b97612982565b9661366b565b96509692909791935083855260098152818520549360e08801516005811015613231579160809795939160026137159896941480613748575b613723575b50505060a087015161370391612aef565b81811115613212576105c39250612aef565b9101518082116131fd575090565b61373f92600a6137039596936108ff9389525286205485612aef565b919038806136f2565b50808652600a82528286205415156136ed565b5050509150915090565b90816020910312610938575180151581036109385790565b600092839290916001600160a01b0390811680613802575050829350829182915af16137a7612cb5565b5080156137b15790565b60405162461bcd60e51b815260206004820152602360248201527f546f6b656e48656c7065723a204e6174697665207472616e73666572206661696044820152621b195960ea1b6064820152608490fd5b60209285604492604051968795869463a9059cbb60e01b865216600485015260248401525af19182156138bc579161388e575b501561383e5790565b60405162461bcd60e51b815260206004820152602260248201527f546f6b656e48656c7065723a204552433230207472616e73666572206661696c604482015261195960f21b6064820152608490fd5b6138af915060203d81116138b5575b6138a78183612c79565b810190613765565b38613835565b503d61389d565b604051903d90823e3d90fd5b9192916001600160a01b03919082169081156139985760006064926020958560405198899788966323b872dd60e01b885216600487015216602485015260448401525af19081156119275760009161397a575b501561392657600190565b60405162461bcd60e51b815260206004820152602660248201527f546f6b656e48656c7065723a204552433230207472616e7366657246726f6d2060448201526519985a5b195960d21b6064820152608490fd5b613992915060203d81116138b5576138a78183612c79565b3861391b565b60405162461bcd60e51b815260206004820152602d60248201527f546f6b656e48656c7065723a2043616e6e6f74207472616e7366657246726f6d60448201526c103730ba34bb32903a37b5b2b760991b6064820152608490fd5b6001600160a01b039081169081613a0a5750503190565b6040516370a0823160e01b815292166004830152602090829060249082905afa90811561192757600091613a3c575090565b906020823d8211613a65575b81613a5560209383612c79565b81010312613a6257505190565b80fd5b3d9150613a4856fea264697066735822122012981a0f4928e1909f2865d75028b955db34c88d8d766a4f05d204e05b47b39f64736f6c63430008140033",
  "linkReferences": {},
  "deployedLinkReferences": {}
}